{
  "contracts/ConfidentialMultipartyRegisteredEDeliveryWithoutTTP.sol": {
    "ConfidentialMultipartyRegisteredEDeliveryWithoutTTP": {
      "abi": [
        {
          "inputs": [],
          "stateMutability": "nonpayable",
          "type": "constructor"
        },
        {
          "inputs": [],
          "name": "A",
          "outputs": [
            {
              "internalType": "string",
              "name": "",
              "type": "string"
            }
          ],
          "stateMutability": "view",
          "type": "function"
        },
        {
          "inputs": [],
          "name": "AA",
          "outputs": [
            {
              "internalType": "uint256",
              "name": "",
              "type": "uint256"
            }
          ],
          "stateMutability": "view",
          "type": "function"
        },
        {
          "inputs": [],
          "name": "BB",
          "outputs": [
            {
              "internalType": "uint256",
              "name": "",
              "type": "uint256"
            }
          ],
          "stateMutability": "view",
          "type": "function"
        },
        {
          "inputs": [],
          "name": "GX",
          "outputs": [
            {
              "internalType": "uint256",
              "name": "",
              "type": "uint256"
            }
          ],
          "stateMutability": "view",
          "type": "function"
        },
        {
          "inputs": [],
          "name": "GY",
          "outputs": [
            {
              "internalType": "uint256",
              "name": "",
              "type": "uint256"
            }
          ],
          "stateMutability": "view",
          "type": "function"
        },
        {
          "inputs": [],
          "name": "PP",
          "outputs": [
            {
              "internalType": "uint256",
              "name": "",
              "type": "uint256"
            }
          ],
          "stateMutability": "view",
          "type": "function"
        },
        {
          "inputs": [],
          "name": "a",
          "outputs": [
            {
              "internalType": "uint256",
              "name": "",
              "type": "uint256"
            }
          ],
          "stateMutability": "view",
          "type": "function"
        },
        {
          "inputs": [
            {
              "internalType": "string",
              "name": "_z1",
              "type": "string"
            },
            {
              "internalType": "bytes",
              "name": "_z2",
              "type": "bytes"
            },
            {
              "internalType": "uint256",
              "name": "_bx",
              "type": "uint256"
            },
            {
              "internalType": "uint256",
              "name": "_by",
              "type": "uint256"
            },
            {
              "internalType": "uint256",
              "name": "_c",
              "type": "uint256"
            }
          ],
          "name": "accept",
          "outputs": [],
          "stateMutability": "nonpayable",
          "type": "function"
        },
        {
          "inputs": [],
          "name": "cancel",
          "outputs": [],
          "stateMutability": "nonpayable",
          "type": "function"
        },
        {
          "inputs": [
            {
              "internalType": "address",
              "name": "_receiver",
              "type": "address"
            },
            {
              "internalType": "uint256",
              "name": "_r",
              "type": "uint256"
            }
          ],
          "name": "finish",
          "outputs": [],
          "stateMutability": "nonpayable",
          "type": "function"
        },
        {
          "inputs": [
            {
              "internalType": "address",
              "name": "_receiver",
              "type": "address"
            }
          ],
          "name": "getR",
          "outputs": [
            {
              "internalType": "uint256",
              "name": "",
              "type": "uint256"
            }
          ],
          "stateMutability": "view",
          "type": "function"
        },
        {
          "inputs": [
            {
              "internalType": "address",
              "name": "_receiver",
              "type": "address"
            }
          ],
          "name": "getState",
          "outputs": [
            {
              "internalType": "string",
              "name": "",
              "type": "string"
            }
          ],
          "stateMutability": "view",
          "type": "function"
        },
        {
          "inputs": [],
          "name": "hashIPFS",
          "outputs": [
            {
              "internalType": "string",
              "name": "",
              "type": "string"
            }
          ],
          "stateMutability": "view",
          "type": "function"
        },
        {
          "inputs": [
            {
              "internalType": "address",
              "name": "_sender",
              "type": "address"
            },
            {
              "internalType": "address[]",
              "name": "_receivers",
              "type": "address[]"
            },
            {
              "internalType": "uint256",
              "name": "_vx",
              "type": "uint256"
            },
            {
              "internalType": "uint256",
              "name": "_vy",
              "type": "uint256"
            },
            {
              "internalType": "string",
              "name": "_hashIPFS",
              "type": "string"
            },
            {
              "internalType": "string",
              "name": "_A",
              "type": "string"
            },
            {
              "internalType": "uint256",
              "name": "_term1",
              "type": "uint256"
            },
            {
              "internalType": "uint256",
              "name": "_term2",
              "type": "uint256"
            }
          ],
          "name": "initialize",
          "outputs": [],
          "stateMutability": "payable",
          "type": "function"
        },
        {
          "inputs": [],
          "name": "isBase",
          "outputs": [
            {
              "internalType": "bool",
              "name": "",
              "type": "bool"
            }
          ],
          "stateMutability": "view",
          "type": "function"
        },
        {
          "inputs": [
            {
              "internalType": "uint256",
              "name": "",
              "type": "uint256"
            }
          ],
          "name": "receivers",
          "outputs": [
            {
              "internalType": "address",
              "name": "",
              "type": "address"
            }
          ],
          "stateMutability": "view",
          "type": "function"
        },
        {
          "inputs": [
            {
              "internalType": "address",
              "name": "",
              "type": "address"
            }
          ],
          "name": "receiversState",
          "outputs": [
            {
              "internalType": "string",
              "name": "z1",
              "type": "string"
            },
            {
              "internalType": "bytes",
              "name": "z2",
              "type": "bytes"
            },
            {
              "internalType": "uint256",
              "name": "bx",
              "type": "uint256"
            },
            {
              "internalType": "uint256",
              "name": "by",
              "type": "uint256"
            },
            {
              "internalType": "uint256",
              "name": "c",
              "type": "uint256"
            },
            {
              "internalType": "uint256",
              "name": "r",
              "type": "uint256"
            },
            {
              "internalType": "enum ConfidentialMultipartyRegisteredEDeliveryWithoutTTP.State",
              "name": "state",
              "type": "uint8"
            }
          ],
          "stateMutability": "view",
          "type": "function"
        },
        {
          "inputs": [],
          "name": "sender",
          "outputs": [
            {
              "internalType": "address",
              "name": "",
              "type": "address"
            }
          ],
          "stateMutability": "view",
          "type": "function"
        },
        {
          "inputs": [],
          "name": "start",
          "outputs": [
            {
              "internalType": "uint256",
              "name": "",
              "type": "uint256"
            }
          ],
          "stateMutability": "view",
          "type": "function"
        },
        {
          "inputs": [],
          "name": "term1",
          "outputs": [
            {
              "internalType": "uint256",
              "name": "",
              "type": "uint256"
            }
          ],
          "stateMutability": "view",
          "type": "function"
        },
        {
          "inputs": [],
          "name": "term2",
          "outputs": [
            {
              "internalType": "uint256",
              "name": "",
              "type": "uint256"
            }
          ],
          "stateMutability": "view",
          "type": "function"
        },
        {
          "inputs": [],
          "name": "vx",
          "outputs": [
            {
              "internalType": "uint256",
              "name": "",
              "type": "uint256"
            }
          ],
          "stateMutability": "view",
          "type": "function"
        },
        {
          "inputs": [],
          "name": "vy",
          "outputs": [
            {
              "internalType": "uint256",
              "name": "",
              "type": "uint256"
            }
          ],
          "stateMutability": "view",
          "type": "function"
        }
      ],
      "devdoc": {
        "methods": {}
      },
      "evm": {
        "bytecode": {
          "linkReferences": {},
          "object": "608060405234801561001057600080fd5b50600b805460ff19166001179055611d6b8061002d6000396000f3fe6080604052600436106101405760003560e01c80637a308a4c116100b6578063bfd772fc1161006f578063bfd772fc14610692578063cd12a4b0146106bc578063ea8a1af0146106d1578063eeeac01e146106e6578063f446c1d0146106fb578063ff7edf421461071057610140565b80637a308a4c1461045d5780637f80069a14610472578063872b22231461049b578063997da8d41461016c578063a1cbf5f914610668578063be9a65551461067d57610140565b80634c87c67d116101085780634c87c67d146102795780634e8c0bd61461028e5780635727dc5c146102a357806357dc3742146102b85780636349ca37146103f957806367e404ce1461042c57610140565b806303a507be146101455780630dbe671f1461016c5780631bab58f51461018157806329008824146102295780633b4a082814610264575b600080fd5b34801561015157600080fd5b5061015a610852565b60408051918252519081900360200190f35b34801561017857600080fd5b5061015a610876565b34801561018d57600080fd5b506101b4600480360360208110156101a457600080fd5b50356001600160a01b031661087b565b6040805160208082528351818301528351919283929083019185019080838360005b838110156101ee5781810151838201526020016101d6565b50505050905090810190601f16801561021b5780820380516001836020036101000a031916815260200191505b509250505060405180910390f35b34801561023557600080fd5b506102626004803603604081101561024c57600080fd5b506001600160a01b038135169060200135610a8a565b005b34801561027057600080fd5b5061015a610e49565b34801561028557600080fd5b5061015a610e4f565b34801561029a57600080fd5b5061015a610e55565b3480156102af57600080fd5b5061015a610e5b565b3480156102c457600080fd5b50610262600480360360a08110156102db57600080fd5b810190602081018135600160201b8111156102f557600080fd5b82018360208201111561030757600080fd5b803590602001918460018302840111600160201b8311171561032857600080fd5b91908080601f0160208091040260200160405190810160405280939291908181526020018383808284376000920191909152509295949360208101935035915050600160201b81111561037a57600080fd5b82018360208201111561038c57600080fd5b803590602001918460018302840111600160201b831117156103ad57600080fd5b91908080601f0160208091040260200160405190810160405280939291908181526020018383808284376000920191909152509295505082359350505060208101359060400135610e60565b34801561040557600080fd5b5061015a6004803603602081101561041c57600080fd5b50356001600160a01b0316610f8f565b34801561043857600080fd5b50610441610fad565b604080516001600160a01b039092168252519081900360200190f35b34801561046957600080fd5b5061015a610fbc565b34801561047e57600080fd5b50610487610fe0565b604080519115158252519081900360200190f35b61026260048036036101008110156104b257600080fd5b6001600160a01b038235169190810190604081016020820135600160201b8111156104dc57600080fd5b8201836020820111156104ee57600080fd5b803590602001918460208302840111600160201b8311171561050f57600080fd5b9190808060200260200160405190810160405280939291908181526020018383602002808284376000920191909152509295843595602086013595919450925060608101915060400135600160201b81111561056a57600080fd5b82018360208201111561057c57600080fd5b803590602001918460018302840111600160201b8311171561059d57600080fd5b91908080601f0160208091040260200160405190810160405280939291908181526020018383808284376000920191909152509295949360208101935035915050600160201b8111156105ef57600080fd5b82018360208201111561060157600080fd5b803590602001918460018302840111600160201b8311171561062257600080fd5b91908080601f0160208091040260200160405190810160405280939291908181526020018383808284376000920191909152509295505082359350505060200135610fe9565b34801561067457600080fd5b506101b461114a565b34801561068957600080fd5b5061015a6111d8565b34801561069e57600080fd5b50610441600480360360208110156106b557600080fd5b50356111de565b3480156106c857600080fd5b5061015a611205565b3480156106dd57600080fd5b5061026261120b565b3480156106f257600080fd5b5061015a6112d1565b34801561070757600080fd5b506101b46112db565b34801561071c57600080fd5b506107436004803603602081101561073357600080fd5b50356001600160a01b0316611336565b60405180806020018060200188815260200187815260200186815260200185815260200184600581111561077357fe5b60ff16815260200183810383528a818151815260200191508051906020019080838360005b838110156107b0578181015183820152602001610798565b50505050905090810190601f1680156107dd5780820380516001836020036101000a031916815260200191505b5083810382528951815289516020918201918b019080838360005b838110156108105781810151838201526020016107f8565b50505050905090810190601f16801561083d5780820380516001836020036101000a031916815260200191505b50995050505050505050505060405180910390f35b7f79be667ef9dcbbac55a06295ce870b07029bfcdb2dce28d959f2815b16f8179881565b600081565b606060006001600160a01b03831660009081526002602052604090206006015460ff1660058111156108a957fe5b14156108d6575060408051808201909152600a8152696e6f742065786973747360b01b6020820152610a85565b60016001600160a01b03831660009081526002602052604090206006015460ff16600581111561090257fe5b141561092c575060408051808201909152600781526618dc99585d195960ca1b6020820152610a85565b60026001600160a01b03831660009081526002602052604090206006015460ff16600581111561095857fe5b1415610984575060408051808201909152600981526818d85b98d95b1b195960ba1b6020820152610a85565b60036001600160a01b03831660009081526002602052604090206006015460ff1660058111156109b057fe5b14156109db57506040805180820190915260088152671858d8d95c1d195960c21b6020820152610a85565b60046001600160a01b03831660009081526002602052604090206006015460ff166005811115610a0757fe5b1415610a325750604080518082019091526008815267199a5b9a5cda195960c21b6020820152610a85565b60056001600160a01b03831660009081526002602052604090206006015460ff166005811115610a5e57fe5b1415610a8557506040805180820190915260088152671c995a9958dd195960c21b60208201525b919050565b600080600080600080600854600a540142101580610aac575060015460035410155b610ae75760405162461bcd60e51b815260040180806020018281038252605c815260200180611c3a605c913960600191505060405180910390fd5b6000546001600160a01b03163314610b305760405162461bcd60e51b8152600401808060200182810382526026815260200180611bc56026913960400191505060405180910390fd5b610b8a877f79be667ef9dcbbac55a06295ce870b07029bfcdb2dce28d959f2815b16f817987f483ada7726a3c4655da4fbfc0e1108a8fd17b448a68554199c47d08ffb10d4b860006401000003d01963ffffffff61149116565b6001600160a01b038a1660009081526002602081905260408220908101546003820154600490920154949a50929850610bd19392916401000003d01963ffffffff61149116565b9094509250610bf18686868660006401000003d01963ffffffff6114cb16565b6004549193509150821415610c375760405162461bcd60e51b8152600401808060200182810382526023815260200180611cb86023913960400191505060405180910390fd5b806005541415610c785760405162461bcd60e51b8152600401808060200182810382526023815260200180611cb86023913960400191505060405180910390fd5b60405133904780156108fc02916000818181858888f19350505050158015610ca4573d6000803e3d6000fd5b5060005b600154811015610e3e57876002600060018481548110610cc457fe5b60009182526020808320909101546001600160a01b0316835282019290925260400190206005015560036002600060018481548110610cff57fe5b60009182526020808320909101546001600160a01b0316835282019290925260400190206006015460ff166005811115610d3557fe5b1415610d935760046002600060018481548110610d4e57fe5b60009182526020808320909101546001600160a01b031683528201929092526040019020600601805460ff19166001836005811115610d8957fe5b0217905550610e36565b60016002600060018481548110610da657fe5b60009182526020808320909101546001600160a01b0316835282019290925260400190206006015460ff166005811115610ddc57fe5b1415610e365760056002600060018481548110610df557fe5b60009182526020808320909101546001600160a01b031683528201929092526040019020600601805460ff19166001836005811115610e3057fe5b02179055505b600101610ca8565b505050505050505050565b60095481565b60085481565b60045481565b600781565b600854600a54014210610ea45760405162461bcd60e51b8152600401808060200182810382526022815260200180611c966022913960400191505060405180910390fd5b60013360009081526002602052604090206006015460ff166005811115610ec757fe5b14610f035760405162461bcd60e51b815260040180806020018281038252602e815260200180611d08602e913960400191505060405180910390fd5b6003805460010190553360009081526002602090815260409091208651610f2c92880190611a57565b503360009081526002602090815260409091208551610f5392600190920191870190611a57565b503360009081526002602081905260409091209081019390935560038084019290925560048301556006909101805460ff191690911790555050565b6001600160a01b031660009081526002602052604090206005015490565b6000546001600160a01b031681565b7f483ada7726a3c4655da4fbfc0e1108a8fd17b448a68554199c47d08ffb10d4b881565b600b5460ff1681565b600034116110285760405162461bcd60e51b815260040180806020018281038252602d815260200180611cdb602d913960400191505060405180910390fd5b8082106110665760405162461bcd60e51b8152600401808060200182810382526029815260200180611beb6029913960400191505060405180910390fd5b600080546001600160a01b0319166001600160a01b038a1617905586516110949060019060208a0190611ad5565b5060005b6001548110156110fd57600160026000600184815481106110b557fe5b60009182526020808320909101546001600160a01b031683528201929092526040019020600601805460ff191660018360058111156110f057fe5b0217905550600101611098565b506000600355600486905560058590558351611120906006906020870190611a57565b508251611134906007906020860190611a57565b5042600a55600891909155600955505050505050565b6006805460408051602060026001851615610100026000190190941693909304601f810184900484028201840190925281815292918301828280156111d05780601f106111a5576101008083540402835291602001916111d0565b820191906000526020600020905b8154815290600101906020018083116111b357829003601f168201915b505050505081565b600a5481565b600181815481106111eb57fe5b6000918252602090912001546001600160a01b0316905081565b60055481565b600954600a54014210156112505760405162461bcd60e51b8152600401808060200182810382526026815260200180611c146026913960400191505060405180910390fd5b60033360009081526002602052604090206006015460ff16600581111561127357fe5b146112af5760405162461bcd60e51b815260040180806020018281038252602f815260200180611b96602f913960400191505060405180910390fd5b336000908152600260208190526040909120600601805460ff19169091179055565b6401000003d01981565b6007805460408051602060026001851615610100026000190190941693909304601f810184900484028201840190925281815292918301828280156111d05780601f106111a5576101008083540402835291602001916111d0565b600260208181526000928352604092839020805484516001821615610100026000190190911693909304601f81018390048302840183019094528383529283918301828280156113c75780601f1061139c576101008083540402835291602001916113c7565b820191906000526020600020905b8154815290600101906020018083116113aa57829003601f168201915b505050505090806001018054600181600116156101000203166002900480601f0160208091040260200160405190810160405280929190818152602001828054600181600116156101000203166002900480156114655780601f1061143a57610100808354040283529160200191611465565b820191906000526020600020905b81548152906001019060200180831161144857829003601f168201915b505050600284015460038501546004860154600587015460069097015495969295919450925060ff1687565b60008060008060006114a88a8a8a60018b8b61154a565b9250925092506114ba838383896115c1565b945094505050509550959350505050565b6000808080808a8914156115125785806114e157fe5b888b086114f857506000935083925061153f915050565b6115068b8b60018a8a611618565b9194509250905061152b565b6115238b8b60018c8c60018c61172e565b919450925090505b611537838383896115c1565b945094505050505b965096945050505050565b60008080886115605750869150859050846115b5565b8860008060015b83156115ac57600184161561158d576115858383838f8f8f8e61172e565b919450925090505b6002840493506115a08c8c8c8c8c611618565b919d509b509950611567565b91955093509150505b96509650969350505050565b60008060006115d085856119ab565b9050600084806115dc57fe5b8283099050600085806115eb57fe5b828a099050600086806115fa57fe5b878061160257fe5b8486098a09919a91995090975050505050505050565b600080808561162e575086915085905084611723565b6000848061163857fe5b898a0990506000858061164757fe5b898a0990506000868061165657fe5b898a0990506000878061166557fe5b888061166d57fe5b848e0960040990506000888061167f57fe5b898061168757fe5b8a8061168f57fe5b8586098c098a8061169c57fe5b8760030908905088806116ab57fe5b89806116b357fe5b8384088a038a806116c057fe5b83840908945088806116ce57fe5b89806116d657fe5b8a806116de57fe5b8687096008098a038a806116ee57fe5b8b806116f657fe5b888d0386088409089350888061170857fe5b898061171057fe5b8c8e096002099497509295509293505050505b955095509592505050565b600080808915801561173e575088155b1561175057508591508490508361199e565b8615801561175c575085155b1561176e57508891508790508661199e565b611776611b36565b848061177e57fe5b898a098152848061178b57fe5b81518a096020820152848061179c57fe5b868709604082015284806117ac57fe5b60408201518709606082015260408051608081019091528086806117cc57fe5b60408401518e09815260200186806117e057fe5b60608401518d09815260200186806117f457fe5b83518b098152602001868061180557fe5b60208401518a0990526040810151815191925014158061182d57506060810151602082015114155b61187e576040805162461bcd60e51b815260206004820152601e60248201527f557365206a6163446f75626c652066756e6374696f6e20696e73746561640000604482015290519081900360640190fd5b611886611b36565b858061188e57fe5b825160408401519088039008815285806118a457fe5b602083015160608401519088039008602082015285806118c057fe5b81518009604082015285806118d157fe5b81516040830151096060820152600086806118e857fe5b6060830151880388806118f757fe5b60208501518009089050868061190957fe5b878061191157fe5b888061191957fe5b60408501518651096002098803820890506000878061193457fe5b888061193c57fe5b838a038a8061194757fe5b6040870151885109086020850151099050878061196057fe5b888061196857fe5b60608501516020870151098903820890506000888061198357fe5b898061198b57fe5b8b8f098551099297509095509093505050505b9750975097945050505050565b600082158015906119bc5750818314155b80156119c757508115155b611a09576040805162461bcd60e51b815260206004820152600e60248201526d24b73b30b634b210373ab6b132b960911b604482015290519081900360640190fd5b6000600183825b8615611a4c57868281611a1f57fe5b049050828680611a2b57fe5b8780611a3357fe5b8584098803860882890290930397909450919250611a10565b509195945050505050565b828054600181600116156101000203166002900490600052602060002090601f016020900481019282601f10611a9857805160ff1916838001178555611ac5565b82800160010185558215611ac5579182015b82811115611ac5578251825591602001919060010190611aaa565b50611ad1929150611b54565b5090565b828054828255906000526020600020908101928215611b2a579160200282015b82811115611b2a57825182546001600160a01b0319166001600160a01b03909116178255602090920191600190910190611af5565b50611ad1929150611b71565b60405180608001604052806004906020820280368337509192915050565b611b6e91905b80821115611ad15760008155600101611b5a565b90565b611b6e91905b80821115611ad15780546001600160a01b0319168155600101611b7756fe4f6e6c7920726563656976657273207769746820276163636570746564272073746174652063616e2063616e63656c4f6e6c792073656e646572206f66207468652064656c69766572792063616e2066696e69736854696d656f7574207465726d32206d7573742062652067726561746572207468616e205f7465726d315468652074696d656f7574207465726d3220686173206e6f74206265656e20726561636865645468652074696d656f7574207465726d3120686173206e6f74206265656e207265616368656420616e64206e6f7420616c6c207265636569766572732068617665206265656e206163636570746564207468652064656c69766572795468652074696d656f7574207465726d3120686173206265656e20726561636865645620616e642047785b72695d2b4269785b63695d20617265206e6f7420657175616c7353656e6465722068617320746f2073656e642061206465706f736974206f66206d696e696d756e2031207765694f6e6c79207265636569766572732077697468202763726561746564272073746174652063616e20616363657074a26469706673582212200e32659e26575028db607595b9c873f37b13c78eed0dfa417aed40896d91670064736f6c63430006060033",
          "opcodes": "PUSH1 0x80 PUSH1 0x40 MSTORE CALLVALUE DUP1 ISZERO PUSH2 0x10 JUMPI PUSH1 0x0 DUP1 REVERT JUMPDEST POP PUSH1 0xB DUP1 SLOAD PUSH1 0xFF NOT AND PUSH1 0x1 OR SWAP1 SSTORE PUSH2 0x1D6B DUP1 PUSH2 0x2D PUSH1 0x0 CODECOPY PUSH1 0x0 RETURN INVALID PUSH1 0x80 PUSH1 0x40 MSTORE PUSH1 0x4 CALLDATASIZE LT PUSH2 0x140 JUMPI PUSH1 0x0 CALLDATALOAD PUSH1 0xE0 SHR DUP1 PUSH4 0x7A308A4C GT PUSH2 0xB6 JUMPI DUP1 PUSH4 0xBFD772FC GT PUSH2 0x6F JUMPI DUP1 PUSH4 0xBFD772FC EQ PUSH2 0x692 JUMPI DUP1 PUSH4 0xCD12A4B0 EQ PUSH2 0x6BC JUMPI DUP1 PUSH4 0xEA8A1AF0 EQ PUSH2 0x6D1 JUMPI DUP1 PUSH4 0xEEEAC01E EQ PUSH2 0x6E6 JUMPI DUP1 PUSH4 0xF446C1D0 EQ PUSH2 0x6FB JUMPI DUP1 PUSH4 0xFF7EDF42 EQ PUSH2 0x710 JUMPI PUSH2 0x140 JUMP JUMPDEST DUP1 PUSH4 0x7A308A4C EQ PUSH2 0x45D JUMPI DUP1 PUSH4 0x7F80069A EQ PUSH2 0x472 JUMPI DUP1 PUSH4 0x872B2223 EQ PUSH2 0x49B JUMPI DUP1 PUSH4 0x997DA8D4 EQ PUSH2 0x16C JUMPI DUP1 PUSH4 0xA1CBF5F9 EQ PUSH2 0x668 JUMPI DUP1 PUSH4 0xBE9A6555 EQ PUSH2 0x67D JUMPI PUSH2 0x140 JUMP JUMPDEST DUP1 PUSH4 0x4C87C67D GT PUSH2 0x108 JUMPI DUP1 PUSH4 0x4C87C67D EQ PUSH2 0x279 JUMPI DUP1 PUSH4 0x4E8C0BD6 EQ PUSH2 0x28E JUMPI DUP1 PUSH4 0x5727DC5C EQ PUSH2 0x2A3 JUMPI DUP1 PUSH4 0x57DC3742 EQ PUSH2 0x2B8 JUMPI DUP1 PUSH4 0x6349CA37 EQ PUSH2 0x3F9 JUMPI DUP1 PUSH4 0x67E404CE EQ PUSH2 0x42C JUMPI PUSH2 0x140 JUMP JUMPDEST DUP1 PUSH4 0x3A507BE EQ PUSH2 0x145 JUMPI DUP1 PUSH4 0xDBE671F EQ PUSH2 0x16C JUMPI DUP1 PUSH4 0x1BAB58F5 EQ PUSH2 0x181 JUMPI DUP1 PUSH4 0x29008824 EQ PUSH2 0x229 JUMPI DUP1 PUSH4 0x3B4A0828 EQ PUSH2 0x264 JUMPI JUMPDEST PUSH1 0x0 DUP1 REVERT JUMPDEST CALLVALUE DUP1 ISZERO PUSH2 0x151 JUMPI PUSH1 0x0 DUP1 REVERT JUMPDEST POP PUSH2 0x15A PUSH2 0x852 JUMP JUMPDEST PUSH1 0x40 DUP1 MLOAD SWAP2 DUP3 MSTORE MLOAD SWAP1 DUP2 SWAP1 SUB PUSH1 0x20 ADD SWAP1 RETURN JUMPDEST CALLVALUE DUP1 ISZERO PUSH2 0x178 JUMPI PUSH1 0x0 DUP1 REVERT JUMPDEST POP PUSH2 0x15A PUSH2 0x876 JUMP JUMPDEST CALLVALUE DUP1 ISZERO PUSH2 0x18D JUMPI PUSH1 0x0 DUP1 REVERT JUMPDEST POP PUSH2 0x1B4 PUSH1 0x4 DUP1 CALLDATASIZE SUB PUSH1 0x20 DUP2 LT ISZERO PUSH2 0x1A4 JUMPI PUSH1 0x0 DUP1 REVERT JUMPDEST POP CALLDATALOAD PUSH1 0x1 PUSH1 0x1 PUSH1 0xA0 SHL SUB AND PUSH2 0x87B JUMP JUMPDEST PUSH1 0x40 DUP1 MLOAD PUSH1 0x20 DUP1 DUP3 MSTORE DUP4 MLOAD DUP2 DUP4 ADD MSTORE DUP4 MLOAD SWAP2 SWAP3 DUP4 SWAP3 SWAP1 DUP4 ADD SWAP2 DUP6 ADD SWAP1 DUP1 DUP4 DUP4 PUSH1 0x0 JUMPDEST DUP4 DUP2 LT ISZERO PUSH2 0x1EE JUMPI DUP2 DUP2 ADD MLOAD DUP4 DUP3 ADD MSTORE PUSH1 0x20 ADD PUSH2 0x1D6 JUMP JUMPDEST POP POP POP POP SWAP1 POP SWAP1 DUP2 ADD SWAP1 PUSH1 0x1F AND DUP1 ISZERO PUSH2 0x21B JUMPI DUP1 DUP3 SUB DUP1 MLOAD PUSH1 0x1 DUP4 PUSH1 0x20 SUB PUSH2 0x100 EXP SUB NOT AND DUP2 MSTORE PUSH1 0x20 ADD SWAP2 POP JUMPDEST POP SWAP3 POP POP POP PUSH1 0x40 MLOAD DUP1 SWAP2 SUB SWAP1 RETURN JUMPDEST CALLVALUE DUP1 ISZERO PUSH2 0x235 JUMPI PUSH1 0x0 DUP1 REVERT JUMPDEST POP PUSH2 0x262 PUSH1 0x4 DUP1 CALLDATASIZE SUB PUSH1 0x40 DUP2 LT ISZERO PUSH2 0x24C JUMPI PUSH1 0x0 DUP1 REVERT JUMPDEST POP PUSH1 0x1 PUSH1 0x1 PUSH1 0xA0 SHL SUB DUP2 CALLDATALOAD AND SWAP1 PUSH1 0x20 ADD CALLDATALOAD PUSH2 0xA8A JUMP JUMPDEST STOP JUMPDEST CALLVALUE DUP1 ISZERO PUSH2 0x270 JUMPI PUSH1 0x0 DUP1 REVERT JUMPDEST POP PUSH2 0x15A PUSH2 0xE49 JUMP JUMPDEST CALLVALUE DUP1 ISZERO PUSH2 0x285 JUMPI PUSH1 0x0 DUP1 REVERT JUMPDEST POP PUSH2 0x15A PUSH2 0xE4F JUMP JUMPDEST CALLVALUE DUP1 ISZERO PUSH2 0x29A JUMPI PUSH1 0x0 DUP1 REVERT JUMPDEST POP PUSH2 0x15A PUSH2 0xE55 JUMP JUMPDEST CALLVALUE DUP1 ISZERO PUSH2 0x2AF JUMPI PUSH1 0x0 DUP1 REVERT JUMPDEST POP PUSH2 0x15A PUSH2 0xE5B JUMP JUMPDEST CALLVALUE DUP1 ISZERO PUSH2 0x2C4 JUMPI PUSH1 0x0 DUP1 REVERT JUMPDEST POP PUSH2 0x262 PUSH1 0x4 DUP1 CALLDATASIZE SUB PUSH1 0xA0 DUP2 LT ISZERO PUSH2 0x2DB JUMPI PUSH1 0x0 DUP1 REVERT JUMPDEST DUP2 ADD SWAP1 PUSH1 0x20 DUP2 ADD DUP2 CALLDATALOAD PUSH1 0x1 PUSH1 0x20 SHL DUP2 GT ISZERO PUSH2 0x2F5 JUMPI PUSH1 0x0 DUP1 REVERT JUMPDEST DUP3 ADD DUP4 PUSH1 0x20 DUP3 ADD GT ISZERO PUSH2 0x307 JUMPI PUSH1 0x0 DUP1 REVERT JUMPDEST DUP1 CALLDATALOAD SWAP1 PUSH1 0x20 ADD SWAP2 DUP5 PUSH1 0x1 DUP4 MUL DUP5 ADD GT PUSH1 0x1 PUSH1 0x20 SHL DUP4 GT OR ISZERO PUSH2 0x328 JUMPI PUSH1 0x0 DUP1 REVERT JUMPDEST SWAP2 SWAP1 DUP1 DUP1 PUSH1 0x1F ADD PUSH1 0x20 DUP1 SWAP2 DIV MUL PUSH1 0x20 ADD PUSH1 0x40 MLOAD SWAP1 DUP2 ADD PUSH1 0x40 MSTORE DUP1 SWAP4 SWAP3 SWAP2 SWAP1 DUP2 DUP2 MSTORE PUSH1 0x20 ADD DUP4 DUP4 DUP1 DUP3 DUP5 CALLDATACOPY PUSH1 0x0 SWAP3 ADD SWAP2 SWAP1 SWAP2 MSTORE POP SWAP3 SWAP6 SWAP5 SWAP4 PUSH1 0x20 DUP2 ADD SWAP4 POP CALLDATALOAD SWAP2 POP POP PUSH1 0x1 PUSH1 0x20 SHL DUP2 GT ISZERO PUSH2 0x37A JUMPI PUSH1 0x0 DUP1 REVERT JUMPDEST DUP3 ADD DUP4 PUSH1 0x20 DUP3 ADD GT ISZERO PUSH2 0x38C JUMPI PUSH1 0x0 DUP1 REVERT JUMPDEST DUP1 CALLDATALOAD SWAP1 PUSH1 0x20 ADD SWAP2 DUP5 PUSH1 0x1 DUP4 MUL DUP5 ADD GT PUSH1 0x1 PUSH1 0x20 SHL DUP4 GT OR ISZERO PUSH2 0x3AD JUMPI PUSH1 0x0 DUP1 REVERT JUMPDEST SWAP2 SWAP1 DUP1 DUP1 PUSH1 0x1F ADD PUSH1 0x20 DUP1 SWAP2 DIV MUL PUSH1 0x20 ADD PUSH1 0x40 MLOAD SWAP1 DUP2 ADD PUSH1 0x40 MSTORE DUP1 SWAP4 SWAP3 SWAP2 SWAP1 DUP2 DUP2 MSTORE PUSH1 0x20 ADD DUP4 DUP4 DUP1 DUP3 DUP5 CALLDATACOPY PUSH1 0x0 SWAP3 ADD SWAP2 SWAP1 SWAP2 MSTORE POP SWAP3 SWAP6 POP POP DUP3 CALLDATALOAD SWAP4 POP POP POP PUSH1 0x20 DUP2 ADD CALLDATALOAD SWAP1 PUSH1 0x40 ADD CALLDATALOAD PUSH2 0xE60 JUMP JUMPDEST CALLVALUE DUP1 ISZERO PUSH2 0x405 JUMPI PUSH1 0x0 DUP1 REVERT JUMPDEST POP PUSH2 0x15A PUSH1 0x4 DUP1 CALLDATASIZE SUB PUSH1 0x20 DUP2 LT ISZERO PUSH2 0x41C JUMPI PUSH1 0x0 DUP1 REVERT JUMPDEST POP CALLDATALOAD PUSH1 0x1 PUSH1 0x1 PUSH1 0xA0 SHL SUB AND PUSH2 0xF8F JUMP JUMPDEST CALLVALUE DUP1 ISZERO PUSH2 0x438 JUMPI PUSH1 0x0 DUP1 REVERT JUMPDEST POP PUSH2 0x441 PUSH2 0xFAD JUMP JUMPDEST PUSH1 0x40 DUP1 MLOAD PUSH1 0x1 PUSH1 0x1 PUSH1 0xA0 SHL SUB SWAP1 SWAP3 AND DUP3 MSTORE MLOAD SWAP1 DUP2 SWAP1 SUB PUSH1 0x20 ADD SWAP1 RETURN JUMPDEST CALLVALUE DUP1 ISZERO PUSH2 0x469 JUMPI PUSH1 0x0 DUP1 REVERT JUMPDEST POP PUSH2 0x15A PUSH2 0xFBC JUMP JUMPDEST CALLVALUE DUP1 ISZERO PUSH2 0x47E JUMPI PUSH1 0x0 DUP1 REVERT JUMPDEST POP PUSH2 0x487 PUSH2 0xFE0 JUMP JUMPDEST PUSH1 0x40 DUP1 MLOAD SWAP2 ISZERO ISZERO DUP3 MSTORE MLOAD SWAP1 DUP2 SWAP1 SUB PUSH1 0x20 ADD SWAP1 RETURN JUMPDEST PUSH2 0x262 PUSH1 0x4 DUP1 CALLDATASIZE SUB PUSH2 0x100 DUP2 LT ISZERO PUSH2 0x4B2 JUMPI PUSH1 0x0 DUP1 REVERT JUMPDEST PUSH1 0x1 PUSH1 0x1 PUSH1 0xA0 SHL SUB DUP3 CALLDATALOAD AND SWAP2 SWAP1 DUP2 ADD SWAP1 PUSH1 0x40 DUP2 ADD PUSH1 0x20 DUP3 ADD CALLDATALOAD PUSH1 0x1 PUSH1 0x20 SHL DUP2 GT ISZERO PUSH2 0x4DC JUMPI PUSH1 0x0 DUP1 REVERT JUMPDEST DUP3 ADD DUP4 PUSH1 0x20 DUP3 ADD GT ISZERO PUSH2 0x4EE JUMPI PUSH1 0x0 DUP1 REVERT JUMPDEST DUP1 CALLDATALOAD SWAP1 PUSH1 0x20 ADD SWAP2 DUP5 PUSH1 0x20 DUP4 MUL DUP5 ADD GT PUSH1 0x1 PUSH1 0x20 SHL DUP4 GT OR ISZERO PUSH2 0x50F JUMPI PUSH1 0x0 DUP1 REVERT JUMPDEST SWAP2 SWAP1 DUP1 DUP1 PUSH1 0x20 MUL PUSH1 0x20 ADD PUSH1 0x40 MLOAD SWAP1 DUP2 ADD PUSH1 0x40 MSTORE DUP1 SWAP4 SWAP3 SWAP2 SWAP1 DUP2 DUP2 MSTORE PUSH1 0x20 ADD DUP4 DUP4 PUSH1 0x20 MUL DUP1 DUP3 DUP5 CALLDATACOPY PUSH1 0x0 SWAP3 ADD SWAP2 SWAP1 SWAP2 MSTORE POP SWAP3 SWAP6 DUP5 CALLDATALOAD SWAP6 PUSH1 0x20 DUP7 ADD CALLDATALOAD SWAP6 SWAP2 SWAP5 POP SWAP3 POP PUSH1 0x60 DUP2 ADD SWAP2 POP PUSH1 0x40 ADD CALLDATALOAD PUSH1 0x1 PUSH1 0x20 SHL DUP2 GT ISZERO PUSH2 0x56A JUMPI PUSH1 0x0 DUP1 REVERT JUMPDEST DUP3 ADD DUP4 PUSH1 0x20 DUP3 ADD GT ISZERO PUSH2 0x57C JUMPI PUSH1 0x0 DUP1 REVERT JUMPDEST DUP1 CALLDATALOAD SWAP1 PUSH1 0x20 ADD SWAP2 DUP5 PUSH1 0x1 DUP4 MUL DUP5 ADD GT PUSH1 0x1 PUSH1 0x20 SHL DUP4 GT OR ISZERO PUSH2 0x59D JUMPI PUSH1 0x0 DUP1 REVERT JUMPDEST SWAP2 SWAP1 DUP1 DUP1 PUSH1 0x1F ADD PUSH1 0x20 DUP1 SWAP2 DIV MUL PUSH1 0x20 ADD PUSH1 0x40 MLOAD SWAP1 DUP2 ADD PUSH1 0x40 MSTORE DUP1 SWAP4 SWAP3 SWAP2 SWAP1 DUP2 DUP2 MSTORE PUSH1 0x20 ADD DUP4 DUP4 DUP1 DUP3 DUP5 CALLDATACOPY PUSH1 0x0 SWAP3 ADD SWAP2 SWAP1 SWAP2 MSTORE POP SWAP3 SWAP6 SWAP5 SWAP4 PUSH1 0x20 DUP2 ADD SWAP4 POP CALLDATALOAD SWAP2 POP POP PUSH1 0x1 PUSH1 0x20 SHL DUP2 GT ISZERO PUSH2 0x5EF JUMPI PUSH1 0x0 DUP1 REVERT JUMPDEST DUP3 ADD DUP4 PUSH1 0x20 DUP3 ADD GT ISZERO PUSH2 0x601 JUMPI PUSH1 0x0 DUP1 REVERT JUMPDEST DUP1 CALLDATALOAD SWAP1 PUSH1 0x20 ADD SWAP2 DUP5 PUSH1 0x1 DUP4 MUL DUP5 ADD GT PUSH1 0x1 PUSH1 0x20 SHL DUP4 GT OR ISZERO PUSH2 0x622 JUMPI PUSH1 0x0 DUP1 REVERT JUMPDEST SWAP2 SWAP1 DUP1 DUP1 PUSH1 0x1F ADD PUSH1 0x20 DUP1 SWAP2 DIV MUL PUSH1 0x20 ADD PUSH1 0x40 MLOAD SWAP1 DUP2 ADD PUSH1 0x40 MSTORE DUP1 SWAP4 SWAP3 SWAP2 SWAP1 DUP2 DUP2 MSTORE PUSH1 0x20 ADD DUP4 DUP4 DUP1 DUP3 DUP5 CALLDATACOPY PUSH1 0x0 SWAP3 ADD SWAP2 SWAP1 SWAP2 MSTORE POP SWAP3 SWAP6 POP POP DUP3 CALLDATALOAD SWAP4 POP POP POP PUSH1 0x20 ADD CALLDATALOAD PUSH2 0xFE9 JUMP JUMPDEST CALLVALUE DUP1 ISZERO PUSH2 0x674 JUMPI PUSH1 0x0 DUP1 REVERT JUMPDEST POP PUSH2 0x1B4 PUSH2 0x114A JUMP JUMPDEST CALLVALUE DUP1 ISZERO PUSH2 0x689 JUMPI PUSH1 0x0 DUP1 REVERT JUMPDEST POP PUSH2 0x15A PUSH2 0x11D8 JUMP JUMPDEST CALLVALUE DUP1 ISZERO PUSH2 0x69E JUMPI PUSH1 0x0 DUP1 REVERT JUMPDEST POP PUSH2 0x441 PUSH1 0x4 DUP1 CALLDATASIZE SUB PUSH1 0x20 DUP2 LT ISZERO PUSH2 0x6B5 JUMPI PUSH1 0x0 DUP1 REVERT JUMPDEST POP CALLDATALOAD PUSH2 0x11DE JUMP JUMPDEST CALLVALUE DUP1 ISZERO PUSH2 0x6C8 JUMPI PUSH1 0x0 DUP1 REVERT JUMPDEST POP PUSH2 0x15A PUSH2 0x1205 JUMP JUMPDEST CALLVALUE DUP1 ISZERO PUSH2 0x6DD JUMPI PUSH1 0x0 DUP1 REVERT JUMPDEST POP PUSH2 0x262 PUSH2 0x120B JUMP JUMPDEST CALLVALUE DUP1 ISZERO PUSH2 0x6F2 JUMPI PUSH1 0x0 DUP1 REVERT JUMPDEST POP PUSH2 0x15A PUSH2 0x12D1 JUMP JUMPDEST CALLVALUE DUP1 ISZERO PUSH2 0x707 JUMPI PUSH1 0x0 DUP1 REVERT JUMPDEST POP PUSH2 0x1B4 PUSH2 0x12DB JUMP JUMPDEST CALLVALUE DUP1 ISZERO PUSH2 0x71C JUMPI PUSH1 0x0 DUP1 REVERT JUMPDEST POP PUSH2 0x743 PUSH1 0x4 DUP1 CALLDATASIZE SUB PUSH1 0x20 DUP2 LT ISZERO PUSH2 0x733 JUMPI PUSH1 0x0 DUP1 REVERT JUMPDEST POP CALLDATALOAD PUSH1 0x1 PUSH1 0x1 PUSH1 0xA0 SHL SUB AND PUSH2 0x1336 JUMP JUMPDEST PUSH1 0x40 MLOAD DUP1 DUP1 PUSH1 0x20 ADD DUP1 PUSH1 0x20 ADD DUP9 DUP2 MSTORE PUSH1 0x20 ADD DUP8 DUP2 MSTORE PUSH1 0x20 ADD DUP7 DUP2 MSTORE PUSH1 0x20 ADD DUP6 DUP2 MSTORE PUSH1 0x20 ADD DUP5 PUSH1 0x5 DUP2 GT ISZERO PUSH2 0x773 JUMPI INVALID JUMPDEST PUSH1 0xFF AND DUP2 MSTORE PUSH1 0x20 ADD DUP4 DUP2 SUB DUP4 MSTORE DUP11 DUP2 DUP2 MLOAD DUP2 MSTORE PUSH1 0x20 ADD SWAP2 POP DUP1 MLOAD SWAP1 PUSH1 0x20 ADD SWAP1 DUP1 DUP4 DUP4 PUSH1 0x0 JUMPDEST DUP4 DUP2 LT ISZERO PUSH2 0x7B0 JUMPI DUP2 DUP2 ADD MLOAD DUP4 DUP3 ADD MSTORE PUSH1 0x20 ADD PUSH2 0x798 JUMP JUMPDEST POP POP POP POP SWAP1 POP SWAP1 DUP2 ADD SWAP1 PUSH1 0x1F AND DUP1 ISZERO PUSH2 0x7DD JUMPI DUP1 DUP3 SUB DUP1 MLOAD PUSH1 0x1 DUP4 PUSH1 0x20 SUB PUSH2 0x100 EXP SUB NOT AND DUP2 MSTORE PUSH1 0x20 ADD SWAP2 POP JUMPDEST POP DUP4 DUP2 SUB DUP3 MSTORE DUP10 MLOAD DUP2 MSTORE DUP10 MLOAD PUSH1 0x20 SWAP2 DUP3 ADD SWAP2 DUP12 ADD SWAP1 DUP1 DUP4 DUP4 PUSH1 0x0 JUMPDEST DUP4 DUP2 LT ISZERO PUSH2 0x810 JUMPI DUP2 DUP2 ADD MLOAD DUP4 DUP3 ADD MSTORE PUSH1 0x20 ADD PUSH2 0x7F8 JUMP JUMPDEST POP POP POP POP SWAP1 POP SWAP1 DUP2 ADD SWAP1 PUSH1 0x1F AND DUP1 ISZERO PUSH2 0x83D JUMPI DUP1 DUP3 SUB DUP1 MLOAD PUSH1 0x1 DUP4 PUSH1 0x20 SUB PUSH2 0x100 EXP SUB NOT AND DUP2 MSTORE PUSH1 0x20 ADD SWAP2 POP JUMPDEST POP SWAP10 POP POP POP POP POP POP POP POP POP POP PUSH1 0x40 MLOAD DUP1 SWAP2 SUB SWAP1 RETURN JUMPDEST PUSH32 0x79BE667EF9DCBBAC55A06295CE870B07029BFCDB2DCE28D959F2815B16F81798 DUP2 JUMP JUMPDEST PUSH1 0x0 DUP2 JUMP JUMPDEST PUSH1 0x60 PUSH1 0x0 PUSH1 0x1 PUSH1 0x1 PUSH1 0xA0 SHL SUB DUP4 AND PUSH1 0x0 SWAP1 DUP2 MSTORE PUSH1 0x2 PUSH1 0x20 MSTORE PUSH1 0x40 SWAP1 KECCAK256 PUSH1 0x6 ADD SLOAD PUSH1 0xFF AND PUSH1 0x5 DUP2 GT ISZERO PUSH2 0x8A9 JUMPI INVALID JUMPDEST EQ ISZERO PUSH2 0x8D6 JUMPI POP PUSH1 0x40 DUP1 MLOAD DUP1 DUP3 ADD SWAP1 SWAP2 MSTORE PUSH1 0xA DUP2 MSTORE PUSH10 0x6E6F7420657869737473 PUSH1 0xB0 SHL PUSH1 0x20 DUP3 ADD MSTORE PUSH2 0xA85 JUMP JUMPDEST PUSH1 0x1 PUSH1 0x1 PUSH1 0x1 PUSH1 0xA0 SHL SUB DUP4 AND PUSH1 0x0 SWAP1 DUP2 MSTORE PUSH1 0x2 PUSH1 0x20 MSTORE PUSH1 0x40 SWAP1 KECCAK256 PUSH1 0x6 ADD SLOAD PUSH1 0xFF AND PUSH1 0x5 DUP2 GT ISZERO PUSH2 0x902 JUMPI INVALID JUMPDEST EQ ISZERO PUSH2 0x92C JUMPI POP PUSH1 0x40 DUP1 MLOAD DUP1 DUP3 ADD SWAP1 SWAP2 MSTORE PUSH1 0x7 DUP2 MSTORE PUSH7 0x18DC99585D1959 PUSH1 0xCA SHL PUSH1 0x20 DUP3 ADD MSTORE PUSH2 0xA85 JUMP JUMPDEST PUSH1 0x2 PUSH1 0x1 PUSH1 0x1 PUSH1 0xA0 SHL SUB DUP4 AND PUSH1 0x0 SWAP1 DUP2 MSTORE PUSH1 0x2 PUSH1 0x20 MSTORE PUSH1 0x40 SWAP1 KECCAK256 PUSH1 0x6 ADD SLOAD PUSH1 0xFF AND PUSH1 0x5 DUP2 GT ISZERO PUSH2 0x958 JUMPI INVALID JUMPDEST EQ ISZERO PUSH2 0x984 JUMPI POP PUSH1 0x40 DUP1 MLOAD DUP1 DUP3 ADD SWAP1 SWAP2 MSTORE PUSH1 0x9 DUP2 MSTORE PUSH9 0x18D85B98D95B1B1959 PUSH1 0xBA SHL PUSH1 0x20 DUP3 ADD MSTORE PUSH2 0xA85 JUMP JUMPDEST PUSH1 0x3 PUSH1 0x1 PUSH1 0x1 PUSH1 0xA0 SHL SUB DUP4 AND PUSH1 0x0 SWAP1 DUP2 MSTORE PUSH1 0x2 PUSH1 0x20 MSTORE PUSH1 0x40 SWAP1 KECCAK256 PUSH1 0x6 ADD SLOAD PUSH1 0xFF AND PUSH1 0x5 DUP2 GT ISZERO PUSH2 0x9B0 JUMPI INVALID JUMPDEST EQ ISZERO PUSH2 0x9DB JUMPI POP PUSH1 0x40 DUP1 MLOAD DUP1 DUP3 ADD SWAP1 SWAP2 MSTORE PUSH1 0x8 DUP2 MSTORE PUSH8 0x1858D8D95C1D1959 PUSH1 0xC2 SHL PUSH1 0x20 DUP3 ADD MSTORE PUSH2 0xA85 JUMP JUMPDEST PUSH1 0x4 PUSH1 0x1 PUSH1 0x1 PUSH1 0xA0 SHL SUB DUP4 AND PUSH1 0x0 SWAP1 DUP2 MSTORE PUSH1 0x2 PUSH1 0x20 MSTORE PUSH1 0x40 SWAP1 KECCAK256 PUSH1 0x6 ADD SLOAD PUSH1 0xFF AND PUSH1 0x5 DUP2 GT ISZERO PUSH2 0xA07 JUMPI INVALID JUMPDEST EQ ISZERO PUSH2 0xA32 JUMPI POP PUSH1 0x40 DUP1 MLOAD DUP1 DUP3 ADD SWAP1 SWAP2 MSTORE PUSH1 0x8 DUP2 MSTORE PUSH8 0x199A5B9A5CDA1959 PUSH1 0xC2 SHL PUSH1 0x20 DUP3 ADD MSTORE PUSH2 0xA85 JUMP JUMPDEST PUSH1 0x5 PUSH1 0x1 PUSH1 0x1 PUSH1 0xA0 SHL SUB DUP4 AND PUSH1 0x0 SWAP1 DUP2 MSTORE PUSH1 0x2 PUSH1 0x20 MSTORE PUSH1 0x40 SWAP1 KECCAK256 PUSH1 0x6 ADD SLOAD PUSH1 0xFF AND PUSH1 0x5 DUP2 GT ISZERO PUSH2 0xA5E JUMPI INVALID JUMPDEST EQ ISZERO PUSH2 0xA85 JUMPI POP PUSH1 0x40 DUP1 MLOAD DUP1 DUP3 ADD SWAP1 SWAP2 MSTORE PUSH1 0x8 DUP2 MSTORE PUSH8 0x1C995A9958DD1959 PUSH1 0xC2 SHL PUSH1 0x20 DUP3 ADD MSTORE JUMPDEST SWAP2 SWAP1 POP JUMP JUMPDEST PUSH1 0x0 DUP1 PUSH1 0x0 DUP1 PUSH1 0x0 DUP1 PUSH1 0x8 SLOAD PUSH1 0xA SLOAD ADD TIMESTAMP LT ISZERO DUP1 PUSH2 0xAAC JUMPI POP PUSH1 0x1 SLOAD PUSH1 0x3 SLOAD LT ISZERO JUMPDEST PUSH2 0xAE7 JUMPI PUSH1 0x40 MLOAD PUSH3 0x461BCD PUSH1 0xE5 SHL DUP2 MSTORE PUSH1 0x4 ADD DUP1 DUP1 PUSH1 0x20 ADD DUP3 DUP2 SUB DUP3 MSTORE PUSH1 0x5C DUP2 MSTORE PUSH1 0x20 ADD DUP1 PUSH2 0x1C3A PUSH1 0x5C SWAP2 CODECOPY PUSH1 0x60 ADD SWAP2 POP POP PUSH1 0x40 MLOAD DUP1 SWAP2 SUB SWAP1 REVERT JUMPDEST PUSH1 0x0 SLOAD PUSH1 0x1 PUSH1 0x1 PUSH1 0xA0 SHL SUB AND CALLER EQ PUSH2 0xB30 JUMPI PUSH1 0x40 MLOAD PUSH3 0x461BCD PUSH1 0xE5 SHL DUP2 MSTORE PUSH1 0x4 ADD DUP1 DUP1 PUSH1 0x20 ADD DUP3 DUP2 SUB DUP3 MSTORE PUSH1 0x26 DUP2 MSTORE PUSH1 0x20 ADD DUP1 PUSH2 0x1BC5 PUSH1 0x26 SWAP2 CODECOPY PUSH1 0x40 ADD SWAP2 POP POP PUSH1 0x40 MLOAD DUP1 SWAP2 SUB SWAP1 REVERT JUMPDEST PUSH2 0xB8A DUP8 PUSH32 0x79BE667EF9DCBBAC55A06295CE870B07029BFCDB2DCE28D959F2815B16F81798 PUSH32 0x483ADA7726A3C4655DA4FBFC0E1108A8FD17B448A68554199C47D08FFB10D4B8 PUSH1 0x0 PUSH5 0x1000003D0 NOT PUSH4 0xFFFFFFFF PUSH2 0x1491 AND JUMP JUMPDEST PUSH1 0x1 PUSH1 0x1 PUSH1 0xA0 SHL SUB DUP11 AND PUSH1 0x0 SWAP1 DUP2 MSTORE PUSH1 0x2 PUSH1 0x20 DUP2 SWAP1 MSTORE PUSH1 0x40 DUP3 KECCAK256 SWAP1 DUP2 ADD SLOAD PUSH1 0x3 DUP3 ADD SLOAD PUSH1 0x4 SWAP1 SWAP3 ADD SLOAD SWAP5 SWAP11 POP SWAP3 SWAP9 POP PUSH2 0xBD1 SWAP4 SWAP3 SWAP2 PUSH5 0x1000003D0 NOT PUSH4 0xFFFFFFFF PUSH2 0x1491 AND JUMP JUMPDEST SWAP1 SWAP5 POP SWAP3 POP PUSH2 0xBF1 DUP7 DUP7 DUP7 DUP7 PUSH1 0x0 PUSH5 0x1000003D0 NOT PUSH4 0xFFFFFFFF PUSH2 0x14CB AND JUMP JUMPDEST PUSH1 0x4 SLOAD SWAP2 SWAP4 POP SWAP2 POP DUP3 EQ ISZERO PUSH2 0xC37 JUMPI PUSH1 0x40 MLOAD PUSH3 0x461BCD PUSH1 0xE5 SHL DUP2 MSTORE PUSH1 0x4 ADD DUP1 DUP1 PUSH1 0x20 ADD DUP3 DUP2 SUB DUP3 MSTORE PUSH1 0x23 DUP2 MSTORE PUSH1 0x20 ADD DUP1 PUSH2 0x1CB8 PUSH1 0x23 SWAP2 CODECOPY PUSH1 0x40 ADD SWAP2 POP POP PUSH1 0x40 MLOAD DUP1 SWAP2 SUB SWAP1 REVERT JUMPDEST DUP1 PUSH1 0x5 SLOAD EQ ISZERO PUSH2 0xC78 JUMPI PUSH1 0x40 MLOAD PUSH3 0x461BCD PUSH1 0xE5 SHL DUP2 MSTORE PUSH1 0x4 ADD DUP1 DUP1 PUSH1 0x20 ADD DUP3 DUP2 SUB DUP3 MSTORE PUSH1 0x23 DUP2 MSTORE PUSH1 0x20 ADD DUP1 PUSH2 0x1CB8 PUSH1 0x23 SWAP2 CODECOPY PUSH1 0x40 ADD SWAP2 POP POP PUSH1 0x40 MLOAD DUP1 SWAP2 SUB SWAP1 REVERT JUMPDEST PUSH1 0x40 MLOAD CALLER SWAP1 SELFBALANCE DUP1 ISZERO PUSH2 0x8FC MUL SWAP2 PUSH1 0x0 DUP2 DUP2 DUP2 DUP6 DUP9 DUP9 CALL SWAP4 POP POP POP POP ISZERO DUP1 ISZERO PUSH2 0xCA4 JUMPI RETURNDATASIZE PUSH1 0x0 DUP1 RETURNDATACOPY RETURNDATASIZE PUSH1 0x0 REVERT JUMPDEST POP PUSH1 0x0 JUMPDEST PUSH1 0x1 SLOAD DUP2 LT ISZERO PUSH2 0xE3E JUMPI DUP8 PUSH1 0x2 PUSH1 0x0 PUSH1 0x1 DUP5 DUP2 SLOAD DUP2 LT PUSH2 0xCC4 JUMPI INVALID JUMPDEST PUSH1 0x0 SWAP2 DUP3 MSTORE PUSH1 0x20 DUP1 DUP4 KECCAK256 SWAP1 SWAP2 ADD SLOAD PUSH1 0x1 PUSH1 0x1 PUSH1 0xA0 SHL SUB AND DUP4 MSTORE DUP3 ADD SWAP3 SWAP1 SWAP3 MSTORE PUSH1 0x40 ADD SWAP1 KECCAK256 PUSH1 0x5 ADD SSTORE PUSH1 0x3 PUSH1 0x2 PUSH1 0x0 PUSH1 0x1 DUP5 DUP2 SLOAD DUP2 LT PUSH2 0xCFF JUMPI INVALID JUMPDEST PUSH1 0x0 SWAP2 DUP3 MSTORE PUSH1 0x20 DUP1 DUP4 KECCAK256 SWAP1 SWAP2 ADD SLOAD PUSH1 0x1 PUSH1 0x1 PUSH1 0xA0 SHL SUB AND DUP4 MSTORE DUP3 ADD SWAP3 SWAP1 SWAP3 MSTORE PUSH1 0x40 ADD SWAP1 KECCAK256 PUSH1 0x6 ADD SLOAD PUSH1 0xFF AND PUSH1 0x5 DUP2 GT ISZERO PUSH2 0xD35 JUMPI INVALID JUMPDEST EQ ISZERO PUSH2 0xD93 JUMPI PUSH1 0x4 PUSH1 0x2 PUSH1 0x0 PUSH1 0x1 DUP5 DUP2 SLOAD DUP2 LT PUSH2 0xD4E JUMPI INVALID JUMPDEST PUSH1 0x0 SWAP2 DUP3 MSTORE PUSH1 0x20 DUP1 DUP4 KECCAK256 SWAP1 SWAP2 ADD SLOAD PUSH1 0x1 PUSH1 0x1 PUSH1 0xA0 SHL SUB AND DUP4 MSTORE DUP3 ADD SWAP3 SWAP1 SWAP3 MSTORE PUSH1 0x40 ADD SWAP1 KECCAK256 PUSH1 0x6 ADD DUP1 SLOAD PUSH1 0xFF NOT AND PUSH1 0x1 DUP4 PUSH1 0x5 DUP2 GT ISZERO PUSH2 0xD89 JUMPI INVALID JUMPDEST MUL OR SWAP1 SSTORE POP PUSH2 0xE36 JUMP JUMPDEST PUSH1 0x1 PUSH1 0x2 PUSH1 0x0 PUSH1 0x1 DUP5 DUP2 SLOAD DUP2 LT PUSH2 0xDA6 JUMPI INVALID JUMPDEST PUSH1 0x0 SWAP2 DUP3 MSTORE PUSH1 0x20 DUP1 DUP4 KECCAK256 SWAP1 SWAP2 ADD SLOAD PUSH1 0x1 PUSH1 0x1 PUSH1 0xA0 SHL SUB AND DUP4 MSTORE DUP3 ADD SWAP3 SWAP1 SWAP3 MSTORE PUSH1 0x40 ADD SWAP1 KECCAK256 PUSH1 0x6 ADD SLOAD PUSH1 0xFF AND PUSH1 0x5 DUP2 GT ISZERO PUSH2 0xDDC JUMPI INVALID JUMPDEST EQ ISZERO PUSH2 0xE36 JUMPI PUSH1 0x5 PUSH1 0x2 PUSH1 0x0 PUSH1 0x1 DUP5 DUP2 SLOAD DUP2 LT PUSH2 0xDF5 JUMPI INVALID JUMPDEST PUSH1 0x0 SWAP2 DUP3 MSTORE PUSH1 0x20 DUP1 DUP4 KECCAK256 SWAP1 SWAP2 ADD SLOAD PUSH1 0x1 PUSH1 0x1 PUSH1 0xA0 SHL SUB AND DUP4 MSTORE DUP3 ADD SWAP3 SWAP1 SWAP3 MSTORE PUSH1 0x40 ADD SWAP1 KECCAK256 PUSH1 0x6 ADD DUP1 SLOAD PUSH1 0xFF NOT AND PUSH1 0x1 DUP4 PUSH1 0x5 DUP2 GT ISZERO PUSH2 0xE30 JUMPI INVALID JUMPDEST MUL OR SWAP1 SSTORE POP JUMPDEST PUSH1 0x1 ADD PUSH2 0xCA8 JUMP JUMPDEST POP POP POP POP POP POP POP POP POP JUMP JUMPDEST PUSH1 0x9 SLOAD DUP2 JUMP JUMPDEST PUSH1 0x8 SLOAD DUP2 JUMP JUMPDEST PUSH1 0x4 SLOAD DUP2 JUMP JUMPDEST PUSH1 0x7 DUP2 JUMP JUMPDEST PUSH1 0x8 SLOAD PUSH1 0xA SLOAD ADD TIMESTAMP LT PUSH2 0xEA4 JUMPI PUSH1 0x40 MLOAD PUSH3 0x461BCD PUSH1 0xE5 SHL DUP2 MSTORE PUSH1 0x4 ADD DUP1 DUP1 PUSH1 0x20 ADD DUP3 DUP2 SUB DUP3 MSTORE PUSH1 0x22 DUP2 MSTORE PUSH1 0x20 ADD DUP1 PUSH2 0x1C96 PUSH1 0x22 SWAP2 CODECOPY PUSH1 0x40 ADD SWAP2 POP POP PUSH1 0x40 MLOAD DUP1 SWAP2 SUB SWAP1 REVERT JUMPDEST PUSH1 0x1 CALLER PUSH1 0x0 SWAP1 DUP2 MSTORE PUSH1 0x2 PUSH1 0x20 MSTORE PUSH1 0x40 SWAP1 KECCAK256 PUSH1 0x6 ADD SLOAD PUSH1 0xFF AND PUSH1 0x5 DUP2 GT ISZERO PUSH2 0xEC7 JUMPI INVALID JUMPDEST EQ PUSH2 0xF03 JUMPI PUSH1 0x40 MLOAD PUSH3 0x461BCD PUSH1 0xE5 SHL DUP2 MSTORE PUSH1 0x4 ADD DUP1 DUP1 PUSH1 0x20 ADD DUP3 DUP2 SUB DUP3 MSTORE PUSH1 0x2E DUP2 MSTORE PUSH1 0x20 ADD DUP1 PUSH2 0x1D08 PUSH1 0x2E SWAP2 CODECOPY PUSH1 0x40 ADD SWAP2 POP POP PUSH1 0x40 MLOAD DUP1 SWAP2 SUB SWAP1 REVERT JUMPDEST PUSH1 0x3 DUP1 SLOAD PUSH1 0x1 ADD SWAP1 SSTORE CALLER PUSH1 0x0 SWAP1 DUP2 MSTORE PUSH1 0x2 PUSH1 0x20 SWAP1 DUP2 MSTORE PUSH1 0x40 SWAP1 SWAP2 KECCAK256 DUP7 MLOAD PUSH2 0xF2C SWAP3 DUP9 ADD SWAP1 PUSH2 0x1A57 JUMP JUMPDEST POP CALLER PUSH1 0x0 SWAP1 DUP2 MSTORE PUSH1 0x2 PUSH1 0x20 SWAP1 DUP2 MSTORE PUSH1 0x40 SWAP1 SWAP2 KECCAK256 DUP6 MLOAD PUSH2 0xF53 SWAP3 PUSH1 0x1 SWAP1 SWAP3 ADD SWAP2 DUP8 ADD SWAP1 PUSH2 0x1A57 JUMP JUMPDEST POP CALLER PUSH1 0x0 SWAP1 DUP2 MSTORE PUSH1 0x2 PUSH1 0x20 DUP2 SWAP1 MSTORE PUSH1 0x40 SWAP1 SWAP2 KECCAK256 SWAP1 DUP2 ADD SWAP4 SWAP1 SWAP4 SSTORE PUSH1 0x3 DUP1 DUP5 ADD SWAP3 SWAP1 SWAP3 SSTORE PUSH1 0x4 DUP4 ADD SSTORE PUSH1 0x6 SWAP1 SWAP2 ADD DUP1 SLOAD PUSH1 0xFF NOT AND SWAP1 SWAP2 OR SWAP1 SSTORE POP POP JUMP JUMPDEST PUSH1 0x1 PUSH1 0x1 PUSH1 0xA0 SHL SUB AND PUSH1 0x0 SWAP1 DUP2 MSTORE PUSH1 0x2 PUSH1 0x20 MSTORE PUSH1 0x40 SWAP1 KECCAK256 PUSH1 0x5 ADD SLOAD SWAP1 JUMP JUMPDEST PUSH1 0x0 SLOAD PUSH1 0x1 PUSH1 0x1 PUSH1 0xA0 SHL SUB AND DUP2 JUMP JUMPDEST PUSH32 0x483ADA7726A3C4655DA4FBFC0E1108A8FD17B448A68554199C47D08FFB10D4B8 DUP2 JUMP JUMPDEST PUSH1 0xB SLOAD PUSH1 0xFF AND DUP2 JUMP JUMPDEST PUSH1 0x0 CALLVALUE GT PUSH2 0x1028 JUMPI PUSH1 0x40 MLOAD PUSH3 0x461BCD PUSH1 0xE5 SHL DUP2 MSTORE PUSH1 0x4 ADD DUP1 DUP1 PUSH1 0x20 ADD DUP3 DUP2 SUB DUP3 MSTORE PUSH1 0x2D DUP2 MSTORE PUSH1 0x20 ADD DUP1 PUSH2 0x1CDB PUSH1 0x2D SWAP2 CODECOPY PUSH1 0x40 ADD SWAP2 POP POP PUSH1 0x40 MLOAD DUP1 SWAP2 SUB SWAP1 REVERT JUMPDEST DUP1 DUP3 LT PUSH2 0x1066 JUMPI PUSH1 0x40 MLOAD PUSH3 0x461BCD PUSH1 0xE5 SHL DUP2 MSTORE PUSH1 0x4 ADD DUP1 DUP1 PUSH1 0x20 ADD DUP3 DUP2 SUB DUP3 MSTORE PUSH1 0x29 DUP2 MSTORE PUSH1 0x20 ADD DUP1 PUSH2 0x1BEB PUSH1 0x29 SWAP2 CODECOPY PUSH1 0x40 ADD SWAP2 POP POP PUSH1 0x40 MLOAD DUP1 SWAP2 SUB SWAP1 REVERT JUMPDEST PUSH1 0x0 DUP1 SLOAD PUSH1 0x1 PUSH1 0x1 PUSH1 0xA0 SHL SUB NOT AND PUSH1 0x1 PUSH1 0x1 PUSH1 0xA0 SHL SUB DUP11 AND OR SWAP1 SSTORE DUP7 MLOAD PUSH2 0x1094 SWAP1 PUSH1 0x1 SWAP1 PUSH1 0x20 DUP11 ADD SWAP1 PUSH2 0x1AD5 JUMP JUMPDEST POP PUSH1 0x0 JUMPDEST PUSH1 0x1 SLOAD DUP2 LT ISZERO PUSH2 0x10FD JUMPI PUSH1 0x1 PUSH1 0x2 PUSH1 0x0 PUSH1 0x1 DUP5 DUP2 SLOAD DUP2 LT PUSH2 0x10B5 JUMPI INVALID JUMPDEST PUSH1 0x0 SWAP2 DUP3 MSTORE PUSH1 0x20 DUP1 DUP4 KECCAK256 SWAP1 SWAP2 ADD SLOAD PUSH1 0x1 PUSH1 0x1 PUSH1 0xA0 SHL SUB AND DUP4 MSTORE DUP3 ADD SWAP3 SWAP1 SWAP3 MSTORE PUSH1 0x40 ADD SWAP1 KECCAK256 PUSH1 0x6 ADD DUP1 SLOAD PUSH1 0xFF NOT AND PUSH1 0x1 DUP4 PUSH1 0x5 DUP2 GT ISZERO PUSH2 0x10F0 JUMPI INVALID JUMPDEST MUL OR SWAP1 SSTORE POP PUSH1 0x1 ADD PUSH2 0x1098 JUMP JUMPDEST POP PUSH1 0x0 PUSH1 0x3 SSTORE PUSH1 0x4 DUP7 SWAP1 SSTORE PUSH1 0x5 DUP6 SWAP1 SSTORE DUP4 MLOAD PUSH2 0x1120 SWAP1 PUSH1 0x6 SWAP1 PUSH1 0x20 DUP8 ADD SWAP1 PUSH2 0x1A57 JUMP JUMPDEST POP DUP3 MLOAD PUSH2 0x1134 SWAP1 PUSH1 0x7 SWAP1 PUSH1 0x20 DUP7 ADD SWAP1 PUSH2 0x1A57 JUMP JUMPDEST POP TIMESTAMP PUSH1 0xA SSTORE PUSH1 0x8 SWAP2 SWAP1 SWAP2 SSTORE PUSH1 0x9 SSTORE POP POP POP POP POP POP JUMP JUMPDEST PUSH1 0x6 DUP1 SLOAD PUSH1 0x40 DUP1 MLOAD PUSH1 0x20 PUSH1 0x2 PUSH1 0x1 DUP6 AND ISZERO PUSH2 0x100 MUL PUSH1 0x0 NOT ADD SWAP1 SWAP5 AND SWAP4 SWAP1 SWAP4 DIV PUSH1 0x1F DUP2 ADD DUP5 SWAP1 DIV DUP5 MUL DUP3 ADD DUP5 ADD SWAP1 SWAP3 MSTORE DUP2 DUP2 MSTORE SWAP3 SWAP2 DUP4 ADD DUP3 DUP3 DUP1 ISZERO PUSH2 0x11D0 JUMPI DUP1 PUSH1 0x1F LT PUSH2 0x11A5 JUMPI PUSH2 0x100 DUP1 DUP4 SLOAD DIV MUL DUP4 MSTORE SWAP2 PUSH1 0x20 ADD SWAP2 PUSH2 0x11D0 JUMP JUMPDEST DUP3 ADD SWAP2 SWAP1 PUSH1 0x0 MSTORE PUSH1 0x20 PUSH1 0x0 KECCAK256 SWAP1 JUMPDEST DUP2 SLOAD DUP2 MSTORE SWAP1 PUSH1 0x1 ADD SWAP1 PUSH1 0x20 ADD DUP1 DUP4 GT PUSH2 0x11B3 JUMPI DUP3 SWAP1 SUB PUSH1 0x1F AND DUP3 ADD SWAP2 JUMPDEST POP POP POP POP POP DUP2 JUMP JUMPDEST PUSH1 0xA SLOAD DUP2 JUMP JUMPDEST PUSH1 0x1 DUP2 DUP2 SLOAD DUP2 LT PUSH2 0x11EB JUMPI INVALID JUMPDEST PUSH1 0x0 SWAP2 DUP3 MSTORE PUSH1 0x20 SWAP1 SWAP2 KECCAK256 ADD SLOAD PUSH1 0x1 PUSH1 0x1 PUSH1 0xA0 SHL SUB AND SWAP1 POP DUP2 JUMP JUMPDEST PUSH1 0x5 SLOAD DUP2 JUMP JUMPDEST PUSH1 0x9 SLOAD PUSH1 0xA SLOAD ADD TIMESTAMP LT ISZERO PUSH2 0x1250 JUMPI PUSH1 0x40 MLOAD PUSH3 0x461BCD PUSH1 0xE5 SHL DUP2 MSTORE PUSH1 0x4 ADD DUP1 DUP1 PUSH1 0x20 ADD DUP3 DUP2 SUB DUP3 MSTORE PUSH1 0x26 DUP2 MSTORE PUSH1 0x20 ADD DUP1 PUSH2 0x1C14 PUSH1 0x26 SWAP2 CODECOPY PUSH1 0x40 ADD SWAP2 POP POP PUSH1 0x40 MLOAD DUP1 SWAP2 SUB SWAP1 REVERT JUMPDEST PUSH1 0x3 CALLER PUSH1 0x0 SWAP1 DUP2 MSTORE PUSH1 0x2 PUSH1 0x20 MSTORE PUSH1 0x40 SWAP1 KECCAK256 PUSH1 0x6 ADD SLOAD PUSH1 0xFF AND PUSH1 0x5 DUP2 GT ISZERO PUSH2 0x1273 JUMPI INVALID JUMPDEST EQ PUSH2 0x12AF JUMPI PUSH1 0x40 MLOAD PUSH3 0x461BCD PUSH1 0xE5 SHL DUP2 MSTORE PUSH1 0x4 ADD DUP1 DUP1 PUSH1 0x20 ADD DUP3 DUP2 SUB DUP3 MSTORE PUSH1 0x2F DUP2 MSTORE PUSH1 0x20 ADD DUP1 PUSH2 0x1B96 PUSH1 0x2F SWAP2 CODECOPY PUSH1 0x40 ADD SWAP2 POP POP PUSH1 0x40 MLOAD DUP1 SWAP2 SUB SWAP1 REVERT JUMPDEST CALLER PUSH1 0x0 SWAP1 DUP2 MSTORE PUSH1 0x2 PUSH1 0x20 DUP2 SWAP1 MSTORE PUSH1 0x40 SWAP1 SWAP2 KECCAK256 PUSH1 0x6 ADD DUP1 SLOAD PUSH1 0xFF NOT AND SWAP1 SWAP2 OR SWAP1 SSTORE JUMP JUMPDEST PUSH5 0x1000003D0 NOT DUP2 JUMP JUMPDEST PUSH1 0x7 DUP1 SLOAD PUSH1 0x40 DUP1 MLOAD PUSH1 0x20 PUSH1 0x2 PUSH1 0x1 DUP6 AND ISZERO PUSH2 0x100 MUL PUSH1 0x0 NOT ADD SWAP1 SWAP5 AND SWAP4 SWAP1 SWAP4 DIV PUSH1 0x1F DUP2 ADD DUP5 SWAP1 DIV DUP5 MUL DUP3 ADD DUP5 ADD SWAP1 SWAP3 MSTORE DUP2 DUP2 MSTORE SWAP3 SWAP2 DUP4 ADD DUP3 DUP3 DUP1 ISZERO PUSH2 0x11D0 JUMPI DUP1 PUSH1 0x1F LT PUSH2 0x11A5 JUMPI PUSH2 0x100 DUP1 DUP4 SLOAD DIV MUL DUP4 MSTORE SWAP2 PUSH1 0x20 ADD SWAP2 PUSH2 0x11D0 JUMP JUMPDEST PUSH1 0x2 PUSH1 0x20 DUP2 DUP2 MSTORE PUSH1 0x0 SWAP3 DUP4 MSTORE PUSH1 0x40 SWAP3 DUP4 SWAP1 KECCAK256 DUP1 SLOAD DUP5 MLOAD PUSH1 0x1 DUP3 AND ISZERO PUSH2 0x100 MUL PUSH1 0x0 NOT ADD SWAP1 SWAP2 AND SWAP4 SWAP1 SWAP4 DIV PUSH1 0x1F DUP2 ADD DUP4 SWAP1 DIV DUP4 MUL DUP5 ADD DUP4 ADD SWAP1 SWAP5 MSTORE DUP4 DUP4 MSTORE SWAP3 DUP4 SWAP2 DUP4 ADD DUP3 DUP3 DUP1 ISZERO PUSH2 0x13C7 JUMPI DUP1 PUSH1 0x1F LT PUSH2 0x139C JUMPI PUSH2 0x100 DUP1 DUP4 SLOAD DIV MUL DUP4 MSTORE SWAP2 PUSH1 0x20 ADD SWAP2 PUSH2 0x13C7 JUMP JUMPDEST DUP3 ADD SWAP2 SWAP1 PUSH1 0x0 MSTORE PUSH1 0x20 PUSH1 0x0 KECCAK256 SWAP1 JUMPDEST DUP2 SLOAD DUP2 MSTORE SWAP1 PUSH1 0x1 ADD SWAP1 PUSH1 0x20 ADD DUP1 DUP4 GT PUSH2 0x13AA JUMPI DUP3 SWAP1 SUB PUSH1 0x1F AND DUP3 ADD SWAP2 JUMPDEST POP POP POP POP POP SWAP1 DUP1 PUSH1 0x1 ADD DUP1 SLOAD PUSH1 0x1 DUP2 PUSH1 0x1 AND ISZERO PUSH2 0x100 MUL SUB AND PUSH1 0x2 SWAP1 DIV DUP1 PUSH1 0x1F ADD PUSH1 0x20 DUP1 SWAP2 DIV MUL PUSH1 0x20 ADD PUSH1 0x40 MLOAD SWAP1 DUP2 ADD PUSH1 0x40 MSTORE DUP1 SWAP3 SWAP2 SWAP1 DUP2 DUP2 MSTORE PUSH1 0x20 ADD DUP3 DUP1 SLOAD PUSH1 0x1 DUP2 PUSH1 0x1 AND ISZERO PUSH2 0x100 MUL SUB AND PUSH1 0x2 SWAP1 DIV DUP1 ISZERO PUSH2 0x1465 JUMPI DUP1 PUSH1 0x1F LT PUSH2 0x143A JUMPI PUSH2 0x100 DUP1 DUP4 SLOAD DIV MUL DUP4 MSTORE SWAP2 PUSH1 0x20 ADD SWAP2 PUSH2 0x1465 JUMP JUMPDEST DUP3 ADD SWAP2 SWAP1 PUSH1 0x0 MSTORE PUSH1 0x20 PUSH1 0x0 KECCAK256 SWAP1 JUMPDEST DUP2 SLOAD DUP2 MSTORE SWAP1 PUSH1 0x1 ADD SWAP1 PUSH1 0x20 ADD DUP1 DUP4 GT PUSH2 0x1448 JUMPI DUP3 SWAP1 SUB PUSH1 0x1F AND DUP3 ADD SWAP2 JUMPDEST POP POP POP PUSH1 0x2 DUP5 ADD SLOAD PUSH1 0x3 DUP6 ADD SLOAD PUSH1 0x4 DUP7 ADD SLOAD PUSH1 0x5 DUP8 ADD SLOAD PUSH1 0x6 SWAP1 SWAP8 ADD SLOAD SWAP6 SWAP7 SWAP3 SWAP6 SWAP2 SWAP5 POP SWAP3 POP PUSH1 0xFF AND DUP8 JUMP JUMPDEST PUSH1 0x0 DUP1 PUSH1 0x0 DUP1 PUSH1 0x0 PUSH2 0x14A8 DUP11 DUP11 DUP11 PUSH1 0x1 DUP12 DUP12 PUSH2 0x154A JUMP JUMPDEST SWAP3 POP SWAP3 POP SWAP3 POP PUSH2 0x14BA DUP4 DUP4 DUP4 DUP10 PUSH2 0x15C1 JUMP JUMPDEST SWAP5 POP SWAP5 POP POP POP POP SWAP6 POP SWAP6 SWAP4 POP POP POP POP JUMP JUMPDEST PUSH1 0x0 DUP1 DUP1 DUP1 DUP1 DUP11 DUP10 EQ ISZERO PUSH2 0x1512 JUMPI DUP6 DUP1 PUSH2 0x14E1 JUMPI INVALID JUMPDEST DUP9 DUP12 ADDMOD PUSH2 0x14F8 JUMPI POP PUSH1 0x0 SWAP4 POP DUP4 SWAP3 POP PUSH2 0x153F SWAP2 POP POP JUMP JUMPDEST PUSH2 0x1506 DUP12 DUP12 PUSH1 0x1 DUP11 DUP11 PUSH2 0x1618 JUMP JUMPDEST SWAP2 SWAP5 POP SWAP3 POP SWAP1 POP PUSH2 0x152B JUMP JUMPDEST PUSH2 0x1523 DUP12 DUP12 PUSH1 0x1 DUP13 DUP13 PUSH1 0x1 DUP13 PUSH2 0x172E JUMP JUMPDEST SWAP2 SWAP5 POP SWAP3 POP SWAP1 POP JUMPDEST PUSH2 0x1537 DUP4 DUP4 DUP4 DUP10 PUSH2 0x15C1 JUMP JUMPDEST SWAP5 POP SWAP5 POP POP POP POP JUMPDEST SWAP7 POP SWAP7 SWAP5 POP POP POP POP POP JUMP JUMPDEST PUSH1 0x0 DUP1 DUP1 DUP9 PUSH2 0x1560 JUMPI POP DUP7 SWAP2 POP DUP6 SWAP1 POP DUP5 PUSH2 0x15B5 JUMP JUMPDEST DUP9 PUSH1 0x0 DUP1 PUSH1 0x1 JUMPDEST DUP4 ISZERO PUSH2 0x15AC JUMPI PUSH1 0x1 DUP5 AND ISZERO PUSH2 0x158D JUMPI PUSH2 0x1585 DUP4 DUP4 DUP4 DUP16 DUP16 DUP16 DUP15 PUSH2 0x172E JUMP JUMPDEST SWAP2 SWAP5 POP SWAP3 POP SWAP1 POP JUMPDEST PUSH1 0x2 DUP5 DIV SWAP4 POP PUSH2 0x15A0 DUP13 DUP13 DUP13 DUP13 DUP13 PUSH2 0x1618 JUMP JUMPDEST SWAP2 SWAP14 POP SWAP12 POP SWAP10 POP PUSH2 0x1567 JUMP JUMPDEST SWAP2 SWAP6 POP SWAP4 POP SWAP2 POP POP JUMPDEST SWAP7 POP SWAP7 POP SWAP7 SWAP4 POP POP POP POP JUMP JUMPDEST PUSH1 0x0 DUP1 PUSH1 0x0 PUSH2 0x15D0 DUP6 DUP6 PUSH2 0x19AB JUMP JUMPDEST SWAP1 POP PUSH1 0x0 DUP5 DUP1 PUSH2 0x15DC JUMPI INVALID JUMPDEST DUP3 DUP4 MULMOD SWAP1 POP PUSH1 0x0 DUP6 DUP1 PUSH2 0x15EB JUMPI INVALID JUMPDEST DUP3 DUP11 MULMOD SWAP1 POP PUSH1 0x0 DUP7 DUP1 PUSH2 0x15FA JUMPI INVALID JUMPDEST DUP8 DUP1 PUSH2 0x1602 JUMPI INVALID JUMPDEST DUP5 DUP7 MULMOD DUP11 MULMOD SWAP2 SWAP11 SWAP2 SWAP10 POP SWAP1 SWAP8 POP POP POP POP POP POP POP POP JUMP JUMPDEST PUSH1 0x0 DUP1 DUP1 DUP6 PUSH2 0x162E JUMPI POP DUP7 SWAP2 POP DUP6 SWAP1 POP DUP5 PUSH2 0x1723 JUMP JUMPDEST PUSH1 0x0 DUP5 DUP1 PUSH2 0x1638 JUMPI INVALID JUMPDEST DUP10 DUP11 MULMOD SWAP1 POP PUSH1 0x0 DUP6 DUP1 PUSH2 0x1647 JUMPI INVALID JUMPDEST DUP10 DUP11 MULMOD SWAP1 POP PUSH1 0x0 DUP7 DUP1 PUSH2 0x1656 JUMPI INVALID JUMPDEST DUP10 DUP11 MULMOD SWAP1 POP PUSH1 0x0 DUP8 DUP1 PUSH2 0x1665 JUMPI INVALID JUMPDEST DUP9 DUP1 PUSH2 0x166D JUMPI INVALID JUMPDEST DUP5 DUP15 MULMOD PUSH1 0x4 MULMOD SWAP1 POP PUSH1 0x0 DUP9 DUP1 PUSH2 0x167F JUMPI INVALID JUMPDEST DUP10 DUP1 PUSH2 0x1687 JUMPI INVALID JUMPDEST DUP11 DUP1 PUSH2 0x168F JUMPI INVALID JUMPDEST DUP6 DUP7 MULMOD DUP13 MULMOD DUP11 DUP1 PUSH2 0x169C JUMPI INVALID JUMPDEST DUP8 PUSH1 0x3 MULMOD ADDMOD SWAP1 POP DUP9 DUP1 PUSH2 0x16AB JUMPI INVALID JUMPDEST DUP10 DUP1 PUSH2 0x16B3 JUMPI INVALID JUMPDEST DUP4 DUP5 ADDMOD DUP11 SUB DUP11 DUP1 PUSH2 0x16C0 JUMPI INVALID JUMPDEST DUP4 DUP5 MULMOD ADDMOD SWAP5 POP DUP9 DUP1 PUSH2 0x16CE JUMPI INVALID JUMPDEST DUP10 DUP1 PUSH2 0x16D6 JUMPI INVALID JUMPDEST DUP11 DUP1 PUSH2 0x16DE JUMPI INVALID JUMPDEST DUP7 DUP8 MULMOD PUSH1 0x8 MULMOD DUP11 SUB DUP11 DUP1 PUSH2 0x16EE JUMPI INVALID JUMPDEST DUP12 DUP1 PUSH2 0x16F6 JUMPI INVALID JUMPDEST DUP9 DUP14 SUB DUP7 ADDMOD DUP5 MULMOD ADDMOD SWAP4 POP DUP9 DUP1 PUSH2 0x1708 JUMPI INVALID JUMPDEST DUP10 DUP1 PUSH2 0x1710 JUMPI INVALID JUMPDEST DUP13 DUP15 MULMOD PUSH1 0x2 MULMOD SWAP5 SWAP8 POP SWAP3 SWAP6 POP SWAP3 SWAP4 POP POP POP POP JUMPDEST SWAP6 POP SWAP6 POP SWAP6 SWAP3 POP POP POP JUMP JUMPDEST PUSH1 0x0 DUP1 DUP1 DUP10 ISZERO DUP1 ISZERO PUSH2 0x173E JUMPI POP DUP9 ISZERO JUMPDEST ISZERO PUSH2 0x1750 JUMPI POP DUP6 SWAP2 POP DUP5 SWAP1 POP DUP4 PUSH2 0x199E JUMP JUMPDEST DUP7 ISZERO DUP1 ISZERO PUSH2 0x175C JUMPI POP DUP6 ISZERO JUMPDEST ISZERO PUSH2 0x176E JUMPI POP DUP9 SWAP2 POP DUP8 SWAP1 POP DUP7 PUSH2 0x199E JUMP JUMPDEST PUSH2 0x1776 PUSH2 0x1B36 JUMP JUMPDEST DUP5 DUP1 PUSH2 0x177E JUMPI INVALID JUMPDEST DUP10 DUP11 MULMOD DUP2 MSTORE DUP5 DUP1 PUSH2 0x178B JUMPI INVALID JUMPDEST DUP2 MLOAD DUP11 MULMOD PUSH1 0x20 DUP3 ADD MSTORE DUP5 DUP1 PUSH2 0x179C JUMPI INVALID JUMPDEST DUP7 DUP8 MULMOD PUSH1 0x40 DUP3 ADD MSTORE DUP5 DUP1 PUSH2 0x17AC JUMPI INVALID JUMPDEST PUSH1 0x40 DUP3 ADD MLOAD DUP8 MULMOD PUSH1 0x60 DUP3 ADD MSTORE PUSH1 0x40 DUP1 MLOAD PUSH1 0x80 DUP2 ADD SWAP1 SWAP2 MSTORE DUP1 DUP7 DUP1 PUSH2 0x17CC JUMPI INVALID JUMPDEST PUSH1 0x40 DUP5 ADD MLOAD DUP15 MULMOD DUP2 MSTORE PUSH1 0x20 ADD DUP7 DUP1 PUSH2 0x17E0 JUMPI INVALID JUMPDEST PUSH1 0x60 DUP5 ADD MLOAD DUP14 MULMOD DUP2 MSTORE PUSH1 0x20 ADD DUP7 DUP1 PUSH2 0x17F4 JUMPI INVALID JUMPDEST DUP4 MLOAD DUP12 MULMOD DUP2 MSTORE PUSH1 0x20 ADD DUP7 DUP1 PUSH2 0x1805 JUMPI INVALID JUMPDEST PUSH1 0x20 DUP5 ADD MLOAD DUP11 MULMOD SWAP1 MSTORE PUSH1 0x40 DUP2 ADD MLOAD DUP2 MLOAD SWAP2 SWAP3 POP EQ ISZERO DUP1 PUSH2 0x182D JUMPI POP PUSH1 0x60 DUP2 ADD MLOAD PUSH1 0x20 DUP3 ADD MLOAD EQ ISZERO JUMPDEST PUSH2 0x187E JUMPI PUSH1 0x40 DUP1 MLOAD PUSH3 0x461BCD PUSH1 0xE5 SHL DUP2 MSTORE PUSH1 0x20 PUSH1 0x4 DUP3 ADD MSTORE PUSH1 0x1E PUSH1 0x24 DUP3 ADD MSTORE PUSH32 0x557365206A6163446F75626C652066756E6374696F6E20696E73746561640000 PUSH1 0x44 DUP3 ADD MSTORE SWAP1 MLOAD SWAP1 DUP2 SWAP1 SUB PUSH1 0x64 ADD SWAP1 REVERT JUMPDEST PUSH2 0x1886 PUSH2 0x1B36 JUMP JUMPDEST DUP6 DUP1 PUSH2 0x188E JUMPI INVALID JUMPDEST DUP3 MLOAD PUSH1 0x40 DUP5 ADD MLOAD SWAP1 DUP9 SUB SWAP1 ADDMOD DUP2 MSTORE DUP6 DUP1 PUSH2 0x18A4 JUMPI INVALID JUMPDEST PUSH1 0x20 DUP4 ADD MLOAD PUSH1 0x60 DUP5 ADD MLOAD SWAP1 DUP9 SUB SWAP1 ADDMOD PUSH1 0x20 DUP3 ADD MSTORE DUP6 DUP1 PUSH2 0x18C0 JUMPI INVALID JUMPDEST DUP2 MLOAD DUP1 MULMOD PUSH1 0x40 DUP3 ADD MSTORE DUP6 DUP1 PUSH2 0x18D1 JUMPI INVALID JUMPDEST DUP2 MLOAD PUSH1 0x40 DUP4 ADD MLOAD MULMOD PUSH1 0x60 DUP3 ADD MSTORE PUSH1 0x0 DUP7 DUP1 PUSH2 0x18E8 JUMPI INVALID JUMPDEST PUSH1 0x60 DUP4 ADD MLOAD DUP9 SUB DUP9 DUP1 PUSH2 0x18F7 JUMPI INVALID JUMPDEST PUSH1 0x20 DUP6 ADD MLOAD DUP1 MULMOD ADDMOD SWAP1 POP DUP7 DUP1 PUSH2 0x1909 JUMPI INVALID JUMPDEST DUP8 DUP1 PUSH2 0x1911 JUMPI INVALID JUMPDEST DUP9 DUP1 PUSH2 0x1919 JUMPI INVALID JUMPDEST PUSH1 0x40 DUP6 ADD MLOAD DUP7 MLOAD MULMOD PUSH1 0x2 MULMOD DUP9 SUB DUP3 ADDMOD SWAP1 POP PUSH1 0x0 DUP8 DUP1 PUSH2 0x1934 JUMPI INVALID JUMPDEST DUP9 DUP1 PUSH2 0x193C JUMPI INVALID JUMPDEST DUP4 DUP11 SUB DUP11 DUP1 PUSH2 0x1947 JUMPI INVALID JUMPDEST PUSH1 0x40 DUP8 ADD MLOAD DUP9 MLOAD MULMOD ADDMOD PUSH1 0x20 DUP6 ADD MLOAD MULMOD SWAP1 POP DUP8 DUP1 PUSH2 0x1960 JUMPI INVALID JUMPDEST DUP9 DUP1 PUSH2 0x1968 JUMPI INVALID JUMPDEST PUSH1 0x60 DUP6 ADD MLOAD PUSH1 0x20 DUP8 ADD MLOAD MULMOD DUP10 SUB DUP3 ADDMOD SWAP1 POP PUSH1 0x0 DUP9 DUP1 PUSH2 0x1983 JUMPI INVALID JUMPDEST DUP10 DUP1 PUSH2 0x198B JUMPI INVALID JUMPDEST DUP12 DUP16 MULMOD DUP6 MLOAD MULMOD SWAP3 SWAP8 POP SWAP1 SWAP6 POP SWAP1 SWAP4 POP POP POP POP JUMPDEST SWAP8 POP SWAP8 POP SWAP8 SWAP5 POP POP POP POP POP JUMP JUMPDEST PUSH1 0x0 DUP3 ISZERO DUP1 ISZERO SWAP1 PUSH2 0x19BC JUMPI POP DUP2 DUP4 EQ ISZERO JUMPDEST DUP1 ISZERO PUSH2 0x19C7 JUMPI POP DUP2 ISZERO ISZERO JUMPDEST PUSH2 0x1A09 JUMPI PUSH1 0x40 DUP1 MLOAD PUSH3 0x461BCD PUSH1 0xE5 SHL DUP2 MSTORE PUSH1 0x20 PUSH1 0x4 DUP3 ADD MSTORE PUSH1 0xE PUSH1 0x24 DUP3 ADD MSTORE PUSH14 0x24B73B30B634B210373AB6B132B9 PUSH1 0x91 SHL PUSH1 0x44 DUP3 ADD MSTORE SWAP1 MLOAD SWAP1 DUP2 SWAP1 SUB PUSH1 0x64 ADD SWAP1 REVERT JUMPDEST PUSH1 0x0 PUSH1 0x1 DUP4 DUP3 JUMPDEST DUP7 ISZERO PUSH2 0x1A4C JUMPI DUP7 DUP3 DUP2 PUSH2 0x1A1F JUMPI INVALID JUMPDEST DIV SWAP1 POP DUP3 DUP7 DUP1 PUSH2 0x1A2B JUMPI INVALID JUMPDEST DUP8 DUP1 PUSH2 0x1A33 JUMPI INVALID JUMPDEST DUP6 DUP5 MULMOD DUP9 SUB DUP7 ADDMOD DUP3 DUP10 MUL SWAP1 SWAP4 SUB SWAP8 SWAP1 SWAP5 POP SWAP2 SWAP3 POP PUSH2 0x1A10 JUMP JUMPDEST POP SWAP2 SWAP6 SWAP5 POP POP POP POP POP JUMP JUMPDEST DUP3 DUP1 SLOAD PUSH1 0x1 DUP2 PUSH1 0x1 AND ISZERO PUSH2 0x100 MUL SUB AND PUSH1 0x2 SWAP1 DIV SWAP1 PUSH1 0x0 MSTORE PUSH1 0x20 PUSH1 0x0 KECCAK256 SWAP1 PUSH1 0x1F ADD PUSH1 0x20 SWAP1 DIV DUP2 ADD SWAP3 DUP3 PUSH1 0x1F LT PUSH2 0x1A98 JUMPI DUP1 MLOAD PUSH1 0xFF NOT AND DUP4 DUP1 ADD OR DUP6 SSTORE PUSH2 0x1AC5 JUMP JUMPDEST DUP3 DUP1 ADD PUSH1 0x1 ADD DUP6 SSTORE DUP3 ISZERO PUSH2 0x1AC5 JUMPI SWAP2 DUP3 ADD JUMPDEST DUP3 DUP2 GT ISZERO PUSH2 0x1AC5 JUMPI DUP3 MLOAD DUP3 SSTORE SWAP2 PUSH1 0x20 ADD SWAP2 SWAP1 PUSH1 0x1 ADD SWAP1 PUSH2 0x1AAA JUMP JUMPDEST POP PUSH2 0x1AD1 SWAP3 SWAP2 POP PUSH2 0x1B54 JUMP JUMPDEST POP SWAP1 JUMP JUMPDEST DUP3 DUP1 SLOAD DUP3 DUP3 SSTORE SWAP1 PUSH1 0x0 MSTORE PUSH1 0x20 PUSH1 0x0 KECCAK256 SWAP1 DUP2 ADD SWAP3 DUP3 ISZERO PUSH2 0x1B2A JUMPI SWAP2 PUSH1 0x20 MUL DUP3 ADD JUMPDEST DUP3 DUP2 GT ISZERO PUSH2 0x1B2A JUMPI DUP3 MLOAD DUP3 SLOAD PUSH1 0x1 PUSH1 0x1 PUSH1 0xA0 SHL SUB NOT AND PUSH1 0x1 PUSH1 0x1 PUSH1 0xA0 SHL SUB SWAP1 SWAP2 AND OR DUP3 SSTORE PUSH1 0x20 SWAP1 SWAP3 ADD SWAP2 PUSH1 0x1 SWAP1 SWAP2 ADD SWAP1 PUSH2 0x1AF5 JUMP JUMPDEST POP PUSH2 0x1AD1 SWAP3 SWAP2 POP PUSH2 0x1B71 JUMP JUMPDEST PUSH1 0x40 MLOAD DUP1 PUSH1 0x80 ADD PUSH1 0x40 MSTORE DUP1 PUSH1 0x4 SWAP1 PUSH1 0x20 DUP3 MUL DUP1 CALLDATASIZE DUP4 CALLDATACOPY POP SWAP2 SWAP3 SWAP2 POP POP JUMP JUMPDEST PUSH2 0x1B6E SWAP2 SWAP1 JUMPDEST DUP1 DUP3 GT ISZERO PUSH2 0x1AD1 JUMPI PUSH1 0x0 DUP2 SSTORE PUSH1 0x1 ADD PUSH2 0x1B5A JUMP JUMPDEST SWAP1 JUMP JUMPDEST PUSH2 0x1B6E SWAP2 SWAP1 JUMPDEST DUP1 DUP3 GT ISZERO PUSH2 0x1AD1 JUMPI DUP1 SLOAD PUSH1 0x1 PUSH1 0x1 PUSH1 0xA0 SHL SUB NOT AND DUP2 SSTORE PUSH1 0x1 ADD PUSH2 0x1B77 JUMP INVALID 0x4F PUSH15 0x6C7920726563656976657273207769 PUSH21 0x682027616363657074656427207374617465206361 PUSH15 0x2063616E63656C4F6E6C792073656E PUSH5 0x6572206F66 KECCAK256 PUSH21 0x68652064656C69766572792063616E2066696E6973 PUSH9 0x54696D656F75742074 PUSH6 0x726D32206D75 PUSH20 0x742062652067726561746572207468616E205F74 PUSH6 0x726D31546865 KECCAK256 PUSH21 0x696D656F7574207465726D3220686173206E6F7420 PUSH3 0x65656E KECCAK256 PUSH19 0x6561636865645468652074696D656F75742074 PUSH6 0x726D31206861 PUSH20 0x206E6F74206265656E207265616368656420616E PUSH5 0x206E6F7420 PUSH2 0x6C6C KECCAK256 PUSH19 0x65636569766572732068617665206265656E20 PUSH2 0x6363 PUSH6 0x707465642074 PUSH9 0x652064656C69766572 PUSH26 0x5468652074696D656F7574207465726D3120686173206265656E KECCAK256 PUSH19 0x6561636865645620616E642047785B72695D2B TIMESTAMP PUSH10 0x785B63695D2061726520 PUSH15 0x6F7420657175616C7353656E646572 KECCAK256 PUSH9 0x617320746F2073656E PUSH5 0x2061206465 PUSH17 0x6F736974206F66206D696E696D756E2031 KECCAK256 PUSH24 0x65694F6E6C79207265636569766572732077697468202763 PUSH19 0x6561746564272073746174652063616E206163 PUSH4 0x657074A2 PUSH5 0x6970667358 0x22 SLT KECCAK256 0xE ORIGIN PUSH6 0x9E26575028DB PUSH1 0x75 SWAP6 0xB9 0xC8 PUSH20 0xF37B13C78EED0DFA417AED40896D91670064736F PUSH13 0x63430006060033000000000000 "
        },
        "gasEstimates": {
          "creation": {
            "codeDepositCost": "1506200",
            "executionCost": "22399",
            "totalCost": "1528599"
          },
          "external": {
            "A()": "infinite",
            "AA()": "287",
            "BB()": "265",
            "GX()": "222",
            "GY()": "221",
            "PP()": "289",
            "a()": "244",
            "accept(string,bytes,uint256,uint256,uint256)": "infinite",
            "cancel()": "infinite",
            "finish(address,uint256)": "infinite",
            "getR(address)": "1259",
            "getState(address)": "infinite",
            "hashIPFS()": "infinite",
            "initialize(address,address[],uint256,uint256,string,string,uint256,uint256)": "infinite",
            "isBase()": "1055",
            "receivers(uint256)": "1992",
            "receiversState(address)": "infinite",
            "sender()": "1170",
            "start()": "1131",
            "term1()": "1021",
            "term2()": "1110",
            "vx()": "1043",
            "vy()": "1042"
          }
        },
        "methodIdentifiers": {
          "A()": "f446c1d0",
          "AA()": "997da8d4",
          "BB()": "5727dc5c",
          "GX()": "03a507be",
          "GY()": "7a308a4c",
          "PP()": "eeeac01e",
          "a()": "0dbe671f",
          "accept(string,bytes,uint256,uint256,uint256)": "57dc3742",
          "cancel()": "ea8a1af0",
          "finish(address,uint256)": "29008824",
          "getR(address)": "6349ca37",
          "getState(address)": "1bab58f5",
          "hashIPFS()": "a1cbf5f9",
          "initialize(address,address[],uint256,uint256,string,string,uint256,uint256)": "872b2223",
          "isBase()": "7f80069a",
          "receivers(uint256)": "bfd772fc",
          "receiversState(address)": "ff7edf42",
          "sender()": "67e404ce",
          "start()": "be9a6555",
          "term1()": "4c87c67d",
          "term2()": "3b4a0828",
          "vx()": "4e8c0bd6",
          "vy()": "cd12a4b0"
        }
      },
      "storageLayout": {
        "storage": [
          {
            "astId": 1355,
            "contract": "contracts/ConfidentialMultipartyRegisteredEDeliveryWithoutTTP.sol:ConfidentialMultipartyRegisteredEDeliveryWithoutTTP",
            "label": "sender",
            "offset": 0,
            "slot": "0",
            "type": "t_address"
          },
          {
            "astId": 1358,
            "contract": "contracts/ConfidentialMultipartyRegisteredEDeliveryWithoutTTP.sol:ConfidentialMultipartyRegisteredEDeliveryWithoutTTP",
            "label": "receivers",
            "offset": 0,
            "slot": "1",
            "type": "t_array(t_address)dyn_storage"
          },
          {
            "astId": 1362,
            "contract": "contracts/ConfidentialMultipartyRegisteredEDeliveryWithoutTTP.sol:ConfidentialMultipartyRegisteredEDeliveryWithoutTTP",
            "label": "receiversState",
            "offset": 0,
            "slot": "2",
            "type": "t_mapping(t_address,t_struct(ReceiverState)1353_storage)"
          },
          {
            "astId": 1364,
            "contract": "contracts/ConfidentialMultipartyRegisteredEDeliveryWithoutTTP.sol:ConfidentialMultipartyRegisteredEDeliveryWithoutTTP",
            "label": "acceptedReceivers",
            "offset": 0,
            "slot": "3",
            "type": "t_uint256"
          },
          {
            "astId": 1366,
            "contract": "contracts/ConfidentialMultipartyRegisteredEDeliveryWithoutTTP.sol:ConfidentialMultipartyRegisteredEDeliveryWithoutTTP",
            "label": "vx",
            "offset": 0,
            "slot": "4",
            "type": "t_uint256"
          },
          {
            "astId": 1368,
            "contract": "contracts/ConfidentialMultipartyRegisteredEDeliveryWithoutTTP.sol:ConfidentialMultipartyRegisteredEDeliveryWithoutTTP",
            "label": "vy",
            "offset": 0,
            "slot": "5",
            "type": "t_uint256"
          },
          {
            "astId": 1370,
            "contract": "contracts/ConfidentialMultipartyRegisteredEDeliveryWithoutTTP.sol:ConfidentialMultipartyRegisteredEDeliveryWithoutTTP",
            "label": "hashIPFS",
            "offset": 0,
            "slot": "6",
            "type": "t_string_storage"
          },
          {
            "astId": 1372,
            "contract": "contracts/ConfidentialMultipartyRegisteredEDeliveryWithoutTTP.sol:ConfidentialMultipartyRegisteredEDeliveryWithoutTTP",
            "label": "A",
            "offset": 0,
            "slot": "7",
            "type": "t_string_storage"
          },
          {
            "astId": 1392,
            "contract": "contracts/ConfidentialMultipartyRegisteredEDeliveryWithoutTTP.sol:ConfidentialMultipartyRegisteredEDeliveryWithoutTTP",
            "label": "term1",
            "offset": 0,
            "slot": "8",
            "type": "t_uint256"
          },
          {
            "astId": 1394,
            "contract": "contracts/ConfidentialMultipartyRegisteredEDeliveryWithoutTTP.sol:ConfidentialMultipartyRegisteredEDeliveryWithoutTTP",
            "label": "term2",
            "offset": 0,
            "slot": "9",
            "type": "t_uint256"
          },
          {
            "astId": 1396,
            "contract": "contracts/ConfidentialMultipartyRegisteredEDeliveryWithoutTTP.sol:ConfidentialMultipartyRegisteredEDeliveryWithoutTTP",
            "label": "start",
            "offset": 0,
            "slot": "10",
            "type": "t_uint256"
          },
          {
            "astId": 1398,
            "contract": "contracts/ConfidentialMultipartyRegisteredEDeliveryWithoutTTP.sol:ConfidentialMultipartyRegisteredEDeliveryWithoutTTP",
            "label": "isBase",
            "offset": 0,
            "slot": "11",
            "type": "t_bool"
          }
        ],
        "types": {
          "t_address": {
            "encoding": "inplace",
            "label": "address",
            "numberOfBytes": "20"
          },
          "t_array(t_address)dyn_storage": {
            "base": "t_address",
            "encoding": "dynamic_array",
            "label": "address[]",
            "numberOfBytes": "32"
          },
          "t_bool": {
            "encoding": "inplace",
            "label": "bool",
            "numberOfBytes": "1"
          },
          "t_bytes_storage": {
            "encoding": "bytes",
            "label": "bytes",
            "numberOfBytes": "32"
          },
          "t_enum(State)1338": {
            "encoding": "inplace",
            "label": "enum ConfidentialMultipartyRegisteredEDeliveryWithoutTTP.State",
            "numberOfBytes": "1"
          },
          "t_mapping(t_address,t_struct(ReceiverState)1353_storage)": {
            "encoding": "mapping",
            "key": "t_address",
            "label": "mapping(address => struct ConfidentialMultipartyRegisteredEDeliveryWithoutTTP.ReceiverState)",
            "numberOfBytes": "32",
            "value": "t_struct(ReceiverState)1353_storage"
          },
          "t_string_storage": {
            "encoding": "bytes",
            "label": "string",
            "numberOfBytes": "32"
          },
          "t_struct(ReceiverState)1353_storage": {
            "encoding": "inplace",
            "label": "struct ConfidentialMultipartyRegisteredEDeliveryWithoutTTP.ReceiverState",
            "members": [
              {
                "astId": 1340,
                "contract": "contracts/ConfidentialMultipartyRegisteredEDeliveryWithoutTTP.sol:ConfidentialMultipartyRegisteredEDeliveryWithoutTTP",
                "label": "z1",
                "offset": 0,
                "slot": "0",
                "type": "t_string_storage"
              },
              {
                "astId": 1342,
                "contract": "contracts/ConfidentialMultipartyRegisteredEDeliveryWithoutTTP.sol:ConfidentialMultipartyRegisteredEDeliveryWithoutTTP",
                "label": "z2",
                "offset": 0,
                "slot": "1",
                "type": "t_bytes_storage"
              },
              {
                "astId": 1344,
                "contract": "contracts/ConfidentialMultipartyRegisteredEDeliveryWithoutTTP.sol:ConfidentialMultipartyRegisteredEDeliveryWithoutTTP",
                "label": "bx",
                "offset": 0,
                "slot": "2",
                "type": "t_uint256"
              },
              {
                "astId": 1346,
                "contract": "contracts/ConfidentialMultipartyRegisteredEDeliveryWithoutTTP.sol:ConfidentialMultipartyRegisteredEDeliveryWithoutTTP",
                "label": "by",
                "offset": 0,
                "slot": "3",
                "type": "t_uint256"
              },
              {
                "astId": 1348,
                "contract": "contracts/ConfidentialMultipartyRegisteredEDeliveryWithoutTTP.sol:ConfidentialMultipartyRegisteredEDeliveryWithoutTTP",
                "label": "c",
                "offset": 0,
                "slot": "4",
                "type": "t_uint256"
              },
              {
                "astId": 1350,
                "contract": "contracts/ConfidentialMultipartyRegisteredEDeliveryWithoutTTP.sol:ConfidentialMultipartyRegisteredEDeliveryWithoutTTP",
                "label": "r",
                "offset": 0,
                "slot": "5",
                "type": "t_uint256"
              },
              {
                "astId": 1352,
                "contract": "contracts/ConfidentialMultipartyRegisteredEDeliveryWithoutTTP.sol:ConfidentialMultipartyRegisteredEDeliveryWithoutTTP",
                "label": "state",
                "offset": 0,
                "slot": "6",
                "type": "t_enum(State)1338"
              }
            ],
            "numberOfBytes": "224"
          },
          "t_uint256": {
            "encoding": "inplace",
            "label": "uint256",
            "numberOfBytes": "32"
          }
        }
      },
      "userdoc": {
        "methods": {}
      }
    }
  }
}