{
  "contracts/ConfidentialMultipartyRegisteredEDeliveryWithoutTTP.sol": {
    "ConfidentialMultipartyRegisteredEDeliveryWithoutTTP": {
      "abi": [
        {
          "constant": true,
          "inputs": [],
          "name": "GX",
          "outputs": [
            {
              "name": "",
              "type": "uint256"
            }
          ],
          "payable": false,
          "stateMutability": "view",
          "type": "function"
        },
        {
          "constant": true,
          "inputs": [],
          "name": "a",
          "outputs": [
            {
              "name": "",
              "type": "uint256"
            }
          ],
          "payable": false,
          "stateMutability": "view",
          "type": "function"
        },
        {
          "constant": true,
          "inputs": [
            {
              "name": "_receiver",
              "type": "address"
            }
          ],
          "name": "getState",
          "outputs": [
            {
              "name": "",
              "type": "string"
            }
          ],
          "payable": false,
          "stateMutability": "view",
          "type": "function"
        },
        {
          "constant": false,
          "inputs": [
            {
              "name": "_receiver",
              "type": "address"
            },
            {
              "name": "_r",
              "type": "uint256"
            }
          ],
          "name": "finish",
          "outputs": [],
          "payable": false,
          "stateMutability": "nonpayable",
          "type": "function"
        },
        {
          "constant": true,
          "inputs": [],
          "name": "term2",
          "outputs": [
            {
              "name": "",
              "type": "uint256"
            }
          ],
          "payable": false,
          "stateMutability": "view",
          "type": "function"
        },
        {
          "constant": true,
          "inputs": [],
          "name": "term1",
          "outputs": [
            {
              "name": "",
              "type": "uint256"
            }
          ],
          "payable": false,
          "stateMutability": "view",
          "type": "function"
        },
        {
          "constant": true,
          "inputs": [],
          "name": "vx",
          "outputs": [
            {
              "name": "",
              "type": "uint256"
            }
          ],
          "payable": false,
          "stateMutability": "view",
          "type": "function"
        },
        {
          "constant": true,
          "inputs": [],
          "name": "BB",
          "outputs": [
            {
              "name": "",
              "type": "uint256"
            }
          ],
          "payable": false,
          "stateMutability": "view",
          "type": "function"
        },
        {
          "constant": false,
          "inputs": [
            {
              "name": "_z1",
              "type": "string"
            },
            {
              "name": "_z2",
              "type": "bytes"
            },
            {
              "name": "_bx",
              "type": "uint256"
            },
            {
              "name": "_by",
              "type": "uint256"
            },
            {
              "name": "_c",
              "type": "uint256"
            }
          ],
          "name": "accept",
          "outputs": [],
          "payable": false,
          "stateMutability": "nonpayable",
          "type": "function"
        },
        {
          "constant": true,
          "inputs": [
            {
              "name": "_receiver",
              "type": "address"
            }
          ],
          "name": "getR",
          "outputs": [
            {
              "name": "",
              "type": "uint256"
            }
          ],
          "payable": false,
          "stateMutability": "view",
          "type": "function"
        },
        {
          "constant": true,
          "inputs": [],
          "name": "sender",
          "outputs": [
            {
              "name": "",
              "type": "address"
            }
          ],
          "payable": false,
          "stateMutability": "view",
          "type": "function"
        },
        {
          "constant": true,
          "inputs": [],
          "name": "GY",
          "outputs": [
            {
              "name": "",
              "type": "uint256"
            }
          ],
          "payable": false,
          "stateMutability": "view",
          "type": "function"
        },
        {
          "constant": true,
          "inputs": [],
          "name": "AA",
          "outputs": [
            {
              "name": "",
              "type": "uint256"
            }
          ],
          "payable": false,
          "stateMutability": "view",
          "type": "function"
        },
        {
          "constant": true,
          "inputs": [],
          "name": "hashIPFS",
          "outputs": [
            {
              "name": "",
              "type": "string"
            }
          ],
          "payable": false,
          "stateMutability": "view",
          "type": "function"
        },
        {
          "constant": true,
          "inputs": [],
          "name": "start",
          "outputs": [
            {
              "name": "",
              "type": "uint256"
            }
          ],
          "payable": false,
          "stateMutability": "view",
          "type": "function"
        },
        {
          "constant": true,
          "inputs": [
            {
              "name": "",
              "type": "uint256"
            }
          ],
          "name": "receivers",
          "outputs": [
            {
              "name": "",
              "type": "address"
            }
          ],
          "payable": false,
          "stateMutability": "view",
          "type": "function"
        },
        {
          "constant": true,
          "inputs": [],
          "name": "vy",
          "outputs": [
            {
              "name": "",
              "type": "uint256"
            }
          ],
          "payable": false,
          "stateMutability": "view",
          "type": "function"
        },
        {
          "constant": false,
          "inputs": [],
          "name": "cancel",
          "outputs": [],
          "payable": false,
          "stateMutability": "nonpayable",
          "type": "function"
        },
        {
          "constant": true,
          "inputs": [],
          "name": "PP",
          "outputs": [
            {
              "name": "",
              "type": "uint256"
            }
          ],
          "payable": false,
          "stateMutability": "view",
          "type": "function"
        },
        {
          "constant": true,
          "inputs": [],
          "name": "A",
          "outputs": [
            {
              "name": "",
              "type": "string"
            }
          ],
          "payable": false,
          "stateMutability": "view",
          "type": "function"
        },
        {
          "constant": true,
          "inputs": [
            {
              "name": "",
              "type": "address"
            }
          ],
          "name": "receiversState",
          "outputs": [
            {
              "name": "z1",
              "type": "string"
            },
            {
              "name": "z2",
              "type": "bytes"
            },
            {
              "name": "bx",
              "type": "uint256"
            },
            {
              "name": "by",
              "type": "uint256"
            },
            {
              "name": "c",
              "type": "uint256"
            },
            {
              "name": "r",
              "type": "uint256"
            },
            {
              "name": "state",
              "type": "uint8"
            }
          ],
          "payable": false,
          "stateMutability": "view",
          "type": "function"
        },
        {
          "inputs": [
            {
              "name": "_sender",
              "type": "address"
            },
            {
              "name": "_receivers",
              "type": "address[]"
            },
            {
              "name": "_vx",
              "type": "uint256"
            },
            {
              "name": "_vy",
              "type": "uint256"
            },
            {
              "name": "_hashIPFS",
              "type": "string"
            },
            {
              "name": "_A",
              "type": "string"
            },
            {
              "name": "_term1",
              "type": "uint256"
            },
            {
              "name": "_term2",
              "type": "uint256"
            }
          ],
          "payable": true,
          "stateMutability": "payable",
          "type": "constructor"
        }
      ],
      "devdoc": {
        "methods": {}
      },
      "evm": {
        "bytecode": {
          "linkReferences": {},
          "object": "608060405260405162001ddc38038062001ddc83398101806040526101008110156200002a57600080fd5b8151602083018051919392830192916401000000008111156200004c57600080fd5b820160208101848111156200006057600080fd5b81518560208202830111640100000000821117156200007e57600080fd5b50506020820151604083015160609093018051929591949192640100000000811115620000aa57600080fd5b82016020810184811115620000be57600080fd5b8151640100000000811182820187101715620000d957600080fd5b50509291906020018051640100000000811115620000f657600080fd5b820160208101848111156200010a57600080fd5b81516401000000008111828201871017156200012557600080fd5b505060208201516040909201519093509091506000341162000193576040517f08c379a000000000000000000000000000000000000000000000000000000000815260040180806020018281038252602d81526020018062001daf602d913960400191505060405180910390fd5b808210620001ed576040517f08c379a000000000000000000000000000000000000000000000000000000000815260040180806020018281038252602981526020018062001d866029913960400191505060405180910390fd5b60008054600160a060020a031916600160a060020a038a1617905586516200021d9060019060208a0190620002e2565b5060005b6001548110156200028c576001600260006001848154811015156200024257fe5b6000918252602080832090910154600160a060020a031683528201929092526040019020600601805460ff191660018360058111156200027e57fe5b021790555060010162000221565b506000600355600486905560058590558351620002b19060069060208701906200034c565b508251620002c79060079060208601906200034c565b5042600a556008919091556009555062000414945050505050565b8280548282559060005260206000209081019282156200033a579160200282015b828111156200033a5782518254600160a060020a031916600160a060020a0390911617825560209092019160019091019062000303565b5062000348929150620003cd565b5090565b828054600181600116156101000203166002900490600052602060002090601f016020900481019282601f106200038f57805160ff1916838001178555620003bf565b82800160010185558215620003bf579182015b82811115620003bf578251825591602001919060010190620003a2565b5062000348929150620003f7565b620003f491905b8082111562000348578054600160a060020a0319168155600101620003d4565b90565b620003f491905b80821115620003485760008155600101620003fe565b61196280620004246000396000f3fe608060405234801561001057600080fd5b5060043610610154576000357c01000000000000000000000000000000000000000000000000000000009004806367e404ce116100d5578063bfd772fc11610099578063bfd772fc146103fe578063cd12a4b01461041b578063ea8a1af014610423578063eeeac01e1461042b578063f446c1d014610433578063ff7edf421461043b57610154565b806367e404ce146103c25780637a308a4c146103e6578063997da8d414610173578063a1cbf5f9146103ee578063be9a6555146103f657610154565b80634c87c67d1161011c5780634c87c67d1461024c5780634e8c0bd6146102545780635727dc5c1461025c57806357dc3742146102645780636349ca371461039c57610154565b806303a507be146101595780630dbe671f146101735780631bab58f51461017b57806329008824146102165780633b4a082814610244575b600080fd5b610161610570565b60408051918252519081900360200190f35b610161610594565b6101a16004803603602081101561019157600080fd5b5035600160a060020a0316610599565b6040805160208082528351818301528351919283929083019185019080838360005b838110156101db5781810151838201526020016101c3565b50505050905090810190601f1680156102085780820380516001836020036101000a031916815260200191505b509250505060405180910390f35b6102426004803603604081101561022c57600080fd5b50600160a060020a038135169060200135610824565b005b610161610bfc565b610161610c02565b610161610c08565b610161610c0e565b610242600480360360a081101561027a57600080fd5b81019060208101813564010000000081111561029557600080fd5b8201836020820111156102a757600080fd5b803590602001918460018302840111640100000000831117156102c957600080fd5b91908080601f016020809104026020016040519081016040528093929190818152602001838380828437600092019190915250929594936020810193503591505064010000000081111561031c57600080fd5b82018360208201111561032e57600080fd5b8035906020019184600183028401116401000000008311171561035057600080fd5b91908080601f0160208091040260200160405190810160405280939291908181526020018383808284376000920191909152509295505082359350505060208101359060400135610c13565b610161600480360360208110156103b257600080fd5b5035600160a060020a0316610d48565b6103ca610d66565b60408051600160a060020a039092168252519081900360200190f35b610161610d75565b6101a1610d99565b610161610e27565b6103ca6004803603602081101561041457600080fd5b5035610e2d565b610161610e55565b610242610e5b565b610161610f27565b6101a1610f31565b6104616004803603602081101561045157600080fd5b5035600160a060020a0316610f8c565b60405180806020018060200188815260200187815260200186815260200185815260200184600581111561049157fe5b60ff16815260200183810383528a818151815260200191508051906020019080838360005b838110156104ce5781810151838201526020016104b6565b50505050905090810190601f1680156104fb5780820380516001836020036101000a031916815260200191505b5083810382528951815289516020918201918b019080838360005b8381101561052e578181015183820152602001610516565b50505050905090810190601f16801561055b5780820380516001836020036101000a031916815260200191505b50995050505050505050505060405180910390f35b7f79be667ef9dcbbac55a06295ce870b07029bfcdb2dce28d959f2815b16f8179881565b600081565b60606000600160a060020a03831660009081526002602052604090206006015460ff1660058111156105c757fe5b1415610607575060408051808201909152600a81527f6e6f742065786973747300000000000000000000000000000000000000000000602082015261081f565b6001600160a060020a03831660009081526002602052604090206006015460ff16600581111561063357fe5b1415610673575060408051808201909152600781527f6372656174656400000000000000000000000000000000000000000000000000602082015261081f565b6002600160a060020a03831660009081526002602052604090206006015460ff16600581111561069f57fe5b14156106df575060408051808201909152600981527f63616e63656c6c65640000000000000000000000000000000000000000000000602082015261081f565b6003600160a060020a03831660009081526002602052604090206006015460ff16600581111561070b57fe5b141561074b575060408051808201909152600881527f6163636570746564000000000000000000000000000000000000000000000000602082015261081f565b6004600160a060020a03831660009081526002602052604090206006015460ff16600581111561077757fe5b14156107b7575060408051808201909152600881527f66696e6973686564000000000000000000000000000000000000000000000000602082015261081f565b6005600160a060020a03831660009081526002602052604090206006015460ff1660058111156107e357fe5b141561081f575060408051808201909152600881527f72656a656374656400000000000000000000000000000000000000000000000060208201525b919050565b600080600080600080600854600a540142101580610846575060015460035410155b15156108865760405160e560020a62461bcd02815260040180806020018281038252605c815260200180611868605c913960600191505060405180910390fd5b600054600160a060020a031633146108d25760405160e560020a62461bcd02815260040180806020018281038252602681526020018061181c6026913960400191505060405180910390fd5b61092c877f79be667ef9dcbbac55a06295ce870b07029bfcdb2dce28d959f2815b16f817987f483ada7726a3c4655da4fbfc0e1108a8fd17b448a68554199c47d08ffb10d4b860006401000003d01963ffffffff6110e716565b600160a060020a038a1660009081526002602081905260408220908101546003820154600490920154949a509298506109739392916401000003d01963ffffffff6110e716565b90945092506109938686868660006401000003d01963ffffffff61112116565b60045491935091508214156109dc5760405160e560020a62461bcd0281526004018080602001828103825260238152602001806118e66023913960400191505060405180910390fd5b600554811415610a205760405160e560020a62461bcd0281526004018080602001828103825260238152602001806118e66023913960400191505060405180910390fd5b6040513390303180156108fc02916000818181858888f19350505050158015610a4d573d6000803e3d6000fd5b5060005b600154811015610bf1578760026000600184815481101515610a6f57fe5b6000918252602080832090910154600160a060020a03168352820192909252604001902060050155600360026000600184815481101515610aac57fe5b6000918252602080832090910154600160a060020a0316835282019290925260400190206006015460ff166005811115610ae257fe5b1415610b4257600460026000600184815481101515610afd57fe5b6000918252602080832090910154600160a060020a031683528201929092526040019020600601805460ff19166001836005811115610b3857fe5b0217905550610be9565b600160026000600184815481101515610b5757fe5b6000918252602080832090910154600160a060020a0316835282019290925260400190206006015460ff166005811115610b8d57fe5b1415610be957600560026000600184815481101515610ba857fe5b6000918252602080832090910154600160a060020a031683528201929092526040019020600601805460ff19166001836005811115610be357fe5b02179055505b600101610a51565b505050505050505050565b60095481565b60085481565b60045481565b600781565b600854600a54014210610c5a5760405160e560020a62461bcd0281526004018080602001828103825260228152602001806118c46022913960400191505060405180910390fd5b60013360009081526002602052604090206006015460ff166005811115610c7d57fe5b14610cbc5760405160e560020a62461bcd02815260040180806020018281038252602e815260200180611909602e913960400191505060405180910390fd5b6003805460010190553360009081526002602090815260409091208651610ce592880190611732565b503360009081526002602090815260409091208551610d0c92600190920191870190611732565b503360009081526002602081905260409091209081019390935560038084019290925560048301556006909101805460ff191690911790555050565b600160a060020a031660009081526002602052604090206005015490565b600054600160a060020a031681565b7f483ada7726a3c4655da4fbfc0e1108a8fd17b448a68554199c47d08ffb10d4b881565b6006805460408051602060026001851615610100026000190190941693909304601f81018490048402820184019092528181529291830182828015610e1f5780601f10610df457610100808354040283529160200191610e1f565b820191906000526020600020905b815481529060010190602001808311610e0257829003601f168201915b505050505081565b600a5481565b6001805482908110610e3b57fe5b600091825260209091200154600160a060020a0316905081565b60055481565b600954600a5401421015610ea35760405160e560020a62461bcd0281526004018080602001828103825260268152602001806118426026913960400191505060405180910390fd5b60033360009081526002602052604090206006015460ff166005811115610ec657fe5b14610f055760405160e560020a62461bcd02815260040180806020018281038252602f8152602001806117ed602f913960400191505060405180910390fd5b336000908152600260208190526040909120600601805460ff19169091179055565b6401000003d01981565b6007805460408051602060026001851615610100026000190190941693909304601f81018490048402820184019092528181529291830182828015610e1f5780601f10610df457610100808354040283529160200191610e1f565b600260208181526000928352604092839020805484516001821615610100026000190190911693909304601f810183900483028401830190945283835292839183018282801561101d5780601f10610ff25761010080835404028352916020019161101d565b820191906000526020600020905b81548152906001019060200180831161100057829003601f168201915b505050505090806001018054600181600116156101000203166002900480601f0160208091040260200160405190810160405280929190818152602001828054600181600116156101000203166002900480156110bb5780601f10611090576101008083540402835291602001916110bb565b820191906000526020600020905b81548152906001019060200180831161109e57829003601f168201915b505050600284015460038501546004860154600587015460069097015495969295919450925060ff1687565b60008060008060006110fe8a8a8a60018b8b6111a4565b9250925092506111108383838961121d565b945094505050509550959350505050565b6000808080808a89141561116c578580151561113957fe5b888b081515611152575060009350839250611199915050565b6111608b8b60018a8a61127c565b91945092509050611185565b61117d8b8b60018c8c60018c6113ba565b919450925090505b6111918383838961121d565b945094505050505b965096945050505050565b600080808815156111bc575086915085905084611211565b8860008060015b83156112085760018416156111e9576111e18383838f8f8f8e6113ba565b919450925090505b6002840493506111fc8c8c8c8c8c61127c565b919d509b5099506111c3565b91955093509150505b96509650969350505050565b600080600061122c858561166c565b905060008480151561123a57fe5b828309905060008580151561124b57fe5b828a09905060008680151561125c57fe5b8780151561126657fe5b8486098a09919a91995090975050505050505050565b600080808515156112945750869150859050846113af565b6000848015156112a057fe5b898a0990506000858015156112b157fe5b898a0990506000868015156112c257fe5b898a0990506000878015156112d357fe5b888015156112dd57fe5b848e0960040990506000888015156112f157fe5b898015156112fb57fe5b8a80151561130557fe5b8586098c098a80151561131457fe5b876003090890508880151561132557fe5b8980151561132f57fe5b8384088a038a80151561133e57fe5b8384090894508880151561134e57fe5b8980151561135857fe5b8a80151561136257fe5b8687096008098a038a80151561137457fe5b8b80151561137e57fe5b888d03860884090893508880151561139257fe5b8980151561139c57fe5b8c8e096002099497509295509293505050505b955095509592505050565b60008080891580156113ca575088155b156113dc57508591508490508361165f565b861580156113e8575085155b156113fa57508891508790508661165f565b6114026117b0565b8480151561140c57fe5b898a0981528480151561141b57fe5b81518a0960208201528480151561142e57fe5b86870960408201528480151561144057fe5b6040820151870960608201526040805160808101909152808680151561146257fe5b60408401518e0981526020018680151561147857fe5b60608401518d0981526020018680151561148e57fe5b83518b098152602001868015156114a157fe5b60208401518a099052604081015181519192501415806114c957506060810151602082015114155b151561151f576040805160e560020a62461bcd02815260206004820152601e60248201527f557365206a6163446f75626c652066756e6374696f6e20696e73746561640000604482015290519081900360640190fd5b6115276117b0565b8580151561153157fe5b82516040840151908803900881528580151561154957fe5b60208301516060840151908803900860208201528580151561156757fe5b8151800960408201528580151561157a57fe5b8151604083015109606082015260008680151561159357fe5b60608301518803888015156115a457fe5b60208501518009089050868015156115b857fe5b878015156115c257fe5b888015156115cc57fe5b60408501518651096002098803820890506000878015156115e957fe5b888015156115f357fe5b838a038a80151561160057fe5b60408701518851090860208501510990508780151561161b57fe5b8880151561162557fe5b606085015160208701510989038208905060008880151561164257fe5b8980151561164c57fe5b8b8f098551099297509095509093505050505b9750975097945050505050565b6000821580159061167d5750818314155b801561168857508115155b15156116de576040805160e560020a62461bcd02815260206004820152600e60248201527f496e76616c6964206e756d626572000000000000000000000000000000000000604482015290519081900360640190fd5b6000600183825b86156117275786828115156116f657fe5b049050828680151561170457fe5b8780151561170e57fe5b85840988038608828902909303979094509192506116e5565b509195945050505050565b828054600181600116156101000203166002900490600052602060002090601f016020900481019282601f1061177357805160ff19168380011785556117a0565b828001600101855582156117a0579182015b828111156117a0578251825591602001919060010190611785565b506117ac9291506117cf565b5090565b6080604051908101604052806004906020820280388339509192915050565b6117e991905b808211156117ac57600081556001016117d5565b9056fe4f6e6c7920726563656976657273207769746820276163636570746564272073746174652063616e2063616e63656c4f6e6c792073656e646572206f66207468652064656c69766572792063616e2066696e6973685468652074696d656f7574207465726d3220686173206e6f74206265656e20726561636865645468652074696d656f7574207465726d3120686173206e6f74206265656e207265616368656420616e64206e6f7420616c6c207265636569766572732068617665206265656e206163636570746564207468652064656c69766572795468652074696d656f7574207465726d3120686173206265656e20726561636865645620616e642047785b72695d2b4269785b63695d20617265206e6f7420657175616c734f6e6c79207265636569766572732077697468202763726561746564272073746174652063616e20616363657074a165627a7a7230582037e8d11e248d29793a244ca04bdfd4489fab4648f4046b34ffcaf15d1b8ecf61002954696d656f7574207465726d32206d7573742062652067726561746572207468616e205f7465726d3153656e6465722068617320746f2073656e642061206465706f736974206f66206d696e696d756e203120776569",
          "opcodes": "PUSH1 0x80 PUSH1 0x40 MSTORE PUSH1 0x40 MLOAD PUSH3 0x1DDC CODESIZE SUB DUP1 PUSH3 0x1DDC DUP4 CODECOPY DUP2 ADD DUP1 PUSH1 0x40 MSTORE PUSH2 0x100 DUP2 LT ISZERO PUSH3 0x2A JUMPI PUSH1 0x0 DUP1 REVERT JUMPDEST DUP2 MLOAD PUSH1 0x20 DUP4 ADD DUP1 MLOAD SWAP2 SWAP4 SWAP3 DUP4 ADD SWAP3 SWAP2 PUSH5 0x100000000 DUP2 GT ISZERO PUSH3 0x4C JUMPI PUSH1 0x0 DUP1 REVERT JUMPDEST DUP3 ADD PUSH1 0x20 DUP2 ADD DUP5 DUP2 GT ISZERO PUSH3 0x60 JUMPI PUSH1 0x0 DUP1 REVERT JUMPDEST DUP2 MLOAD DUP6 PUSH1 0x20 DUP3 MUL DUP4 ADD GT PUSH5 0x100000000 DUP3 GT OR ISZERO PUSH3 0x7E JUMPI PUSH1 0x0 DUP1 REVERT JUMPDEST POP POP PUSH1 0x20 DUP3 ADD MLOAD PUSH1 0x40 DUP4 ADD MLOAD PUSH1 0x60 SWAP1 SWAP4 ADD DUP1 MLOAD SWAP3 SWAP6 SWAP2 SWAP5 SWAP2 SWAP3 PUSH5 0x100000000 DUP2 GT ISZERO PUSH3 0xAA JUMPI PUSH1 0x0 DUP1 REVERT JUMPDEST DUP3 ADD PUSH1 0x20 DUP2 ADD DUP5 DUP2 GT ISZERO PUSH3 0xBE JUMPI PUSH1 0x0 DUP1 REVERT JUMPDEST DUP2 MLOAD PUSH5 0x100000000 DUP2 GT DUP3 DUP3 ADD DUP8 LT OR ISZERO PUSH3 0xD9 JUMPI PUSH1 0x0 DUP1 REVERT JUMPDEST POP POP SWAP3 SWAP2 SWAP1 PUSH1 0x20 ADD DUP1 MLOAD PUSH5 0x100000000 DUP2 GT ISZERO PUSH3 0xF6 JUMPI PUSH1 0x0 DUP1 REVERT JUMPDEST DUP3 ADD PUSH1 0x20 DUP2 ADD DUP5 DUP2 GT ISZERO PUSH3 0x10A JUMPI PUSH1 0x0 DUP1 REVERT JUMPDEST DUP2 MLOAD PUSH5 0x100000000 DUP2 GT DUP3 DUP3 ADD DUP8 LT OR ISZERO PUSH3 0x125 JUMPI PUSH1 0x0 DUP1 REVERT JUMPDEST POP POP PUSH1 0x20 DUP3 ADD MLOAD PUSH1 0x40 SWAP1 SWAP3 ADD MLOAD SWAP1 SWAP4 POP SWAP1 SWAP2 POP PUSH1 0x0 CALLVALUE GT PUSH3 0x193 JUMPI PUSH1 0x40 MLOAD PUSH32 0x8C379A000000000000000000000000000000000000000000000000000000000 DUP2 MSTORE PUSH1 0x4 ADD DUP1 DUP1 PUSH1 0x20 ADD DUP3 DUP2 SUB DUP3 MSTORE PUSH1 0x2D DUP2 MSTORE PUSH1 0x20 ADD DUP1 PUSH3 0x1DAF PUSH1 0x2D SWAP2 CODECOPY PUSH1 0x40 ADD SWAP2 POP POP PUSH1 0x40 MLOAD DUP1 SWAP2 SUB SWAP1 REVERT JUMPDEST DUP1 DUP3 LT PUSH3 0x1ED JUMPI PUSH1 0x40 MLOAD PUSH32 0x8C379A000000000000000000000000000000000000000000000000000000000 DUP2 MSTORE PUSH1 0x4 ADD DUP1 DUP1 PUSH1 0x20 ADD DUP3 DUP2 SUB DUP3 MSTORE PUSH1 0x29 DUP2 MSTORE PUSH1 0x20 ADD DUP1 PUSH3 0x1D86 PUSH1 0x29 SWAP2 CODECOPY PUSH1 0x40 ADD SWAP2 POP POP PUSH1 0x40 MLOAD DUP1 SWAP2 SUB SWAP1 REVERT JUMPDEST PUSH1 0x0 DUP1 SLOAD PUSH1 0x1 PUSH1 0xA0 PUSH1 0x2 EXP SUB NOT AND PUSH1 0x1 PUSH1 0xA0 PUSH1 0x2 EXP SUB DUP11 AND OR SWAP1 SSTORE DUP7 MLOAD PUSH3 0x21D SWAP1 PUSH1 0x1 SWAP1 PUSH1 0x20 DUP11 ADD SWAP1 PUSH3 0x2E2 JUMP JUMPDEST POP PUSH1 0x0 JUMPDEST PUSH1 0x1 SLOAD DUP2 LT ISZERO PUSH3 0x28C JUMPI PUSH1 0x1 PUSH1 0x2 PUSH1 0x0 PUSH1 0x1 DUP5 DUP2 SLOAD DUP2 LT ISZERO ISZERO PUSH3 0x242 JUMPI INVALID JUMPDEST PUSH1 0x0 SWAP2 DUP3 MSTORE PUSH1 0x20 DUP1 DUP4 KECCAK256 SWAP1 SWAP2 ADD SLOAD PUSH1 0x1 PUSH1 0xA0 PUSH1 0x2 EXP SUB AND DUP4 MSTORE DUP3 ADD SWAP3 SWAP1 SWAP3 MSTORE PUSH1 0x40 ADD SWAP1 KECCAK256 PUSH1 0x6 ADD DUP1 SLOAD PUSH1 0xFF NOT AND PUSH1 0x1 DUP4 PUSH1 0x5 DUP2 GT ISZERO PUSH3 0x27E JUMPI INVALID JUMPDEST MUL OR SWAP1 SSTORE POP PUSH1 0x1 ADD PUSH3 0x221 JUMP JUMPDEST POP PUSH1 0x0 PUSH1 0x3 SSTORE PUSH1 0x4 DUP7 SWAP1 SSTORE PUSH1 0x5 DUP6 SWAP1 SSTORE DUP4 MLOAD PUSH3 0x2B1 SWAP1 PUSH1 0x6 SWAP1 PUSH1 0x20 DUP8 ADD SWAP1 PUSH3 0x34C JUMP JUMPDEST POP DUP3 MLOAD PUSH3 0x2C7 SWAP1 PUSH1 0x7 SWAP1 PUSH1 0x20 DUP7 ADD SWAP1 PUSH3 0x34C JUMP JUMPDEST POP TIMESTAMP PUSH1 0xA SSTORE PUSH1 0x8 SWAP2 SWAP1 SWAP2 SSTORE PUSH1 0x9 SSTORE POP PUSH3 0x414 SWAP5 POP POP POP POP POP JUMP JUMPDEST DUP3 DUP1 SLOAD DUP3 DUP3 SSTORE SWAP1 PUSH1 0x0 MSTORE PUSH1 0x20 PUSH1 0x0 KECCAK256 SWAP1 DUP2 ADD SWAP3 DUP3 ISZERO PUSH3 0x33A JUMPI SWAP2 PUSH1 0x20 MUL DUP3 ADD JUMPDEST DUP3 DUP2 GT ISZERO PUSH3 0x33A JUMPI DUP3 MLOAD DUP3 SLOAD PUSH1 0x1 PUSH1 0xA0 PUSH1 0x2 EXP SUB NOT AND PUSH1 0x1 PUSH1 0xA0 PUSH1 0x2 EXP SUB SWAP1 SWAP2 AND OR DUP3 SSTORE PUSH1 0x20 SWAP1 SWAP3 ADD SWAP2 PUSH1 0x1 SWAP1 SWAP2 ADD SWAP1 PUSH3 0x303 JUMP JUMPDEST POP PUSH3 0x348 SWAP3 SWAP2 POP PUSH3 0x3CD JUMP JUMPDEST POP SWAP1 JUMP JUMPDEST DUP3 DUP1 SLOAD PUSH1 0x1 DUP2 PUSH1 0x1 AND ISZERO PUSH2 0x100 MUL SUB AND PUSH1 0x2 SWAP1 DIV SWAP1 PUSH1 0x0 MSTORE PUSH1 0x20 PUSH1 0x0 KECCAK256 SWAP1 PUSH1 0x1F ADD PUSH1 0x20 SWAP1 DIV DUP2 ADD SWAP3 DUP3 PUSH1 0x1F LT PUSH3 0x38F JUMPI DUP1 MLOAD PUSH1 0xFF NOT AND DUP4 DUP1 ADD OR DUP6 SSTORE PUSH3 0x3BF JUMP JUMPDEST DUP3 DUP1 ADD PUSH1 0x1 ADD DUP6 SSTORE DUP3 ISZERO PUSH3 0x3BF JUMPI SWAP2 DUP3 ADD JUMPDEST DUP3 DUP2 GT ISZERO PUSH3 0x3BF JUMPI DUP3 MLOAD DUP3 SSTORE SWAP2 PUSH1 0x20 ADD SWAP2 SWAP1 PUSH1 0x1 ADD SWAP1 PUSH3 0x3A2 JUMP JUMPDEST POP PUSH3 0x348 SWAP3 SWAP2 POP PUSH3 0x3F7 JUMP JUMPDEST PUSH3 0x3F4 SWAP2 SWAP1 JUMPDEST DUP1 DUP3 GT ISZERO PUSH3 0x348 JUMPI DUP1 SLOAD PUSH1 0x1 PUSH1 0xA0 PUSH1 0x2 EXP SUB NOT AND DUP2 SSTORE PUSH1 0x1 ADD PUSH3 0x3D4 JUMP JUMPDEST SWAP1 JUMP JUMPDEST PUSH3 0x3F4 SWAP2 SWAP1 JUMPDEST DUP1 DUP3 GT ISZERO PUSH3 0x348 JUMPI PUSH1 0x0 DUP2 SSTORE PUSH1 0x1 ADD PUSH3 0x3FE JUMP JUMPDEST PUSH2 0x1962 DUP1 PUSH3 0x424 PUSH1 0x0 CODECOPY PUSH1 0x0 RETURN INVALID PUSH1 0x80 PUSH1 0x40 MSTORE CALLVALUE DUP1 ISZERO PUSH2 0x10 JUMPI PUSH1 0x0 DUP1 REVERT JUMPDEST POP PUSH1 0x4 CALLDATASIZE LT PUSH2 0x154 JUMPI PUSH1 0x0 CALLDATALOAD PUSH29 0x100000000000000000000000000000000000000000000000000000000 SWAP1 DIV DUP1 PUSH4 0x67E404CE GT PUSH2 0xD5 JUMPI DUP1 PUSH4 0xBFD772FC GT PUSH2 0x99 JUMPI DUP1 PUSH4 0xBFD772FC EQ PUSH2 0x3FE JUMPI DUP1 PUSH4 0xCD12A4B0 EQ PUSH2 0x41B JUMPI DUP1 PUSH4 0xEA8A1AF0 EQ PUSH2 0x423 JUMPI DUP1 PUSH4 0xEEEAC01E EQ PUSH2 0x42B JUMPI DUP1 PUSH4 0xF446C1D0 EQ PUSH2 0x433 JUMPI DUP1 PUSH4 0xFF7EDF42 EQ PUSH2 0x43B JUMPI PUSH2 0x154 JUMP JUMPDEST DUP1 PUSH4 0x67E404CE EQ PUSH2 0x3C2 JUMPI DUP1 PUSH4 0x7A308A4C EQ PUSH2 0x3E6 JUMPI DUP1 PUSH4 0x997DA8D4 EQ PUSH2 0x173 JUMPI DUP1 PUSH4 0xA1CBF5F9 EQ PUSH2 0x3EE JUMPI DUP1 PUSH4 0xBE9A6555 EQ PUSH2 0x3F6 JUMPI PUSH2 0x154 JUMP JUMPDEST DUP1 PUSH4 0x4C87C67D GT PUSH2 0x11C JUMPI DUP1 PUSH4 0x4C87C67D EQ PUSH2 0x24C JUMPI DUP1 PUSH4 0x4E8C0BD6 EQ PUSH2 0x254 JUMPI DUP1 PUSH4 0x5727DC5C EQ PUSH2 0x25C JUMPI DUP1 PUSH4 0x57DC3742 EQ PUSH2 0x264 JUMPI DUP1 PUSH4 0x6349CA37 EQ PUSH2 0x39C JUMPI PUSH2 0x154 JUMP JUMPDEST DUP1 PUSH4 0x3A507BE EQ PUSH2 0x159 JUMPI DUP1 PUSH4 0xDBE671F EQ PUSH2 0x173 JUMPI DUP1 PUSH4 0x1BAB58F5 EQ PUSH2 0x17B JUMPI DUP1 PUSH4 0x29008824 EQ PUSH2 0x216 JUMPI DUP1 PUSH4 0x3B4A0828 EQ PUSH2 0x244 JUMPI JUMPDEST PUSH1 0x0 DUP1 REVERT JUMPDEST PUSH2 0x161 PUSH2 0x570 JUMP JUMPDEST PUSH1 0x40 DUP1 MLOAD SWAP2 DUP3 MSTORE MLOAD SWAP1 DUP2 SWAP1 SUB PUSH1 0x20 ADD SWAP1 RETURN JUMPDEST PUSH2 0x161 PUSH2 0x594 JUMP JUMPDEST PUSH2 0x1A1 PUSH1 0x4 DUP1 CALLDATASIZE SUB PUSH1 0x20 DUP2 LT ISZERO PUSH2 0x191 JUMPI PUSH1 0x0 DUP1 REVERT JUMPDEST POP CALLDATALOAD PUSH1 0x1 PUSH1 0xA0 PUSH1 0x2 EXP SUB AND PUSH2 0x599 JUMP JUMPDEST PUSH1 0x40 DUP1 MLOAD PUSH1 0x20 DUP1 DUP3 MSTORE DUP4 MLOAD DUP2 DUP4 ADD MSTORE DUP4 MLOAD SWAP2 SWAP3 DUP4 SWAP3 SWAP1 DUP4 ADD SWAP2 DUP6 ADD SWAP1 DUP1 DUP4 DUP4 PUSH1 0x0 JUMPDEST DUP4 DUP2 LT ISZERO PUSH2 0x1DB JUMPI DUP2 DUP2 ADD MLOAD DUP4 DUP3 ADD MSTORE PUSH1 0x20 ADD PUSH2 0x1C3 JUMP JUMPDEST POP POP POP POP SWAP1 POP SWAP1 DUP2 ADD SWAP1 PUSH1 0x1F AND DUP1 ISZERO PUSH2 0x208 JUMPI DUP1 DUP3 SUB DUP1 MLOAD PUSH1 0x1 DUP4 PUSH1 0x20 SUB PUSH2 0x100 EXP SUB NOT AND DUP2 MSTORE PUSH1 0x20 ADD SWAP2 POP JUMPDEST POP SWAP3 POP POP POP PUSH1 0x40 MLOAD DUP1 SWAP2 SUB SWAP1 RETURN JUMPDEST PUSH2 0x242 PUSH1 0x4 DUP1 CALLDATASIZE SUB PUSH1 0x40 DUP2 LT ISZERO PUSH2 0x22C JUMPI PUSH1 0x0 DUP1 REVERT JUMPDEST POP PUSH1 0x1 PUSH1 0xA0 PUSH1 0x2 EXP SUB DUP2 CALLDATALOAD AND SWAP1 PUSH1 0x20 ADD CALLDATALOAD PUSH2 0x824 JUMP JUMPDEST STOP JUMPDEST PUSH2 0x161 PUSH2 0xBFC JUMP JUMPDEST PUSH2 0x161 PUSH2 0xC02 JUMP JUMPDEST PUSH2 0x161 PUSH2 0xC08 JUMP JUMPDEST PUSH2 0x161 PUSH2 0xC0E JUMP JUMPDEST PUSH2 0x242 PUSH1 0x4 DUP1 CALLDATASIZE SUB PUSH1 0xA0 DUP2 LT ISZERO PUSH2 0x27A JUMPI PUSH1 0x0 DUP1 REVERT JUMPDEST DUP2 ADD SWAP1 PUSH1 0x20 DUP2 ADD DUP2 CALLDATALOAD PUSH5 0x100000000 DUP2 GT ISZERO PUSH2 0x295 JUMPI PUSH1 0x0 DUP1 REVERT JUMPDEST DUP3 ADD DUP4 PUSH1 0x20 DUP3 ADD GT ISZERO PUSH2 0x2A7 JUMPI PUSH1 0x0 DUP1 REVERT JUMPDEST DUP1 CALLDATALOAD SWAP1 PUSH1 0x20 ADD SWAP2 DUP5 PUSH1 0x1 DUP4 MUL DUP5 ADD GT PUSH5 0x100000000 DUP4 GT OR ISZERO PUSH2 0x2C9 JUMPI PUSH1 0x0 DUP1 REVERT JUMPDEST SWAP2 SWAP1 DUP1 DUP1 PUSH1 0x1F ADD PUSH1 0x20 DUP1 SWAP2 DIV MUL PUSH1 0x20 ADD PUSH1 0x40 MLOAD SWAP1 DUP2 ADD PUSH1 0x40 MSTORE DUP1 SWAP4 SWAP3 SWAP2 SWAP1 DUP2 DUP2 MSTORE PUSH1 0x20 ADD DUP4 DUP4 DUP1 DUP3 DUP5 CALLDATACOPY PUSH1 0x0 SWAP3 ADD SWAP2 SWAP1 SWAP2 MSTORE POP SWAP3 SWAP6 SWAP5 SWAP4 PUSH1 0x20 DUP2 ADD SWAP4 POP CALLDATALOAD SWAP2 POP POP PUSH5 0x100000000 DUP2 GT ISZERO PUSH2 0x31C JUMPI PUSH1 0x0 DUP1 REVERT JUMPDEST DUP3 ADD DUP4 PUSH1 0x20 DUP3 ADD GT ISZERO PUSH2 0x32E JUMPI PUSH1 0x0 DUP1 REVERT JUMPDEST DUP1 CALLDATALOAD SWAP1 PUSH1 0x20 ADD SWAP2 DUP5 PUSH1 0x1 DUP4 MUL DUP5 ADD GT PUSH5 0x100000000 DUP4 GT OR ISZERO PUSH2 0x350 JUMPI PUSH1 0x0 DUP1 REVERT JUMPDEST SWAP2 SWAP1 DUP1 DUP1 PUSH1 0x1F ADD PUSH1 0x20 DUP1 SWAP2 DIV MUL PUSH1 0x20 ADD PUSH1 0x40 MLOAD SWAP1 DUP2 ADD PUSH1 0x40 MSTORE DUP1 SWAP4 SWAP3 SWAP2 SWAP1 DUP2 DUP2 MSTORE PUSH1 0x20 ADD DUP4 DUP4 DUP1 DUP3 DUP5 CALLDATACOPY PUSH1 0x0 SWAP3 ADD SWAP2 SWAP1 SWAP2 MSTORE POP SWAP3 SWAP6 POP POP DUP3 CALLDATALOAD SWAP4 POP POP POP PUSH1 0x20 DUP2 ADD CALLDATALOAD SWAP1 PUSH1 0x40 ADD CALLDATALOAD PUSH2 0xC13 JUMP JUMPDEST PUSH2 0x161 PUSH1 0x4 DUP1 CALLDATASIZE SUB PUSH1 0x20 DUP2 LT ISZERO PUSH2 0x3B2 JUMPI PUSH1 0x0 DUP1 REVERT JUMPDEST POP CALLDATALOAD PUSH1 0x1 PUSH1 0xA0 PUSH1 0x2 EXP SUB AND PUSH2 0xD48 JUMP JUMPDEST PUSH2 0x3CA PUSH2 0xD66 JUMP JUMPDEST PUSH1 0x40 DUP1 MLOAD PUSH1 0x1 PUSH1 0xA0 PUSH1 0x2 EXP SUB SWAP1 SWAP3 AND DUP3 MSTORE MLOAD SWAP1 DUP2 SWAP1 SUB PUSH1 0x20 ADD SWAP1 RETURN JUMPDEST PUSH2 0x161 PUSH2 0xD75 JUMP JUMPDEST PUSH2 0x1A1 PUSH2 0xD99 JUMP JUMPDEST PUSH2 0x161 PUSH2 0xE27 JUMP JUMPDEST PUSH2 0x3CA PUSH1 0x4 DUP1 CALLDATASIZE SUB PUSH1 0x20 DUP2 LT ISZERO PUSH2 0x414 JUMPI PUSH1 0x0 DUP1 REVERT JUMPDEST POP CALLDATALOAD PUSH2 0xE2D JUMP JUMPDEST PUSH2 0x161 PUSH2 0xE55 JUMP JUMPDEST PUSH2 0x242 PUSH2 0xE5B JUMP JUMPDEST PUSH2 0x161 PUSH2 0xF27 JUMP JUMPDEST PUSH2 0x1A1 PUSH2 0xF31 JUMP JUMPDEST PUSH2 0x461 PUSH1 0x4 DUP1 CALLDATASIZE SUB PUSH1 0x20 DUP2 LT ISZERO PUSH2 0x451 JUMPI PUSH1 0x0 DUP1 REVERT JUMPDEST POP CALLDATALOAD PUSH1 0x1 PUSH1 0xA0 PUSH1 0x2 EXP SUB AND PUSH2 0xF8C JUMP JUMPDEST PUSH1 0x40 MLOAD DUP1 DUP1 PUSH1 0x20 ADD DUP1 PUSH1 0x20 ADD DUP9 DUP2 MSTORE PUSH1 0x20 ADD DUP8 DUP2 MSTORE PUSH1 0x20 ADD DUP7 DUP2 MSTORE PUSH1 0x20 ADD DUP6 DUP2 MSTORE PUSH1 0x20 ADD DUP5 PUSH1 0x5 DUP2 GT ISZERO PUSH2 0x491 JUMPI INVALID JUMPDEST PUSH1 0xFF AND DUP2 MSTORE PUSH1 0x20 ADD DUP4 DUP2 SUB DUP4 MSTORE DUP11 DUP2 DUP2 MLOAD DUP2 MSTORE PUSH1 0x20 ADD SWAP2 POP DUP1 MLOAD SWAP1 PUSH1 0x20 ADD SWAP1 DUP1 DUP4 DUP4 PUSH1 0x0 JUMPDEST DUP4 DUP2 LT ISZERO PUSH2 0x4CE JUMPI DUP2 DUP2 ADD MLOAD DUP4 DUP3 ADD MSTORE PUSH1 0x20 ADD PUSH2 0x4B6 JUMP JUMPDEST POP POP POP POP SWAP1 POP SWAP1 DUP2 ADD SWAP1 PUSH1 0x1F AND DUP1 ISZERO PUSH2 0x4FB JUMPI DUP1 DUP3 SUB DUP1 MLOAD PUSH1 0x1 DUP4 PUSH1 0x20 SUB PUSH2 0x100 EXP SUB NOT AND DUP2 MSTORE PUSH1 0x20 ADD SWAP2 POP JUMPDEST POP DUP4 DUP2 SUB DUP3 MSTORE DUP10 MLOAD DUP2 MSTORE DUP10 MLOAD PUSH1 0x20 SWAP2 DUP3 ADD SWAP2 DUP12 ADD SWAP1 DUP1 DUP4 DUP4 PUSH1 0x0 JUMPDEST DUP4 DUP2 LT ISZERO PUSH2 0x52E JUMPI DUP2 DUP2 ADD MLOAD DUP4 DUP3 ADD MSTORE PUSH1 0x20 ADD PUSH2 0x516 JUMP JUMPDEST POP POP POP POP SWAP1 POP SWAP1 DUP2 ADD SWAP1 PUSH1 0x1F AND DUP1 ISZERO PUSH2 0x55B JUMPI DUP1 DUP3 SUB DUP1 MLOAD PUSH1 0x1 DUP4 PUSH1 0x20 SUB PUSH2 0x100 EXP SUB NOT AND DUP2 MSTORE PUSH1 0x20 ADD SWAP2 POP JUMPDEST POP SWAP10 POP POP POP POP POP POP POP POP POP POP PUSH1 0x40 MLOAD DUP1 SWAP2 SUB SWAP1 RETURN JUMPDEST PUSH32 0x79BE667EF9DCBBAC55A06295CE870B07029BFCDB2DCE28D959F2815B16F81798 DUP2 JUMP JUMPDEST PUSH1 0x0 DUP2 JUMP JUMPDEST PUSH1 0x60 PUSH1 0x0 PUSH1 0x1 PUSH1 0xA0 PUSH1 0x2 EXP SUB DUP4 AND PUSH1 0x0 SWAP1 DUP2 MSTORE PUSH1 0x2 PUSH1 0x20 MSTORE PUSH1 0x40 SWAP1 KECCAK256 PUSH1 0x6 ADD SLOAD PUSH1 0xFF AND PUSH1 0x5 DUP2 GT ISZERO PUSH2 0x5C7 JUMPI INVALID JUMPDEST EQ ISZERO PUSH2 0x607 JUMPI POP PUSH1 0x40 DUP1 MLOAD DUP1 DUP3 ADD SWAP1 SWAP2 MSTORE PUSH1 0xA DUP2 MSTORE PUSH32 0x6E6F742065786973747300000000000000000000000000000000000000000000 PUSH1 0x20 DUP3 ADD MSTORE PUSH2 0x81F JUMP JUMPDEST PUSH1 0x1 PUSH1 0x1 PUSH1 0xA0 PUSH1 0x2 EXP SUB DUP4 AND PUSH1 0x0 SWAP1 DUP2 MSTORE PUSH1 0x2 PUSH1 0x20 MSTORE PUSH1 0x40 SWAP1 KECCAK256 PUSH1 0x6 ADD SLOAD PUSH1 0xFF AND PUSH1 0x5 DUP2 GT ISZERO PUSH2 0x633 JUMPI INVALID JUMPDEST EQ ISZERO PUSH2 0x673 JUMPI POP PUSH1 0x40 DUP1 MLOAD DUP1 DUP3 ADD SWAP1 SWAP2 MSTORE PUSH1 0x7 DUP2 MSTORE PUSH32 0x6372656174656400000000000000000000000000000000000000000000000000 PUSH1 0x20 DUP3 ADD MSTORE PUSH2 0x81F JUMP JUMPDEST PUSH1 0x2 PUSH1 0x1 PUSH1 0xA0 PUSH1 0x2 EXP SUB DUP4 AND PUSH1 0x0 SWAP1 DUP2 MSTORE PUSH1 0x2 PUSH1 0x20 MSTORE PUSH1 0x40 SWAP1 KECCAK256 PUSH1 0x6 ADD SLOAD PUSH1 0xFF AND PUSH1 0x5 DUP2 GT ISZERO PUSH2 0x69F JUMPI INVALID JUMPDEST EQ ISZERO PUSH2 0x6DF JUMPI POP PUSH1 0x40 DUP1 MLOAD DUP1 DUP3 ADD SWAP1 SWAP2 MSTORE PUSH1 0x9 DUP2 MSTORE PUSH32 0x63616E63656C6C65640000000000000000000000000000000000000000000000 PUSH1 0x20 DUP3 ADD MSTORE PUSH2 0x81F JUMP JUMPDEST PUSH1 0x3 PUSH1 0x1 PUSH1 0xA0 PUSH1 0x2 EXP SUB DUP4 AND PUSH1 0x0 SWAP1 DUP2 MSTORE PUSH1 0x2 PUSH1 0x20 MSTORE PUSH1 0x40 SWAP1 KECCAK256 PUSH1 0x6 ADD SLOAD PUSH1 0xFF AND PUSH1 0x5 DUP2 GT ISZERO PUSH2 0x70B JUMPI INVALID JUMPDEST EQ ISZERO PUSH2 0x74B JUMPI POP PUSH1 0x40 DUP1 MLOAD DUP1 DUP3 ADD SWAP1 SWAP2 MSTORE PUSH1 0x8 DUP2 MSTORE PUSH32 0x6163636570746564000000000000000000000000000000000000000000000000 PUSH1 0x20 DUP3 ADD MSTORE PUSH2 0x81F JUMP JUMPDEST PUSH1 0x4 PUSH1 0x1 PUSH1 0xA0 PUSH1 0x2 EXP SUB DUP4 AND PUSH1 0x0 SWAP1 DUP2 MSTORE PUSH1 0x2 PUSH1 0x20 MSTORE PUSH1 0x40 SWAP1 KECCAK256 PUSH1 0x6 ADD SLOAD PUSH1 0xFF AND PUSH1 0x5 DUP2 GT ISZERO PUSH2 0x777 JUMPI INVALID JUMPDEST EQ ISZERO PUSH2 0x7B7 JUMPI POP PUSH1 0x40 DUP1 MLOAD DUP1 DUP3 ADD SWAP1 SWAP2 MSTORE PUSH1 0x8 DUP2 MSTORE PUSH32 0x66696E6973686564000000000000000000000000000000000000000000000000 PUSH1 0x20 DUP3 ADD MSTORE PUSH2 0x81F JUMP JUMPDEST PUSH1 0x5 PUSH1 0x1 PUSH1 0xA0 PUSH1 0x2 EXP SUB DUP4 AND PUSH1 0x0 SWAP1 DUP2 MSTORE PUSH1 0x2 PUSH1 0x20 MSTORE PUSH1 0x40 SWAP1 KECCAK256 PUSH1 0x6 ADD SLOAD PUSH1 0xFF AND PUSH1 0x5 DUP2 GT ISZERO PUSH2 0x7E3 JUMPI INVALID JUMPDEST EQ ISZERO PUSH2 0x81F JUMPI POP PUSH1 0x40 DUP1 MLOAD DUP1 DUP3 ADD SWAP1 SWAP2 MSTORE PUSH1 0x8 DUP2 MSTORE PUSH32 0x72656A6563746564000000000000000000000000000000000000000000000000 PUSH1 0x20 DUP3 ADD MSTORE JUMPDEST SWAP2 SWAP1 POP JUMP JUMPDEST PUSH1 0x0 DUP1 PUSH1 0x0 DUP1 PUSH1 0x0 DUP1 PUSH1 0x8 SLOAD PUSH1 0xA SLOAD ADD TIMESTAMP LT ISZERO DUP1 PUSH2 0x846 JUMPI POP PUSH1 0x1 SLOAD PUSH1 0x3 SLOAD LT ISZERO JUMPDEST ISZERO ISZERO PUSH2 0x886 JUMPI PUSH1 0x40 MLOAD PUSH1 0xE5 PUSH1 0x2 EXP PUSH3 0x461BCD MUL DUP2 MSTORE PUSH1 0x4 ADD DUP1 DUP1 PUSH1 0x20 ADD DUP3 DUP2 SUB DUP3 MSTORE PUSH1 0x5C DUP2 MSTORE PUSH1 0x20 ADD DUP1 PUSH2 0x1868 PUSH1 0x5C SWAP2 CODECOPY PUSH1 0x60 ADD SWAP2 POP POP PUSH1 0x40 MLOAD DUP1 SWAP2 SUB SWAP1 REVERT JUMPDEST PUSH1 0x0 SLOAD PUSH1 0x1 PUSH1 0xA0 PUSH1 0x2 EXP SUB AND CALLER EQ PUSH2 0x8D2 JUMPI PUSH1 0x40 MLOAD PUSH1 0xE5 PUSH1 0x2 EXP PUSH3 0x461BCD MUL DUP2 MSTORE PUSH1 0x4 ADD DUP1 DUP1 PUSH1 0x20 ADD DUP3 DUP2 SUB DUP3 MSTORE PUSH1 0x26 DUP2 MSTORE PUSH1 0x20 ADD DUP1 PUSH2 0x181C PUSH1 0x26 SWAP2 CODECOPY PUSH1 0x40 ADD SWAP2 POP POP PUSH1 0x40 MLOAD DUP1 SWAP2 SUB SWAP1 REVERT JUMPDEST PUSH2 0x92C DUP8 PUSH32 0x79BE667EF9DCBBAC55A06295CE870B07029BFCDB2DCE28D959F2815B16F81798 PUSH32 0x483ADA7726A3C4655DA4FBFC0E1108A8FD17B448A68554199C47D08FFB10D4B8 PUSH1 0x0 PUSH5 0x1000003D0 NOT PUSH4 0xFFFFFFFF PUSH2 0x10E7 AND JUMP JUMPDEST PUSH1 0x1 PUSH1 0xA0 PUSH1 0x2 EXP SUB DUP11 AND PUSH1 0x0 SWAP1 DUP2 MSTORE PUSH1 0x2 PUSH1 0x20 DUP2 SWAP1 MSTORE PUSH1 0x40 DUP3 KECCAK256 SWAP1 DUP2 ADD SLOAD PUSH1 0x3 DUP3 ADD SLOAD PUSH1 0x4 SWAP1 SWAP3 ADD SLOAD SWAP5 SWAP11 POP SWAP3 SWAP9 POP PUSH2 0x973 SWAP4 SWAP3 SWAP2 PUSH5 0x1000003D0 NOT PUSH4 0xFFFFFFFF PUSH2 0x10E7 AND JUMP JUMPDEST SWAP1 SWAP5 POP SWAP3 POP PUSH2 0x993 DUP7 DUP7 DUP7 DUP7 PUSH1 0x0 PUSH5 0x1000003D0 NOT PUSH4 0xFFFFFFFF PUSH2 0x1121 AND JUMP JUMPDEST PUSH1 0x4 SLOAD SWAP2 SWAP4 POP SWAP2 POP DUP3 EQ ISZERO PUSH2 0x9DC JUMPI PUSH1 0x40 MLOAD PUSH1 0xE5 PUSH1 0x2 EXP PUSH3 0x461BCD MUL DUP2 MSTORE PUSH1 0x4 ADD DUP1 DUP1 PUSH1 0x20 ADD DUP3 DUP2 SUB DUP3 MSTORE PUSH1 0x23 DUP2 MSTORE PUSH1 0x20 ADD DUP1 PUSH2 0x18E6 PUSH1 0x23 SWAP2 CODECOPY PUSH1 0x40 ADD SWAP2 POP POP PUSH1 0x40 MLOAD DUP1 SWAP2 SUB SWAP1 REVERT JUMPDEST PUSH1 0x5 SLOAD DUP2 EQ ISZERO PUSH2 0xA20 JUMPI PUSH1 0x40 MLOAD PUSH1 0xE5 PUSH1 0x2 EXP PUSH3 0x461BCD MUL DUP2 MSTORE PUSH1 0x4 ADD DUP1 DUP1 PUSH1 0x20 ADD DUP3 DUP2 SUB DUP3 MSTORE PUSH1 0x23 DUP2 MSTORE PUSH1 0x20 ADD DUP1 PUSH2 0x18E6 PUSH1 0x23 SWAP2 CODECOPY PUSH1 0x40 ADD SWAP2 POP POP PUSH1 0x40 MLOAD DUP1 SWAP2 SUB SWAP1 REVERT JUMPDEST PUSH1 0x40 MLOAD CALLER SWAP1 ADDRESS BALANCE DUP1 ISZERO PUSH2 0x8FC MUL SWAP2 PUSH1 0x0 DUP2 DUP2 DUP2 DUP6 DUP9 DUP9 CALL SWAP4 POP POP POP POP ISZERO DUP1 ISZERO PUSH2 0xA4D JUMPI RETURNDATASIZE PUSH1 0x0 DUP1 RETURNDATACOPY RETURNDATASIZE PUSH1 0x0 REVERT JUMPDEST POP PUSH1 0x0 JUMPDEST PUSH1 0x1 SLOAD DUP2 LT ISZERO PUSH2 0xBF1 JUMPI DUP8 PUSH1 0x2 PUSH1 0x0 PUSH1 0x1 DUP5 DUP2 SLOAD DUP2 LT ISZERO ISZERO PUSH2 0xA6F JUMPI INVALID JUMPDEST PUSH1 0x0 SWAP2 DUP3 MSTORE PUSH1 0x20 DUP1 DUP4 KECCAK256 SWAP1 SWAP2 ADD SLOAD PUSH1 0x1 PUSH1 0xA0 PUSH1 0x2 EXP SUB AND DUP4 MSTORE DUP3 ADD SWAP3 SWAP1 SWAP3 MSTORE PUSH1 0x40 ADD SWAP1 KECCAK256 PUSH1 0x5 ADD SSTORE PUSH1 0x3 PUSH1 0x2 PUSH1 0x0 PUSH1 0x1 DUP5 DUP2 SLOAD DUP2 LT ISZERO ISZERO PUSH2 0xAAC JUMPI INVALID JUMPDEST PUSH1 0x0 SWAP2 DUP3 MSTORE PUSH1 0x20 DUP1 DUP4 KECCAK256 SWAP1 SWAP2 ADD SLOAD PUSH1 0x1 PUSH1 0xA0 PUSH1 0x2 EXP SUB AND DUP4 MSTORE DUP3 ADD SWAP3 SWAP1 SWAP3 MSTORE PUSH1 0x40 ADD SWAP1 KECCAK256 PUSH1 0x6 ADD SLOAD PUSH1 0xFF AND PUSH1 0x5 DUP2 GT ISZERO PUSH2 0xAE2 JUMPI INVALID JUMPDEST EQ ISZERO PUSH2 0xB42 JUMPI PUSH1 0x4 PUSH1 0x2 PUSH1 0x0 PUSH1 0x1 DUP5 DUP2 SLOAD DUP2 LT ISZERO ISZERO PUSH2 0xAFD JUMPI INVALID JUMPDEST PUSH1 0x0 SWAP2 DUP3 MSTORE PUSH1 0x20 DUP1 DUP4 KECCAK256 SWAP1 SWAP2 ADD SLOAD PUSH1 0x1 PUSH1 0xA0 PUSH1 0x2 EXP SUB AND DUP4 MSTORE DUP3 ADD SWAP3 SWAP1 SWAP3 MSTORE PUSH1 0x40 ADD SWAP1 KECCAK256 PUSH1 0x6 ADD DUP1 SLOAD PUSH1 0xFF NOT AND PUSH1 0x1 DUP4 PUSH1 0x5 DUP2 GT ISZERO PUSH2 0xB38 JUMPI INVALID JUMPDEST MUL OR SWAP1 SSTORE POP PUSH2 0xBE9 JUMP JUMPDEST PUSH1 0x1 PUSH1 0x2 PUSH1 0x0 PUSH1 0x1 DUP5 DUP2 SLOAD DUP2 LT ISZERO ISZERO PUSH2 0xB57 JUMPI INVALID JUMPDEST PUSH1 0x0 SWAP2 DUP3 MSTORE PUSH1 0x20 DUP1 DUP4 KECCAK256 SWAP1 SWAP2 ADD SLOAD PUSH1 0x1 PUSH1 0xA0 PUSH1 0x2 EXP SUB AND DUP4 MSTORE DUP3 ADD SWAP3 SWAP1 SWAP3 MSTORE PUSH1 0x40 ADD SWAP1 KECCAK256 PUSH1 0x6 ADD SLOAD PUSH1 0xFF AND PUSH1 0x5 DUP2 GT ISZERO PUSH2 0xB8D JUMPI INVALID JUMPDEST EQ ISZERO PUSH2 0xBE9 JUMPI PUSH1 0x5 PUSH1 0x2 PUSH1 0x0 PUSH1 0x1 DUP5 DUP2 SLOAD DUP2 LT ISZERO ISZERO PUSH2 0xBA8 JUMPI INVALID JUMPDEST PUSH1 0x0 SWAP2 DUP3 MSTORE PUSH1 0x20 DUP1 DUP4 KECCAK256 SWAP1 SWAP2 ADD SLOAD PUSH1 0x1 PUSH1 0xA0 PUSH1 0x2 EXP SUB AND DUP4 MSTORE DUP3 ADD SWAP3 SWAP1 SWAP3 MSTORE PUSH1 0x40 ADD SWAP1 KECCAK256 PUSH1 0x6 ADD DUP1 SLOAD PUSH1 0xFF NOT AND PUSH1 0x1 DUP4 PUSH1 0x5 DUP2 GT ISZERO PUSH2 0xBE3 JUMPI INVALID JUMPDEST MUL OR SWAP1 SSTORE POP JUMPDEST PUSH1 0x1 ADD PUSH2 0xA51 JUMP JUMPDEST POP POP POP POP POP POP POP POP POP JUMP JUMPDEST PUSH1 0x9 SLOAD DUP2 JUMP JUMPDEST PUSH1 0x8 SLOAD DUP2 JUMP JUMPDEST PUSH1 0x4 SLOAD DUP2 JUMP JUMPDEST PUSH1 0x7 DUP2 JUMP JUMPDEST PUSH1 0x8 SLOAD PUSH1 0xA SLOAD ADD TIMESTAMP LT PUSH2 0xC5A JUMPI PUSH1 0x40 MLOAD PUSH1 0xE5 PUSH1 0x2 EXP PUSH3 0x461BCD MUL DUP2 MSTORE PUSH1 0x4 ADD DUP1 DUP1 PUSH1 0x20 ADD DUP3 DUP2 SUB DUP3 MSTORE PUSH1 0x22 DUP2 MSTORE PUSH1 0x20 ADD DUP1 PUSH2 0x18C4 PUSH1 0x22 SWAP2 CODECOPY PUSH1 0x40 ADD SWAP2 POP POP PUSH1 0x40 MLOAD DUP1 SWAP2 SUB SWAP1 REVERT JUMPDEST PUSH1 0x1 CALLER PUSH1 0x0 SWAP1 DUP2 MSTORE PUSH1 0x2 PUSH1 0x20 MSTORE PUSH1 0x40 SWAP1 KECCAK256 PUSH1 0x6 ADD SLOAD PUSH1 0xFF AND PUSH1 0x5 DUP2 GT ISZERO PUSH2 0xC7D JUMPI INVALID JUMPDEST EQ PUSH2 0xCBC JUMPI PUSH1 0x40 MLOAD PUSH1 0xE5 PUSH1 0x2 EXP PUSH3 0x461BCD MUL DUP2 MSTORE PUSH1 0x4 ADD DUP1 DUP1 PUSH1 0x20 ADD DUP3 DUP2 SUB DUP3 MSTORE PUSH1 0x2E DUP2 MSTORE PUSH1 0x20 ADD DUP1 PUSH2 0x1909 PUSH1 0x2E SWAP2 CODECOPY PUSH1 0x40 ADD SWAP2 POP POP PUSH1 0x40 MLOAD DUP1 SWAP2 SUB SWAP1 REVERT JUMPDEST PUSH1 0x3 DUP1 SLOAD PUSH1 0x1 ADD SWAP1 SSTORE CALLER PUSH1 0x0 SWAP1 DUP2 MSTORE PUSH1 0x2 PUSH1 0x20 SWAP1 DUP2 MSTORE PUSH1 0x40 SWAP1 SWAP2 KECCAK256 DUP7 MLOAD PUSH2 0xCE5 SWAP3 DUP9 ADD SWAP1 PUSH2 0x1732 JUMP JUMPDEST POP CALLER PUSH1 0x0 SWAP1 DUP2 MSTORE PUSH1 0x2 PUSH1 0x20 SWAP1 DUP2 MSTORE PUSH1 0x40 SWAP1 SWAP2 KECCAK256 DUP6 MLOAD PUSH2 0xD0C SWAP3 PUSH1 0x1 SWAP1 SWAP3 ADD SWAP2 DUP8 ADD SWAP1 PUSH2 0x1732 JUMP JUMPDEST POP CALLER PUSH1 0x0 SWAP1 DUP2 MSTORE PUSH1 0x2 PUSH1 0x20 DUP2 SWAP1 MSTORE PUSH1 0x40 SWAP1 SWAP2 KECCAK256 SWAP1 DUP2 ADD SWAP4 SWAP1 SWAP4 SSTORE PUSH1 0x3 DUP1 DUP5 ADD SWAP3 SWAP1 SWAP3 SSTORE PUSH1 0x4 DUP4 ADD SSTORE PUSH1 0x6 SWAP1 SWAP2 ADD DUP1 SLOAD PUSH1 0xFF NOT AND SWAP1 SWAP2 OR SWAP1 SSTORE POP POP JUMP JUMPDEST PUSH1 0x1 PUSH1 0xA0 PUSH1 0x2 EXP SUB AND PUSH1 0x0 SWAP1 DUP2 MSTORE PUSH1 0x2 PUSH1 0x20 MSTORE PUSH1 0x40 SWAP1 KECCAK256 PUSH1 0x5 ADD SLOAD SWAP1 JUMP JUMPDEST PUSH1 0x0 SLOAD PUSH1 0x1 PUSH1 0xA0 PUSH1 0x2 EXP SUB AND DUP2 JUMP JUMPDEST PUSH32 0x483ADA7726A3C4655DA4FBFC0E1108A8FD17B448A68554199C47D08FFB10D4B8 DUP2 JUMP JUMPDEST PUSH1 0x6 DUP1 SLOAD PUSH1 0x40 DUP1 MLOAD PUSH1 0x20 PUSH1 0x2 PUSH1 0x1 DUP6 AND ISZERO PUSH2 0x100 MUL PUSH1 0x0 NOT ADD SWAP1 SWAP5 AND SWAP4 SWAP1 SWAP4 DIV PUSH1 0x1F DUP2 ADD DUP5 SWAP1 DIV DUP5 MUL DUP3 ADD DUP5 ADD SWAP1 SWAP3 MSTORE DUP2 DUP2 MSTORE SWAP3 SWAP2 DUP4 ADD DUP3 DUP3 DUP1 ISZERO PUSH2 0xE1F JUMPI DUP1 PUSH1 0x1F LT PUSH2 0xDF4 JUMPI PUSH2 0x100 DUP1 DUP4 SLOAD DIV MUL DUP4 MSTORE SWAP2 PUSH1 0x20 ADD SWAP2 PUSH2 0xE1F JUMP JUMPDEST DUP3 ADD SWAP2 SWAP1 PUSH1 0x0 MSTORE PUSH1 0x20 PUSH1 0x0 KECCAK256 SWAP1 JUMPDEST DUP2 SLOAD DUP2 MSTORE SWAP1 PUSH1 0x1 ADD SWAP1 PUSH1 0x20 ADD DUP1 DUP4 GT PUSH2 0xE02 JUMPI DUP3 SWAP1 SUB PUSH1 0x1F AND DUP3 ADD SWAP2 JUMPDEST POP POP POP POP POP DUP2 JUMP JUMPDEST PUSH1 0xA SLOAD DUP2 JUMP JUMPDEST PUSH1 0x1 DUP1 SLOAD DUP3 SWAP1 DUP2 LT PUSH2 0xE3B JUMPI INVALID JUMPDEST PUSH1 0x0 SWAP2 DUP3 MSTORE PUSH1 0x20 SWAP1 SWAP2 KECCAK256 ADD SLOAD PUSH1 0x1 PUSH1 0xA0 PUSH1 0x2 EXP SUB AND SWAP1 POP DUP2 JUMP JUMPDEST PUSH1 0x5 SLOAD DUP2 JUMP JUMPDEST PUSH1 0x9 SLOAD PUSH1 0xA SLOAD ADD TIMESTAMP LT ISZERO PUSH2 0xEA3 JUMPI PUSH1 0x40 MLOAD PUSH1 0xE5 PUSH1 0x2 EXP PUSH3 0x461BCD MUL DUP2 MSTORE PUSH1 0x4 ADD DUP1 DUP1 PUSH1 0x20 ADD DUP3 DUP2 SUB DUP3 MSTORE PUSH1 0x26 DUP2 MSTORE PUSH1 0x20 ADD DUP1 PUSH2 0x1842 PUSH1 0x26 SWAP2 CODECOPY PUSH1 0x40 ADD SWAP2 POP POP PUSH1 0x40 MLOAD DUP1 SWAP2 SUB SWAP1 REVERT JUMPDEST PUSH1 0x3 CALLER PUSH1 0x0 SWAP1 DUP2 MSTORE PUSH1 0x2 PUSH1 0x20 MSTORE PUSH1 0x40 SWAP1 KECCAK256 PUSH1 0x6 ADD SLOAD PUSH1 0xFF AND PUSH1 0x5 DUP2 GT ISZERO PUSH2 0xEC6 JUMPI INVALID JUMPDEST EQ PUSH2 0xF05 JUMPI PUSH1 0x40 MLOAD PUSH1 0xE5 PUSH1 0x2 EXP PUSH3 0x461BCD MUL DUP2 MSTORE PUSH1 0x4 ADD DUP1 DUP1 PUSH1 0x20 ADD DUP3 DUP2 SUB DUP3 MSTORE PUSH1 0x2F DUP2 MSTORE PUSH1 0x20 ADD DUP1 PUSH2 0x17ED PUSH1 0x2F SWAP2 CODECOPY PUSH1 0x40 ADD SWAP2 POP POP PUSH1 0x40 MLOAD DUP1 SWAP2 SUB SWAP1 REVERT JUMPDEST CALLER PUSH1 0x0 SWAP1 DUP2 MSTORE PUSH1 0x2 PUSH1 0x20 DUP2 SWAP1 MSTORE PUSH1 0x40 SWAP1 SWAP2 KECCAK256 PUSH1 0x6 ADD DUP1 SLOAD PUSH1 0xFF NOT AND SWAP1 SWAP2 OR SWAP1 SSTORE JUMP JUMPDEST PUSH5 0x1000003D0 NOT DUP2 JUMP JUMPDEST PUSH1 0x7 DUP1 SLOAD PUSH1 0x40 DUP1 MLOAD PUSH1 0x20 PUSH1 0x2 PUSH1 0x1 DUP6 AND ISZERO PUSH2 0x100 MUL PUSH1 0x0 NOT ADD SWAP1 SWAP5 AND SWAP4 SWAP1 SWAP4 DIV PUSH1 0x1F DUP2 ADD DUP5 SWAP1 DIV DUP5 MUL DUP3 ADD DUP5 ADD SWAP1 SWAP3 MSTORE DUP2 DUP2 MSTORE SWAP3 SWAP2 DUP4 ADD DUP3 DUP3 DUP1 ISZERO PUSH2 0xE1F JUMPI DUP1 PUSH1 0x1F LT PUSH2 0xDF4 JUMPI PUSH2 0x100 DUP1 DUP4 SLOAD DIV MUL DUP4 MSTORE SWAP2 PUSH1 0x20 ADD SWAP2 PUSH2 0xE1F JUMP JUMPDEST PUSH1 0x2 PUSH1 0x20 DUP2 DUP2 MSTORE PUSH1 0x0 SWAP3 DUP4 MSTORE PUSH1 0x40 SWAP3 DUP4 SWAP1 KECCAK256 DUP1 SLOAD DUP5 MLOAD PUSH1 0x1 DUP3 AND ISZERO PUSH2 0x100 MUL PUSH1 0x0 NOT ADD SWAP1 SWAP2 AND SWAP4 SWAP1 SWAP4 DIV PUSH1 0x1F DUP2 ADD DUP4 SWAP1 DIV DUP4 MUL DUP5 ADD DUP4 ADD SWAP1 SWAP5 MSTORE DUP4 DUP4 MSTORE SWAP3 DUP4 SWAP2 DUP4 ADD DUP3 DUP3 DUP1 ISZERO PUSH2 0x101D JUMPI DUP1 PUSH1 0x1F LT PUSH2 0xFF2 JUMPI PUSH2 0x100 DUP1 DUP4 SLOAD DIV MUL DUP4 MSTORE SWAP2 PUSH1 0x20 ADD SWAP2 PUSH2 0x101D JUMP JUMPDEST DUP3 ADD SWAP2 SWAP1 PUSH1 0x0 MSTORE PUSH1 0x20 PUSH1 0x0 KECCAK256 SWAP1 JUMPDEST DUP2 SLOAD DUP2 MSTORE SWAP1 PUSH1 0x1 ADD SWAP1 PUSH1 0x20 ADD DUP1 DUP4 GT PUSH2 0x1000 JUMPI DUP3 SWAP1 SUB PUSH1 0x1F AND DUP3 ADD SWAP2 JUMPDEST POP POP POP POP POP SWAP1 DUP1 PUSH1 0x1 ADD DUP1 SLOAD PUSH1 0x1 DUP2 PUSH1 0x1 AND ISZERO PUSH2 0x100 MUL SUB AND PUSH1 0x2 SWAP1 DIV DUP1 PUSH1 0x1F ADD PUSH1 0x20 DUP1 SWAP2 DIV MUL PUSH1 0x20 ADD PUSH1 0x40 MLOAD SWAP1 DUP2 ADD PUSH1 0x40 MSTORE DUP1 SWAP3 SWAP2 SWAP1 DUP2 DUP2 MSTORE PUSH1 0x20 ADD DUP3 DUP1 SLOAD PUSH1 0x1 DUP2 PUSH1 0x1 AND ISZERO PUSH2 0x100 MUL SUB AND PUSH1 0x2 SWAP1 DIV DUP1 ISZERO PUSH2 0x10BB JUMPI DUP1 PUSH1 0x1F LT PUSH2 0x1090 JUMPI PUSH2 0x100 DUP1 DUP4 SLOAD DIV MUL DUP4 MSTORE SWAP2 PUSH1 0x20 ADD SWAP2 PUSH2 0x10BB JUMP JUMPDEST DUP3 ADD SWAP2 SWAP1 PUSH1 0x0 MSTORE PUSH1 0x20 PUSH1 0x0 KECCAK256 SWAP1 JUMPDEST DUP2 SLOAD DUP2 MSTORE SWAP1 PUSH1 0x1 ADD SWAP1 PUSH1 0x20 ADD DUP1 DUP4 GT PUSH2 0x109E JUMPI DUP3 SWAP1 SUB PUSH1 0x1F AND DUP3 ADD SWAP2 JUMPDEST POP POP POP PUSH1 0x2 DUP5 ADD SLOAD PUSH1 0x3 DUP6 ADD SLOAD PUSH1 0x4 DUP7 ADD SLOAD PUSH1 0x5 DUP8 ADD SLOAD PUSH1 0x6 SWAP1 SWAP8 ADD SLOAD SWAP6 SWAP7 SWAP3 SWAP6 SWAP2 SWAP5 POP SWAP3 POP PUSH1 0xFF AND DUP8 JUMP JUMPDEST PUSH1 0x0 DUP1 PUSH1 0x0 DUP1 PUSH1 0x0 PUSH2 0x10FE DUP11 DUP11 DUP11 PUSH1 0x1 DUP12 DUP12 PUSH2 0x11A4 JUMP JUMPDEST SWAP3 POP SWAP3 POP SWAP3 POP PUSH2 0x1110 DUP4 DUP4 DUP4 DUP10 PUSH2 0x121D JUMP JUMPDEST SWAP5 POP SWAP5 POP POP POP POP SWAP6 POP SWAP6 SWAP4 POP POP POP POP JUMP JUMPDEST PUSH1 0x0 DUP1 DUP1 DUP1 DUP1 DUP11 DUP10 EQ ISZERO PUSH2 0x116C JUMPI DUP6 DUP1 ISZERO ISZERO PUSH2 0x1139 JUMPI INVALID JUMPDEST DUP9 DUP12 ADDMOD ISZERO ISZERO PUSH2 0x1152 JUMPI POP PUSH1 0x0 SWAP4 POP DUP4 SWAP3 POP PUSH2 0x1199 SWAP2 POP POP JUMP JUMPDEST PUSH2 0x1160 DUP12 DUP12 PUSH1 0x1 DUP11 DUP11 PUSH2 0x127C JUMP JUMPDEST SWAP2 SWAP5 POP SWAP3 POP SWAP1 POP PUSH2 0x1185 JUMP JUMPDEST PUSH2 0x117D DUP12 DUP12 PUSH1 0x1 DUP13 DUP13 PUSH1 0x1 DUP13 PUSH2 0x13BA JUMP JUMPDEST SWAP2 SWAP5 POP SWAP3 POP SWAP1 POP JUMPDEST PUSH2 0x1191 DUP4 DUP4 DUP4 DUP10 PUSH2 0x121D JUMP JUMPDEST SWAP5 POP SWAP5 POP POP POP POP JUMPDEST SWAP7 POP SWAP7 SWAP5 POP POP POP POP POP JUMP JUMPDEST PUSH1 0x0 DUP1 DUP1 DUP9 ISZERO ISZERO PUSH2 0x11BC JUMPI POP DUP7 SWAP2 POP DUP6 SWAP1 POP DUP5 PUSH2 0x1211 JUMP JUMPDEST DUP9 PUSH1 0x0 DUP1 PUSH1 0x1 JUMPDEST DUP4 ISZERO PUSH2 0x1208 JUMPI PUSH1 0x1 DUP5 AND ISZERO PUSH2 0x11E9 JUMPI PUSH2 0x11E1 DUP4 DUP4 DUP4 DUP16 DUP16 DUP16 DUP15 PUSH2 0x13BA JUMP JUMPDEST SWAP2 SWAP5 POP SWAP3 POP SWAP1 POP JUMPDEST PUSH1 0x2 DUP5 DIV SWAP4 POP PUSH2 0x11FC DUP13 DUP13 DUP13 DUP13 DUP13 PUSH2 0x127C JUMP JUMPDEST SWAP2 SWAP14 POP SWAP12 POP SWAP10 POP PUSH2 0x11C3 JUMP JUMPDEST SWAP2 SWAP6 POP SWAP4 POP SWAP2 POP POP JUMPDEST SWAP7 POP SWAP7 POP SWAP7 SWAP4 POP POP POP POP JUMP JUMPDEST PUSH1 0x0 DUP1 PUSH1 0x0 PUSH2 0x122C DUP6 DUP6 PUSH2 0x166C JUMP JUMPDEST SWAP1 POP PUSH1 0x0 DUP5 DUP1 ISZERO ISZERO PUSH2 0x123A JUMPI INVALID JUMPDEST DUP3 DUP4 MULMOD SWAP1 POP PUSH1 0x0 DUP6 DUP1 ISZERO ISZERO PUSH2 0x124B JUMPI INVALID JUMPDEST DUP3 DUP11 MULMOD SWAP1 POP PUSH1 0x0 DUP7 DUP1 ISZERO ISZERO PUSH2 0x125C JUMPI INVALID JUMPDEST DUP8 DUP1 ISZERO ISZERO PUSH2 0x1266 JUMPI INVALID JUMPDEST DUP5 DUP7 MULMOD DUP11 MULMOD SWAP2 SWAP11 SWAP2 SWAP10 POP SWAP1 SWAP8 POP POP POP POP POP POP POP POP JUMP JUMPDEST PUSH1 0x0 DUP1 DUP1 DUP6 ISZERO ISZERO PUSH2 0x1294 JUMPI POP DUP7 SWAP2 POP DUP6 SWAP1 POP DUP5 PUSH2 0x13AF JUMP JUMPDEST PUSH1 0x0 DUP5 DUP1 ISZERO ISZERO PUSH2 0x12A0 JUMPI INVALID JUMPDEST DUP10 DUP11 MULMOD SWAP1 POP PUSH1 0x0 DUP6 DUP1 ISZERO ISZERO PUSH2 0x12B1 JUMPI INVALID JUMPDEST DUP10 DUP11 MULMOD SWAP1 POP PUSH1 0x0 DUP7 DUP1 ISZERO ISZERO PUSH2 0x12C2 JUMPI INVALID JUMPDEST DUP10 DUP11 MULMOD SWAP1 POP PUSH1 0x0 DUP8 DUP1 ISZERO ISZERO PUSH2 0x12D3 JUMPI INVALID JUMPDEST DUP9 DUP1 ISZERO ISZERO PUSH2 0x12DD JUMPI INVALID JUMPDEST DUP5 DUP15 MULMOD PUSH1 0x4 MULMOD SWAP1 POP PUSH1 0x0 DUP9 DUP1 ISZERO ISZERO PUSH2 0x12F1 JUMPI INVALID JUMPDEST DUP10 DUP1 ISZERO ISZERO PUSH2 0x12FB JUMPI INVALID JUMPDEST DUP11 DUP1 ISZERO ISZERO PUSH2 0x1305 JUMPI INVALID JUMPDEST DUP6 DUP7 MULMOD DUP13 MULMOD DUP11 DUP1 ISZERO ISZERO PUSH2 0x1314 JUMPI INVALID JUMPDEST DUP8 PUSH1 0x3 MULMOD ADDMOD SWAP1 POP DUP9 DUP1 ISZERO ISZERO PUSH2 0x1325 JUMPI INVALID JUMPDEST DUP10 DUP1 ISZERO ISZERO PUSH2 0x132F JUMPI INVALID JUMPDEST DUP4 DUP5 ADDMOD DUP11 SUB DUP11 DUP1 ISZERO ISZERO PUSH2 0x133E JUMPI INVALID JUMPDEST DUP4 DUP5 MULMOD ADDMOD SWAP5 POP DUP9 DUP1 ISZERO ISZERO PUSH2 0x134E JUMPI INVALID JUMPDEST DUP10 DUP1 ISZERO ISZERO PUSH2 0x1358 JUMPI INVALID JUMPDEST DUP11 DUP1 ISZERO ISZERO PUSH2 0x1362 JUMPI INVALID JUMPDEST DUP7 DUP8 MULMOD PUSH1 0x8 MULMOD DUP11 SUB DUP11 DUP1 ISZERO ISZERO PUSH2 0x1374 JUMPI INVALID JUMPDEST DUP12 DUP1 ISZERO ISZERO PUSH2 0x137E JUMPI INVALID JUMPDEST DUP9 DUP14 SUB DUP7 ADDMOD DUP5 MULMOD ADDMOD SWAP4 POP DUP9 DUP1 ISZERO ISZERO PUSH2 0x1392 JUMPI INVALID JUMPDEST DUP10 DUP1 ISZERO ISZERO PUSH2 0x139C JUMPI INVALID JUMPDEST DUP13 DUP15 MULMOD PUSH1 0x2 MULMOD SWAP5 SWAP8 POP SWAP3 SWAP6 POP SWAP3 SWAP4 POP POP POP POP JUMPDEST SWAP6 POP SWAP6 POP SWAP6 SWAP3 POP POP POP JUMP JUMPDEST PUSH1 0x0 DUP1 DUP1 DUP10 ISZERO DUP1 ISZERO PUSH2 0x13CA JUMPI POP DUP9 ISZERO JUMPDEST ISZERO PUSH2 0x13DC JUMPI POP DUP6 SWAP2 POP DUP5 SWAP1 POP DUP4 PUSH2 0x165F JUMP JUMPDEST DUP7 ISZERO DUP1 ISZERO PUSH2 0x13E8 JUMPI POP DUP6 ISZERO JUMPDEST ISZERO PUSH2 0x13FA JUMPI POP DUP9 SWAP2 POP DUP8 SWAP1 POP DUP7 PUSH2 0x165F JUMP JUMPDEST PUSH2 0x1402 PUSH2 0x17B0 JUMP JUMPDEST DUP5 DUP1 ISZERO ISZERO PUSH2 0x140C JUMPI INVALID JUMPDEST DUP10 DUP11 MULMOD DUP2 MSTORE DUP5 DUP1 ISZERO ISZERO PUSH2 0x141B JUMPI INVALID JUMPDEST DUP2 MLOAD DUP11 MULMOD PUSH1 0x20 DUP3 ADD MSTORE DUP5 DUP1 ISZERO ISZERO PUSH2 0x142E JUMPI INVALID JUMPDEST DUP7 DUP8 MULMOD PUSH1 0x40 DUP3 ADD MSTORE DUP5 DUP1 ISZERO ISZERO PUSH2 0x1440 JUMPI INVALID JUMPDEST PUSH1 0x40 DUP3 ADD MLOAD DUP8 MULMOD PUSH1 0x60 DUP3 ADD MSTORE PUSH1 0x40 DUP1 MLOAD PUSH1 0x80 DUP2 ADD SWAP1 SWAP2 MSTORE DUP1 DUP7 DUP1 ISZERO ISZERO PUSH2 0x1462 JUMPI INVALID JUMPDEST PUSH1 0x40 DUP5 ADD MLOAD DUP15 MULMOD DUP2 MSTORE PUSH1 0x20 ADD DUP7 DUP1 ISZERO ISZERO PUSH2 0x1478 JUMPI INVALID JUMPDEST PUSH1 0x60 DUP5 ADD MLOAD DUP14 MULMOD DUP2 MSTORE PUSH1 0x20 ADD DUP7 DUP1 ISZERO ISZERO PUSH2 0x148E JUMPI INVALID JUMPDEST DUP4 MLOAD DUP12 MULMOD DUP2 MSTORE PUSH1 0x20 ADD DUP7 DUP1 ISZERO ISZERO PUSH2 0x14A1 JUMPI INVALID JUMPDEST PUSH1 0x20 DUP5 ADD MLOAD DUP11 MULMOD SWAP1 MSTORE PUSH1 0x40 DUP2 ADD MLOAD DUP2 MLOAD SWAP2 SWAP3 POP EQ ISZERO DUP1 PUSH2 0x14C9 JUMPI POP PUSH1 0x60 DUP2 ADD MLOAD PUSH1 0x20 DUP3 ADD MLOAD EQ ISZERO JUMPDEST ISZERO ISZERO PUSH2 0x151F JUMPI PUSH1 0x40 DUP1 MLOAD PUSH1 0xE5 PUSH1 0x2 EXP PUSH3 0x461BCD MUL DUP2 MSTORE PUSH1 0x20 PUSH1 0x4 DUP3 ADD MSTORE PUSH1 0x1E PUSH1 0x24 DUP3 ADD MSTORE PUSH32 0x557365206A6163446F75626C652066756E6374696F6E20696E73746561640000 PUSH1 0x44 DUP3 ADD MSTORE SWAP1 MLOAD SWAP1 DUP2 SWAP1 SUB PUSH1 0x64 ADD SWAP1 REVERT JUMPDEST PUSH2 0x1527 PUSH2 0x17B0 JUMP JUMPDEST DUP6 DUP1 ISZERO ISZERO PUSH2 0x1531 JUMPI INVALID JUMPDEST DUP3 MLOAD PUSH1 0x40 DUP5 ADD MLOAD SWAP1 DUP9 SUB SWAP1 ADDMOD DUP2 MSTORE DUP6 DUP1 ISZERO ISZERO PUSH2 0x1549 JUMPI INVALID JUMPDEST PUSH1 0x20 DUP4 ADD MLOAD PUSH1 0x60 DUP5 ADD MLOAD SWAP1 DUP9 SUB SWAP1 ADDMOD PUSH1 0x20 DUP3 ADD MSTORE DUP6 DUP1 ISZERO ISZERO PUSH2 0x1567 JUMPI INVALID JUMPDEST DUP2 MLOAD DUP1 MULMOD PUSH1 0x40 DUP3 ADD MSTORE DUP6 DUP1 ISZERO ISZERO PUSH2 0x157A JUMPI INVALID JUMPDEST DUP2 MLOAD PUSH1 0x40 DUP4 ADD MLOAD MULMOD PUSH1 0x60 DUP3 ADD MSTORE PUSH1 0x0 DUP7 DUP1 ISZERO ISZERO PUSH2 0x1593 JUMPI INVALID JUMPDEST PUSH1 0x60 DUP4 ADD MLOAD DUP9 SUB DUP9 DUP1 ISZERO ISZERO PUSH2 0x15A4 JUMPI INVALID JUMPDEST PUSH1 0x20 DUP6 ADD MLOAD DUP1 MULMOD ADDMOD SWAP1 POP DUP7 DUP1 ISZERO ISZERO PUSH2 0x15B8 JUMPI INVALID JUMPDEST DUP8 DUP1 ISZERO ISZERO PUSH2 0x15C2 JUMPI INVALID JUMPDEST DUP9 DUP1 ISZERO ISZERO PUSH2 0x15CC JUMPI INVALID JUMPDEST PUSH1 0x40 DUP6 ADD MLOAD DUP7 MLOAD MULMOD PUSH1 0x2 MULMOD DUP9 SUB DUP3 ADDMOD SWAP1 POP PUSH1 0x0 DUP8 DUP1 ISZERO ISZERO PUSH2 0x15E9 JUMPI INVALID JUMPDEST DUP9 DUP1 ISZERO ISZERO PUSH2 0x15F3 JUMPI INVALID JUMPDEST DUP4 DUP11 SUB DUP11 DUP1 ISZERO ISZERO PUSH2 0x1600 JUMPI INVALID JUMPDEST PUSH1 0x40 DUP8 ADD MLOAD DUP9 MLOAD MULMOD ADDMOD PUSH1 0x20 DUP6 ADD MLOAD MULMOD SWAP1 POP DUP8 DUP1 ISZERO ISZERO PUSH2 0x161B JUMPI INVALID JUMPDEST DUP9 DUP1 ISZERO ISZERO PUSH2 0x1625 JUMPI INVALID JUMPDEST PUSH1 0x60 DUP6 ADD MLOAD PUSH1 0x20 DUP8 ADD MLOAD MULMOD DUP10 SUB DUP3 ADDMOD SWAP1 POP PUSH1 0x0 DUP9 DUP1 ISZERO ISZERO PUSH2 0x1642 JUMPI INVALID JUMPDEST DUP10 DUP1 ISZERO ISZERO PUSH2 0x164C JUMPI INVALID JUMPDEST DUP12 DUP16 MULMOD DUP6 MLOAD MULMOD SWAP3 SWAP8 POP SWAP1 SWAP6 POP SWAP1 SWAP4 POP POP POP POP JUMPDEST SWAP8 POP SWAP8 POP SWAP8 SWAP5 POP POP POP POP POP JUMP JUMPDEST PUSH1 0x0 DUP3 ISZERO DUP1 ISZERO SWAP1 PUSH2 0x167D JUMPI POP DUP2 DUP4 EQ ISZERO JUMPDEST DUP1 ISZERO PUSH2 0x1688 JUMPI POP DUP2 ISZERO ISZERO JUMPDEST ISZERO ISZERO PUSH2 0x16DE JUMPI PUSH1 0x40 DUP1 MLOAD PUSH1 0xE5 PUSH1 0x2 EXP PUSH3 0x461BCD MUL DUP2 MSTORE PUSH1 0x20 PUSH1 0x4 DUP3 ADD MSTORE PUSH1 0xE PUSH1 0x24 DUP3 ADD MSTORE PUSH32 0x496E76616C6964206E756D626572000000000000000000000000000000000000 PUSH1 0x44 DUP3 ADD MSTORE SWAP1 MLOAD SWAP1 DUP2 SWAP1 SUB PUSH1 0x64 ADD SWAP1 REVERT JUMPDEST PUSH1 0x0 PUSH1 0x1 DUP4 DUP3 JUMPDEST DUP7 ISZERO PUSH2 0x1727 JUMPI DUP7 DUP3 DUP2 ISZERO ISZERO PUSH2 0x16F6 JUMPI INVALID JUMPDEST DIV SWAP1 POP DUP3 DUP7 DUP1 ISZERO ISZERO PUSH2 0x1704 JUMPI INVALID JUMPDEST DUP8 DUP1 ISZERO ISZERO PUSH2 0x170E JUMPI INVALID JUMPDEST DUP6 DUP5 MULMOD DUP9 SUB DUP7 ADDMOD DUP3 DUP10 MUL SWAP1 SWAP4 SUB SWAP8 SWAP1 SWAP5 POP SWAP2 SWAP3 POP PUSH2 0x16E5 JUMP JUMPDEST POP SWAP2 SWAP6 SWAP5 POP POP POP POP POP JUMP JUMPDEST DUP3 DUP1 SLOAD PUSH1 0x1 DUP2 PUSH1 0x1 AND ISZERO PUSH2 0x100 MUL SUB AND PUSH1 0x2 SWAP1 DIV SWAP1 PUSH1 0x0 MSTORE PUSH1 0x20 PUSH1 0x0 KECCAK256 SWAP1 PUSH1 0x1F ADD PUSH1 0x20 SWAP1 DIV DUP2 ADD SWAP3 DUP3 PUSH1 0x1F LT PUSH2 0x1773 JUMPI DUP1 MLOAD PUSH1 0xFF NOT AND DUP4 DUP1 ADD OR DUP6 SSTORE PUSH2 0x17A0 JUMP JUMPDEST DUP3 DUP1 ADD PUSH1 0x1 ADD DUP6 SSTORE DUP3 ISZERO PUSH2 0x17A0 JUMPI SWAP2 DUP3 ADD JUMPDEST DUP3 DUP2 GT ISZERO PUSH2 0x17A0 JUMPI DUP3 MLOAD DUP3 SSTORE SWAP2 PUSH1 0x20 ADD SWAP2 SWAP1 PUSH1 0x1 ADD SWAP1 PUSH2 0x1785 JUMP JUMPDEST POP PUSH2 0x17AC SWAP3 SWAP2 POP PUSH2 0x17CF JUMP JUMPDEST POP SWAP1 JUMP JUMPDEST PUSH1 0x80 PUSH1 0x40 MLOAD SWAP1 DUP2 ADD PUSH1 0x40 MSTORE DUP1 PUSH1 0x4 SWAP1 PUSH1 0x20 DUP3 MUL DUP1 CODESIZE DUP4 CODECOPY POP SWAP2 SWAP3 SWAP2 POP POP JUMP JUMPDEST PUSH2 0x17E9 SWAP2 SWAP1 JUMPDEST DUP1 DUP3 GT ISZERO PUSH2 0x17AC JUMPI PUSH1 0x0 DUP2 SSTORE PUSH1 0x1 ADD PUSH2 0x17D5 JUMP JUMPDEST SWAP1 JUMP INVALID 0x4f PUSH15 0x6C7920726563656976657273207769 PUSH21 0x682027616363657074656427207374617465206361 PUSH15 0x2063616E63656C4F6E6C792073656E PUSH5 0x6572206F66 KECCAK256 PUSH21 0x68652064656C69766572792063616E2066696E6973 PUSH9 0x5468652074696D656F PUSH22 0x74207465726D3220686173206E6F74206265656E2072 PUSH6 0x616368656454 PUSH9 0x652074696D656F7574 KECCAK256 PUSH21 0x65726D3120686173206E6F74206265656E20726561 PUSH4 0x68656420 PUSH2 0x6E64 KECCAK256 PUSH15 0x6F7420616C6C207265636569766572 PUSH20 0x2068617665206265656E20616363657074656420 PUSH21 0x68652064656C69766572795468652074696D656F75 PUSH21 0x207465726D3120686173206265656E207265616368 PUSH6 0x645620616E64 KECCAK256 0x47 PUSH25 0x5B72695D2B4269785B63695D20617265206E6F742065717561 PUSH13 0x734F6E6C792072656365697665 PUSH19 0x73207769746820276372656174656427207374 PUSH2 0x7465 KECCAK256 PUSH4 0x616E2061 PUSH4 0x63657074 LOG1 PUSH6 0x627A7A723058 KECCAK256 CALLDATACOPY 0xe8 0xd1 0x1e 0x24 DUP14 0x29 PUSH26 0x3A244CA04BDFD4489FAB4648F4046B34FFCAF15D1B8ECF610029 SLOAD PUSH10 0x6D656F7574207465726D ORIGIN KECCAK256 PUSH14 0x7573742062652067726561746572 KECCAK256 PUSH21 0x68616E205F7465726D3153656E6465722068617320 PUSH21 0x6F2073656E642061206465706F736974206F66206D PUSH10 0x6E696D756E2031207765 PUSH10 0x0 "
        },
        "gasEstimates": {
          "creation": {
            "codeDepositCost": "1299600",
            "executionCost": "infinite",
            "totalCost": "infinite"
          },
          "external": {
            "A()": "infinite",
            "AA()": "270",
            "BB()": "270",
            "GX()": "227",
            "GY()": "248",
            "PP()": "294",
            "a()": "249",
            "accept(string,bytes,uint256,uint256,uint256)": "infinite",
            "cancel()": "infinite",
            "finish(address,uint256)": "infinite",
            "getR(address)": "778",
            "getState(address)": "infinite",
            "hashIPFS()": "infinite",
            "receivers(uint256)": "914",
            "receiversState(address)": "infinite",
            "sender()": "579",
            "start()": "514",
            "term1()": "426",
            "term2()": "515",
            "vx()": "448",
            "vy()": "447"
          }
        },
        "methodIdentifiers": {
          "A()": "f446c1d0",
          "AA()": "997da8d4",
          "BB()": "5727dc5c",
          "GX()": "03a507be",
          "GY()": "7a308a4c",
          "PP()": "eeeac01e",
          "a()": "0dbe671f",
          "accept(string,bytes,uint256,uint256,uint256)": "57dc3742",
          "cancel()": "ea8a1af0",
          "finish(address,uint256)": "29008824",
          "getR(address)": "6349ca37",
          "getState(address)": "1bab58f5",
          "hashIPFS()": "a1cbf5f9",
          "receivers(uint256)": "bfd772fc",
          "receiversState(address)": "ff7edf42",
          "sender()": "67e404ce",
          "start()": "be9a6555",
          "term1()": "4c87c67d",
          "term2()": "3b4a0828",
          "vx()": "4e8c0bd6",
          "vy()": "cd12a4b0"
        }
      },
      "userdoc": {
        "methods": {}
      }
    }
  }
}