{
  "contracts/ConfidentialMultipartyRegisteredEDeliveryWithoutTTP.sol": {
    "ConfidentialMultipartyRegisteredEDeliveryWithoutTTP": {
      "abi": [
        {
          "constant": true,
          "inputs": [],
          "name": "gx",
          "outputs": [
            {
              "name": "",
              "type": "uint256"
            }
          ],
          "payable": false,
          "stateMutability": "view",
          "type": "function"
        },
        {
          "constant": true,
          "inputs": [],
          "name": "a",
          "outputs": [
            {
              "name": "",
              "type": "uint256"
            }
          ],
          "payable": false,
          "stateMutability": "view",
          "type": "function"
        },
        {
          "constant": true,
          "inputs": [
            {
              "name": "_receiver",
              "type": "address"
            }
          ],
          "name": "getState",
          "outputs": [
            {
              "name": "",
              "type": "string"
            }
          ],
          "payable": false,
          "stateMutability": "view",
          "type": "function"
        },
        {
          "constant": false,
          "inputs": [
            {
              "name": "_receiver",
              "type": "address"
            },
            {
              "name": "_r",
              "type": "uint256"
            }
          ],
          "name": "finish",
          "outputs": [],
          "payable": false,
          "stateMutability": "nonpayable",
          "type": "function"
        },
        {
          "constant": true,
          "inputs": [],
          "name": "gy",
          "outputs": [
            {
              "name": "",
              "type": "uint256"
            }
          ],
          "payable": false,
          "stateMutability": "view",
          "type": "function"
        },
        {
          "constant": true,
          "inputs": [],
          "name": "n",
          "outputs": [
            {
              "name": "",
              "type": "uint256"
            }
          ],
          "payable": false,
          "stateMutability": "view",
          "type": "function"
        },
        {
          "constant": true,
          "inputs": [],
          "name": "term2",
          "outputs": [
            {
              "name": "",
              "type": "uint256"
            }
          ],
          "payable": false,
          "stateMutability": "view",
          "type": "function"
        },
        {
          "constant": true,
          "inputs": [],
          "name": "term1",
          "outputs": [
            {
              "name": "",
              "type": "uint256"
            }
          ],
          "payable": false,
          "stateMutability": "view",
          "type": "function"
        },
        {
          "constant": true,
          "inputs": [],
          "name": "vx",
          "outputs": [
            {
              "name": "",
              "type": "uint256"
            }
          ],
          "payable": false,
          "stateMutability": "view",
          "type": "function"
        },
        {
          "constant": false,
          "inputs": [
            {
              "name": "_z1",
              "type": "string"
            },
            {
              "name": "_z2",
              "type": "bytes"
            },
            {
              "name": "_bx",
              "type": "uint256"
            },
            {
              "name": "_by",
              "type": "uint256"
            },
            {
              "name": "_c",
              "type": "uint256"
            }
          ],
          "name": "accept",
          "outputs": [],
          "payable": false,
          "stateMutability": "nonpayable",
          "type": "function"
        },
        {
          "constant": true,
          "inputs": [
            {
              "name": "_receiver",
              "type": "address"
            }
          ],
          "name": "getW",
          "outputs": [
            {
              "name": "",
              "type": "uint256"
            }
          ],
          "payable": false,
          "stateMutability": "view",
          "type": "function"
        },
        {
          "constant": true,
          "inputs": [],
          "name": "sender",
          "outputs": [
            {
              "name": "",
              "type": "address"
            }
          ],
          "payable": false,
          "stateMutability": "view",
          "type": "function"
        },
        {
          "constant": true,
          "inputs": [],
          "name": "hashIPFS",
          "outputs": [
            {
              "name": "",
              "type": "string"
            }
          ],
          "payable": false,
          "stateMutability": "view",
          "type": "function"
        },
        {
          "constant": true,
          "inputs": [],
          "name": "start",
          "outputs": [
            {
              "name": "",
              "type": "uint256"
            }
          ],
          "payable": false,
          "stateMutability": "view",
          "type": "function"
        },
        {
          "constant": true,
          "inputs": [
            {
              "name": "",
              "type": "uint256"
            }
          ],
          "name": "receivers",
          "outputs": [
            {
              "name": "",
              "type": "address"
            }
          ],
          "payable": false,
          "stateMutability": "view",
          "type": "function"
        },
        {
          "constant": true,
          "inputs": [],
          "name": "vy",
          "outputs": [
            {
              "name": "",
              "type": "uint256"
            }
          ],
          "payable": false,
          "stateMutability": "view",
          "type": "function"
        },
        {
          "constant": false,
          "inputs": [],
          "name": "cancel",
          "outputs": [],
          "payable": false,
          "stateMutability": "nonpayable",
          "type": "function"
        },
        {
          "constant": true,
          "inputs": [],
          "name": "A",
          "outputs": [
            {
              "name": "",
              "type": "string"
            }
          ],
          "payable": false,
          "stateMutability": "view",
          "type": "function"
        },
        {
          "constant": true,
          "inputs": [
            {
              "name": "",
              "type": "address"
            }
          ],
          "name": "receiversState",
          "outputs": [
            {
              "name": "z1",
              "type": "string"
            },
            {
              "name": "z2",
              "type": "bytes"
            },
            {
              "name": "bx",
              "type": "uint256"
            },
            {
              "name": "by",
              "type": "uint256"
            },
            {
              "name": "c",
              "type": "uint256"
            },
            {
              "name": "r",
              "type": "uint256"
            },
            {
              "name": "state",
              "type": "uint8"
            }
          ],
          "payable": false,
          "stateMutability": "view",
          "type": "function"
        },
        {
          "inputs": [
            {
              "name": "_sender",
              "type": "address"
            },
            {
              "name": "_receivers",
              "type": "address[]"
            },
            {
              "name": "_vx",
              "type": "uint256"
            },
            {
              "name": "_vy",
              "type": "uint256"
            },
            {
              "name": "_hashIPFS",
              "type": "string"
            },
            {
              "name": "_A",
              "type": "string"
            },
            {
              "name": "_term1",
              "type": "uint256"
            },
            {
              "name": "_term2",
              "type": "uint256"
            }
          ],
          "payable": true,
          "stateMutability": "payable",
          "type": "constructor"
        }
      ],
      "devdoc": {
        "methods": {}
      },
      "evm": {
        "bytecode": {
          "linkReferences": {},
          "object": "60806040527f79be667ef9dcbbac55a06295ce870b07029bfcdb2dce28d959f2815b16f817986008557f483ada7726a3c4655da4fbfc0e1108a8fd17b448a68554199c47d08ffb10d4b860095570014551231950b75fc4402da1732fc9bebe19600a55604051620019b7380380620019b783398101604090815281516020830151918301516060840151608085015160a086015160c087015160e0880151959796870196949593949283019391909201919060003481106200014857604080517f08c379a000000000000000000000000000000000000000000000000000000000815260206004820152602d60248201527f53656e6465722068617320746f2073656e642061206465706f736974206f662060448201527f6d696e696d756e20312077656900000000000000000000000000000000000000606482015290519081900360840190fd5b818310620001dd57604080517f08c379a000000000000000000000000000000000000000000000000000000000815260206004820152602960248201527f54696d656f7574207465726d32206d757374206265206772656174657220746860448201527f616e205f7465726d310000000000000000000000000000000000000000000000606482015290519081900360840190fd5b60008054600160a060020a031916600160a060020a038b1617905587516200020d9060019060208b0190620002d4565b50600090505b6001548110156200027e576001600260006001848154811015156200023457fe5b6000918252602080832090910154600160a060020a031683528201929092526040019020600601805460ff191660018360058111156200027057fe5b021790555060010162000213565b6000600355600487905560058690558451620002a29060069060208801906200033e565b508351620002b89060079060208701906200033e565b505042600d55600b91909155600c555062000406945050505050565b8280548282559060005260206000209081019282156200032c579160200282015b828111156200032c5782518254600160a060020a031916600160a060020a03909116178255602090920191600190910190620002f5565b506200033a929150620003bf565b5090565b828054600181600116156101000203166002900490600052602060002090601f016020900481019282601f106200038157805160ff1916838001178555620003b1565b82800160010185558215620003b1579182015b82811115620003b157825182559160200191906001019062000394565b506200033a929150620003e9565b620003e691905b808211156200033a578054600160a060020a0319168155600101620003c6565b90565b620003e691905b808211156200033a5760008155600101620003f0565b6115a180620004166000396000f3006080604052600436106101065763ffffffff7c010000000000000000000000000000000000000000000000000000000060003504166306c91ce3811461010b5780630dbe671f146101325780631bab58f51461014757806329008824146101dd5780632d58c9a2146102035780632e52d606146102185780633b4a08281461022d5780634c87c67d146102425780634e8c0bd61461025757806357dc37421461026c57806367b70e111461031057806367e404ce14610331578063a1cbf5f914610362578063be9a655514610377578063bfd772fc1461038c578063cd12a4b0146103a4578063ea8a1af0146103b9578063f446c1d0146103ce578063ff7edf42146103e3575b600080fd5b34801561011757600080fd5b50610120610513565b60408051918252519081900360200190f35b34801561013e57600080fd5b50610120610519565b34801561015357600080fd5b50610168600160a060020a036004351661051e565b6040805160208082528351818301528351919283929083019185019080838360005b838110156101a257818101518382015260200161018a565b50505050905090810190601f1680156101cf5780820380516001836020036101000a031916815260200191505b509250505060405180910390f35b3480156101e957600080fd5b50610201600160a060020a03600435166024356107a9565b005b34801561020f57600080fd5b50610120610b8b565b34801561022457600080fd5b50610120610b91565b34801561023957600080fd5b50610120610b97565b34801561024e57600080fd5b50610120610b9d565b34801561026357600080fd5b50610120610ba3565b34801561027857600080fd5b506040805160206004803580820135601f810184900484028501840190955284845261020194369492936024939284019190819084018382808284375050604080516020601f89358b018035918201839004830284018301909452808352979a99988101979196509182019450925082915084018382808284375094975050843595505050602083013592604001359150610ba99050565b34801561031c57600080fd5b50610120600160a060020a0360043516610d56565b34801561033d57600080fd5b50610346610d74565b60408051600160a060020a039092168252519081900360200190f35b34801561036e57600080fd5b50610168610d83565b34801561038357600080fd5b50610120610e11565b34801561039857600080fd5b50610346600435610e17565b3480156103b057600080fd5b50610120610e3f565b3480156103c557600080fd5b50610201610e45565b3480156103da57600080fd5b50610168610f89565b3480156103ef57600080fd5b50610404600160a060020a0360043516610fe4565b60405180806020018060200188815260200187815260200186815260200185815260200184600581111561043457fe5b60ff16815260200183810383528a818151815260200191508051906020019080838360005b83811015610471578181015183820152602001610459565b50505050905090810190601f16801561049e5780820380516001836020036101000a031916815260200191505b5083810382528951815289516020918201918b019080838360005b838110156104d15781810151838201526020016104b9565b50505050905090810190601f1680156104fe5780820380516001836020036101000a031916815260200191505b50995050505050505050505060405180910390f35b60085481565b600081565b60606000600160a060020a03831660009081526002602052604090206006015460ff16600581111561054c57fe5b141561058c575060408051808201909152600a81527f6e6f74206578697374730000000000000000000000000000000000000000000060208201526107a4565b6001600160a060020a03831660009081526002602052604090206006015460ff1660058111156105b857fe5b14156105f8575060408051808201909152600781527f637265617465640000000000000000000000000000000000000000000000000060208201526107a4565b6002600160a060020a03831660009081526002602052604090206006015460ff16600581111561062457fe5b1415610664575060408051808201909152600981527f63616e63656c6c6564000000000000000000000000000000000000000000000060208201526107a4565b6003600160a060020a03831660009081526002602052604090206006015460ff16600581111561069057fe5b14156106d0575060408051808201909152600881527f616363657074656400000000000000000000000000000000000000000000000060208201526107a4565b6004600160a060020a03831660009081526002602052604090206006015460ff1660058111156106fc57fe5b141561073c575060408051808201909152600881527f66696e697368656400000000000000000000000000000000000000000000000060208201526107a4565b6005600160a060020a03831660009081526002602052604090206006015460ff16600581111561076857fe5b14156107a4575060408051808201909152600881527f72656a656374656400000000000000000000000000000000000000000000000060208201525b919050565b6000806000600b54600d5401421015806107c7575060015460035410155b1515610869576040805160e560020a62461bcd02815260206004820152605c60248201527f5468652074696d656f7574207465726d3120686173206e6f74206265656e207260448201527f65616368656420616e64206e6f7420616c6c207265636569766572732068617660648201527f65206265656e206163636570746564207468652064656c697665727900000000608482015290519081900360a40190fd5b600054600160a060020a031633146108f1576040805160e560020a62461bcd02815260206004820152602660248201527f4f6e6c792073656e646572206f66207468652064656c69766572792063616e2060448201527f66696e6973680000000000000000000000000000000000000000000000000000606482015290519081900360840190fd5b6108fd8460085461113f565b600160a060020a0386166000908152600260208190526040909120600481015491015491945061092c9161113f565b60045490925083830114156109b1576040805160e560020a62461bcd02815260206004820152602360248201527f5620616e642047785b72695d2b4269785b63695d20617265206e6f742065717560448201527f616c730000000000000000000000000000000000000000000000000000000000606482015290519081900360840190fd5b6040513390303180156108fc02916000818181858888f193505050501580156109de573d6000803e3d6000fd5b50600090505b600154811015610b84578360026000600184815481101515610a0257fe5b6000918252602080832090910154600160a060020a03168352820192909252604001902060050155600360026000600184815481101515610a3f57fe5b6000918252602080832090910154600160a060020a0316835282019290925260400190206006015460ff166005811115610a7557fe5b1415610ad557600460026000600184815481101515610a9057fe5b6000918252602080832090910154600160a060020a031683528201929092526040019020600601805460ff19166001836005811115610acb57fe5b0217905550610b7c565b600160026000600184815481101515610aea57fe5b6000918252602080832090910154600160a060020a0316835282019290925260400190206006015460ff166005811115610b2057fe5b1415610b7c57600560026000600184815481101515610b3b57fe5b6000918252602080832090910154600160a060020a031683528201929092526040019020600601805460ff19166001836005811115610b7657fe5b02179055505b6001016109e4565b5050505050565b60095481565b600a5481565b600c5481565b600b5481565b60045481565b600b54600d54014210610c2c576040805160e560020a62461bcd02815260206004820152602260248201527f5468652074696d656f7574207465726d3120686173206265656e20726561636860448201527f6564000000000000000000000000000000000000000000000000000000000000606482015290519081900360840190fd5b60013360009081526002602052604090206006015460ff166005811115610c4f57fe5b14610cca576040805160e560020a62461bcd02815260206004820152602e60248201527f4f6e6c792072656365697665727320776974682027637265617465642720737460448201527f6174652063616e20616363657074000000000000000000000000000000000000606482015290519081900360840190fd5b6003805460010190553360009081526002602090815260409091208651610cf3928801906114da565b503360009081526002602090815260409091208551610d1a926001909201918701906114da565b503360009081526002602081905260409091209081019390935560038084019290925560048301556006909101805460ff191690911790555050565b600160a060020a031660009081526002602052604090206005015490565b600054600160a060020a031681565b6006805460408051602060026001851615610100026000190190941693909304601f81018490048402820184019092528181529291830182828015610e095780601f10610dde57610100808354040283529160200191610e09565b820191906000526020600020905b815481529060010190602001808311610dec57829003601f168201915b505050505081565b600d5481565b6001805482908110610e2557fe5b600091825260209091200154600160a060020a0316905081565b60055481565b600c54600d5401421015610ec9576040805160e560020a62461bcd02815260206004820152602660248201527f5468652074696d656f7574207465726d3220686173206e6f74206265656e207260448201527f6561636865640000000000000000000000000000000000000000000000000000606482015290519081900360840190fd5b60033360009081526002602052604090206006015460ff166005811115610eec57fe5b14610f67576040805160e560020a62461bcd02815260206004820152602f60248201527f4f6e6c792072656365697665727320776974682027616363657074656427207360448201527f746174652063616e2063616e63656c0000000000000000000000000000000000606482015290519081900360840190fd5b336000908152600260208190526040909120600601805460ff19169091179055565b6007805460408051602060026001851615610100026000190190941693909304601f81018490048402820184019092528181529291830182828015610e095780601f10610dde57610100808354040283529160200191610e09565b600260208181526000928352604092839020805484516001821615610100026000190190911693909304601f81018390048302840183019094528383529283918301828280156110755780601f1061104a57610100808354040283529160200191611075565b820191906000526020600020905b81548152906001019060200180831161105857829003601f168201915b505050505090806001018054600181600116156101000203166002900480601f0160208091040260200160405190810160405280929190818152602001828054600181600116156101000203166002900480156111135780601f106110e857610100808354040283529160200191611113565b820191906000526020600020905b8154815290600101906020018083116110f657829003601f168201915b505050600284015460038501546004860154600587015460069097015495969295919450925060ff1687565b600080600080611152868660018061117d565b91945092509050611162816111fe565b9050600a5480151561117057fe5b8184099695505050505050565b6000808086868686848060018615156111a05760009950899850600197506111ed565b86156111e25760018716156111c5576111bd83838389898961125f565b919450925090505b6002870496506111d68686866113f4565b919750955093506111a0565b919850965094508686865b505050505050509450945094915050565b600a54600090819060019084835b811561125457818381151561121d57fe5b04905083600a5480151561122d57fe5b600a5480151561123957fe5b868409600a540387089095509350909181830290039061120c565b509295945050505050565b60008080808080808c15801561127357508b155b15611286578989899650965096506113e4565b89158015611292575088155b156112a5578c8c8c9650965096506113e4565b898d1480156112b35750888c145b15611307576112c48d8c8f8e611416565b90945092506112d7848460036001611416565b90945092506112ea848460006001611444565b90945092506112fd8c8c60026001611416565b909250905061132a565b61131389898e8e61147e565b90945092506113248a898f8e61147e565b90925090505b611336848484846114ac565b909450925061134784848181611416565b909750915061135887838f8e61147e565b909750915061136987838c8b61147e565b909750915061137a8d8c898561147e565b909650905061138b86828686611416565b909650905061139c86828e8e61147e565b90965090508181146113e057600a548015156113b457fe5b8188099650600a548015156113c557fe5b8287099550600a548015156113d657fe5b81830994506113e4565b8194505b5050505096509650969350505050565b600080600061140786868689898961125f565b91989097509095509350505050565b600080600a5480151561142557fe5b848709600a5480151561143457fe5b8487099097909650945050505050565b600080600a5480151561145357fe5b600a5480151561145f57fe5b868609600a5480151561146e57fe5b88860908600a5480151561143457fe5b600080600a5480151561148d57fe5b600a5480151561149957fe5b8686600a540309600a5480151561146e57fe5b600080600a548015156114bb57fe5b838709600a548015156114ca57fe5b8587099097909650945050505050565b828054600181600116156101000203166002900490600052602060002090601f016020900481019282601f1061151b57805160ff1916838001178555611548565b82800160010185558215611548579182015b8281111561154857825182559160200191906001019061152d565b50611554929150611558565b5090565b61157291905b80821115611554576000815560010161155e565b905600a165627a7a7230582073807bf2709495532aaf323dc4153a02254a2531f4114563a75a823f675011400029",
          "opcodes": "PUSH1 0x80 PUSH1 0x40 MSTORE PUSH32 0x79BE667EF9DCBBAC55A06295CE870B07029BFCDB2DCE28D959F2815B16F81798 PUSH1 0x8 SSTORE PUSH32 0x483ADA7726A3C4655DA4FBFC0E1108A8FD17B448A68554199C47D08FFB10D4B8 PUSH1 0x9 SSTORE PUSH17 0x14551231950B75FC4402DA1732FC9BEBE NOT PUSH1 0xA SSTORE PUSH1 0x40 MLOAD PUSH3 0x19B7 CODESIZE SUB DUP1 PUSH3 0x19B7 DUP4 CODECOPY DUP2 ADD PUSH1 0x40 SWAP1 DUP2 MSTORE DUP2 MLOAD PUSH1 0x20 DUP4 ADD MLOAD SWAP2 DUP4 ADD MLOAD PUSH1 0x60 DUP5 ADD MLOAD PUSH1 0x80 DUP6 ADD MLOAD PUSH1 0xA0 DUP7 ADD MLOAD PUSH1 0xC0 DUP8 ADD MLOAD PUSH1 0xE0 DUP9 ADD MLOAD SWAP6 SWAP8 SWAP7 DUP8 ADD SWAP7 SWAP5 SWAP6 SWAP4 SWAP5 SWAP3 DUP4 ADD SWAP4 SWAP2 SWAP1 SWAP3 ADD SWAP2 SWAP1 PUSH1 0x0 CALLVALUE DUP2 LT PUSH3 0x148 JUMPI PUSH1 0x40 DUP1 MLOAD PUSH32 0x8C379A000000000000000000000000000000000000000000000000000000000 DUP2 MSTORE PUSH1 0x20 PUSH1 0x4 DUP3 ADD MSTORE PUSH1 0x2D PUSH1 0x24 DUP3 ADD MSTORE PUSH32 0x53656E6465722068617320746F2073656E642061206465706F736974206F6620 PUSH1 0x44 DUP3 ADD MSTORE PUSH32 0x6D696E696D756E20312077656900000000000000000000000000000000000000 PUSH1 0x64 DUP3 ADD MSTORE SWAP1 MLOAD SWAP1 DUP2 SWAP1 SUB PUSH1 0x84 ADD SWAP1 REVERT JUMPDEST DUP2 DUP4 LT PUSH3 0x1DD JUMPI PUSH1 0x40 DUP1 MLOAD PUSH32 0x8C379A000000000000000000000000000000000000000000000000000000000 DUP2 MSTORE PUSH1 0x20 PUSH1 0x4 DUP3 ADD MSTORE PUSH1 0x29 PUSH1 0x24 DUP3 ADD MSTORE PUSH32 0x54696D656F7574207465726D32206D7573742062652067726561746572207468 PUSH1 0x44 DUP3 ADD MSTORE PUSH32 0x616E205F7465726D310000000000000000000000000000000000000000000000 PUSH1 0x64 DUP3 ADD MSTORE SWAP1 MLOAD SWAP1 DUP2 SWAP1 SUB PUSH1 0x84 ADD SWAP1 REVERT JUMPDEST PUSH1 0x0 DUP1 SLOAD PUSH1 0x1 PUSH1 0xA0 PUSH1 0x2 EXP SUB NOT AND PUSH1 0x1 PUSH1 0xA0 PUSH1 0x2 EXP SUB DUP12 AND OR SWAP1 SSTORE DUP8 MLOAD PUSH3 0x20D SWAP1 PUSH1 0x1 SWAP1 PUSH1 0x20 DUP12 ADD SWAP1 PUSH3 0x2D4 JUMP JUMPDEST POP PUSH1 0x0 SWAP1 POP JUMPDEST PUSH1 0x1 SLOAD DUP2 LT ISZERO PUSH3 0x27E JUMPI PUSH1 0x1 PUSH1 0x2 PUSH1 0x0 PUSH1 0x1 DUP5 DUP2 SLOAD DUP2 LT ISZERO ISZERO PUSH3 0x234 JUMPI INVALID JUMPDEST PUSH1 0x0 SWAP2 DUP3 MSTORE PUSH1 0x20 DUP1 DUP4 KECCAK256 SWAP1 SWAP2 ADD SLOAD PUSH1 0x1 PUSH1 0xA0 PUSH1 0x2 EXP SUB AND DUP4 MSTORE DUP3 ADD SWAP3 SWAP1 SWAP3 MSTORE PUSH1 0x40 ADD SWAP1 KECCAK256 PUSH1 0x6 ADD DUP1 SLOAD PUSH1 0xFF NOT AND PUSH1 0x1 DUP4 PUSH1 0x5 DUP2 GT ISZERO PUSH3 0x270 JUMPI INVALID JUMPDEST MUL OR SWAP1 SSTORE POP PUSH1 0x1 ADD PUSH3 0x213 JUMP JUMPDEST PUSH1 0x0 PUSH1 0x3 SSTORE PUSH1 0x4 DUP8 SWAP1 SSTORE PUSH1 0x5 DUP7 SWAP1 SSTORE DUP5 MLOAD PUSH3 0x2A2 SWAP1 PUSH1 0x6 SWAP1 PUSH1 0x20 DUP9 ADD SWAP1 PUSH3 0x33E JUMP JUMPDEST POP DUP4 MLOAD PUSH3 0x2B8 SWAP1 PUSH1 0x7 SWAP1 PUSH1 0x20 DUP8 ADD SWAP1 PUSH3 0x33E JUMP JUMPDEST POP POP TIMESTAMP PUSH1 0xD SSTORE PUSH1 0xB SWAP2 SWAP1 SWAP2 SSTORE PUSH1 0xC SSTORE POP PUSH3 0x406 SWAP5 POP POP POP POP POP JUMP JUMPDEST DUP3 DUP1 SLOAD DUP3 DUP3 SSTORE SWAP1 PUSH1 0x0 MSTORE PUSH1 0x20 PUSH1 0x0 KECCAK256 SWAP1 DUP2 ADD SWAP3 DUP3 ISZERO PUSH3 0x32C JUMPI SWAP2 PUSH1 0x20 MUL DUP3 ADD JUMPDEST DUP3 DUP2 GT ISZERO PUSH3 0x32C JUMPI DUP3 MLOAD DUP3 SLOAD PUSH1 0x1 PUSH1 0xA0 PUSH1 0x2 EXP SUB NOT AND PUSH1 0x1 PUSH1 0xA0 PUSH1 0x2 EXP SUB SWAP1 SWAP2 AND OR DUP3 SSTORE PUSH1 0x20 SWAP1 SWAP3 ADD SWAP2 PUSH1 0x1 SWAP1 SWAP2 ADD SWAP1 PUSH3 0x2F5 JUMP JUMPDEST POP PUSH3 0x33A SWAP3 SWAP2 POP PUSH3 0x3BF JUMP JUMPDEST POP SWAP1 JUMP JUMPDEST DUP3 DUP1 SLOAD PUSH1 0x1 DUP2 PUSH1 0x1 AND ISZERO PUSH2 0x100 MUL SUB AND PUSH1 0x2 SWAP1 DIV SWAP1 PUSH1 0x0 MSTORE PUSH1 0x20 PUSH1 0x0 KECCAK256 SWAP1 PUSH1 0x1F ADD PUSH1 0x20 SWAP1 DIV DUP2 ADD SWAP3 DUP3 PUSH1 0x1F LT PUSH3 0x381 JUMPI DUP1 MLOAD PUSH1 0xFF NOT AND DUP4 DUP1 ADD OR DUP6 SSTORE PUSH3 0x3B1 JUMP JUMPDEST DUP3 DUP1 ADD PUSH1 0x1 ADD DUP6 SSTORE DUP3 ISZERO PUSH3 0x3B1 JUMPI SWAP2 DUP3 ADD JUMPDEST DUP3 DUP2 GT ISZERO PUSH3 0x3B1 JUMPI DUP3 MLOAD DUP3 SSTORE SWAP2 PUSH1 0x20 ADD SWAP2 SWAP1 PUSH1 0x1 ADD SWAP1 PUSH3 0x394 JUMP JUMPDEST POP PUSH3 0x33A SWAP3 SWAP2 POP PUSH3 0x3E9 JUMP JUMPDEST PUSH3 0x3E6 SWAP2 SWAP1 JUMPDEST DUP1 DUP3 GT ISZERO PUSH3 0x33A JUMPI DUP1 SLOAD PUSH1 0x1 PUSH1 0xA0 PUSH1 0x2 EXP SUB NOT AND DUP2 SSTORE PUSH1 0x1 ADD PUSH3 0x3C6 JUMP JUMPDEST SWAP1 JUMP JUMPDEST PUSH3 0x3E6 SWAP2 SWAP1 JUMPDEST DUP1 DUP3 GT ISZERO PUSH3 0x33A JUMPI PUSH1 0x0 DUP2 SSTORE PUSH1 0x1 ADD PUSH3 0x3F0 JUMP JUMPDEST PUSH2 0x15A1 DUP1 PUSH3 0x416 PUSH1 0x0 CODECOPY PUSH1 0x0 RETURN STOP PUSH1 0x80 PUSH1 0x40 MSTORE PUSH1 0x4 CALLDATASIZE LT PUSH2 0x106 JUMPI PUSH4 0xFFFFFFFF PUSH29 0x100000000000000000000000000000000000000000000000000000000 PUSH1 0x0 CALLDATALOAD DIV AND PUSH4 0x6C91CE3 DUP2 EQ PUSH2 0x10B JUMPI DUP1 PUSH4 0xDBE671F EQ PUSH2 0x132 JUMPI DUP1 PUSH4 0x1BAB58F5 EQ PUSH2 0x147 JUMPI DUP1 PUSH4 0x29008824 EQ PUSH2 0x1DD JUMPI DUP1 PUSH4 0x2D58C9A2 EQ PUSH2 0x203 JUMPI DUP1 PUSH4 0x2E52D606 EQ PUSH2 0x218 JUMPI DUP1 PUSH4 0x3B4A0828 EQ PUSH2 0x22D JUMPI DUP1 PUSH4 0x4C87C67D EQ PUSH2 0x242 JUMPI DUP1 PUSH4 0x4E8C0BD6 EQ PUSH2 0x257 JUMPI DUP1 PUSH4 0x57DC3742 EQ PUSH2 0x26C JUMPI DUP1 PUSH4 0x67B70E11 EQ PUSH2 0x310 JUMPI DUP1 PUSH4 0x67E404CE EQ PUSH2 0x331 JUMPI DUP1 PUSH4 0xA1CBF5F9 EQ PUSH2 0x362 JUMPI DUP1 PUSH4 0xBE9A6555 EQ PUSH2 0x377 JUMPI DUP1 PUSH4 0xBFD772FC EQ PUSH2 0x38C JUMPI DUP1 PUSH4 0xCD12A4B0 EQ PUSH2 0x3A4 JUMPI DUP1 PUSH4 0xEA8A1AF0 EQ PUSH2 0x3B9 JUMPI DUP1 PUSH4 0xF446C1D0 EQ PUSH2 0x3CE JUMPI DUP1 PUSH4 0xFF7EDF42 EQ PUSH2 0x3E3 JUMPI JUMPDEST PUSH1 0x0 DUP1 REVERT JUMPDEST CALLVALUE DUP1 ISZERO PUSH2 0x117 JUMPI PUSH1 0x0 DUP1 REVERT JUMPDEST POP PUSH2 0x120 PUSH2 0x513 JUMP JUMPDEST PUSH1 0x40 DUP1 MLOAD SWAP2 DUP3 MSTORE MLOAD SWAP1 DUP2 SWAP1 SUB PUSH1 0x20 ADD SWAP1 RETURN JUMPDEST CALLVALUE DUP1 ISZERO PUSH2 0x13E JUMPI PUSH1 0x0 DUP1 REVERT JUMPDEST POP PUSH2 0x120 PUSH2 0x519 JUMP JUMPDEST CALLVALUE DUP1 ISZERO PUSH2 0x153 JUMPI PUSH1 0x0 DUP1 REVERT JUMPDEST POP PUSH2 0x168 PUSH1 0x1 PUSH1 0xA0 PUSH1 0x2 EXP SUB PUSH1 0x4 CALLDATALOAD AND PUSH2 0x51E JUMP JUMPDEST PUSH1 0x40 DUP1 MLOAD PUSH1 0x20 DUP1 DUP3 MSTORE DUP4 MLOAD DUP2 DUP4 ADD MSTORE DUP4 MLOAD SWAP2 SWAP3 DUP4 SWAP3 SWAP1 DUP4 ADD SWAP2 DUP6 ADD SWAP1 DUP1 DUP4 DUP4 PUSH1 0x0 JUMPDEST DUP4 DUP2 LT ISZERO PUSH2 0x1A2 JUMPI DUP2 DUP2 ADD MLOAD DUP4 DUP3 ADD MSTORE PUSH1 0x20 ADD PUSH2 0x18A JUMP JUMPDEST POP POP POP POP SWAP1 POP SWAP1 DUP2 ADD SWAP1 PUSH1 0x1F AND DUP1 ISZERO PUSH2 0x1CF JUMPI DUP1 DUP3 SUB DUP1 MLOAD PUSH1 0x1 DUP4 PUSH1 0x20 SUB PUSH2 0x100 EXP SUB NOT AND DUP2 MSTORE PUSH1 0x20 ADD SWAP2 POP JUMPDEST POP SWAP3 POP POP POP PUSH1 0x40 MLOAD DUP1 SWAP2 SUB SWAP1 RETURN JUMPDEST CALLVALUE DUP1 ISZERO PUSH2 0x1E9 JUMPI PUSH1 0x0 DUP1 REVERT JUMPDEST POP PUSH2 0x201 PUSH1 0x1 PUSH1 0xA0 PUSH1 0x2 EXP SUB PUSH1 0x4 CALLDATALOAD AND PUSH1 0x24 CALLDATALOAD PUSH2 0x7A9 JUMP JUMPDEST STOP JUMPDEST CALLVALUE DUP1 ISZERO PUSH2 0x20F JUMPI PUSH1 0x0 DUP1 REVERT JUMPDEST POP PUSH2 0x120 PUSH2 0xB8B JUMP JUMPDEST CALLVALUE DUP1 ISZERO PUSH2 0x224 JUMPI PUSH1 0x0 DUP1 REVERT JUMPDEST POP PUSH2 0x120 PUSH2 0xB91 JUMP JUMPDEST CALLVALUE DUP1 ISZERO PUSH2 0x239 JUMPI PUSH1 0x0 DUP1 REVERT JUMPDEST POP PUSH2 0x120 PUSH2 0xB97 JUMP JUMPDEST CALLVALUE DUP1 ISZERO PUSH2 0x24E JUMPI PUSH1 0x0 DUP1 REVERT JUMPDEST POP PUSH2 0x120 PUSH2 0xB9D JUMP JUMPDEST CALLVALUE DUP1 ISZERO PUSH2 0x263 JUMPI PUSH1 0x0 DUP1 REVERT JUMPDEST POP PUSH2 0x120 PUSH2 0xBA3 JUMP JUMPDEST CALLVALUE DUP1 ISZERO PUSH2 0x278 JUMPI PUSH1 0x0 DUP1 REVERT JUMPDEST POP PUSH1 0x40 DUP1 MLOAD PUSH1 0x20 PUSH1 0x4 DUP1 CALLDATALOAD DUP1 DUP3 ADD CALLDATALOAD PUSH1 0x1F DUP2 ADD DUP5 SWAP1 DIV DUP5 MUL DUP6 ADD DUP5 ADD SWAP1 SWAP6 MSTORE DUP5 DUP5 MSTORE PUSH2 0x201 SWAP5 CALLDATASIZE SWAP5 SWAP3 SWAP4 PUSH1 0x24 SWAP4 SWAP3 DUP5 ADD SWAP2 SWAP1 DUP2 SWAP1 DUP5 ADD DUP4 DUP3 DUP1 DUP3 DUP5 CALLDATACOPY POP POP PUSH1 0x40 DUP1 MLOAD PUSH1 0x20 PUSH1 0x1F DUP10 CALLDATALOAD DUP12 ADD DUP1 CALLDATALOAD SWAP2 DUP3 ADD DUP4 SWAP1 DIV DUP4 MUL DUP5 ADD DUP4 ADD SWAP1 SWAP5 MSTORE DUP1 DUP4 MSTORE SWAP8 SWAP11 SWAP10 SWAP9 DUP2 ADD SWAP8 SWAP2 SWAP7 POP SWAP2 DUP3 ADD SWAP5 POP SWAP3 POP DUP3 SWAP2 POP DUP5 ADD DUP4 DUP3 DUP1 DUP3 DUP5 CALLDATACOPY POP SWAP5 SWAP8 POP POP DUP5 CALLDATALOAD SWAP6 POP POP POP PUSH1 0x20 DUP4 ADD CALLDATALOAD SWAP3 PUSH1 0x40 ADD CALLDATALOAD SWAP2 POP PUSH2 0xBA9 SWAP1 POP JUMP JUMPDEST CALLVALUE DUP1 ISZERO PUSH2 0x31C JUMPI PUSH1 0x0 DUP1 REVERT JUMPDEST POP PUSH2 0x120 PUSH1 0x1 PUSH1 0xA0 PUSH1 0x2 EXP SUB PUSH1 0x4 CALLDATALOAD AND PUSH2 0xD56 JUMP JUMPDEST CALLVALUE DUP1 ISZERO PUSH2 0x33D JUMPI PUSH1 0x0 DUP1 REVERT JUMPDEST POP PUSH2 0x346 PUSH2 0xD74 JUMP JUMPDEST PUSH1 0x40 DUP1 MLOAD PUSH1 0x1 PUSH1 0xA0 PUSH1 0x2 EXP SUB SWAP1 SWAP3 AND DUP3 MSTORE MLOAD SWAP1 DUP2 SWAP1 SUB PUSH1 0x20 ADD SWAP1 RETURN JUMPDEST CALLVALUE DUP1 ISZERO PUSH2 0x36E JUMPI PUSH1 0x0 DUP1 REVERT JUMPDEST POP PUSH2 0x168 PUSH2 0xD83 JUMP JUMPDEST CALLVALUE DUP1 ISZERO PUSH2 0x383 JUMPI PUSH1 0x0 DUP1 REVERT JUMPDEST POP PUSH2 0x120 PUSH2 0xE11 JUMP JUMPDEST CALLVALUE DUP1 ISZERO PUSH2 0x398 JUMPI PUSH1 0x0 DUP1 REVERT JUMPDEST POP PUSH2 0x346 PUSH1 0x4 CALLDATALOAD PUSH2 0xE17 JUMP JUMPDEST CALLVALUE DUP1 ISZERO PUSH2 0x3B0 JUMPI PUSH1 0x0 DUP1 REVERT JUMPDEST POP PUSH2 0x120 PUSH2 0xE3F JUMP JUMPDEST CALLVALUE DUP1 ISZERO PUSH2 0x3C5 JUMPI PUSH1 0x0 DUP1 REVERT JUMPDEST POP PUSH2 0x201 PUSH2 0xE45 JUMP JUMPDEST CALLVALUE DUP1 ISZERO PUSH2 0x3DA JUMPI PUSH1 0x0 DUP1 REVERT JUMPDEST POP PUSH2 0x168 PUSH2 0xF89 JUMP JUMPDEST CALLVALUE DUP1 ISZERO PUSH2 0x3EF JUMPI PUSH1 0x0 DUP1 REVERT JUMPDEST POP PUSH2 0x404 PUSH1 0x1 PUSH1 0xA0 PUSH1 0x2 EXP SUB PUSH1 0x4 CALLDATALOAD AND PUSH2 0xFE4 JUMP JUMPDEST PUSH1 0x40 MLOAD DUP1 DUP1 PUSH1 0x20 ADD DUP1 PUSH1 0x20 ADD DUP9 DUP2 MSTORE PUSH1 0x20 ADD DUP8 DUP2 MSTORE PUSH1 0x20 ADD DUP7 DUP2 MSTORE PUSH1 0x20 ADD DUP6 DUP2 MSTORE PUSH1 0x20 ADD DUP5 PUSH1 0x5 DUP2 GT ISZERO PUSH2 0x434 JUMPI INVALID JUMPDEST PUSH1 0xFF AND DUP2 MSTORE PUSH1 0x20 ADD DUP4 DUP2 SUB DUP4 MSTORE DUP11 DUP2 DUP2 MLOAD DUP2 MSTORE PUSH1 0x20 ADD SWAP2 POP DUP1 MLOAD SWAP1 PUSH1 0x20 ADD SWAP1 DUP1 DUP4 DUP4 PUSH1 0x0 JUMPDEST DUP4 DUP2 LT ISZERO PUSH2 0x471 JUMPI DUP2 DUP2 ADD MLOAD DUP4 DUP3 ADD MSTORE PUSH1 0x20 ADD PUSH2 0x459 JUMP JUMPDEST POP POP POP POP SWAP1 POP SWAP1 DUP2 ADD SWAP1 PUSH1 0x1F AND DUP1 ISZERO PUSH2 0x49E JUMPI DUP1 DUP3 SUB DUP1 MLOAD PUSH1 0x1 DUP4 PUSH1 0x20 SUB PUSH2 0x100 EXP SUB NOT AND DUP2 MSTORE PUSH1 0x20 ADD SWAP2 POP JUMPDEST POP DUP4 DUP2 SUB DUP3 MSTORE DUP10 MLOAD DUP2 MSTORE DUP10 MLOAD PUSH1 0x20 SWAP2 DUP3 ADD SWAP2 DUP12 ADD SWAP1 DUP1 DUP4 DUP4 PUSH1 0x0 JUMPDEST DUP4 DUP2 LT ISZERO PUSH2 0x4D1 JUMPI DUP2 DUP2 ADD MLOAD DUP4 DUP3 ADD MSTORE PUSH1 0x20 ADD PUSH2 0x4B9 JUMP JUMPDEST POP POP POP POP SWAP1 POP SWAP1 DUP2 ADD SWAP1 PUSH1 0x1F AND DUP1 ISZERO PUSH2 0x4FE JUMPI DUP1 DUP3 SUB DUP1 MLOAD PUSH1 0x1 DUP4 PUSH1 0x20 SUB PUSH2 0x100 EXP SUB NOT AND DUP2 MSTORE PUSH1 0x20 ADD SWAP2 POP JUMPDEST POP SWAP10 POP POP POP POP POP POP POP POP POP POP PUSH1 0x40 MLOAD DUP1 SWAP2 SUB SWAP1 RETURN JUMPDEST PUSH1 0x8 SLOAD DUP2 JUMP JUMPDEST PUSH1 0x0 DUP2 JUMP JUMPDEST PUSH1 0x60 PUSH1 0x0 PUSH1 0x1 PUSH1 0xA0 PUSH1 0x2 EXP SUB DUP4 AND PUSH1 0x0 SWAP1 DUP2 MSTORE PUSH1 0x2 PUSH1 0x20 MSTORE PUSH1 0x40 SWAP1 KECCAK256 PUSH1 0x6 ADD SLOAD PUSH1 0xFF AND PUSH1 0x5 DUP2 GT ISZERO PUSH2 0x54C JUMPI INVALID JUMPDEST EQ ISZERO PUSH2 0x58C JUMPI POP PUSH1 0x40 DUP1 MLOAD DUP1 DUP3 ADD SWAP1 SWAP2 MSTORE PUSH1 0xA DUP2 MSTORE PUSH32 0x6E6F742065786973747300000000000000000000000000000000000000000000 PUSH1 0x20 DUP3 ADD MSTORE PUSH2 0x7A4 JUMP JUMPDEST PUSH1 0x1 PUSH1 0x1 PUSH1 0xA0 PUSH1 0x2 EXP SUB DUP4 AND PUSH1 0x0 SWAP1 DUP2 MSTORE PUSH1 0x2 PUSH1 0x20 MSTORE PUSH1 0x40 SWAP1 KECCAK256 PUSH1 0x6 ADD SLOAD PUSH1 0xFF AND PUSH1 0x5 DUP2 GT ISZERO PUSH2 0x5B8 JUMPI INVALID JUMPDEST EQ ISZERO PUSH2 0x5F8 JUMPI POP PUSH1 0x40 DUP1 MLOAD DUP1 DUP3 ADD SWAP1 SWAP2 MSTORE PUSH1 0x7 DUP2 MSTORE PUSH32 0x6372656174656400000000000000000000000000000000000000000000000000 PUSH1 0x20 DUP3 ADD MSTORE PUSH2 0x7A4 JUMP JUMPDEST PUSH1 0x2 PUSH1 0x1 PUSH1 0xA0 PUSH1 0x2 EXP SUB DUP4 AND PUSH1 0x0 SWAP1 DUP2 MSTORE PUSH1 0x2 PUSH1 0x20 MSTORE PUSH1 0x40 SWAP1 KECCAK256 PUSH1 0x6 ADD SLOAD PUSH1 0xFF AND PUSH1 0x5 DUP2 GT ISZERO PUSH2 0x624 JUMPI INVALID JUMPDEST EQ ISZERO PUSH2 0x664 JUMPI POP PUSH1 0x40 DUP1 MLOAD DUP1 DUP3 ADD SWAP1 SWAP2 MSTORE PUSH1 0x9 DUP2 MSTORE PUSH32 0x63616E63656C6C65640000000000000000000000000000000000000000000000 PUSH1 0x20 DUP3 ADD MSTORE PUSH2 0x7A4 JUMP JUMPDEST PUSH1 0x3 PUSH1 0x1 PUSH1 0xA0 PUSH1 0x2 EXP SUB DUP4 AND PUSH1 0x0 SWAP1 DUP2 MSTORE PUSH1 0x2 PUSH1 0x20 MSTORE PUSH1 0x40 SWAP1 KECCAK256 PUSH1 0x6 ADD SLOAD PUSH1 0xFF AND PUSH1 0x5 DUP2 GT ISZERO PUSH2 0x690 JUMPI INVALID JUMPDEST EQ ISZERO PUSH2 0x6D0 JUMPI POP PUSH1 0x40 DUP1 MLOAD DUP1 DUP3 ADD SWAP1 SWAP2 MSTORE PUSH1 0x8 DUP2 MSTORE PUSH32 0x6163636570746564000000000000000000000000000000000000000000000000 PUSH1 0x20 DUP3 ADD MSTORE PUSH2 0x7A4 JUMP JUMPDEST PUSH1 0x4 PUSH1 0x1 PUSH1 0xA0 PUSH1 0x2 EXP SUB DUP4 AND PUSH1 0x0 SWAP1 DUP2 MSTORE PUSH1 0x2 PUSH1 0x20 MSTORE PUSH1 0x40 SWAP1 KECCAK256 PUSH1 0x6 ADD SLOAD PUSH1 0xFF AND PUSH1 0x5 DUP2 GT ISZERO PUSH2 0x6FC JUMPI INVALID JUMPDEST EQ ISZERO PUSH2 0x73C JUMPI POP PUSH1 0x40 DUP1 MLOAD DUP1 DUP3 ADD SWAP1 SWAP2 MSTORE PUSH1 0x8 DUP2 MSTORE PUSH32 0x66696E6973686564000000000000000000000000000000000000000000000000 PUSH1 0x20 DUP3 ADD MSTORE PUSH2 0x7A4 JUMP JUMPDEST PUSH1 0x5 PUSH1 0x1 PUSH1 0xA0 PUSH1 0x2 EXP SUB DUP4 AND PUSH1 0x0 SWAP1 DUP2 MSTORE PUSH1 0x2 PUSH1 0x20 MSTORE PUSH1 0x40 SWAP1 KECCAK256 PUSH1 0x6 ADD SLOAD PUSH1 0xFF AND PUSH1 0x5 DUP2 GT ISZERO PUSH2 0x768 JUMPI INVALID JUMPDEST EQ ISZERO PUSH2 0x7A4 JUMPI POP PUSH1 0x40 DUP1 MLOAD DUP1 DUP3 ADD SWAP1 SWAP2 MSTORE PUSH1 0x8 DUP2 MSTORE PUSH32 0x72656A6563746564000000000000000000000000000000000000000000000000 PUSH1 0x20 DUP3 ADD MSTORE JUMPDEST SWAP2 SWAP1 POP JUMP JUMPDEST PUSH1 0x0 DUP1 PUSH1 0x0 PUSH1 0xB SLOAD PUSH1 0xD SLOAD ADD TIMESTAMP LT ISZERO DUP1 PUSH2 0x7C7 JUMPI POP PUSH1 0x1 SLOAD PUSH1 0x3 SLOAD LT ISZERO JUMPDEST ISZERO ISZERO PUSH2 0x869 JUMPI PUSH1 0x40 DUP1 MLOAD PUSH1 0xE5 PUSH1 0x2 EXP PUSH3 0x461BCD MUL DUP2 MSTORE PUSH1 0x20 PUSH1 0x4 DUP3 ADD MSTORE PUSH1 0x5C PUSH1 0x24 DUP3 ADD MSTORE PUSH32 0x5468652074696D656F7574207465726D3120686173206E6F74206265656E2072 PUSH1 0x44 DUP3 ADD MSTORE PUSH32 0x65616368656420616E64206E6F7420616C6C2072656365697665727320686176 PUSH1 0x64 DUP3 ADD MSTORE PUSH32 0x65206265656E206163636570746564207468652064656C697665727900000000 PUSH1 0x84 DUP3 ADD MSTORE SWAP1 MLOAD SWAP1 DUP2 SWAP1 SUB PUSH1 0xA4 ADD SWAP1 REVERT JUMPDEST PUSH1 0x0 SLOAD PUSH1 0x1 PUSH1 0xA0 PUSH1 0x2 EXP SUB AND CALLER EQ PUSH2 0x8F1 JUMPI PUSH1 0x40 DUP1 MLOAD PUSH1 0xE5 PUSH1 0x2 EXP PUSH3 0x461BCD MUL DUP2 MSTORE PUSH1 0x20 PUSH1 0x4 DUP3 ADD MSTORE PUSH1 0x26 PUSH1 0x24 DUP3 ADD MSTORE PUSH32 0x4F6E6C792073656E646572206F66207468652064656C69766572792063616E20 PUSH1 0x44 DUP3 ADD MSTORE PUSH32 0x66696E6973680000000000000000000000000000000000000000000000000000 PUSH1 0x64 DUP3 ADD MSTORE SWAP1 MLOAD SWAP1 DUP2 SWAP1 SUB PUSH1 0x84 ADD SWAP1 REVERT JUMPDEST PUSH2 0x8FD DUP5 PUSH1 0x8 SLOAD PUSH2 0x113F JUMP JUMPDEST PUSH1 0x1 PUSH1 0xA0 PUSH1 0x2 EXP SUB DUP7 AND PUSH1 0x0 SWAP1 DUP2 MSTORE PUSH1 0x2 PUSH1 0x20 DUP2 SWAP1 MSTORE PUSH1 0x40 SWAP1 SWAP2 KECCAK256 PUSH1 0x4 DUP2 ADD SLOAD SWAP2 ADD SLOAD SWAP2 SWAP5 POP PUSH2 0x92C SWAP2 PUSH2 0x113F JUMP JUMPDEST PUSH1 0x4 SLOAD SWAP1 SWAP3 POP DUP4 DUP4 ADD EQ ISZERO PUSH2 0x9B1 JUMPI PUSH1 0x40 DUP1 MLOAD PUSH1 0xE5 PUSH1 0x2 EXP PUSH3 0x461BCD MUL DUP2 MSTORE PUSH1 0x20 PUSH1 0x4 DUP3 ADD MSTORE PUSH1 0x23 PUSH1 0x24 DUP3 ADD MSTORE PUSH32 0x5620616E642047785B72695D2B4269785B63695D20617265206E6F7420657175 PUSH1 0x44 DUP3 ADD MSTORE PUSH32 0x616C730000000000000000000000000000000000000000000000000000000000 PUSH1 0x64 DUP3 ADD MSTORE SWAP1 MLOAD SWAP1 DUP2 SWAP1 SUB PUSH1 0x84 ADD SWAP1 REVERT JUMPDEST PUSH1 0x40 MLOAD CALLER SWAP1 ADDRESS BALANCE DUP1 ISZERO PUSH2 0x8FC MUL SWAP2 PUSH1 0x0 DUP2 DUP2 DUP2 DUP6 DUP9 DUP9 CALL SWAP4 POP POP POP POP ISZERO DUP1 ISZERO PUSH2 0x9DE JUMPI RETURNDATASIZE PUSH1 0x0 DUP1 RETURNDATACOPY RETURNDATASIZE PUSH1 0x0 REVERT JUMPDEST POP PUSH1 0x0 SWAP1 POP JUMPDEST PUSH1 0x1 SLOAD DUP2 LT ISZERO PUSH2 0xB84 JUMPI DUP4 PUSH1 0x2 PUSH1 0x0 PUSH1 0x1 DUP5 DUP2 SLOAD DUP2 LT ISZERO ISZERO PUSH2 0xA02 JUMPI INVALID JUMPDEST PUSH1 0x0 SWAP2 DUP3 MSTORE PUSH1 0x20 DUP1 DUP4 KECCAK256 SWAP1 SWAP2 ADD SLOAD PUSH1 0x1 PUSH1 0xA0 PUSH1 0x2 EXP SUB AND DUP4 MSTORE DUP3 ADD SWAP3 SWAP1 SWAP3 MSTORE PUSH1 0x40 ADD SWAP1 KECCAK256 PUSH1 0x5 ADD SSTORE PUSH1 0x3 PUSH1 0x2 PUSH1 0x0 PUSH1 0x1 DUP5 DUP2 SLOAD DUP2 LT ISZERO ISZERO PUSH2 0xA3F JUMPI INVALID JUMPDEST PUSH1 0x0 SWAP2 DUP3 MSTORE PUSH1 0x20 DUP1 DUP4 KECCAK256 SWAP1 SWAP2 ADD SLOAD PUSH1 0x1 PUSH1 0xA0 PUSH1 0x2 EXP SUB AND DUP4 MSTORE DUP3 ADD SWAP3 SWAP1 SWAP3 MSTORE PUSH1 0x40 ADD SWAP1 KECCAK256 PUSH1 0x6 ADD SLOAD PUSH1 0xFF AND PUSH1 0x5 DUP2 GT ISZERO PUSH2 0xA75 JUMPI INVALID JUMPDEST EQ ISZERO PUSH2 0xAD5 JUMPI PUSH1 0x4 PUSH1 0x2 PUSH1 0x0 PUSH1 0x1 DUP5 DUP2 SLOAD DUP2 LT ISZERO ISZERO PUSH2 0xA90 JUMPI INVALID JUMPDEST PUSH1 0x0 SWAP2 DUP3 MSTORE PUSH1 0x20 DUP1 DUP4 KECCAK256 SWAP1 SWAP2 ADD SLOAD PUSH1 0x1 PUSH1 0xA0 PUSH1 0x2 EXP SUB AND DUP4 MSTORE DUP3 ADD SWAP3 SWAP1 SWAP3 MSTORE PUSH1 0x40 ADD SWAP1 KECCAK256 PUSH1 0x6 ADD DUP1 SLOAD PUSH1 0xFF NOT AND PUSH1 0x1 DUP4 PUSH1 0x5 DUP2 GT ISZERO PUSH2 0xACB JUMPI INVALID JUMPDEST MUL OR SWAP1 SSTORE POP PUSH2 0xB7C JUMP JUMPDEST PUSH1 0x1 PUSH1 0x2 PUSH1 0x0 PUSH1 0x1 DUP5 DUP2 SLOAD DUP2 LT ISZERO ISZERO PUSH2 0xAEA JUMPI INVALID JUMPDEST PUSH1 0x0 SWAP2 DUP3 MSTORE PUSH1 0x20 DUP1 DUP4 KECCAK256 SWAP1 SWAP2 ADD SLOAD PUSH1 0x1 PUSH1 0xA0 PUSH1 0x2 EXP SUB AND DUP4 MSTORE DUP3 ADD SWAP3 SWAP1 SWAP3 MSTORE PUSH1 0x40 ADD SWAP1 KECCAK256 PUSH1 0x6 ADD SLOAD PUSH1 0xFF AND PUSH1 0x5 DUP2 GT ISZERO PUSH2 0xB20 JUMPI INVALID JUMPDEST EQ ISZERO PUSH2 0xB7C JUMPI PUSH1 0x5 PUSH1 0x2 PUSH1 0x0 PUSH1 0x1 DUP5 DUP2 SLOAD DUP2 LT ISZERO ISZERO PUSH2 0xB3B JUMPI INVALID JUMPDEST PUSH1 0x0 SWAP2 DUP3 MSTORE PUSH1 0x20 DUP1 DUP4 KECCAK256 SWAP1 SWAP2 ADD SLOAD PUSH1 0x1 PUSH1 0xA0 PUSH1 0x2 EXP SUB AND DUP4 MSTORE DUP3 ADD SWAP3 SWAP1 SWAP3 MSTORE PUSH1 0x40 ADD SWAP1 KECCAK256 PUSH1 0x6 ADD DUP1 SLOAD PUSH1 0xFF NOT AND PUSH1 0x1 DUP4 PUSH1 0x5 DUP2 GT ISZERO PUSH2 0xB76 JUMPI INVALID JUMPDEST MUL OR SWAP1 SSTORE POP JUMPDEST PUSH1 0x1 ADD PUSH2 0x9E4 JUMP JUMPDEST POP POP POP POP POP JUMP JUMPDEST PUSH1 0x9 SLOAD DUP2 JUMP JUMPDEST PUSH1 0xA SLOAD DUP2 JUMP JUMPDEST PUSH1 0xC SLOAD DUP2 JUMP JUMPDEST PUSH1 0xB SLOAD DUP2 JUMP JUMPDEST PUSH1 0x4 SLOAD DUP2 JUMP JUMPDEST PUSH1 0xB SLOAD PUSH1 0xD SLOAD ADD TIMESTAMP LT PUSH2 0xC2C JUMPI PUSH1 0x40 DUP1 MLOAD PUSH1 0xE5 PUSH1 0x2 EXP PUSH3 0x461BCD MUL DUP2 MSTORE PUSH1 0x20 PUSH1 0x4 DUP3 ADD MSTORE PUSH1 0x22 PUSH1 0x24 DUP3 ADD MSTORE PUSH32 0x5468652074696D656F7574207465726D3120686173206265656E207265616368 PUSH1 0x44 DUP3 ADD MSTORE PUSH32 0x6564000000000000000000000000000000000000000000000000000000000000 PUSH1 0x64 DUP3 ADD MSTORE SWAP1 MLOAD SWAP1 DUP2 SWAP1 SUB PUSH1 0x84 ADD SWAP1 REVERT JUMPDEST PUSH1 0x1 CALLER PUSH1 0x0 SWAP1 DUP2 MSTORE PUSH1 0x2 PUSH1 0x20 MSTORE PUSH1 0x40 SWAP1 KECCAK256 PUSH1 0x6 ADD SLOAD PUSH1 0xFF AND PUSH1 0x5 DUP2 GT ISZERO PUSH2 0xC4F JUMPI INVALID JUMPDEST EQ PUSH2 0xCCA JUMPI PUSH1 0x40 DUP1 MLOAD PUSH1 0xE5 PUSH1 0x2 EXP PUSH3 0x461BCD MUL DUP2 MSTORE PUSH1 0x20 PUSH1 0x4 DUP3 ADD MSTORE PUSH1 0x2E PUSH1 0x24 DUP3 ADD MSTORE PUSH32 0x4F6E6C7920726563656976657273207769746820276372656174656427207374 PUSH1 0x44 DUP3 ADD MSTORE PUSH32 0x6174652063616E20616363657074000000000000000000000000000000000000 PUSH1 0x64 DUP3 ADD MSTORE SWAP1 MLOAD SWAP1 DUP2 SWAP1 SUB PUSH1 0x84 ADD SWAP1 REVERT JUMPDEST PUSH1 0x3 DUP1 SLOAD PUSH1 0x1 ADD SWAP1 SSTORE CALLER PUSH1 0x0 SWAP1 DUP2 MSTORE PUSH1 0x2 PUSH1 0x20 SWAP1 DUP2 MSTORE PUSH1 0x40 SWAP1 SWAP2 KECCAK256 DUP7 MLOAD PUSH2 0xCF3 SWAP3 DUP9 ADD SWAP1 PUSH2 0x14DA JUMP JUMPDEST POP CALLER PUSH1 0x0 SWAP1 DUP2 MSTORE PUSH1 0x2 PUSH1 0x20 SWAP1 DUP2 MSTORE PUSH1 0x40 SWAP1 SWAP2 KECCAK256 DUP6 MLOAD PUSH2 0xD1A SWAP3 PUSH1 0x1 SWAP1 SWAP3 ADD SWAP2 DUP8 ADD SWAP1 PUSH2 0x14DA JUMP JUMPDEST POP CALLER PUSH1 0x0 SWAP1 DUP2 MSTORE PUSH1 0x2 PUSH1 0x20 DUP2 SWAP1 MSTORE PUSH1 0x40 SWAP1 SWAP2 KECCAK256 SWAP1 DUP2 ADD SWAP4 SWAP1 SWAP4 SSTORE PUSH1 0x3 DUP1 DUP5 ADD SWAP3 SWAP1 SWAP3 SSTORE PUSH1 0x4 DUP4 ADD SSTORE PUSH1 0x6 SWAP1 SWAP2 ADD DUP1 SLOAD PUSH1 0xFF NOT AND SWAP1 SWAP2 OR SWAP1 SSTORE POP POP JUMP JUMPDEST PUSH1 0x1 PUSH1 0xA0 PUSH1 0x2 EXP SUB AND PUSH1 0x0 SWAP1 DUP2 MSTORE PUSH1 0x2 PUSH1 0x20 MSTORE PUSH1 0x40 SWAP1 KECCAK256 PUSH1 0x5 ADD SLOAD SWAP1 JUMP JUMPDEST PUSH1 0x0 SLOAD PUSH1 0x1 PUSH1 0xA0 PUSH1 0x2 EXP SUB AND DUP2 JUMP JUMPDEST PUSH1 0x6 DUP1 SLOAD PUSH1 0x40 DUP1 MLOAD PUSH1 0x20 PUSH1 0x2 PUSH1 0x1 DUP6 AND ISZERO PUSH2 0x100 MUL PUSH1 0x0 NOT ADD SWAP1 SWAP5 AND SWAP4 SWAP1 SWAP4 DIV PUSH1 0x1F DUP2 ADD DUP5 SWAP1 DIV DUP5 MUL DUP3 ADD DUP5 ADD SWAP1 SWAP3 MSTORE DUP2 DUP2 MSTORE SWAP3 SWAP2 DUP4 ADD DUP3 DUP3 DUP1 ISZERO PUSH2 0xE09 JUMPI DUP1 PUSH1 0x1F LT PUSH2 0xDDE JUMPI PUSH2 0x100 DUP1 DUP4 SLOAD DIV MUL DUP4 MSTORE SWAP2 PUSH1 0x20 ADD SWAP2 PUSH2 0xE09 JUMP JUMPDEST DUP3 ADD SWAP2 SWAP1 PUSH1 0x0 MSTORE PUSH1 0x20 PUSH1 0x0 KECCAK256 SWAP1 JUMPDEST DUP2 SLOAD DUP2 MSTORE SWAP1 PUSH1 0x1 ADD SWAP1 PUSH1 0x20 ADD DUP1 DUP4 GT PUSH2 0xDEC JUMPI DUP3 SWAP1 SUB PUSH1 0x1F AND DUP3 ADD SWAP2 JUMPDEST POP POP POP POP POP DUP2 JUMP JUMPDEST PUSH1 0xD SLOAD DUP2 JUMP JUMPDEST PUSH1 0x1 DUP1 SLOAD DUP3 SWAP1 DUP2 LT PUSH2 0xE25 JUMPI INVALID JUMPDEST PUSH1 0x0 SWAP2 DUP3 MSTORE PUSH1 0x20 SWAP1 SWAP2 KECCAK256 ADD SLOAD PUSH1 0x1 PUSH1 0xA0 PUSH1 0x2 EXP SUB AND SWAP1 POP DUP2 JUMP JUMPDEST PUSH1 0x5 SLOAD DUP2 JUMP JUMPDEST PUSH1 0xC SLOAD PUSH1 0xD SLOAD ADD TIMESTAMP LT ISZERO PUSH2 0xEC9 JUMPI PUSH1 0x40 DUP1 MLOAD PUSH1 0xE5 PUSH1 0x2 EXP PUSH3 0x461BCD MUL DUP2 MSTORE PUSH1 0x20 PUSH1 0x4 DUP3 ADD MSTORE PUSH1 0x26 PUSH1 0x24 DUP3 ADD MSTORE PUSH32 0x5468652074696D656F7574207465726D3220686173206E6F74206265656E2072 PUSH1 0x44 DUP3 ADD MSTORE PUSH32 0x6561636865640000000000000000000000000000000000000000000000000000 PUSH1 0x64 DUP3 ADD MSTORE SWAP1 MLOAD SWAP1 DUP2 SWAP1 SUB PUSH1 0x84 ADD SWAP1 REVERT JUMPDEST PUSH1 0x3 CALLER PUSH1 0x0 SWAP1 DUP2 MSTORE PUSH1 0x2 PUSH1 0x20 MSTORE PUSH1 0x40 SWAP1 KECCAK256 PUSH1 0x6 ADD SLOAD PUSH1 0xFF AND PUSH1 0x5 DUP2 GT ISZERO PUSH2 0xEEC JUMPI INVALID JUMPDEST EQ PUSH2 0xF67 JUMPI PUSH1 0x40 DUP1 MLOAD PUSH1 0xE5 PUSH1 0x2 EXP PUSH3 0x461BCD MUL DUP2 MSTORE PUSH1 0x20 PUSH1 0x4 DUP3 ADD MSTORE PUSH1 0x2F PUSH1 0x24 DUP3 ADD MSTORE PUSH32 0x4F6E6C7920726563656976657273207769746820276163636570746564272073 PUSH1 0x44 DUP3 ADD MSTORE PUSH32 0x746174652063616E2063616E63656C0000000000000000000000000000000000 PUSH1 0x64 DUP3 ADD MSTORE SWAP1 MLOAD SWAP1 DUP2 SWAP1 SUB PUSH1 0x84 ADD SWAP1 REVERT JUMPDEST CALLER PUSH1 0x0 SWAP1 DUP2 MSTORE PUSH1 0x2 PUSH1 0x20 DUP2 SWAP1 MSTORE PUSH1 0x40 SWAP1 SWAP2 KECCAK256 PUSH1 0x6 ADD DUP1 SLOAD PUSH1 0xFF NOT AND SWAP1 SWAP2 OR SWAP1 SSTORE JUMP JUMPDEST PUSH1 0x7 DUP1 SLOAD PUSH1 0x40 DUP1 MLOAD PUSH1 0x20 PUSH1 0x2 PUSH1 0x1 DUP6 AND ISZERO PUSH2 0x100 MUL PUSH1 0x0 NOT ADD SWAP1 SWAP5 AND SWAP4 SWAP1 SWAP4 DIV PUSH1 0x1F DUP2 ADD DUP5 SWAP1 DIV DUP5 MUL DUP3 ADD DUP5 ADD SWAP1 SWAP3 MSTORE DUP2 DUP2 MSTORE SWAP3 SWAP2 DUP4 ADD DUP3 DUP3 DUP1 ISZERO PUSH2 0xE09 JUMPI DUP1 PUSH1 0x1F LT PUSH2 0xDDE JUMPI PUSH2 0x100 DUP1 DUP4 SLOAD DIV MUL DUP4 MSTORE SWAP2 PUSH1 0x20 ADD SWAP2 PUSH2 0xE09 JUMP JUMPDEST PUSH1 0x2 PUSH1 0x20 DUP2 DUP2 MSTORE PUSH1 0x0 SWAP3 DUP4 MSTORE PUSH1 0x40 SWAP3 DUP4 SWAP1 KECCAK256 DUP1 SLOAD DUP5 MLOAD PUSH1 0x1 DUP3 AND ISZERO PUSH2 0x100 MUL PUSH1 0x0 NOT ADD SWAP1 SWAP2 AND SWAP4 SWAP1 SWAP4 DIV PUSH1 0x1F DUP2 ADD DUP4 SWAP1 DIV DUP4 MUL DUP5 ADD DUP4 ADD SWAP1 SWAP5 MSTORE DUP4 DUP4 MSTORE SWAP3 DUP4 SWAP2 DUP4 ADD DUP3 DUP3 DUP1 ISZERO PUSH2 0x1075 JUMPI DUP1 PUSH1 0x1F LT PUSH2 0x104A JUMPI PUSH2 0x100 DUP1 DUP4 SLOAD DIV MUL DUP4 MSTORE SWAP2 PUSH1 0x20 ADD SWAP2 PUSH2 0x1075 JUMP JUMPDEST DUP3 ADD SWAP2 SWAP1 PUSH1 0x0 MSTORE PUSH1 0x20 PUSH1 0x0 KECCAK256 SWAP1 JUMPDEST DUP2 SLOAD DUP2 MSTORE SWAP1 PUSH1 0x1 ADD SWAP1 PUSH1 0x20 ADD DUP1 DUP4 GT PUSH2 0x1058 JUMPI DUP3 SWAP1 SUB PUSH1 0x1F AND DUP3 ADD SWAP2 JUMPDEST POP POP POP POP POP SWAP1 DUP1 PUSH1 0x1 ADD DUP1 SLOAD PUSH1 0x1 DUP2 PUSH1 0x1 AND ISZERO PUSH2 0x100 MUL SUB AND PUSH1 0x2 SWAP1 DIV DUP1 PUSH1 0x1F ADD PUSH1 0x20 DUP1 SWAP2 DIV MUL PUSH1 0x20 ADD PUSH1 0x40 MLOAD SWAP1 DUP2 ADD PUSH1 0x40 MSTORE DUP1 SWAP3 SWAP2 SWAP1 DUP2 DUP2 MSTORE PUSH1 0x20 ADD DUP3 DUP1 SLOAD PUSH1 0x1 DUP2 PUSH1 0x1 AND ISZERO PUSH2 0x100 MUL SUB AND PUSH1 0x2 SWAP1 DIV DUP1 ISZERO PUSH2 0x1113 JUMPI DUP1 PUSH1 0x1F LT PUSH2 0x10E8 JUMPI PUSH2 0x100 DUP1 DUP4 SLOAD DIV MUL DUP4 MSTORE SWAP2 PUSH1 0x20 ADD SWAP2 PUSH2 0x1113 JUMP JUMPDEST DUP3 ADD SWAP2 SWAP1 PUSH1 0x0 MSTORE PUSH1 0x20 PUSH1 0x0 KECCAK256 SWAP1 JUMPDEST DUP2 SLOAD DUP2 MSTORE SWAP1 PUSH1 0x1 ADD SWAP1 PUSH1 0x20 ADD DUP1 DUP4 GT PUSH2 0x10F6 JUMPI DUP3 SWAP1 SUB PUSH1 0x1F AND DUP3 ADD SWAP2 JUMPDEST POP POP POP PUSH1 0x2 DUP5 ADD SLOAD PUSH1 0x3 DUP6 ADD SLOAD PUSH1 0x4 DUP7 ADD SLOAD PUSH1 0x5 DUP8 ADD SLOAD PUSH1 0x6 SWAP1 SWAP8 ADD SLOAD SWAP6 SWAP7 SWAP3 SWAP6 SWAP2 SWAP5 POP SWAP3 POP PUSH1 0xFF AND DUP8 JUMP JUMPDEST PUSH1 0x0 DUP1 PUSH1 0x0 DUP1 PUSH2 0x1152 DUP7 DUP7 PUSH1 0x1 DUP1 PUSH2 0x117D JUMP JUMPDEST SWAP2 SWAP5 POP SWAP3 POP SWAP1 POP PUSH2 0x1162 DUP2 PUSH2 0x11FE JUMP JUMPDEST SWAP1 POP PUSH1 0xA SLOAD DUP1 ISZERO ISZERO PUSH2 0x1170 JUMPI INVALID JUMPDEST DUP2 DUP5 MULMOD SWAP7 SWAP6 POP POP POP POP POP POP JUMP JUMPDEST PUSH1 0x0 DUP1 DUP1 DUP7 DUP7 DUP7 DUP7 DUP5 DUP1 PUSH1 0x1 DUP7 ISZERO ISZERO PUSH2 0x11A0 JUMPI PUSH1 0x0 SWAP10 POP DUP10 SWAP9 POP PUSH1 0x1 SWAP8 POP PUSH2 0x11ED JUMP JUMPDEST DUP7 ISZERO PUSH2 0x11E2 JUMPI PUSH1 0x1 DUP8 AND ISZERO PUSH2 0x11C5 JUMPI PUSH2 0x11BD DUP4 DUP4 DUP4 DUP10 DUP10 DUP10 PUSH2 0x125F JUMP JUMPDEST SWAP2 SWAP5 POP SWAP3 POP SWAP1 POP JUMPDEST PUSH1 0x2 DUP8 DIV SWAP7 POP PUSH2 0x11D6 DUP7 DUP7 DUP7 PUSH2 0x13F4 JUMP JUMPDEST SWAP2 SWAP8 POP SWAP6 POP SWAP4 POP PUSH2 0x11A0 JUMP JUMPDEST SWAP2 SWAP9 POP SWAP7 POP SWAP5 POP DUP7 DUP7 DUP7 JUMPDEST POP POP POP POP POP POP POP SWAP5 POP SWAP5 POP SWAP5 SWAP2 POP POP JUMP JUMPDEST PUSH1 0xA SLOAD PUSH1 0x0 SWAP1 DUP2 SWAP1 PUSH1 0x1 SWAP1 DUP5 DUP4 JUMPDEST DUP2 ISZERO PUSH2 0x1254 JUMPI DUP2 DUP4 DUP2 ISZERO ISZERO PUSH2 0x121D JUMPI INVALID JUMPDEST DIV SWAP1 POP DUP4 PUSH1 0xA SLOAD DUP1 ISZERO ISZERO PUSH2 0x122D JUMPI INVALID JUMPDEST PUSH1 0xA SLOAD DUP1 ISZERO ISZERO PUSH2 0x1239 JUMPI INVALID JUMPDEST DUP7 DUP5 MULMOD PUSH1 0xA SLOAD SUB DUP8 ADDMOD SWAP1 SWAP6 POP SWAP4 POP SWAP1 SWAP2 DUP2 DUP4 MUL SWAP1 SUB SWAP1 PUSH2 0x120C JUMP JUMPDEST POP SWAP3 SWAP6 SWAP5 POP POP POP POP POP JUMP JUMPDEST PUSH1 0x0 DUP1 DUP1 DUP1 DUP1 DUP1 DUP1 DUP13 ISZERO DUP1 ISZERO PUSH2 0x1273 JUMPI POP DUP12 ISZERO JUMPDEST ISZERO PUSH2 0x1286 JUMPI DUP10 DUP10 DUP10 SWAP7 POP SWAP7 POP SWAP7 POP PUSH2 0x13E4 JUMP JUMPDEST DUP10 ISZERO DUP1 ISZERO PUSH2 0x1292 JUMPI POP DUP9 ISZERO JUMPDEST ISZERO PUSH2 0x12A5 JUMPI DUP13 DUP13 DUP13 SWAP7 POP SWAP7 POP SWAP7 POP PUSH2 0x13E4 JUMP JUMPDEST DUP10 DUP14 EQ DUP1 ISZERO PUSH2 0x12B3 JUMPI POP DUP9 DUP13 EQ JUMPDEST ISZERO PUSH2 0x1307 JUMPI PUSH2 0x12C4 DUP14 DUP13 DUP16 DUP15 PUSH2 0x1416 JUMP JUMPDEST SWAP1 SWAP5 POP SWAP3 POP PUSH2 0x12D7 DUP5 DUP5 PUSH1 0x3 PUSH1 0x1 PUSH2 0x1416 JUMP JUMPDEST SWAP1 SWAP5 POP SWAP3 POP PUSH2 0x12EA DUP5 DUP5 PUSH1 0x0 PUSH1 0x1 PUSH2 0x1444 JUMP JUMPDEST SWAP1 SWAP5 POP SWAP3 POP PUSH2 0x12FD DUP13 DUP13 PUSH1 0x2 PUSH1 0x1 PUSH2 0x1416 JUMP JUMPDEST SWAP1 SWAP3 POP SWAP1 POP PUSH2 0x132A JUMP JUMPDEST PUSH2 0x1313 DUP10 DUP10 DUP15 DUP15 PUSH2 0x147E JUMP JUMPDEST SWAP1 SWAP5 POP SWAP3 POP PUSH2 0x1324 DUP11 DUP10 DUP16 DUP15 PUSH2 0x147E JUMP JUMPDEST SWAP1 SWAP3 POP SWAP1 POP JUMPDEST PUSH2 0x1336 DUP5 DUP5 DUP5 DUP5 PUSH2 0x14AC JUMP JUMPDEST SWAP1 SWAP5 POP SWAP3 POP PUSH2 0x1347 DUP5 DUP5 DUP2 DUP2 PUSH2 0x1416 JUMP JUMPDEST SWAP1 SWAP8 POP SWAP2 POP PUSH2 0x1358 DUP8 DUP4 DUP16 DUP15 PUSH2 0x147E JUMP JUMPDEST SWAP1 SWAP8 POP SWAP2 POP PUSH2 0x1369 DUP8 DUP4 DUP13 DUP12 PUSH2 0x147E JUMP JUMPDEST SWAP1 SWAP8 POP SWAP2 POP PUSH2 0x137A DUP14 DUP13 DUP10 DUP6 PUSH2 0x147E JUMP JUMPDEST SWAP1 SWAP7 POP SWAP1 POP PUSH2 0x138B DUP7 DUP3 DUP7 DUP7 PUSH2 0x1416 JUMP JUMPDEST SWAP1 SWAP7 POP SWAP1 POP PUSH2 0x139C DUP7 DUP3 DUP15 DUP15 PUSH2 0x147E JUMP JUMPDEST SWAP1 SWAP7 POP SWAP1 POP DUP2 DUP2 EQ PUSH2 0x13E0 JUMPI PUSH1 0xA SLOAD DUP1 ISZERO ISZERO PUSH2 0x13B4 JUMPI INVALID JUMPDEST DUP2 DUP9 MULMOD SWAP7 POP PUSH1 0xA SLOAD DUP1 ISZERO ISZERO PUSH2 0x13C5 JUMPI INVALID JUMPDEST DUP3 DUP8 MULMOD SWAP6 POP PUSH1 0xA SLOAD DUP1 ISZERO ISZERO PUSH2 0x13D6 JUMPI INVALID JUMPDEST DUP2 DUP4 MULMOD SWAP5 POP PUSH2 0x13E4 JUMP JUMPDEST DUP2 SWAP5 POP JUMPDEST POP POP POP POP SWAP7 POP SWAP7 POP SWAP7 SWAP4 POP POP POP POP JUMP JUMPDEST PUSH1 0x0 DUP1 PUSH1 0x0 PUSH2 0x1407 DUP7 DUP7 DUP7 DUP10 DUP10 DUP10 PUSH2 0x125F JUMP JUMPDEST SWAP2 SWAP9 SWAP1 SWAP8 POP SWAP1 SWAP6 POP SWAP4 POP POP POP POP JUMP JUMPDEST PUSH1 0x0 DUP1 PUSH1 0xA SLOAD DUP1 ISZERO ISZERO PUSH2 0x1425 JUMPI INVALID JUMPDEST DUP5 DUP8 MULMOD PUSH1 0xA SLOAD DUP1 ISZERO ISZERO PUSH2 0x1434 JUMPI INVALID JUMPDEST DUP5 DUP8 MULMOD SWAP1 SWAP8 SWAP1 SWAP7 POP SWAP5 POP POP POP POP POP JUMP JUMPDEST PUSH1 0x0 DUP1 PUSH1 0xA SLOAD DUP1 ISZERO ISZERO PUSH2 0x1453 JUMPI INVALID JUMPDEST PUSH1 0xA SLOAD DUP1 ISZERO ISZERO PUSH2 0x145F JUMPI INVALID JUMPDEST DUP7 DUP7 MULMOD PUSH1 0xA SLOAD DUP1 ISZERO ISZERO PUSH2 0x146E JUMPI INVALID JUMPDEST DUP9 DUP7 MULMOD ADDMOD PUSH1 0xA SLOAD DUP1 ISZERO ISZERO PUSH2 0x1434 JUMPI INVALID JUMPDEST PUSH1 0x0 DUP1 PUSH1 0xA SLOAD DUP1 ISZERO ISZERO PUSH2 0x148D JUMPI INVALID JUMPDEST PUSH1 0xA SLOAD DUP1 ISZERO ISZERO PUSH2 0x1499 JUMPI INVALID JUMPDEST DUP7 DUP7 PUSH1 0xA SLOAD SUB MULMOD PUSH1 0xA SLOAD DUP1 ISZERO ISZERO PUSH2 0x146E JUMPI INVALID JUMPDEST PUSH1 0x0 DUP1 PUSH1 0xA SLOAD DUP1 ISZERO ISZERO PUSH2 0x14BB JUMPI INVALID JUMPDEST DUP4 DUP8 MULMOD PUSH1 0xA SLOAD DUP1 ISZERO ISZERO PUSH2 0x14CA JUMPI INVALID JUMPDEST DUP6 DUP8 MULMOD SWAP1 SWAP8 SWAP1 SWAP7 POP SWAP5 POP POP POP POP POP JUMP JUMPDEST DUP3 DUP1 SLOAD PUSH1 0x1 DUP2 PUSH1 0x1 AND ISZERO PUSH2 0x100 MUL SUB AND PUSH1 0x2 SWAP1 DIV SWAP1 PUSH1 0x0 MSTORE PUSH1 0x20 PUSH1 0x0 KECCAK256 SWAP1 PUSH1 0x1F ADD PUSH1 0x20 SWAP1 DIV DUP2 ADD SWAP3 DUP3 PUSH1 0x1F LT PUSH2 0x151B JUMPI DUP1 MLOAD PUSH1 0xFF NOT AND DUP4 DUP1 ADD OR DUP6 SSTORE PUSH2 0x1548 JUMP JUMPDEST DUP3 DUP1 ADD PUSH1 0x1 ADD DUP6 SSTORE DUP3 ISZERO PUSH2 0x1548 JUMPI SWAP2 DUP3 ADD JUMPDEST DUP3 DUP2 GT ISZERO PUSH2 0x1548 JUMPI DUP3 MLOAD DUP3 SSTORE SWAP2 PUSH1 0x20 ADD SWAP2 SWAP1 PUSH1 0x1 ADD SWAP1 PUSH2 0x152D JUMP JUMPDEST POP PUSH2 0x1554 SWAP3 SWAP2 POP PUSH2 0x1558 JUMP JUMPDEST POP SWAP1 JUMP JUMPDEST PUSH2 0x1572 SWAP2 SWAP1 JUMPDEST DUP1 DUP3 GT ISZERO PUSH2 0x1554 JUMPI PUSH1 0x0 DUP2 SSTORE PUSH1 0x1 ADD PUSH2 0x155E JUMP JUMPDEST SWAP1 JUMP STOP LOG1 PUSH6 0x627A7A723058 KECCAK256 PUSH20 0x807BF2709495532AAF323DC4153A02254A2531F4 GT GASLIMIT PUSH4 0xA75A823F PUSH8 0x5011400029000000 "
        },
        "gasEstimates": {
          "creation": {
            "codeDepositCost": "1107400",
            "executionCost": "infinite",
            "totalCost": "infinite"
          },
          "external": {
            "A()": "infinite",
            "a()": "206",
            "accept(string,bytes,uint256,uint256,uint256)": "infinite",
            "cancel()": "21552",
            "finish(address,uint256)": "infinite",
            "getState(address)": "infinite",
            "getW(address)": "832",
            "gx()": "384",
            "gy()": "472",
            "hashIPFS()": "infinite",
            "n()": "494",
            "receivers(uint256)": "1145",
            "receiversState(address)": "infinite",
            "sender()": "779",
            "start()": "670",
            "term1()": "538",
            "term2()": "516",
            "vx()": "560",
            "vy()": "714"
          },
          "internal": {
            "_ecAdd(uint256,uint256,uint256,uint256,uint256,uint256)": "infinite",
            "_ecDouble(uint256,uint256,uint256)": "infinite",
            "_ecMul(uint256,uint256,uint256,uint256)": "infinite",
            "_inverse(uint256)": "infinite",
            "_jAdd(uint256,uint256,uint256,uint256)": "996",
            "_jDiv(uint256,uint256,uint256,uint256)": "522",
            "_jMul(uint256,uint256,uint256,uint256)": "522",
            "_jSub(uint256,uint256,uint256,uint256)": "1202",
            "deriveKey(uint256,uint256)": "infinite"
          }
        },
        "methodIdentifiers": {
          "A()": "f446c1d0",
          "a()": "0dbe671f",
          "accept(string,bytes,uint256,uint256,uint256)": "57dc3742",
          "cancel()": "ea8a1af0",
          "finish(address,uint256)": "29008824",
          "getState(address)": "1bab58f5",
          "getW(address)": "67b70e11",
          "gx()": "06c91ce3",
          "gy()": "2d58c9a2",
          "hashIPFS()": "a1cbf5f9",
          "n()": "2e52d606",
          "receivers(uint256)": "bfd772fc",
          "receiversState(address)": "ff7edf42",
          "sender()": "67e404ce",
          "start()": "be9a6555",
          "term1()": "4c87c67d",
          "term2()": "3b4a0828",
          "vx()": "4e8c0bd6",
          "vy()": "cd12a4b0"
        }
      },
      "userdoc": {
        "methods": {}
      }
    }
  }
}