{
    "contractName": "ConfidentialMultipartyRegisteredEDeliveryWithoutTTPFactory",
    "abi": [
        {
            "constant": false,
            "inputs": [
                {
                    "name": "_receivers",
                    "type": "address[]"
                },
                {
                    "name": "_vx",
                    "type": "uint256"
                },
                {
                    "name": "_vy",
                    "type": "uint256"
                },
                {
                    "name": "_hashIPFS",
                    "type": "string"
                },
                {
                    "name": "_A",
                    "type": "string"
                },
                {
                    "name": "_gx",
                    "type": "uint256"
                },
                {
                    "name": "_gy",
                    "type": "uint256"
                },
                {
                    "name": "_n",
                    "type": "uint256"
                },
                {
                    "name": "_term1",
                    "type": "uint256"
                },
                {
                    "name": "_term2",
                    "type": "uint256"
                }
            ],
            "name": "createDelivery",
            "outputs": [],
            "payable": true,
            "stateMutability": "payable",
            "type": "function"
        },
        {
            "constant": true,
            "inputs": [],
            "name": "getDeliveries",
            "outputs": [
                {
                    "name": "",
                    "type": "address[]"
                }
            ],
            "payable": false,
            "stateMutability": "view",
            "type": "function"
        },
        {
            "constant": true,
            "inputs": [
                {
                    "name": "_receiver",
                    "type": "address"
                }
            ],
            "name": "getReceiverDeliveriesCount",
            "outputs": [
                {
                    "name": "",
                    "type": "uint256"
                }
            ],
            "payable": false,
            "stateMutability": "view",
            "type": "function"
        },
        {
            "constant": true,
            "inputs": [],
            "name": "getDeliveriesCount",
            "outputs": [
                {
                    "name": "",
                    "type": "uint256"
                }
            ],
            "payable": false,
            "stateMutability": "view",
            "type": "function"
        },
        {
            "constant": true,
            "inputs": [
                {
                    "name": "",
                    "type": "address"
                },
                {
                    "name": "",
                    "type": "uint256"
                }
            ],
            "name": "senderDeliveries",
            "outputs": [
                {
                    "name": "",
                    "type": "address"
                }
            ],
            "payable": false,
            "stateMutability": "view",
            "type": "function"
        },
        {
            "constant": true,
            "inputs": [
                {
                    "name": "_sender",
                    "type": "address"
                }
            ],
            "name": "getSenderDeliveriesCount",
            "outputs": [
                {
                    "name": "",
                    "type": "uint256"
                }
            ],
            "payable": false,
            "stateMutability": "view",
            "type": "function"
        },
        {
            "constant": true,
            "inputs": [
                {
                    "name": "_sender",
                    "type": "address"
                }
            ],
            "name": "getSenderDeliveries",
            "outputs": [
                {
                    "name": "",
                    "type": "address[]"
                }
            ],
            "payable": false,
            "stateMutability": "view",
            "type": "function"
        },
        {
            "constant": true,
            "inputs": [
                {
                    "name": "",
                    "type": "address"
                },
                {
                    "name": "",
                    "type": "uint256"
                }
            ],
            "name": "receiverDeliveries",
            "outputs": [
                {
                    "name": "",
                    "type": "address"
                }
            ],
            "payable": false,
            "stateMutability": "view",
            "type": "function"
        },
        {
            "constant": true,
            "inputs": [
                {
                    "name": "",
                    "type": "uint256"
                }
            ],
            "name": "deliveries",
            "outputs": [
                {
                    "name": "",
                    "type": "address"
                }
            ],
            "payable": false,
            "stateMutability": "view",
            "type": "function"
        },
        {
            "constant": true,
            "inputs": [
                {
                    "name": "_receiver",
                    "type": "address"
                }
            ],
            "name": "getReceiverDeliveries",
            "outputs": [
                {
                    "name": "",
                    "type": "address[]"
                }
            ],
            "payable": false,
            "stateMutability": "view",
            "type": "function"
        }
    ],
    "bytecode": "608060405234801561001057600080fd5b50611f36806100206000396000f300608060405260043610620000ae5763ffffffff7c01000000000000000000000000000000000000000000000000000000006000350416630ae8a8fd8114620000b3578063138e0b26146200019f578063438c483714620002095780634e4d4060146200023f57806357bcf716146200025757806361fa3f49146200029a57806383af39d114620002be57806392b548b614620002e2578063a9e4a3241462000309578063c44e55a01462000324575b600080fd5b604080516020600480358082013583810280860185019096528085526200019d9536959394602494938501929182918501908490808284375050604080516020888301358a018035601f8101839004830284018301909452838352979a89359a8a8301359a9199909850606090910196509194509081019250819084018382808284375050604080516020601f89358b018035918201839004830284018301909452808352979a9998810197919650918201945092508291508401838280828437509497505084359550505060208301359260408101359250606081013591506080013562000348565b005b348015620001ac57600080fd5b50620001b7620005ff565b60408051602080825283518183015283519192839290830191858101910280838360005b83811015620001f5578181015183820152602001620001db565b505050509050019250505060405180910390f35b3480156200021657600080fd5b506200022d600160a060020a036004351662000663565b60408051918252519081900360200190f35b3480156200024c57600080fd5b506200022d6200067e565b3480156200026457600080fd5b506200027e600160a060020a036004351660243562000684565b60408051600160a060020a039092168252519081900360200190f35b348015620002a757600080fd5b506200022d600160a060020a0360043516620006bc565b348015620002cb57600080fd5b50620001b7600160a060020a0360043516620006d7565b348015620002ef57600080fd5b506200027e600160a060020a03600435166024356200074d565b3480156200031657600080fd5b506200027e60043562000769565b3480156200033157600080fd5b50620001b7600160a060020a036004351662000792565b60008034338d8d8d8d8d8d8d8d8d8d6200036162000808565b808c600160a060020a0316600160a060020a03168152602001806020018b81526020018a8152602001806020018060200189815260200188815260200187815260200186815260200185815260200184810384528e818151815260200191508051906020019060200280838360005b83811015620003ea578181015183820152602001620003d0565b5050505090500184810383528b818151815260200191508051906020019080838360005b83811015620004285781810151838201526020016200040e565b50505050905090810190601f168015620004565780820380516001836020036101000a031916815260200191505b5084810382528a5181528a516020918201918c019080838360005b838110156200048b57818101518382015260200162000471565b50505050905090810190601f168015620004b95780820380516001836020036101000a031916815260200191505b509e5050505050505050505050505050506040518091039082f080158015620004e6573d6000803e3d6000fd5b506002805460018181019092557f405787fa12a823e0f2b7631cc41b3ba8828b3321ca811111fa75cd3aa3bb5ace018054600160a060020a03841673ffffffffffffffffffffffffffffffffffffffff1991821681179092553360009081526020818152604082208054958601815582528120909301805490911690911790559093509150505b8b51811015620005f157600160008d838151811015156200058a57fe5b602090810291909101810151600160a060020a039081168352828201939093526040909101600090812080546001808201835591835292909120909101805473ffffffffffffffffffffffffffffffffffffffff191692851692909217909155016200056d565b505050505050505050505050565b606060028054806020026020016040519081016040528092919081815260200182805480156200065957602002820191906000526020600020905b8154600160a060020a031681526001909101906020018083116200063a575b5050505050905090565b600160a060020a031660009081526001602052604090205490565b60025490565b600060205281600052604060002081815481101515620006a057fe5b600091825260209091200154600160a060020a03169150829050565b600160a060020a031660009081526020819052604090205490565b600160a060020a038116600090815260208181526040918290208054835181840281018401909452808452606093928301828280156200074157602002820191906000526020600020905b8154600160a060020a0316815260019091019060200180831162000722575b50505050509050919050565b600160205281600052604060002081815481101515620006a057fe5b60028054829081106200077857fe5b600091825260209091200154600160a060020a0316905081565b600160a060020a0381166000908152600160209081526040918290208054835181840281018401909452808452606093928301828280156200074157602002820191906000526020600020908154600160a060020a03168152600190910190602001808311620007225750505050509050919050565b6040516116f1806200081a8339019056006080604052604051620016f1380380620016f183398101604090815281516020830151918301516060840151608085015160a086015160c087015160e08801516101008901516101208a01516101408b0151989a998a01999798969795860196949095019492939192909160003481106200010157604080517f08c379a000000000000000000000000000000000000000000000000000000000815260206004820152602d60248201527f53656e6465722068617320746f2073656e642061206465706f736974206f662060448201527f6d696e696d756e20312077656900000000000000000000000000000000000000606482015290519081900360840190fd5b8183106200019657604080517f08c379a000000000000000000000000000000000000000000000000000000000815260206004820152602960248201527f54696d656f7574207465726d32206d757374206265206772656174657220746860448201527f616e205f7465726d310000000000000000000000000000000000000000000000606482015290519081900360840190fd5b60008054600160a060020a031916600160a060020a038e161790558a51620001c69060019060208e019062000299565b50600090505b6001548110156200023757600160026000600184815481101515620001ed57fe5b6000918252602080832090910154600160a060020a031683528201929092526040019020600601805460ff191660018360058111156200022957fe5b0217905550600101620001cc565b600060035560048a9055600589905587516200025b9060069060208b019062000303565b508651620002719060079060208a019062000303565b5050600894909455600992909255600a5542600d55600b55600c5550620003cb945050505050565b828054828255906000526020600020908101928215620002f1579160200282015b82811115620002f15782518254600160a060020a031916600160a060020a03909116178255602090920191600190910190620002ba565b50620002ff92915062000384565b5090565b828054600181600116156101000203166002900490600052602060002090601f016020900481019282601f106200034657805160ff191683800117855562000376565b8280016001018555821562000376579182015b828111156200037657825182559160200191906001019062000359565b50620002ff929150620003ae565b620003ab91905b80821115620002ff578054600160a060020a03191681556001016200038b565b90565b620003ab91905b80821115620002ff5760008155600101620003b5565b61131680620003db6000396000f3006080604052600436106101065763ffffffff7c010000000000000000000000000000000000000000000000000000000060003504166306c91ce3811461010b5780630dbe671f146101325780631b305836146101475780631bab58f51461016d57806329008824146102035780632d58c9a2146102275780632e52d6061461023c5780633b4a0828146102515780634c87c67d146102665780634e8c0bd61461027b57806367b70e111461029057806367e404ce146102b1578063a1cbf5f9146102e2578063be9a6555146102f7578063bfd772fc1461030c578063cd12a4b014610324578063ea8a1af014610339578063f446c1d01461034e578063ff7edf4214610363575b600080fd5b34801561011757600080fd5b506101206103d2565b60408051918252519081900360200190f35b34801561013e57600080fd5b506101206103d8565b34801561015357600080fd5b5061016b6004356024356044356064356084356103dd565b005b34801561017957600080fd5b5061018e600160a060020a0360043516610547565b6040805160208082528351818301528351919283929083019185019080838360005b838110156101c85781810151838201526020016101b0565b50505050905090810190601f1680156101f55780820380516001836020036101000a031916815260200191505b509250505060405180910390f35b34801561020f57600080fd5b5061016b600160a060020a03600435166024356107d2565b34801561023357600080fd5b50610120610c4d565b34801561024857600080fd5b50610120610c53565b34801561025d57600080fd5b50610120610c59565b34801561027257600080fd5b50610120610c5f565b34801561028757600080fd5b50610120610c65565b34801561029c57600080fd5b50610120600160a060020a0360043516610c6b565b3480156102bd57600080fd5b506102c6610c89565b60408051600160a060020a039092168252519081900360200190f35b3480156102ee57600080fd5b5061018e610c98565b34801561030357600080fd5b50610120610d26565b34801561031857600080fd5b506102c6600435610d2c565b34801561033057600080fd5b50610120610d54565b34801561034557600080fd5b5061016b610d5a565b34801561035a57600080fd5b5061018e610e9e565b34801561036f57600080fd5b50610384600160a060020a0360043516610ef9565b604051808881526020018781526020018681526020018581526020018481526020018381526020018260058111156103b857fe5b60ff16815260200197505050505050505060405180910390f35b60085481565b600081565b600b54600d54014210610460576040805160e560020a62461bcd02815260206004820152602260248201527f5468652074696d656f7574207465726d3120686173206265656e20726561636860448201527f6564000000000000000000000000000000000000000000000000000000000000606482015290519081900360840190fd5b60013360009081526002602052604090206006015460ff16600581111561048357fe5b146104fe576040805160e560020a62461bcd02815260206004820152602e60248201527f4f6e6c792072656365697665727320776974682027637265617465642720737460448201527f6174652063616e20616363657074000000000000000000000000000000000000606482015290519081900360840190fd5b600380546001908101825533600090815260026020819052604090912097885590870195909555938501929092558383015560048301556006909101805460ff19169091179055565b60606000600160a060020a03831660009081526002602052604090206006015460ff16600581111561057557fe5b14156105b5575060408051808201909152600a81527f6e6f74206578697374730000000000000000000000000000000000000000000060208201526107cd565b6001600160a060020a03831660009081526002602052604090206006015460ff1660058111156105e157fe5b1415610621575060408051808201909152600781527f637265617465640000000000000000000000000000000000000000000000000060208201526107cd565b6002600160a060020a03831660009081526002602052604090206006015460ff16600581111561064d57fe5b141561068d575060408051808201909152600981527f63616e63656c6c6564000000000000000000000000000000000000000000000060208201526107cd565b6003600160a060020a03831660009081526002602052604090206006015460ff1660058111156106b957fe5b14156106f9575060408051808201909152600881527f616363657074656400000000000000000000000000000000000000000000000060208201526107cd565b6004600160a060020a03831660009081526002602052604090206006015460ff16600581111561072557fe5b1415610765575060408051808201909152600881527f66696e697368656400000000000000000000000000000000000000000000000060208201526107cd565b6005600160a060020a03831660009081526002602052604090206006015460ff16600581111561079157fe5b14156107cd575060408051808201909152600881527f72656a656374656400000000000000000000000000000000000000000000000060208201525b919050565b6000806000806000600b54600d5401421015806107f3575060015460035410155b1515610895576040805160e560020a62461bcd02815260206004820152605c60248201527f5468652074696d656f7574207465726d3120686173206e6f74206265656e207260448201527f65616368656420616e64206e6f7420616c6c207265636569766572732068617660648201527f65206265656e206163636570746564207468652064656c697665727900000000608482015290519081900360a40190fd5b600054600160a060020a0316331461091d576040805160e560020a62461bcd02815260206004820152602660248201527f4f6e6c792073656e646572206f66207468652064656c69766572792063616e2060448201527f66696e6973680000000000000000000000000000000000000000000000000000606482015290519081900360840190fd5b61092c86600854600954610f39565b600160a060020a038916600090815260026020819052604090912060048101549181015460039091015493985091965061096892909190610f39565b600454919450925085840114156109ef576040805160e560020a62461bcd02815260206004820152602360248201527f5620616e642047785b72695d2b4269785b63695d20617265206e6f742065717560448201527f616c730000000000000000000000000000000000000000000000000000000000606482015290519081900360840190fd5b6005548483011415610a71576040805160e560020a62461bcd02815260206004820152602360248201527f5620616e642047785b72695d2b4269785b63695d20617265206e6f742065717560448201527f616c730000000000000000000000000000000000000000000000000000000000606482015290519081900360840190fd5b6040513390303180156108fc02916000818181858888f19350505050158015610a9e573d6000803e3d6000fd5b50600090505b600154811015610c44578560026000600184815481101515610ac257fe5b6000918252602080832090910154600160a060020a03168352820192909252604001902060050155600360026000600184815481101515610aff57fe5b6000918252602080832090910154600160a060020a0316835282019290925260400190206006015460ff166005811115610b3557fe5b1415610b9557600460026000600184815481101515610b5057fe5b6000918252602080832090910154600160a060020a031683528201929092526040019020600601805460ff19166001836005811115610b8b57fe5b0217905550610c3c565b600160026000600184815481101515610baa57fe5b6000918252602080832090910154600160a060020a0316835282019290925260400190206006015460ff166005811115610be057fe5b1415610c3c57600560026000600184815481101515610bfb57fe5b6000918252602080832090910154600160a060020a031683528201929092526040019020600601805460ff19166001836005811115610c3657fe5b02179055505b600101610aa4565b50505050505050565b60095481565b600a5481565b600c5481565b600b5481565b60045481565b600160a060020a031660009081526002602052604090206005015490565b600054600160a060020a031681565b6006805460408051602060026001851615610100026000190190941693909304601f81018490048402820184019092528181529291830182828015610d1e5780601f10610cf357610100808354040283529160200191610d1e565b820191906000526020600020905b815481529060010190602001808311610d0157829003601f168201915b505050505081565b600d5481565b6001805482908110610d3a57fe5b600091825260209091200154600160a060020a0316905081565b60055481565b600c54600d5401421015610dde576040805160e560020a62461bcd02815260206004820152602660248201527f5468652074696d656f7574207465726d3220686173206e6f74206265656e207260448201527f6561636865640000000000000000000000000000000000000000000000000000606482015290519081900360840190fd5b60033360009081526002602052604090206006015460ff166005811115610e0157fe5b14610e7c576040805160e560020a62461bcd02815260206004820152602f60248201527f4f6e6c792072656365697665727320776974682027616363657074656427207360448201527f746174652063616e2063616e63656c0000000000000000000000000000000000606482015290519081900360840190fd5b336000908152600260208190526040909120600601805460ff19169091179055565b6007805460408051602060026001851615610100026000190190941693909304601f81018490048402820184019092528181529291830182828015610d1e5780601f10610cf357610100808354040283529160200191610d1e565b6002602081905260009182526040909120805460018201549282015460038301546004840154600585015460069095015493959492939192909160ff1687565b6000806000806000610f4e8888886001610f8d565b91945092509050610f5e8161100e565b9050600a54801515610f6c57fe5b8184099450600a54801515610f7d57fe5b8183099350505050935093915050565b600080808686868684806001861515610fb0576000995089985060019750610ffd565b8615610ff2576001871615610fd557610fcd83838389898961106f565b919450925090505b600287049650610fe6868686611204565b91975095509350610fb0565b919850965094508686865b505050505050509450945094915050565b600a54600090819060019084835b811561106457818381151561102d57fe5b04905083600a5480151561103d57fe5b600a5480151561104957fe5b868409600a540387089095509350909181830290039061101c565b509295945050505050565b60008080808080808c15801561108357508b155b15611096578989899650965096506111f4565b891580156110a2575088155b156110b5578c8c8c9650965096506111f4565b898d1480156110c35750888c145b15611117576110d48d8c8f8e611226565b90945092506110e7848460036001611226565b90945092506110fa848460006001611254565b909450925061110d8c8c60026001611226565b909250905061113a565b61112389898e8e61128e565b90945092506111348a898f8e61128e565b90925090505b611146848484846112bc565b909450925061115784848181611226565b909750915061116887838f8e61128e565b909750915061117987838c8b61128e565b909750915061118a8d8c898561128e565b909650905061119b86828686611226565b90965090506111ac86828e8e61128e565b90965090508181146111f057600a548015156111c457fe5b8188099650600a548015156111d557fe5b8287099550600a548015156111e657fe5b81830994506111f4565b8194505b5050505096509650969350505050565b600080600061121786868689898961106f565b91989097509095509350505050565b600080600a5480151561123557fe5b848709600a5480151561124457fe5b8487099097909650945050505050565b600080600a5480151561126357fe5b600a5480151561126f57fe5b868609600a5480151561127e57fe5b88860908600a5480151561124457fe5b600080600a5480151561129d57fe5b600a548015156112a957fe5b8686600a540309600a5480151561127e57fe5b600080600a548015156112cb57fe5b838709600a548015156112da57fe5b85870990979096509450505050505600a165627a7a72305820d25f27d4b4f1dcd3268ec08968c94865c4faa4c99589e136aeade8065d50f9ac0029a165627a7a72305820dd5f3dba270b6c04a7e1dce24ba924b275c5bc448f211df6fcf8eee1798e51430029",
    "sourcePath": "c:/Users/Usuario/Documents/UIB/SECOM/notificacions/prova/PatentConfidentialEDeliveryWithoutTTP-master/contracts/ConfidentialMultipartyRegisteredEDeliveryWithoutTTP.sol",
    "compiler": {
        "name": "solc",
        "version": "0.4.25+commit.59dbf8f1"
    },
    "functionHashes": {
        "createDelivery(address[],uint256,uint256,string,string,uint256,uint256,uint256,uint256,uint256)": "0ae8a8fd",
        "deliveries(uint256)": "a9e4a324",
        "getDeliveries()": "138e0b26",
        "getDeliveriesCount()": "4e4d4060",
        "getReceiverDeliveries(address)": "c44e55a0",
        "getReceiverDeliveriesCount(address)": "438c4837",
        "getSenderDeliveries(address)": "83af39d1",
        "getSenderDeliveriesCount(address)": "61fa3f49",
        "receiverDeliveries(address,uint256)": "92b548b6",
        "senderDeliveries(address,uint256)": "57bcf716"
    },
    "gasEstimates": {
        "creation": {
            "codeDepositCost": "1598000",
            "executionCost": "1673",
            "totalCost": "1599673"
        },
        "external": {
            "createDelivery(address[],uint256,uint256,string,string,uint256,uint256,uint256,uint256,uint256)": "infinite",
            "deliveries(uint256)": "1013",
            "getDeliveries()": "infinite",
            "getDeliveriesCount()": "450",
            "getReceiverDeliveries(address)": "infinite",
            "getReceiverDeliveriesCount(address)": "650",
            "getSenderDeliveries(address)": "infinite",
            "getSenderDeliveriesCount(address)": "719",
            "receiverDeliveries(address,uint256)": "1143",
            "senderDeliveries(address,uint256)": "1077"
        }
    }
}