{
    "contractName": "ConfidentialMultipartyRegisteredEDeliveryWithoutTTP",
    "abi": [
        {
            "constant": true,
            "inputs": [],
            "name": "GX",
            "outputs": [
                {
                    "name": "",
                    "type": "uint256"
                }
            ],
            "payable": false,
            "stateMutability": "view",
            "type": "function"
        },
        {
            "constant": true,
            "inputs": [],
            "name": "a",
            "outputs": [
                {
                    "name": "",
                    "type": "uint256"
                }
            ],
            "payable": false,
            "stateMutability": "view",
            "type": "function"
        },
        {
            "constant": true,
            "inputs": [
                {
                    "name": "_receiver",
                    "type": "address"
                }
            ],
            "name": "getState",
            "outputs": [
                {
                    "name": "",
                    "type": "string"
                }
            ],
            "payable": false,
            "stateMutability": "view",
            "type": "function"
        },
        {
            "constant": false,
            "inputs": [
                {
                    "name": "_receiver",
                    "type": "address"
                },
                {
                    "name": "_r",
                    "type": "uint256"
                }
            ],
            "name": "finish",
            "outputs": [],
            "payable": false,
            "stateMutability": "nonpayable",
            "type": "function"
        },
        {
            "constant": true,
            "inputs": [],
            "name": "term2",
            "outputs": [
                {
                    "name": "",
                    "type": "uint256"
                }
            ],
            "payable": false,
            "stateMutability": "view",
            "type": "function"
        },
        {
            "constant": true,
            "inputs": [],
            "name": "term1",
            "outputs": [
                {
                    "name": "",
                    "type": "uint256"
                }
            ],
            "payable": false,
            "stateMutability": "view",
            "type": "function"
        },
        {
            "constant": true,
            "inputs": [],
            "name": "vx",
            "outputs": [
                {
                    "name": "",
                    "type": "uint256"
                }
            ],
            "payable": false,
            "stateMutability": "view",
            "type": "function"
        },
        {
            "constant": true,
            "inputs": [],
            "name": "BB",
            "outputs": [
                {
                    "name": "",
                    "type": "uint256"
                }
            ],
            "payable": false,
            "stateMutability": "view",
            "type": "function"
        },
        {
            "constant": false,
            "inputs": [
                {
                    "name": "_z1",
                    "type": "string"
                },
                {
                    "name": "_z2",
                    "type": "bytes"
                },
                {
                    "name": "_bx",
                    "type": "uint256"
                },
                {
                    "name": "_by",
                    "type": "uint256"
                },
                {
                    "name": "_c",
                    "type": "uint256"
                }
            ],
            "name": "accept",
            "outputs": [],
            "payable": false,
            "stateMutability": "nonpayable",
            "type": "function"
        },
        {
            "constant": true,
            "inputs": [
                {
                    "name": "_receiver",
                    "type": "address"
                }
            ],
            "name": "getR",
            "outputs": [
                {
                    "name": "",
                    "type": "uint256"
                }
            ],
            "payable": false,
            "stateMutability": "view",
            "type": "function"
        },
        {
            "constant": true,
            "inputs": [],
            "name": "sender",
            "outputs": [
                {
                    "name": "",
                    "type": "address"
                }
            ],
            "payable": false,
            "stateMutability": "view",
            "type": "function"
        },
        {
            "constant": true,
            "inputs": [],
            "name": "GY",
            "outputs": [
                {
                    "name": "",
                    "type": "uint256"
                }
            ],
            "payable": false,
            "stateMutability": "view",
            "type": "function"
        },
        {
            "constant": true,
            "inputs": [],
            "name": "AA",
            "outputs": [
                {
                    "name": "",
                    "type": "uint256"
                }
            ],
            "payable": false,
            "stateMutability": "view",
            "type": "function"
        },
        {
            "constant": true,
            "inputs": [],
            "name": "hashIPFS",
            "outputs": [
                {
                    "name": "",
                    "type": "string"
                }
            ],
            "payable": false,
            "stateMutability": "view",
            "type": "function"
        },
        {
            "constant": true,
            "inputs": [],
            "name": "start",
            "outputs": [
                {
                    "name": "",
                    "type": "uint256"
                }
            ],
            "payable": false,
            "stateMutability": "view",
            "type": "function"
        },
        {
            "constant": true,
            "inputs": [
                {
                    "name": "",
                    "type": "uint256"
                }
            ],
            "name": "receivers",
            "outputs": [
                {
                    "name": "",
                    "type": "address"
                }
            ],
            "payable": false,
            "stateMutability": "view",
            "type": "function"
        },
        {
            "constant": true,
            "inputs": [],
            "name": "vy",
            "outputs": [
                {
                    "name": "",
                    "type": "uint256"
                }
            ],
            "payable": false,
            "stateMutability": "view",
            "type": "function"
        },
        {
            "constant": false,
            "inputs": [],
            "name": "cancel",
            "outputs": [],
            "payable": false,
            "stateMutability": "nonpayable",
            "type": "function"
        },
        {
            "constant": true,
            "inputs": [],
            "name": "PP",
            "outputs": [
                {
                    "name": "",
                    "type": "uint256"
                }
            ],
            "payable": false,
            "stateMutability": "view",
            "type": "function"
        },
        {
            "constant": true,
            "inputs": [],
            "name": "A",
            "outputs": [
                {
                    "name": "",
                    "type": "string"
                }
            ],
            "payable": false,
            "stateMutability": "view",
            "type": "function"
        },
        {
            "constant": true,
            "inputs": [
                {
                    "name": "",
                    "type": "address"
                }
            ],
            "name": "receiversState",
            "outputs": [
                {
                    "name": "z1",
                    "type": "string"
                },
                {
                    "name": "z2",
                    "type": "bytes"
                },
                {
                    "name": "bx",
                    "type": "uint256"
                },
                {
                    "name": "by",
                    "type": "uint256"
                },
                {
                    "name": "c",
                    "type": "uint256"
                },
                {
                    "name": "r",
                    "type": "uint256"
                },
                {
                    "name": "state",
                    "type": "uint8"
                }
            ],
            "payable": false,
            "stateMutability": "view",
            "type": "function"
        },
        {
            "inputs": [
                {
                    "name": "_sender",
                    "type": "address"
                },
                {
                    "name": "_receivers",
                    "type": "address[]"
                },
                {
                    "name": "_vx",
                    "type": "uint256"
                },
                {
                    "name": "_vy",
                    "type": "uint256"
                },
                {
                    "name": "_hashIPFS",
                    "type": "string"
                },
                {
                    "name": "_A",
                    "type": "string"
                },
                {
                    "name": "_term1",
                    "type": "uint256"
                },
                {
                    "name": "_term2",
                    "type": "uint256"
                }
            ],
            "payable": true,
            "stateMutability": "payable",
            "type": "constructor"
        }
    ],
    "bytecode": "608060405260405162001ddc38038062001ddc83398101806040526101008110156200002a57600080fd5b8151602083018051919392830192916401000000008111156200004c57600080fd5b820160208101848111156200006057600080fd5b81518560208202830111640100000000821117156200007e57600080fd5b50506020820151604083015160609093018051929591949192640100000000811115620000aa57600080fd5b82016020810184811115620000be57600080fd5b8151640100000000811182820187101715620000d957600080fd5b50509291906020018051640100000000811115620000f657600080fd5b820160208101848111156200010a57600080fd5b81516401000000008111828201871017156200012557600080fd5b505060208201516040909201519093509091506000341162000193576040517f08c379a000000000000000000000000000000000000000000000000000000000815260040180806020018281038252602d81526020018062001daf602d913960400191505060405180910390fd5b808210620001ed576040517f08c379a000000000000000000000000000000000000000000000000000000000815260040180806020018281038252602981526020018062001d866029913960400191505060405180910390fd5b60008054600160a060020a031916600160a060020a038a1617905586516200021d9060019060208a0190620002e2565b5060005b6001548110156200028c576001600260006001848154811015156200024257fe5b6000918252602080832090910154600160a060020a031683528201929092526040019020600601805460ff191660018360058111156200027e57fe5b021790555060010162000221565b506000600355600486905560058590558351620002b19060069060208701906200034c565b508251620002c79060079060208601906200034c565b5042600a556008919091556009555062000414945050505050565b8280548282559060005260206000209081019282156200033a579160200282015b828111156200033a5782518254600160a060020a031916600160a060020a0390911617825560209092019160019091019062000303565b5062000348929150620003cd565b5090565b828054600181600116156101000203166002900490600052602060002090601f016020900481019282601f106200038f57805160ff1916838001178555620003bf565b82800160010185558215620003bf579182015b82811115620003bf578251825591602001919060010190620003a2565b5062000348929150620003f7565b620003f491905b8082111562000348578054600160a060020a0319168155600101620003d4565b90565b620003f491905b80821115620003485760008155600101620003fe565b61196280620004246000396000f3fe608060405234801561001057600080fd5b5060043610610154576000357c01000000000000000000000000000000000000000000000000000000009004806367e404ce116100d5578063bfd772fc11610099578063bfd772fc146103fe578063cd12a4b01461041b578063ea8a1af014610423578063eeeac01e1461042b578063f446c1d014610433578063ff7edf421461043b57610154565b806367e404ce146103c25780637a308a4c146103e6578063997da8d414610173578063a1cbf5f9146103ee578063be9a6555146103f657610154565b80634c87c67d1161011c5780634c87c67d1461024c5780634e8c0bd6146102545780635727dc5c1461025c57806357dc3742146102645780636349ca371461039c57610154565b806303a507be146101595780630dbe671f146101735780631bab58f51461017b57806329008824146102165780633b4a082814610244575b600080fd5b610161610570565b60408051918252519081900360200190f35b610161610594565b6101a16004803603602081101561019157600080fd5b5035600160a060020a0316610599565b6040805160208082528351818301528351919283929083019185019080838360005b838110156101db5781810151838201526020016101c3565b50505050905090810190601f1680156102085780820380516001836020036101000a031916815260200191505b509250505060405180910390f35b6102426004803603604081101561022c57600080fd5b50600160a060020a038135169060200135610824565b005b610161610bfc565b610161610c02565b610161610c08565b610161610c0e565b610242600480360360a081101561027a57600080fd5b81019060208101813564010000000081111561029557600080fd5b8201836020820111156102a757600080fd5b803590602001918460018302840111640100000000831117156102c957600080fd5b91908080601f016020809104026020016040519081016040528093929190818152602001838380828437600092019190915250929594936020810193503591505064010000000081111561031c57600080fd5b82018360208201111561032e57600080fd5b8035906020019184600183028401116401000000008311171561035057600080fd5b91908080601f0160208091040260200160405190810160405280939291908181526020018383808284376000920191909152509295505082359350505060208101359060400135610c13565b610161600480360360208110156103b257600080fd5b5035600160a060020a0316610d48565b6103ca610d66565b60408051600160a060020a039092168252519081900360200190f35b610161610d75565b6101a1610d99565b610161610e27565b6103ca6004803603602081101561041457600080fd5b5035610e2d565b610161610e55565b610242610e5b565b610161610f27565b6101a1610f31565b6104616004803603602081101561045157600080fd5b5035600160a060020a0316610f8c565b60405180806020018060200188815260200187815260200186815260200185815260200184600581111561049157fe5b60ff16815260200183810383528a818151815260200191508051906020019080838360005b838110156104ce5781810151838201526020016104b6565b50505050905090810190601f1680156104fb5780820380516001836020036101000a031916815260200191505b5083810382528951815289516020918201918b019080838360005b8381101561052e578181015183820152602001610516565b50505050905090810190601f16801561055b5780820380516001836020036101000a031916815260200191505b50995050505050505050505060405180910390f35b7f79be667ef9dcbbac55a06295ce870b07029bfcdb2dce28d959f2815b16f8179881565b600081565b60606000600160a060020a03831660009081526002602052604090206006015460ff1660058111156105c757fe5b1415610607575060408051808201909152600a81527f6e6f742065786973747300000000000000000000000000000000000000000000602082015261081f565b6001600160a060020a03831660009081526002602052604090206006015460ff16600581111561063357fe5b1415610673575060408051808201909152600781527f6372656174656400000000000000000000000000000000000000000000000000602082015261081f565b6002600160a060020a03831660009081526002602052604090206006015460ff16600581111561069f57fe5b14156106df575060408051808201909152600981527f63616e63656c6c65640000000000000000000000000000000000000000000000602082015261081f565b6003600160a060020a03831660009081526002602052604090206006015460ff16600581111561070b57fe5b141561074b575060408051808201909152600881527f6163636570746564000000000000000000000000000000000000000000000000602082015261081f565b6004600160a060020a03831660009081526002602052604090206006015460ff16600581111561077757fe5b14156107b7575060408051808201909152600881527f66696e6973686564000000000000000000000000000000000000000000000000602082015261081f565b6005600160a060020a03831660009081526002602052604090206006015460ff1660058111156107e357fe5b141561081f575060408051808201909152600881527f72656a656374656400000000000000000000000000000000000000000000000060208201525b919050565b600080600080600080600854600a540142101580610846575060015460035410155b15156108865760405160e560020a62461bcd02815260040180806020018281038252605c815260200180611868605c913960600191505060405180910390fd5b600054600160a060020a031633146108d25760405160e560020a62461bcd02815260040180806020018281038252602681526020018061181c6026913960400191505060405180910390fd5b61092c877f79be667ef9dcbbac55a06295ce870b07029bfcdb2dce28d959f2815b16f817987f483ada7726a3c4655da4fbfc0e1108a8fd17b448a68554199c47d08ffb10d4b860006401000003d01963ffffffff6110e716565b600160a060020a038a1660009081526002602081905260408220908101546003820154600490920154949a509298506109739392916401000003d01963ffffffff6110e716565b90945092506109938686868660006401000003d01963ffffffff61112116565b60045491935091508214156109dc5760405160e560020a62461bcd0281526004018080602001828103825260238152602001806118e66023913960400191505060405180910390fd5b600554811415610a205760405160e560020a62461bcd0281526004018080602001828103825260238152602001806118e66023913960400191505060405180910390fd5b6040513390303180156108fc02916000818181858888f19350505050158015610a4d573d6000803e3d6000fd5b5060005b600154811015610bf1578760026000600184815481101515610a6f57fe5b6000918252602080832090910154600160a060020a03168352820192909252604001902060050155600360026000600184815481101515610aac57fe5b6000918252602080832090910154600160a060020a0316835282019290925260400190206006015460ff166005811115610ae257fe5b1415610b4257600460026000600184815481101515610afd57fe5b6000918252602080832090910154600160a060020a031683528201929092526040019020600601805460ff19166001836005811115610b3857fe5b0217905550610be9565b600160026000600184815481101515610b5757fe5b6000918252602080832090910154600160a060020a0316835282019290925260400190206006015460ff166005811115610b8d57fe5b1415610be957600560026000600184815481101515610ba857fe5b6000918252602080832090910154600160a060020a031683528201929092526040019020600601805460ff19166001836005811115610be357fe5b02179055505b600101610a51565b505050505050505050565b60095481565b60085481565b60045481565b600781565b600854600a54014210610c5a5760405160e560020a62461bcd0281526004018080602001828103825260228152602001806118c46022913960400191505060405180910390fd5b60013360009081526002602052604090206006015460ff166005811115610c7d57fe5b14610cbc5760405160e560020a62461bcd02815260040180806020018281038252602e815260200180611909602e913960400191505060405180910390fd5b6003805460010190553360009081526002602090815260409091208651610ce592880190611732565b503360009081526002602090815260409091208551610d0c92600190920191870190611732565b503360009081526002602081905260409091209081019390935560038084019290925560048301556006909101805460ff191690911790555050565b600160a060020a031660009081526002602052604090206005015490565b600054600160a060020a031681565b7f483ada7726a3c4655da4fbfc0e1108a8fd17b448a68554199c47d08ffb10d4b881565b6006805460408051602060026001851615610100026000190190941693909304601f81018490048402820184019092528181529291830182828015610e1f5780601f10610df457610100808354040283529160200191610e1f565b820191906000526020600020905b815481529060010190602001808311610e0257829003601f168201915b505050505081565b600a5481565b6001805482908110610e3b57fe5b600091825260209091200154600160a060020a0316905081565b60055481565b600954600a5401421015610ea35760405160e560020a62461bcd0281526004018080602001828103825260268152602001806118426026913960400191505060405180910390fd5b60033360009081526002602052604090206006015460ff166005811115610ec657fe5b14610f055760405160e560020a62461bcd02815260040180806020018281038252602f8152602001806117ed602f913960400191505060405180910390fd5b336000908152600260208190526040909120600601805460ff19169091179055565b6401000003d01981565b6007805460408051602060026001851615610100026000190190941693909304601f81018490048402820184019092528181529291830182828015610e1f5780601f10610df457610100808354040283529160200191610e1f565b600260208181526000928352604092839020805484516001821615610100026000190190911693909304601f810183900483028401830190945283835292839183018282801561101d5780601f10610ff25761010080835404028352916020019161101d565b820191906000526020600020905b81548152906001019060200180831161100057829003601f168201915b505050505090806001018054600181600116156101000203166002900480601f0160208091040260200160405190810160405280929190818152602001828054600181600116156101000203166002900480156110bb5780601f10611090576101008083540402835291602001916110bb565b820191906000526020600020905b81548152906001019060200180831161109e57829003601f168201915b505050600284015460038501546004860154600587015460069097015495969295919450925060ff1687565b60008060008060006110fe8a8a8a60018b8b6111a4565b9250925092506111108383838961121d565b945094505050509550959350505050565b6000808080808a89141561116c578580151561113957fe5b888b081515611152575060009350839250611199915050565b6111608b8b60018a8a61127c565b91945092509050611185565b61117d8b8b60018c8c60018c6113ba565b919450925090505b6111918383838961121d565b945094505050505b965096945050505050565b600080808815156111bc575086915085905084611211565b8860008060015b83156112085760018416156111e9576111e18383838f8f8f8e6113ba565b919450925090505b6002840493506111fc8c8c8c8c8c61127c565b919d509b5099506111c3565b91955093509150505b96509650969350505050565b600080600061122c858561166c565b905060008480151561123a57fe5b828309905060008580151561124b57fe5b828a09905060008680151561125c57fe5b8780151561126657fe5b8486098a09919a91995090975050505050505050565b600080808515156112945750869150859050846113af565b6000848015156112a057fe5b898a0990506000858015156112b157fe5b898a0990506000868015156112c257fe5b898a0990506000878015156112d357fe5b888015156112dd57fe5b848e0960040990506000888015156112f157fe5b898015156112fb57fe5b8a80151561130557fe5b8586098c098a80151561131457fe5b876003090890508880151561132557fe5b8980151561132f57fe5b8384088a038a80151561133e57fe5b8384090894508880151561134e57fe5b8980151561135857fe5b8a80151561136257fe5b8687096008098a038a80151561137457fe5b8b80151561137e57fe5b888d03860884090893508880151561139257fe5b8980151561139c57fe5b8c8e096002099497509295509293505050505b955095509592505050565b60008080891580156113ca575088155b156113dc57508591508490508361165f565b861580156113e8575085155b156113fa57508891508790508661165f565b6114026117b0565b8480151561140c57fe5b898a0981528480151561141b57fe5b81518a0960208201528480151561142e57fe5b86870960408201528480151561144057fe5b6040820151870960608201526040805160808101909152808680151561146257fe5b60408401518e0981526020018680151561147857fe5b60608401518d0981526020018680151561148e57fe5b83518b098152602001868015156114a157fe5b60208401518a099052604081015181519192501415806114c957506060810151602082015114155b151561151f576040805160e560020a62461bcd02815260206004820152601e60248201527f557365206a6163446f75626c652066756e6374696f6e20696e73746561640000604482015290519081900360640190fd5b6115276117b0565b8580151561153157fe5b82516040840151908803900881528580151561154957fe5b60208301516060840151908803900860208201528580151561156757fe5b8151800960408201528580151561157a57fe5b8151604083015109606082015260008680151561159357fe5b60608301518803888015156115a457fe5b60208501518009089050868015156115b857fe5b878015156115c257fe5b888015156115cc57fe5b60408501518651096002098803820890506000878015156115e957fe5b888015156115f357fe5b838a038a80151561160057fe5b60408701518851090860208501510990508780151561161b57fe5b8880151561162557fe5b606085015160208701510989038208905060008880151561164257fe5b8980151561164c57fe5b8b8f098551099297509095509093505050505b9750975097945050505050565b6000821580159061167d5750818314155b801561168857508115155b15156116de576040805160e560020a62461bcd02815260206004820152600e60248201527f496e76616c6964206e756d626572000000000000000000000000000000000000604482015290519081900360640190fd5b6000600183825b86156117275786828115156116f657fe5b049050828680151561170457fe5b8780151561170e57fe5b85840988038608828902909303979094509192506116e5565b509195945050505050565b828054600181600116156101000203166002900490600052602060002090601f016020900481019282601f1061177357805160ff19168380011785556117a0565b828001600101855582156117a0579182015b828111156117a0578251825591602001919060010190611785565b506117ac9291506117cf565b5090565b6080604051908101604052806004906020820280388339509192915050565b6117e991905b808211156117ac57600081556001016117d5565b9056fe4f6e6c7920726563656976657273207769746820276163636570746564272073746174652063616e2063616e63656c4f6e6c792073656e646572206f66207468652064656c69766572792063616e2066696e6973685468652074696d656f7574207465726d3220686173206e6f74206265656e20726561636865645468652074696d656f7574207465726d3120686173206e6f74206265656e207265616368656420616e64206e6f7420616c6c207265636569766572732068617665206265656e206163636570746564207468652064656c69766572795468652074696d656f7574207465726d3120686173206265656e20726561636865645620616e642047785b72695d2b4269785b63695d20617265206e6f7420657175616c734f6e6c79207265636569766572732077697468202763726561746564272073746174652063616e20616363657074a165627a7a723058204750bbca4675f3c1a41973068dafaf9debbc1ac690229cd930fa5c8c08a83a2d002954696d656f7574207465726d32206d7573742062652067726561746572207468616e205f7465726d3153656e6465722068617320746f2073656e642061206465706f736974206f66206d696e696d756e203120776569",
    "sourcePath": "c:/Users/Usuario/Documents/UIB/SECOM/notificacions/prova/PatentConfidentialEDeliveryWithoutTTP-master/contracts/ConfidentialMultipartyRegisteredEDeliveryWithoutTTP.sol",
    "compiler": {
        "name": "solc",
        "version": "0.5.3+commit.10d17f24"
    },
    "functionHashes": {
        "A()": "f446c1d0",
        "AA()": "997da8d4",
        "BB()": "5727dc5c",
        "GX()": "03a507be",
        "GY()": "7a308a4c",
        "PP()": "eeeac01e",
        "a()": "0dbe671f",
        "accept(string,bytes,uint256,uint256,uint256)": "57dc3742",
        "cancel()": "ea8a1af0",
        "finish(address,uint256)": "29008824",
        "getR(address)": "6349ca37",
        "getState(address)": "1bab58f5",
        "hashIPFS()": "a1cbf5f9",
        "receivers(uint256)": "bfd772fc",
        "receiversState(address)": "ff7edf42",
        "sender()": "67e404ce",
        "start()": "be9a6555",
        "term1()": "4c87c67d",
        "term2()": "3b4a0828",
        "vx()": "4e8c0bd6",
        "vy()": "cd12a4b0"
    },
    "gasEstimates": {
        "creation": {
            "codeDepositCost": "1299600",
            "executionCost": "infinite",
            "totalCost": "infinite"
        },
        "external": {
            "A()": "infinite",
            "AA()": "270",
            "BB()": "270",
            "GX()": "227",
            "GY()": "248",
            "PP()": "294",
            "a()": "249",
            "accept(string,bytes,uint256,uint256,uint256)": "infinite",
            "cancel()": "infinite",
            "finish(address,uint256)": "infinite",
            "getR(address)": "778",
            "getState(address)": "infinite",
            "hashIPFS()": "infinite",
            "receivers(uint256)": "914",
            "receiversState(address)": "infinite",
            "sender()": "579",
            "start()": "514",
            "term1()": "426",
            "term2()": "515",
            "vx()": "448",
            "vy()": "447"
        }
    }
}