{
  "abi": [
    {
      "inputs": [],
      "stateMutability": "nonpayable",
      "type": "constructor"
    },
    {
      "inputs": [],
      "name": "A",
      "outputs": [
        {
          "internalType": "string",
          "name": "",
          "type": "string"
        }
      ],
      "stateMutability": "view",
      "type": "function"
    },
    {
      "inputs": [],
      "name": "AA",
      "outputs": [
        {
          "internalType": "uint256",
          "name": "",
          "type": "uint256"
        }
      ],
      "stateMutability": "view",
      "type": "function"
    },
    {
      "inputs": [],
      "name": "BB",
      "outputs": [
        {
          "internalType": "uint256",
          "name": "",
          "type": "uint256"
        }
      ],
      "stateMutability": "view",
      "type": "function"
    },
    {
      "inputs": [],
      "name": "GX",
      "outputs": [
        {
          "internalType": "uint256",
          "name": "",
          "type": "uint256"
        }
      ],
      "stateMutability": "view",
      "type": "function"
    },
    {
      "inputs": [],
      "name": "GY",
      "outputs": [
        {
          "internalType": "uint256",
          "name": "",
          "type": "uint256"
        }
      ],
      "stateMutability": "view",
      "type": "function"
    },
    {
      "inputs": [],
      "name": "PP",
      "outputs": [
        {
          "internalType": "uint256",
          "name": "",
          "type": "uint256"
        }
      ],
      "stateMutability": "view",
      "type": "function"
    },
    {
      "inputs": [],
      "name": "a",
      "outputs": [
        {
          "internalType": "uint256",
          "name": "",
          "type": "uint256"
        }
      ],
      "stateMutability": "view",
      "type": "function"
    },
    {
      "inputs": [
        {
          "internalType": "string",
          "name": "_z1",
          "type": "string"
        },
        {
          "internalType": "bytes",
          "name": "_z2",
          "type": "bytes"
        },
        {
          "internalType": "uint256",
          "name": "_bx",
          "type": "uint256"
        },
        {
          "internalType": "uint256",
          "name": "_by",
          "type": "uint256"
        },
        {
          "internalType": "uint256",
          "name": "_c",
          "type": "uint256"
        }
      ],
      "name": "accept",
      "outputs": [],
      "stateMutability": "nonpayable",
      "type": "function"
    },
    {
      "inputs": [],
      "name": "cancel",
      "outputs": [],
      "stateMutability": "nonpayable",
      "type": "function"
    },
    {
      "inputs": [
        {
          "internalType": "address",
          "name": "_receiver",
          "type": "address"
        },
        {
          "internalType": "uint256",
          "name": "_r",
          "type": "uint256"
        }
      ],
      "name": "finish",
      "outputs": [],
      "stateMutability": "nonpayable",
      "type": "function"
    },
    {
      "inputs": [
        {
          "internalType": "address",
          "name": "_receiver",
          "type": "address"
        }
      ],
      "name": "getR",
      "outputs": [
        {
          "internalType": "uint256",
          "name": "",
          "type": "uint256"
        }
      ],
      "stateMutability": "view",
      "type": "function"
    },
    {
      "inputs": [
        {
          "internalType": "address",
          "name": "_receiver",
          "type": "address"
        }
      ],
      "name": "getState",
      "outputs": [
        {
          "internalType": "string",
          "name": "",
          "type": "string"
        }
      ],
      "stateMutability": "view",
      "type": "function"
    },
    {
      "inputs": [],
      "name": "hashIPFS",
      "outputs": [
        {
          "internalType": "string",
          "name": "",
          "type": "string"
        }
      ],
      "stateMutability": "view",
      "type": "function"
    },
    {
      "inputs": [
        {
          "internalType": "address",
          "name": "_sender",
          "type": "address"
        },
        {
          "internalType": "address[]",
          "name": "_receivers",
          "type": "address[]"
        },
        {
          "internalType": "uint256",
          "name": "_vx",
          "type": "uint256"
        },
        {
          "internalType": "uint256",
          "name": "_vy",
          "type": "uint256"
        },
        {
          "internalType": "string",
          "name": "_hashIPFS",
          "type": "string"
        },
        {
          "internalType": "string",
          "name": "_A",
          "type": "string"
        },
        {
          "internalType": "uint256",
          "name": "_term1",
          "type": "uint256"
        },
        {
          "internalType": "uint256",
          "name": "_term2",
          "type": "uint256"
        }
      ],
      "name": "initialize",
      "outputs": [],
      "stateMutability": "payable",
      "type": "function"
    },
    {
      "inputs": [],
      "name": "isBase",
      "outputs": [
        {
          "internalType": "bool",
          "name": "",
          "type": "bool"
        }
      ],
      "stateMutability": "view",
      "type": "function"
    },
    {
      "inputs": [
        {
          "internalType": "uint256",
          "name": "",
          "type": "uint256"
        }
      ],
      "name": "receivers",
      "outputs": [
        {
          "internalType": "address",
          "name": "",
          "type": "address"
        }
      ],
      "stateMutability": "view",
      "type": "function"
    },
    {
      "inputs": [
        {
          "internalType": "address",
          "name": "",
          "type": "address"
        }
      ],
      "name": "receiversState",
      "outputs": [
        {
          "internalType": "string",
          "name": "z1",
          "type": "string"
        },
        {
          "internalType": "bytes",
          "name": "z2",
          "type": "bytes"
        },
        {
          "internalType": "uint256",
          "name": "bx",
          "type": "uint256"
        },
        {
          "internalType": "uint256",
          "name": "by",
          "type": "uint256"
        },
        {
          "internalType": "uint256",
          "name": "c",
          "type": "uint256"
        },
        {
          "internalType": "uint256",
          "name": "r",
          "type": "uint256"
        },
        {
          "internalType": "enum ConfidentialMultipartyRegisteredEDeliveryWithoutTTP.State",
          "name": "state",
          "type": "uint8"
        }
      ],
      "stateMutability": "view",
      "type": "function"
    },
    {
      "inputs": [],
      "name": "sender",
      "outputs": [
        {
          "internalType": "address",
          "name": "",
          "type": "address"
        }
      ],
      "stateMutability": "view",
      "type": "function"
    },
    {
      "inputs": [],
      "name": "start",
      "outputs": [
        {
          "internalType": "uint256",
          "name": "",
          "type": "uint256"
        }
      ],
      "stateMutability": "view",
      "type": "function"
    },
    {
      "inputs": [],
      "name": "term1",
      "outputs": [
        {
          "internalType": "uint256",
          "name": "",
          "type": "uint256"
        }
      ],
      "stateMutability": "view",
      "type": "function"
    },
    {
      "inputs": [],
      "name": "term2",
      "outputs": [
        {
          "internalType": "uint256",
          "name": "",
          "type": "uint256"
        }
      ],
      "stateMutability": "view",
      "type": "function"
    },
    {
      "inputs": [],
      "name": "vx",
      "outputs": [
        {
          "internalType": "uint256",
          "name": "",
          "type": "uint256"
        }
      ],
      "stateMutability": "view",
      "type": "function"
    },
    {
      "inputs": [],
      "name": "vy",
      "outputs": [
        {
          "internalType": "uint256",
          "name": "",
          "type": "uint256"
        }
      ],
      "stateMutability": "view",
      "type": "function"
    }
  ],
  "devdoc": {
    "kind": "dev",
    "methods": {},
    "version": 1
  },
  "evm": {
    "assembly": "    /* \"ConfidentialMultipartyRegisteredEDeliveryWithoutTTP.sol\":14891:21107  contract ConfidentialMultipartyRegisteredEDeliveryWithoutTTP {\r... */\n  mstore(0x40, 0x80)\n    /* \"ConfidentialMultipartyRegisteredEDeliveryWithoutTTP.sol\":16298:16413  constructor () public{\r... */\n  callvalue\n  dup1\n  iszero\n  tag_1\n  jumpi\n  0x00\n  dup1\n  revert\ntag_1:\n  pop\n    /* \"ConfidentialMultipartyRegisteredEDeliveryWithoutTTP.sol\":16401:16405  true */\n  0x01\n    /* \"ConfidentialMultipartyRegisteredEDeliveryWithoutTTP.sol\":16392:16398  isBase */\n  0x0b\n  0x00\n    /* \"ConfidentialMultipartyRegisteredEDeliveryWithoutTTP.sol\":16392:16405  isBase = true */\n  0x0100\n  exp\n  dup2\n  sload\n  dup2\n  0xff\n  mul\n  not\n  and\n  swap1\n  dup4\n  iszero\n  iszero\n  mul\n  or\n  swap1\n  sstore\n  pop\n    /* \"ConfidentialMultipartyRegisteredEDeliveryWithoutTTP.sol\":14891:21107  contract ConfidentialMultipartyRegisteredEDeliveryWithoutTTP {\r... */\n  dataSize(sub_0)\n  dup1\n  dataOffset(sub_0)\n  0x00\n  codecopy\n  0x00\n  return\nstop\n\nsub_0: assembly {\n        /* \"ConfidentialMultipartyRegisteredEDeliveryWithoutTTP.sol\":14891:21107  contract ConfidentialMultipartyRegisteredEDeliveryWithoutTTP {\r... */\n      mstore(0x40, 0x80)\n      jumpi(tag_1, lt(calldatasize, 0x04))\n      shr(0xe0, calldataload(0x00))\n      dup1\n      0x7a308a4c\n      gt\n      tag_25\n      jumpi\n      dup1\n      0xbfd772fc\n      gt\n      tag_26\n      jumpi\n      dup1\n      0xbfd772fc\n      eq\n      tag_19\n      jumpi\n      dup1\n      0xcd12a4b0\n      eq\n      tag_20\n      jumpi\n      dup1\n      0xea8a1af0\n      eq\n      tag_21\n      jumpi\n      dup1\n      0xeeeac01e\n      eq\n      tag_22\n      jumpi\n      dup1\n      0xf446c1d0\n      eq\n      tag_23\n      jumpi\n      dup1\n      0xff7edf42\n      eq\n      tag_24\n      jumpi\n      jump(tag_1)\n    tag_26:\n      dup1\n      0x7a308a4c\n      eq\n      tag_13\n      jumpi\n      dup1\n      0x7f80069a\n      eq\n      tag_14\n      jumpi\n      dup1\n      0x872b2223\n      eq\n      tag_15\n      jumpi\n      dup1\n      0x997da8d4\n      eq\n      tag_16\n      jumpi\n      dup1\n      0xa1cbf5f9\n      eq\n      tag_17\n      jumpi\n      dup1\n      0xbe9a6555\n      eq\n      tag_18\n      jumpi\n      jump(tag_1)\n    tag_25:\n      dup1\n      0x4c87c67d\n      gt\n      tag_27\n      jumpi\n      dup1\n      0x4c87c67d\n      eq\n      tag_7\n      jumpi\n      dup1\n      0x4e8c0bd6\n      eq\n      tag_8\n      jumpi\n      dup1\n      0x5727dc5c\n      eq\n      tag_9\n      jumpi\n      dup1\n      0x57dc3742\n      eq\n      tag_10\n      jumpi\n      dup1\n      0x6349ca37\n      eq\n      tag_11\n      jumpi\n      dup1\n      0x67e404ce\n      eq\n      tag_12\n      jumpi\n      jump(tag_1)\n    tag_27:\n      dup1\n      0x03a507be\n      eq\n      tag_2\n      jumpi\n      dup1\n      0x0dbe671f\n      eq\n      tag_3\n      jumpi\n      dup1\n      0x1bab58f5\n      eq\n      tag_4\n      jumpi\n      dup1\n      0x29008824\n      eq\n      tag_5\n      jumpi\n      dup1\n      0x3b4a0828\n      eq\n      tag_6\n      jumpi\n    tag_1:\n      0x00\n      dup1\n      revert\n        /* \"ConfidentialMultipartyRegisteredEDeliveryWithoutTTP.sol\":15597:15692  uint256 public constant GX = 0x79BE667EF9DCBBAC55A06295CE870B07029BFCDB2DCE28D959F2815B16F81798 */\n    tag_2:\n      callvalue\n      dup1\n      iszero\n      tag_28\n      jumpi\n      0x00\n      dup1\n      revert\n    tag_28:\n      pop\n      tag_29\n      tag_30\n      jump\t// in\n    tag_29:\n      mload(0x40)\n      dup1\n      dup3\n      dup2\n      mstore\n      0x20\n      add\n      swap2\n      pop\n      pop\n      mload(0x40)\n      dup1\n      swap2\n      sub\n      swap1\n      return\n        /* \"ConfidentialMultipartyRegisteredEDeliveryWithoutTTP.sol\":15977:16006  uint256 public constant a = 0 */\n    tag_3:\n      callvalue\n      dup1\n      iszero\n      tag_31\n      jumpi\n      0x00\n      dup1\n      revert\n    tag_31:\n      pop\n      tag_32\n      tag_33\n      jump\t// in\n    tag_32:\n      mload(0x40)\n      dup1\n      dup3\n      dup2\n      mstore\n      0x20\n      add\n      swap2\n      pop\n      pop\n      mload(0x40)\n      dup1\n      swap2\n      sub\n      swap1\n      return\n        /* \"ConfidentialMultipartyRegisteredEDeliveryWithoutTTP.sol\":20212:20918  function getState(address _receiver) public view returns (string memory) {\r... */\n    tag_4:\n      callvalue\n      dup1\n      iszero\n      tag_34\n      jumpi\n      0x00\n      dup1\n      revert\n    tag_34:\n      pop\n      tag_35\n      0x04\n      dup1\n      calldatasize\n      sub\n      0x20\n      dup2\n      lt\n      iszero\n      tag_36\n      jumpi\n      0x00\n      dup1\n      revert\n    tag_36:\n      dup2\n      add\n      swap1\n      dup1\n      dup1\n      calldataload\n      0xffffffffffffffffffffffffffffffffffffffff\n      and\n      swap1\n      0x20\n      add\n      swap1\n      swap3\n      swap2\n      swap1\n      pop\n      pop\n      pop\n      tag_37\n      jump\t// in\n    tag_35:\n      mload(0x40)\n      dup1\n      dup1\n      0x20\n      add\n      dup3\n      dup2\n      sub\n      dup3\n      mstore\n      dup4\n      dup2\n      dup2\n      mload\n      dup2\n      mstore\n      0x20\n      add\n      swap2\n      pop\n      dup1\n      mload\n      swap1\n      0x20\n      add\n      swap1\n      dup1\n      dup4\n      dup4\n      0x00\n    tag_38:\n      dup4\n      dup2\n      lt\n      iszero\n      tag_40\n      jumpi\n      dup1\n      dup3\n      add\n      mload\n      dup2\n      dup5\n      add\n      mstore\n      0x20\n      dup2\n      add\n      swap1\n      pop\n      jump(tag_38)\n    tag_40:\n      pop\n      pop\n      pop\n      pop\n      swap1\n      pop\n      swap1\n      dup2\n      add\n      swap1\n      0x1f\n      and\n      dup1\n      iszero\n      tag_41\n      jumpi\n      dup1\n      dup3\n      sub\n      dup1\n      mload\n      0x01\n      dup4\n      0x20\n      sub\n      0x0100\n      exp\n      sub\n      not\n      and\n      dup2\n      mstore\n      0x20\n      add\n      swap2\n      pop\n    tag_41:\n      pop\n      swap3\n      pop\n      pop\n      pop\n      mload(0x40)\n      dup1\n      swap2\n      sub\n      swap1\n      return\n        /* \"ConfidentialMultipartyRegisteredEDeliveryWithoutTTP.sol\":18197:19765  function finish(address _receiver, uint256 _r) public {\r... */\n    tag_5:\n      callvalue\n      dup1\n      iszero\n      tag_42\n      jumpi\n      0x00\n      dup1\n      revert\n    tag_42:\n      pop\n      tag_43\n      0x04\n      dup1\n      calldatasize\n      sub\n      0x40\n      dup2\n      lt\n      iszero\n      tag_44\n      jumpi\n      0x00\n      dup1\n      revert\n    tag_44:\n      dup2\n      add\n      swap1\n      dup1\n      dup1\n      calldataload\n      0xffffffffffffffffffffffffffffffffffffffff\n      and\n      swap1\n      0x20\n      add\n      swap1\n      swap3\n      swap2\n      swap1\n      dup1\n      calldataload\n      swap1\n      0x20\n      add\n      swap1\n      swap3\n      swap2\n      swap1\n      pop\n      pop\n      pop\n      tag_45\n      jump\t// in\n    tag_43:\n      stop\n        /* \"ConfidentialMultipartyRegisteredEDeliveryWithoutTTP.sol\":16199:16216  uint public term2 */\n    tag_6:\n      callvalue\n      dup1\n      iszero\n      tag_46\n      jumpi\n      0x00\n      dup1\n      revert\n    tag_46:\n      pop\n      tag_47\n      tag_48\n      jump\t// in\n    tag_47:\n      mload(0x40)\n      dup1\n      dup3\n      dup2\n      mstore\n      0x20\n      add\n      swap2\n      pop\n      pop\n      mload(0x40)\n      dup1\n      swap2\n      sub\n      swap1\n      return\n        /* \"ConfidentialMultipartyRegisteredEDeliveryWithoutTTP.sol\":16175:16192  uint public term1 */\n    tag_7:\n      callvalue\n      dup1\n      iszero\n      tag_49\n      jumpi\n      0x00\n      dup1\n      revert\n    tag_49:\n      pop\n      tag_50\n      tag_51\n      jump\t// in\n    tag_50:\n      mload(0x40)\n      dup1\n      dup3\n      dup2\n      mstore\n      0x20\n      add\n      swap2\n      pop\n      pop\n      mload(0x40)\n      dup1\n      swap2\n      sub\n      swap1\n      return\n        /* \"ConfidentialMultipartyRegisteredEDeliveryWithoutTTP.sol\":15479:15496  uint256 public vx */\n    tag_8:\n      callvalue\n      dup1\n      iszero\n      tag_52\n      jumpi\n      0x00\n      dup1\n      revert\n    tag_52:\n      pop\n      tag_53\n      tag_54\n      jump\t// in\n    tag_53:\n      mload(0x40)\n      dup1\n      dup3\n      dup2\n      mstore\n      0x20\n      add\n      swap2\n      pop\n      pop\n      mload(0x40)\n      dup1\n      swap2\n      sub\n      swap1\n      return\n        /* \"ConfidentialMultipartyRegisteredEDeliveryWithoutTTP.sol\":15838:15868  uint256 public constant BB = 7 */\n    tag_9:\n      callvalue\n      dup1\n      iszero\n      tag_55\n      jumpi\n      0x00\n      dup1\n      revert\n    tag_55:\n      pop\n      tag_56\n      tag_57\n      jump\t// in\n    tag_56:\n      mload(0x40)\n      dup1\n      dup3\n      dup2\n      mstore\n      0x20\n      add\n      swap2\n      pop\n      pop\n      mload(0x40)\n      dup1\n      swap2\n      sub\n      swap1\n      return\n        /* \"ConfidentialMultipartyRegisteredEDeliveryWithoutTTP.sol\":17480:18120  function accept(string memory _z1, bytes memory _z2, uint256 _bx, uint256 _by, uint256 _c) public {\r... */\n    tag_10:\n      callvalue\n      dup1\n      iszero\n      tag_58\n      jumpi\n      0x00\n      dup1\n      revert\n    tag_58:\n      pop\n      tag_59\n      0x04\n      dup1\n      calldatasize\n      sub\n      0xa0\n      dup2\n      lt\n      iszero\n      tag_60\n      jumpi\n      0x00\n      dup1\n      revert\n    tag_60:\n      dup2\n      add\n      swap1\n      dup1\n      dup1\n      calldataload\n      swap1\n      0x20\n      add\n      swap1\n      0x0100000000\n      dup2\n      gt\n      iszero\n      tag_61\n      jumpi\n      0x00\n      dup1\n      revert\n    tag_61:\n      dup3\n      add\n      dup4\n      0x20\n      dup3\n      add\n      gt\n      iszero\n      tag_62\n      jumpi\n      0x00\n      dup1\n      revert\n    tag_62:\n      dup1\n      calldataload\n      swap1\n      0x20\n      add\n      swap2\n      dup5\n      0x01\n      dup4\n      mul\n      dup5\n      add\n      gt\n      0x0100000000\n      dup4\n      gt\n      or\n      iszero\n      tag_63\n      jumpi\n      0x00\n      dup1\n      revert\n    tag_63:\n      swap2\n      swap1\n      dup1\n      dup1\n      0x1f\n      add\n      0x20\n      dup1\n      swap2\n      div\n      mul\n      0x20\n      add\n      mload(0x40)\n      swap1\n      dup2\n      add\n      0x40\n      mstore\n      dup1\n      swap4\n      swap3\n      swap2\n      swap1\n      dup2\n      dup2\n      mstore\n      0x20\n      add\n      dup4\n      dup4\n      dup1\n      dup3\n      dup5\n      calldatacopy\n      0x00\n      dup2\n      dup5\n      add\n      mstore\n      not(0x1f)\n      0x1f\n      dup3\n      add\n      and\n      swap1\n      pop\n      dup1\n      dup4\n      add\n      swap3\n      pop\n      pop\n      pop\n      pop\n      pop\n      pop\n      pop\n      swap2\n      swap3\n      swap2\n      swap3\n      swap1\n      dup1\n      calldataload\n      swap1\n      0x20\n      add\n      swap1\n      0x0100000000\n      dup2\n      gt\n      iszero\n      tag_64\n      jumpi\n      0x00\n      dup1\n      revert\n    tag_64:\n      dup3\n      add\n      dup4\n      0x20\n      dup3\n      add\n      gt\n      iszero\n      tag_65\n      jumpi\n      0x00\n      dup1\n      revert\n    tag_65:\n      dup1\n      calldataload\n      swap1\n      0x20\n      add\n      swap2\n      dup5\n      0x01\n      dup4\n      mul\n      dup5\n      add\n      gt\n      0x0100000000\n      dup4\n      gt\n      or\n      iszero\n      tag_66\n      jumpi\n      0x00\n      dup1\n      revert\n    tag_66:\n      swap2\n      swap1\n      dup1\n      dup1\n      0x1f\n      add\n      0x20\n      dup1\n      swap2\n      div\n      mul\n      0x20\n      add\n      mload(0x40)\n      swap1\n      dup2\n      add\n      0x40\n      mstore\n      dup1\n      swap4\n      swap3\n      swap2\n      swap1\n      dup2\n      dup2\n      mstore\n      0x20\n      add\n      dup4\n      dup4\n      dup1\n      dup3\n      dup5\n      calldatacopy\n      0x00\n      dup2\n      dup5\n      add\n      mstore\n      not(0x1f)\n      0x1f\n      dup3\n      add\n      and\n      swap1\n      pop\n      dup1\n      dup4\n      add\n      swap3\n      pop\n      pop\n      pop\n      pop\n      pop\n      pop\n      pop\n      swap2\n      swap3\n      swap2\n      swap3\n      swap1\n      dup1\n      calldataload\n      swap1\n      0x20\n      add\n      swap1\n      swap3\n      swap2\n      swap1\n      dup1\n      calldataload\n      swap1\n      0x20\n      add\n      swap1\n      swap3\n      swap2\n      swap1\n      dup1\n      calldataload\n      swap1\n      0x20\n      add\n      swap1\n      swap3\n      swap2\n      swap1\n      pop\n      pop\n      pop\n      tag_67\n      jump\t// in\n    tag_59:\n      stop\n        /* \"ConfidentialMultipartyRegisteredEDeliveryWithoutTTP.sol\":20982:21098  function getR(address _receiver) public view returns (uint256) {\r... */\n    tag_11:\n      callvalue\n      dup1\n      iszero\n      tag_68\n      jumpi\n      0x00\n      dup1\n      revert\n    tag_68:\n      pop\n      tag_69\n      0x04\n      dup1\n      calldatasize\n      sub\n      0x20\n      dup2\n      lt\n      iszero\n      tag_70\n      jumpi\n      0x00\n      dup1\n      revert\n    tag_70:\n      dup2\n      add\n      swap1\n      dup1\n      dup1\n      calldataload\n      0xffffffffffffffffffffffffffffffffffffffff\n      and\n      swap1\n      0x20\n      add\n      swap1\n      swap3\n      swap2\n      swap1\n      pop\n      pop\n      pop\n      tag_71\n      jump\t// in\n    tag_69:\n      mload(0x40)\n      dup1\n      dup3\n      dup2\n      mstore\n      0x20\n      add\n      swap2\n      pop\n      pop\n      mload(0x40)\n      dup1\n      swap2\n      sub\n      swap1\n      return\n        /* \"ConfidentialMultipartyRegisteredEDeliveryWithoutTTP.sol\":15308:15329  address public sender */\n    tag_12:\n      callvalue\n      dup1\n      iszero\n      tag_72\n      jumpi\n      0x00\n      dup1\n      revert\n    tag_72:\n      pop\n      tag_73\n      tag_74\n      jump\t// in\n    tag_73:\n      mload(0x40)\n      dup1\n      dup3\n      0xffffffffffffffffffffffffffffffffffffffff\n      and\n      dup2\n      mstore\n      0x20\n      add\n      swap2\n      pop\n      pop\n      mload(0x40)\n      dup1\n      swap2\n      sub\n      swap1\n      return\n        /* \"ConfidentialMultipartyRegisteredEDeliveryWithoutTTP.sol\":15699:15794  uint256 public constant GY = 0x483ADA7726A3C4655DA4FBFC0E1108A8FD17B448A68554199C47D08FFB10D4B8 */\n    tag_13:\n      callvalue\n      dup1\n      iszero\n      tag_75\n      jumpi\n      0x00\n      dup1\n      revert\n    tag_75:\n      pop\n      tag_76\n      tag_77\n      jump\t// in\n    tag_76:\n      mload(0x40)\n      dup1\n      dup3\n      dup2\n      mstore\n      0x20\n      add\n      swap2\n      pop\n      pop\n      mload(0x40)\n      dup1\n      swap2\n      sub\n      swap1\n      return\n        /* \"ConfidentialMultipartyRegisteredEDeliveryWithoutTTP.sol\":16268:16286  bool public isBase */\n    tag_14:\n      callvalue\n      dup1\n      iszero\n      tag_78\n      jumpi\n      0x00\n      dup1\n      revert\n    tag_78:\n      pop\n      tag_79\n      tag_80\n      jump\t// in\n    tag_79:\n      mload(0x40)\n      dup1\n      dup3\n      iszero\n      iszero\n      dup2\n      mstore\n      0x20\n      add\n      swap2\n      pop\n      pop\n      mload(0x40)\n      dup1\n      swap2\n      sub\n      swap1\n      return\n        /* \"ConfidentialMultipartyRegisteredEDeliveryWithoutTTP.sol\":16476:17420  function initialize(address _sender, address[] memory _receivers, uint256 _vx, uint256 _vy, string memory _hashIPFS, string memory _A, uint _term1, uint _term2) public payable {\r... */\n    tag_15:\n      tag_81\n      0x04\n      dup1\n      calldatasize\n      sub\n      0x0100\n      dup2\n      lt\n      iszero\n      tag_82\n      jumpi\n      0x00\n      dup1\n      revert\n    tag_82:\n      dup2\n      add\n      swap1\n      dup1\n      dup1\n      calldataload\n      0xffffffffffffffffffffffffffffffffffffffff\n      and\n      swap1\n      0x20\n      add\n      swap1\n      swap3\n      swap2\n      swap1\n      dup1\n      calldataload\n      swap1\n      0x20\n      add\n      swap1\n      0x0100000000\n      dup2\n      gt\n      iszero\n      tag_83\n      jumpi\n      0x00\n      dup1\n      revert\n    tag_83:\n      dup3\n      add\n      dup4\n      0x20\n      dup3\n      add\n      gt\n      iszero\n      tag_84\n      jumpi\n      0x00\n      dup1\n      revert\n    tag_84:\n      dup1\n      calldataload\n      swap1\n      0x20\n      add\n      swap2\n      dup5\n      0x20\n      dup4\n      mul\n      dup5\n      add\n      gt\n      0x0100000000\n      dup4\n      gt\n      or\n      iszero\n      tag_85\n      jumpi\n      0x00\n      dup1\n      revert\n    tag_85:\n      swap2\n      swap1\n      dup1\n      dup1\n      0x20\n      mul\n      0x20\n      add\n      mload(0x40)\n      swap1\n      dup2\n      add\n      0x40\n      mstore\n      dup1\n      swap4\n      swap3\n      swap2\n      swap1\n      dup2\n      dup2\n      mstore\n      0x20\n      add\n      dup4\n      dup4\n      0x20\n      mul\n      dup1\n      dup3\n      dup5\n      calldatacopy\n      0x00\n      dup2\n      dup5\n      add\n      mstore\n      not(0x1f)\n      0x1f\n      dup3\n      add\n      and\n      swap1\n      pop\n      dup1\n      dup4\n      add\n      swap3\n      pop\n      pop\n      pop\n      pop\n      pop\n      pop\n      pop\n      swap2\n      swap3\n      swap2\n      swap3\n      swap1\n      dup1\n      calldataload\n      swap1\n      0x20\n      add\n      swap1\n      swap3\n      swap2\n      swap1\n      dup1\n      calldataload\n      swap1\n      0x20\n      add\n      swap1\n      swap3\n      swap2\n      swap1\n      dup1\n      calldataload\n      swap1\n      0x20\n      add\n      swap1\n      0x0100000000\n      dup2\n      gt\n      iszero\n      tag_86\n      jumpi\n      0x00\n      dup1\n      revert\n    tag_86:\n      dup3\n      add\n      dup4\n      0x20\n      dup3\n      add\n      gt\n      iszero\n      tag_87\n      jumpi\n      0x00\n      dup1\n      revert\n    tag_87:\n      dup1\n      calldataload\n      swap1\n      0x20\n      add\n      swap2\n      dup5\n      0x01\n      dup4\n      mul\n      dup5\n      add\n      gt\n      0x0100000000\n      dup4\n      gt\n      or\n      iszero\n      tag_88\n      jumpi\n      0x00\n      dup1\n      revert\n    tag_88:\n      swap2\n      swap1\n      dup1\n      dup1\n      0x1f\n      add\n      0x20\n      dup1\n      swap2\n      div\n      mul\n      0x20\n      add\n      mload(0x40)\n      swap1\n      dup2\n      add\n      0x40\n      mstore\n      dup1\n      swap4\n      swap3\n      swap2\n      swap1\n      dup2\n      dup2\n      mstore\n      0x20\n      add\n      dup4\n      dup4\n      dup1\n      dup3\n      dup5\n      calldatacopy\n      0x00\n      dup2\n      dup5\n      add\n      mstore\n      not(0x1f)\n      0x1f\n      dup3\n      add\n      and\n      swap1\n      pop\n      dup1\n      dup4\n      add\n      swap3\n      pop\n      pop\n      pop\n      pop\n      pop\n      pop\n      pop\n      swap2\n      swap3\n      swap2\n      swap3\n      swap1\n      dup1\n      calldataload\n      swap1\n      0x20\n      add\n      swap1\n      0x0100000000\n      dup2\n      gt\n      iszero\n      tag_89\n      jumpi\n      0x00\n      dup1\n      revert\n    tag_89:\n      dup3\n      add\n      dup4\n      0x20\n      dup3\n      add\n      gt\n      iszero\n      tag_90\n      jumpi\n      0x00\n      dup1\n      revert\n    tag_90:\n      dup1\n      calldataload\n      swap1\n      0x20\n      add\n      swap2\n      dup5\n      0x01\n      dup4\n      mul\n      dup5\n      add\n      gt\n      0x0100000000\n      dup4\n      gt\n      or\n      iszero\n      tag_91\n      jumpi\n      0x00\n      dup1\n      revert\n    tag_91:\n      swap2\n      swap1\n      dup1\n      dup1\n      0x1f\n      add\n      0x20\n      dup1\n      swap2\n      div\n      mul\n      0x20\n      add\n      mload(0x40)\n      swap1\n      dup2\n      add\n      0x40\n      mstore\n      dup1\n      swap4\n      swap3\n      swap2\n      swap1\n      dup2\n      dup2\n      mstore\n      0x20\n      add\n      dup4\n      dup4\n      dup1\n      dup3\n      dup5\n      calldatacopy\n      0x00\n      dup2\n      dup5\n      add\n      mstore\n      not(0x1f)\n      0x1f\n      dup3\n      add\n      and\n      swap1\n      pop\n      dup1\n      dup4\n      add\n      swap3\n      pop\n      pop\n      pop\n      pop\n      pop\n      pop\n      pop\n      swap2\n      swap3\n      swap2\n      swap3\n      swap1\n      dup1\n      calldataload\n      swap1\n      0x20\n      add\n      swap1\n      swap3\n      swap2\n      swap1\n      dup1\n      calldataload\n      swap1\n      0x20\n      add\n      swap1\n      swap3\n      swap2\n      swap1\n      pop\n      pop\n      pop\n      tag_92\n      jump\t// in\n    tag_81:\n      stop\n        /* \"ConfidentialMultipartyRegisteredEDeliveryWithoutTTP.sol\":15801:15831  uint256 public constant AA = 0 */\n    tag_16:\n      callvalue\n      dup1\n      iszero\n      tag_93\n      jumpi\n      0x00\n      dup1\n      revert\n    tag_93:\n      pop\n      tag_94\n      tag_95\n      jump\t// in\n    tag_94:\n      mload(0x40)\n      dup1\n      dup3\n      dup2\n      mstore\n      0x20\n      add\n      swap2\n      pop\n      pop\n      mload(0x40)\n      dup1\n      swap2\n      sub\n      swap1\n      return\n        /* \"ConfidentialMultipartyRegisteredEDeliveryWithoutTTP.sol\":15527:15549  string public hashIPFS */\n    tag_17:\n      callvalue\n      dup1\n      iszero\n      tag_96\n      jumpi\n      0x00\n      dup1\n      revert\n    tag_96:\n      pop\n      tag_97\n      tag_98\n      jump\t// in\n    tag_97:\n      mload(0x40)\n      dup1\n      dup1\n      0x20\n      add\n      dup3\n      dup2\n      sub\n      dup3\n      mstore\n      dup4\n      dup2\n      dup2\n      mload\n      dup2\n      mstore\n      0x20\n      add\n      swap2\n      pop\n      dup1\n      mload\n      swap1\n      0x20\n      add\n      swap1\n      dup1\n      dup4\n      dup4\n      0x00\n    tag_99:\n      dup4\n      dup2\n      lt\n      iszero\n      tag_101\n      jumpi\n      dup1\n      dup3\n      add\n      mload\n      dup2\n      dup5\n      add\n      mstore\n      0x20\n      dup2\n      add\n      swap1\n      pop\n      jump(tag_99)\n    tag_101:\n      pop\n      pop\n      pop\n      pop\n      swap1\n      pop\n      swap1\n      dup2\n      add\n      swap1\n      0x1f\n      and\n      dup1\n      iszero\n      tag_102\n      jumpi\n      dup1\n      dup3\n      sub\n      dup1\n      mload\n      0x01\n      dup4\n      0x20\n      sub\n      0x0100\n      exp\n      sub\n      not\n      and\n      dup2\n      mstore\n      0x20\n      add\n      swap2\n      pop\n    tag_102:\n      pop\n      swap3\n      pop\n      pop\n      pop\n      mload(0x40)\n      dup1\n      swap2\n      sub\n      swap1\n      return\n        /* \"ConfidentialMultipartyRegisteredEDeliveryWithoutTTP.sol\":16242:16259  uint public start */\n    tag_18:\n      callvalue\n      dup1\n      iszero\n      tag_103\n      jumpi\n      0x00\n      dup1\n      revert\n    tag_103:\n      pop\n      tag_104\n      tag_105\n      jump\t// in\n    tag_104:\n      mload(0x40)\n      dup1\n      dup3\n      dup2\n      mstore\n      0x20\n      add\n      swap2\n      pop\n      pop\n      mload(0x40)\n      dup1\n      swap2\n      sub\n      swap1\n      return\n        /* \"ConfidentialMultipartyRegisteredEDeliveryWithoutTTP.sol\":15336:15362  address[] public receivers */\n    tag_19:\n      callvalue\n      dup1\n      iszero\n      tag_106\n      jumpi\n      0x00\n      dup1\n      revert\n    tag_106:\n      pop\n      tag_107\n      0x04\n      dup1\n      calldatasize\n      sub\n      0x20\n      dup2\n      lt\n      iszero\n      tag_108\n      jumpi\n      0x00\n      dup1\n      revert\n    tag_108:\n      dup2\n      add\n      swap1\n      dup1\n      dup1\n      calldataload\n      swap1\n      0x20\n      add\n      swap1\n      swap3\n      swap2\n      swap1\n      pop\n      pop\n      pop\n      tag_109\n      jump\t// in\n    tag_107:\n      mload(0x40)\n      dup1\n      dup3\n      0xffffffffffffffffffffffffffffffffffffffff\n      and\n      dup2\n      mstore\n      0x20\n      add\n      swap2\n      pop\n      pop\n      mload(0x40)\n      dup1\n      swap2\n      sub\n      swap1\n      return\n        /* \"ConfidentialMultipartyRegisteredEDeliveryWithoutTTP.sol\":15503:15520  uint256 public vy */\n    tag_20:\n      callvalue\n      dup1\n      iszero\n      tag_110\n      jumpi\n      0x00\n      dup1\n      revert\n    tag_110:\n      pop\n      tag_111\n      tag_112\n      jump\t// in\n    tag_111:\n      mload(0x40)\n      dup1\n      dup3\n      dup2\n      mstore\n      0x20\n      add\n      swap2\n      pop\n      pop\n      mload(0x40)\n      dup1\n      swap2\n      sub\n      swap1\n      return\n        /* \"ConfidentialMultipartyRegisteredEDeliveryWithoutTTP.sol\":19831:20126  function cancel() public {\r... */\n    tag_21:\n      callvalue\n      dup1\n      iszero\n      tag_113\n      jumpi\n      0x00\n      dup1\n      revert\n    tag_113:\n      pop\n      tag_114\n      tag_115\n      jump\t// in\n    tag_114:\n      stop\n        /* \"ConfidentialMultipartyRegisteredEDeliveryWithoutTTP.sol\":15875:15970  uint256 public constant PP = 0xFFFFFFFFFFFFFFFFFFFFFFFFFFFFFFFFFFFFFFFFFFFFFFFFFFFFFFFEFFFFFC2F */\n    tag_22:\n      callvalue\n      dup1\n      iszero\n      tag_116\n      jumpi\n      0x00\n      dup1\n      revert\n    tag_116:\n      pop\n      tag_117\n      tag_118\n      jump\t// in\n    tag_117:\n      mload(0x40)\n      dup1\n      dup3\n      dup2\n      mstore\n      0x20\n      add\n      swap2\n      pop\n      pop\n      mload(0x40)\n      dup1\n      swap2\n      sub\n      swap1\n      return\n        /* \"ConfidentialMultipartyRegisteredEDeliveryWithoutTTP.sol\":15556:15571  string public A */\n    tag_23:\n      callvalue\n      dup1\n      iszero\n      tag_119\n      jumpi\n      0x00\n      dup1\n      revert\n    tag_119:\n      pop\n      tag_120\n      tag_121\n      jump\t// in\n    tag_120:\n      mload(0x40)\n      dup1\n      dup1\n      0x20\n      add\n      dup3\n      dup2\n      sub\n      dup3\n      mstore\n      dup4\n      dup2\n      dup2\n      mload\n      dup2\n      mstore\n      0x20\n      add\n      swap2\n      pop\n      dup1\n      mload\n      swap1\n      0x20\n      add\n      swap1\n      dup1\n      dup4\n      dup4\n      0x00\n    tag_122:\n      dup4\n      dup2\n      lt\n      iszero\n      tag_124\n      jumpi\n      dup1\n      dup3\n      add\n      mload\n      dup2\n      dup5\n      add\n      mstore\n      0x20\n      dup2\n      add\n      swap1\n      pop\n      jump(tag_122)\n    tag_124:\n      pop\n      pop\n      pop\n      pop\n      swap1\n      pop\n      swap1\n      dup2\n      add\n      swap1\n      0x1f\n      and\n      dup1\n      iszero\n      tag_125\n      jumpi\n      dup1\n      dup3\n      sub\n      dup1\n      mload\n      0x01\n      dup4\n      0x20\n      sub\n      0x0100\n      exp\n      sub\n      not\n      and\n      dup2\n      mstore\n      0x20\n      add\n      swap2\n      pop\n    tag_125:\n      pop\n      swap3\n      pop\n      pop\n      pop\n      mload(0x40)\n      dup1\n      swap2\n      sub\n      swap1\n      return\n        /* \"ConfidentialMultipartyRegisteredEDeliveryWithoutTTP.sol\":15369:15425  mapping (address => ReceiverState) public receiversState */\n    tag_24:\n      callvalue\n      dup1\n      iszero\n      tag_126\n      jumpi\n      0x00\n      dup1\n      revert\n    tag_126:\n      pop\n      tag_127\n      0x04\n      dup1\n      calldatasize\n      sub\n      0x20\n      dup2\n      lt\n      iszero\n      tag_128\n      jumpi\n      0x00\n      dup1\n      revert\n    tag_128:\n      dup2\n      add\n      swap1\n      dup1\n      dup1\n      calldataload\n      0xffffffffffffffffffffffffffffffffffffffff\n      and\n      swap1\n      0x20\n      add\n      swap1\n      swap3\n      swap2\n      swap1\n      pop\n      pop\n      pop\n      tag_129\n      jump\t// in\n    tag_127:\n      mload(0x40)\n      dup1\n      dup1\n      0x20\n      add\n      dup1\n      0x20\n      add\n      dup9\n      dup2\n      mstore\n      0x20\n      add\n      dup8\n      dup2\n      mstore\n      0x20\n      add\n      dup7\n      dup2\n      mstore\n      0x20\n      add\n      dup6\n      dup2\n      mstore\n      0x20\n      add\n      dup5\n      0x05\n      dup2\n      gt\n      iszero\n      tag_130\n      jumpi\n      invalid\n    tag_130:\n      dup2\n      mstore\n      0x20\n      add\n      dup4\n      dup2\n      sub\n      dup4\n      mstore\n      dup11\n      dup2\n      dup2\n      mload\n      dup2\n      mstore\n      0x20\n      add\n      swap2\n      pop\n      dup1\n      mload\n      swap1\n      0x20\n      add\n      swap1\n      dup1\n      dup4\n      dup4\n      0x00\n    tag_131:\n      dup4\n      dup2\n      lt\n      iszero\n      tag_133\n      jumpi\n      dup1\n      dup3\n      add\n      mload\n      dup2\n      dup5\n      add\n      mstore\n      0x20\n      dup2\n      add\n      swap1\n      pop\n      jump(tag_131)\n    tag_133:\n      pop\n      pop\n      pop\n      pop\n      swap1\n      pop\n      swap1\n      dup2\n      add\n      swap1\n      0x1f\n      and\n      dup1\n      iszero\n      tag_134\n      jumpi\n      dup1\n      dup3\n      sub\n      dup1\n      mload\n      0x01\n      dup4\n      0x20\n      sub\n      0x0100\n      exp\n      sub\n      not\n      and\n      dup2\n      mstore\n      0x20\n      add\n      swap2\n      pop\n    tag_134:\n      pop\n      dup4\n      dup2\n      sub\n      dup3\n      mstore\n      dup10\n      dup2\n      dup2\n      mload\n      dup2\n      mstore\n      0x20\n      add\n      swap2\n      pop\n      dup1\n      mload\n      swap1\n      0x20\n      add\n      swap1\n      dup1\n      dup4\n      dup4\n      0x00\n    tag_135:\n      dup4\n      dup2\n      lt\n      iszero\n      tag_137\n      jumpi\n      dup1\n      dup3\n      add\n      mload\n      dup2\n      dup5\n      add\n      mstore\n      0x20\n      dup2\n      add\n      swap1\n      pop\n      jump(tag_135)\n    tag_137:\n      pop\n      pop\n      pop\n      pop\n      swap1\n      pop\n      swap1\n      dup2\n      add\n      swap1\n      0x1f\n      and\n      dup1\n      iszero\n      tag_138\n      jumpi\n      dup1\n      dup3\n      sub\n      dup1\n      mload\n      0x01\n      dup4\n      0x20\n      sub\n      0x0100\n      exp\n      sub\n      not\n      and\n      dup2\n      mstore\n      0x20\n      add\n      swap2\n      pop\n    tag_138:\n      pop\n      swap10\n      pop\n      pop\n      pop\n      pop\n      pop\n      pop\n      pop\n      pop\n      pop\n      pop\n      mload(0x40)\n      dup1\n      swap2\n      sub\n      swap1\n      return\n        /* \"ConfidentialMultipartyRegisteredEDeliveryWithoutTTP.sol\":15597:15692  uint256 public constant GX = 0x79BE667EF9DCBBAC55A06295CE870B07029BFCDB2DCE28D959F2815B16F81798 */\n    tag_30:\n        /* \"ConfidentialMultipartyRegisteredEDeliveryWithoutTTP.sol\":15626:15692  0x79BE667EF9DCBBAC55A06295CE870B07029BFCDB2DCE28D959F2815B16F81798 */\n      0x79be667ef9dcbbac55a06295ce870b07029bfcdb2dce28d959f2815b16f81798\n        /* \"ConfidentialMultipartyRegisteredEDeliveryWithoutTTP.sol\":15597:15692  uint256 public constant GX = 0x79BE667EF9DCBBAC55A06295CE870B07029BFCDB2DCE28D959F2815B16F81798 */\n      dup2\n      jump\t// out\n        /* \"ConfidentialMultipartyRegisteredEDeliveryWithoutTTP.sol\":15977:16006  uint256 public constant a = 0 */\n    tag_33:\n        /* \"ConfidentialMultipartyRegisteredEDeliveryWithoutTTP.sol\":16005:16006  0 */\n      0x00\n        /* \"ConfidentialMultipartyRegisteredEDeliveryWithoutTTP.sol\":15977:16006  uint256 public constant a = 0 */\n      dup2\n      jump\t// out\n        /* \"ConfidentialMultipartyRegisteredEDeliveryWithoutTTP.sol\":20212:20918  function getState(address _receiver) public view returns (string memory) {\r... */\n    tag_37:\n        /* \"ConfidentialMultipartyRegisteredEDeliveryWithoutTTP.sol\":20270:20283  string memory */\n      0x60\n        /* \"ConfidentialMultipartyRegisteredEDeliveryWithoutTTP.sol\":20333:20348  State.notexists */\n      0x00\n        /* \"ConfidentialMultipartyRegisteredEDeliveryWithoutTTP.sol\":20300:20348  receiversState[_receiver].state==State.notexists */\n      0x05\n      dup2\n      gt\n      iszero\n      tag_140\n      jumpi\n      invalid\n    tag_140:\n        /* \"ConfidentialMultipartyRegisteredEDeliveryWithoutTTP.sol\":20300:20314  receiversState */\n      0x02\n        /* \"ConfidentialMultipartyRegisteredEDeliveryWithoutTTP.sol\":20300:20325  receiversState[_receiver] */\n      0x00\n        /* \"ConfidentialMultipartyRegisteredEDeliveryWithoutTTP.sol\":20315:20324  _receiver */\n      dup5\n        /* \"ConfidentialMultipartyRegisteredEDeliveryWithoutTTP.sol\":20300:20325  receiversState[_receiver] */\n      0xffffffffffffffffffffffffffffffffffffffff\n      and\n      0xffffffffffffffffffffffffffffffffffffffff\n      and\n      dup2\n      mstore\n      0x20\n      add\n      swap1\n      dup2\n      mstore\n      0x20\n      add\n      0x00\n      keccak256\n        /* \"ConfidentialMultipartyRegisteredEDeliveryWithoutTTP.sol\":20300:20331  receiversState[_receiver].state */\n      0x06\n      add\n      0x00\n      swap1\n      sload\n      swap1\n      0x0100\n      exp\n      swap1\n      div\n      0xff\n      and\n        /* \"ConfidentialMultipartyRegisteredEDeliveryWithoutTTP.sol\":20300:20348  receiversState[_receiver].state==State.notexists */\n      0x05\n      dup2\n      gt\n      iszero\n      tag_141\n      jumpi\n      invalid\n    tag_141:\n      eq\n        /* \"ConfidentialMultipartyRegisteredEDeliveryWithoutTTP.sol\":20296:20911  if (receiversState[_receiver].state==State.notexists) {\r... */\n      iszero\n      tag_142\n      jumpi\n        /* \"ConfidentialMultipartyRegisteredEDeliveryWithoutTTP.sol\":20365:20384  return \"not exists\" */\n      mload(0x40)\n      dup1\n      0x40\n      add\n      0x40\n      mstore\n      dup1\n      0x0a\n      dup2\n      mstore\n      0x20\n      add\n      0x6e6f742065786973747300000000000000000000000000000000000000000000\n      dup2\n      mstore\n      pop\n      swap1\n      pop\n      jump(tag_139)\n        /* \"ConfidentialMultipartyRegisteredEDeliveryWithoutTTP.sol\":20296:20911  if (receiversState[_receiver].state==State.notexists) {\r... */\n    tag_142:\n        /* \"ConfidentialMultipartyRegisteredEDeliveryWithoutTTP.sol\":20439:20452  State.created */\n      0x01\n        /* \"ConfidentialMultipartyRegisteredEDeliveryWithoutTTP.sol\":20406:20452  receiversState[_receiver].state==State.created */\n      0x05\n      dup2\n      gt\n      iszero\n      tag_144\n      jumpi\n      invalid\n    tag_144:\n        /* \"ConfidentialMultipartyRegisteredEDeliveryWithoutTTP.sol\":20406:20420  receiversState */\n      0x02\n        /* \"ConfidentialMultipartyRegisteredEDeliveryWithoutTTP.sol\":20406:20431  receiversState[_receiver] */\n      0x00\n        /* \"ConfidentialMultipartyRegisteredEDeliveryWithoutTTP.sol\":20421:20430  _receiver */\n      dup5\n        /* \"ConfidentialMultipartyRegisteredEDeliveryWithoutTTP.sol\":20406:20431  receiversState[_receiver] */\n      0xffffffffffffffffffffffffffffffffffffffff\n      and\n      0xffffffffffffffffffffffffffffffffffffffff\n      and\n      dup2\n      mstore\n      0x20\n      add\n      swap1\n      dup2\n      mstore\n      0x20\n      add\n      0x00\n      keccak256\n        /* \"ConfidentialMultipartyRegisteredEDeliveryWithoutTTP.sol\":20406:20437  receiversState[_receiver].state */\n      0x06\n      add\n      0x00\n      swap1\n      sload\n      swap1\n      0x0100\n      exp\n      swap1\n      div\n      0xff\n      and\n        /* \"ConfidentialMultipartyRegisteredEDeliveryWithoutTTP.sol\":20406:20452  receiversState[_receiver].state==State.created */\n      0x05\n      dup2\n      gt\n      iszero\n      tag_145\n      jumpi\n      invalid\n    tag_145:\n      eq\n        /* \"ConfidentialMultipartyRegisteredEDeliveryWithoutTTP.sol\":20402:20911  if (receiversState[_receiver].state==State.created) {\r... */\n      iszero\n      tag_146\n      jumpi\n        /* \"ConfidentialMultipartyRegisteredEDeliveryWithoutTTP.sol\":20469:20485  return \"created\" */\n      mload(0x40)\n      dup1\n      0x40\n      add\n      0x40\n      mstore\n      dup1\n      0x07\n      dup2\n      mstore\n      0x20\n      add\n      0x6372656174656400000000000000000000000000000000000000000000000000\n      dup2\n      mstore\n      pop\n      swap1\n      pop\n      jump(tag_139)\n        /* \"ConfidentialMultipartyRegisteredEDeliveryWithoutTTP.sol\":20402:20911  if (receiversState[_receiver].state==State.created) {\r... */\n    tag_146:\n        /* \"ConfidentialMultipartyRegisteredEDeliveryWithoutTTP.sol\":20540:20555  State.cancelled */\n      0x02\n        /* \"ConfidentialMultipartyRegisteredEDeliveryWithoutTTP.sol\":20507:20555  receiversState[_receiver].state==State.cancelled */\n      0x05\n      dup2\n      gt\n      iszero\n      tag_148\n      jumpi\n      invalid\n    tag_148:\n        /* \"ConfidentialMultipartyRegisteredEDeliveryWithoutTTP.sol\":20507:20521  receiversState */\n      0x02\n        /* \"ConfidentialMultipartyRegisteredEDeliveryWithoutTTP.sol\":20507:20532  receiversState[_receiver] */\n      0x00\n        /* \"ConfidentialMultipartyRegisteredEDeliveryWithoutTTP.sol\":20522:20531  _receiver */\n      dup5\n        /* \"ConfidentialMultipartyRegisteredEDeliveryWithoutTTP.sol\":20507:20532  receiversState[_receiver] */\n      0xffffffffffffffffffffffffffffffffffffffff\n      and\n      0xffffffffffffffffffffffffffffffffffffffff\n      and\n      dup2\n      mstore\n      0x20\n      add\n      swap1\n      dup2\n      mstore\n      0x20\n      add\n      0x00\n      keccak256\n        /* \"ConfidentialMultipartyRegisteredEDeliveryWithoutTTP.sol\":20507:20538  receiversState[_receiver].state */\n      0x06\n      add\n      0x00\n      swap1\n      sload\n      swap1\n      0x0100\n      exp\n      swap1\n      div\n      0xff\n      and\n        /* \"ConfidentialMultipartyRegisteredEDeliveryWithoutTTP.sol\":20507:20555  receiversState[_receiver].state==State.cancelled */\n      0x05\n      dup2\n      gt\n      iszero\n      tag_149\n      jumpi\n      invalid\n    tag_149:\n      eq\n        /* \"ConfidentialMultipartyRegisteredEDeliveryWithoutTTP.sol\":20503:20911  if (receiversState[_receiver].state==State.cancelled) {\r... */\n      iszero\n      tag_150\n      jumpi\n        /* \"ConfidentialMultipartyRegisteredEDeliveryWithoutTTP.sol\":20572:20590  return \"cancelled\" */\n      mload(0x40)\n      dup1\n      0x40\n      add\n      0x40\n      mstore\n      dup1\n      0x09\n      dup2\n      mstore\n      0x20\n      add\n      0x63616e63656c6c65640000000000000000000000000000000000000000000000\n      dup2\n      mstore\n      pop\n      swap1\n      pop\n      jump(tag_139)\n        /* \"ConfidentialMultipartyRegisteredEDeliveryWithoutTTP.sol\":20503:20911  if (receiversState[_receiver].state==State.cancelled) {\r... */\n    tag_150:\n        /* \"ConfidentialMultipartyRegisteredEDeliveryWithoutTTP.sol\":20645:20659  State.accepted */\n      0x03\n        /* \"ConfidentialMultipartyRegisteredEDeliveryWithoutTTP.sol\":20612:20659  receiversState[_receiver].state==State.accepted */\n      0x05\n      dup2\n      gt\n      iszero\n      tag_152\n      jumpi\n      invalid\n    tag_152:\n        /* \"ConfidentialMultipartyRegisteredEDeliveryWithoutTTP.sol\":20612:20626  receiversState */\n      0x02\n        /* \"ConfidentialMultipartyRegisteredEDeliveryWithoutTTP.sol\":20612:20637  receiversState[_receiver] */\n      0x00\n        /* \"ConfidentialMultipartyRegisteredEDeliveryWithoutTTP.sol\":20627:20636  _receiver */\n      dup5\n        /* \"ConfidentialMultipartyRegisteredEDeliveryWithoutTTP.sol\":20612:20637  receiversState[_receiver] */\n      0xffffffffffffffffffffffffffffffffffffffff\n      and\n      0xffffffffffffffffffffffffffffffffffffffff\n      and\n      dup2\n      mstore\n      0x20\n      add\n      swap1\n      dup2\n      mstore\n      0x20\n      add\n      0x00\n      keccak256\n        /* \"ConfidentialMultipartyRegisteredEDeliveryWithoutTTP.sol\":20612:20643  receiversState[_receiver].state */\n      0x06\n      add\n      0x00\n      swap1\n      sload\n      swap1\n      0x0100\n      exp\n      swap1\n      div\n      0xff\n      and\n        /* \"ConfidentialMultipartyRegisteredEDeliveryWithoutTTP.sol\":20612:20659  receiversState[_receiver].state==State.accepted */\n      0x05\n      dup2\n      gt\n      iszero\n      tag_153\n      jumpi\n      invalid\n    tag_153:\n      eq\n        /* \"ConfidentialMultipartyRegisteredEDeliveryWithoutTTP.sol\":20608:20911  if (receiversState[_receiver].state==State.accepted) {\r... */\n      iszero\n      tag_154\n      jumpi\n        /* \"ConfidentialMultipartyRegisteredEDeliveryWithoutTTP.sol\":20676:20693  return \"accepted\" */\n      mload(0x40)\n      dup1\n      0x40\n      add\n      0x40\n      mstore\n      dup1\n      0x08\n      dup2\n      mstore\n      0x20\n      add\n      0x6163636570746564000000000000000000000000000000000000000000000000\n      dup2\n      mstore\n      pop\n      swap1\n      pop\n      jump(tag_139)\n        /* \"ConfidentialMultipartyRegisteredEDeliveryWithoutTTP.sol\":20608:20911  if (receiversState[_receiver].state==State.accepted) {\r... */\n    tag_154:\n        /* \"ConfidentialMultipartyRegisteredEDeliveryWithoutTTP.sol\":20748:20762  State.finished */\n      0x04\n        /* \"ConfidentialMultipartyRegisteredEDeliveryWithoutTTP.sol\":20715:20762  receiversState[_receiver].state==State.finished */\n      0x05\n      dup2\n      gt\n      iszero\n      tag_156\n      jumpi\n      invalid\n    tag_156:\n        /* \"ConfidentialMultipartyRegisteredEDeliveryWithoutTTP.sol\":20715:20729  receiversState */\n      0x02\n        /* \"ConfidentialMultipartyRegisteredEDeliveryWithoutTTP.sol\":20715:20740  receiversState[_receiver] */\n      0x00\n        /* \"ConfidentialMultipartyRegisteredEDeliveryWithoutTTP.sol\":20730:20739  _receiver */\n      dup5\n        /* \"ConfidentialMultipartyRegisteredEDeliveryWithoutTTP.sol\":20715:20740  receiversState[_receiver] */\n      0xffffffffffffffffffffffffffffffffffffffff\n      and\n      0xffffffffffffffffffffffffffffffffffffffff\n      and\n      dup2\n      mstore\n      0x20\n      add\n      swap1\n      dup2\n      mstore\n      0x20\n      add\n      0x00\n      keccak256\n        /* \"ConfidentialMultipartyRegisteredEDeliveryWithoutTTP.sol\":20715:20746  receiversState[_receiver].state */\n      0x06\n      add\n      0x00\n      swap1\n      sload\n      swap1\n      0x0100\n      exp\n      swap1\n      div\n      0xff\n      and\n        /* \"ConfidentialMultipartyRegisteredEDeliveryWithoutTTP.sol\":20715:20762  receiversState[_receiver].state==State.finished */\n      0x05\n      dup2\n      gt\n      iszero\n      tag_157\n      jumpi\n      invalid\n    tag_157:\n      eq\n        /* \"ConfidentialMultipartyRegisteredEDeliveryWithoutTTP.sol\":20711:20911  if (receiversState[_receiver].state==State.finished) {\r... */\n      iszero\n      tag_158\n      jumpi\n        /* \"ConfidentialMultipartyRegisteredEDeliveryWithoutTTP.sol\":20779:20796  return \"finished\" */\n      mload(0x40)\n      dup1\n      0x40\n      add\n      0x40\n      mstore\n      dup1\n      0x08\n      dup2\n      mstore\n      0x20\n      add\n      0x66696e6973686564000000000000000000000000000000000000000000000000\n      dup2\n      mstore\n      pop\n      swap1\n      pop\n      jump(tag_139)\n        /* \"ConfidentialMultipartyRegisteredEDeliveryWithoutTTP.sol\":20711:20911  if (receiversState[_receiver].state==State.finished) {\r... */\n    tag_158:\n        /* \"ConfidentialMultipartyRegisteredEDeliveryWithoutTTP.sol\":20851:20865  State.rejected */\n      0x05\n        /* \"ConfidentialMultipartyRegisteredEDeliveryWithoutTTP.sol\":20818:20865  receiversState[_receiver].state==State.rejected */\n      dup1\n      dup2\n      gt\n      iszero\n      tag_160\n      jumpi\n      invalid\n    tag_160:\n        /* \"ConfidentialMultipartyRegisteredEDeliveryWithoutTTP.sol\":20818:20832  receiversState */\n      0x02\n        /* \"ConfidentialMultipartyRegisteredEDeliveryWithoutTTP.sol\":20818:20843  receiversState[_receiver] */\n      0x00\n        /* \"ConfidentialMultipartyRegisteredEDeliveryWithoutTTP.sol\":20833:20842  _receiver */\n      dup5\n        /* \"ConfidentialMultipartyRegisteredEDeliveryWithoutTTP.sol\":20818:20843  receiversState[_receiver] */\n      0xffffffffffffffffffffffffffffffffffffffff\n      and\n      0xffffffffffffffffffffffffffffffffffffffff\n      and\n      dup2\n      mstore\n      0x20\n      add\n      swap1\n      dup2\n      mstore\n      0x20\n      add\n      0x00\n      keccak256\n        /* \"ConfidentialMultipartyRegisteredEDeliveryWithoutTTP.sol\":20818:20849  receiversState[_receiver].state */\n      0x06\n      add\n      0x00\n      swap1\n      sload\n      swap1\n      0x0100\n      exp\n      swap1\n      div\n      0xff\n      and\n        /* \"ConfidentialMultipartyRegisteredEDeliveryWithoutTTP.sol\":20818:20865  receiversState[_receiver].state==State.rejected */\n      0x05\n      dup2\n      gt\n      iszero\n      tag_161\n      jumpi\n      invalid\n    tag_161:\n      eq\n        /* \"ConfidentialMultipartyRegisteredEDeliveryWithoutTTP.sol\":20814:20911  if (receiversState[_receiver].state==State.rejected) {\r... */\n      iszero\n      tag_162\n      jumpi\n        /* \"ConfidentialMultipartyRegisteredEDeliveryWithoutTTP.sol\":20882:20899  return \"rejected\" */\n      mload(0x40)\n      dup1\n      0x40\n      add\n      0x40\n      mstore\n      dup1\n      0x08\n      dup2\n      mstore\n      0x20\n      add\n      0x72656a6563746564000000000000000000000000000000000000000000000000\n      dup2\n      mstore\n      pop\n      swap1\n      pop\n      jump(tag_139)\n        /* \"ConfidentialMultipartyRegisteredEDeliveryWithoutTTP.sol\":20814:20911  if (receiversState[_receiver].state==State.rejected) {\r... */\n    tag_162:\n        /* \"ConfidentialMultipartyRegisteredEDeliveryWithoutTTP.sol\":20212:20918  function getState(address _receiver) public view returns (string memory) {\r... */\n    tag_139:\n      swap2\n      swap1\n      pop\n      jump\t// out\n        /* \"ConfidentialMultipartyRegisteredEDeliveryWithoutTTP.sol\":18197:19765  function finish(address _receiver, uint256 _r) public {\r... */\n    tag_45:\n        /* \"ConfidentialMultipartyRegisteredEDeliveryWithoutTTP.sol\":18262:18273  uint256 Grx */\n      0x00\n        /* \"ConfidentialMultipartyRegisteredEDeliveryWithoutTTP.sol\":18284:18295  uint256 Gry */\n      dup1\n        /* \"ConfidentialMultipartyRegisteredEDeliveryWithoutTTP.sol\":18306:18317  uint256 Bcx */\n      0x00\n        /* \"ConfidentialMultipartyRegisteredEDeliveryWithoutTTP.sol\":18328:18339  uint256 Bcy */\n      dup1\n        /* \"ConfidentialMultipartyRegisteredEDeliveryWithoutTTP.sol\":18350:18362  uint256 xAdd */\n      0x00\n        /* \"ConfidentialMultipartyRegisteredEDeliveryWithoutTTP.sol\":18373:18385  uint256 yAdd */\n      dup1\n        /* \"ConfidentialMultipartyRegisteredEDeliveryWithoutTTP.sol\":18428:18433  term1 */\n      sload(0x08)\n        /* \"ConfidentialMultipartyRegisteredEDeliveryWithoutTTP.sol\":18422:18427  start */\n      sload(0x0a)\n        /* \"ConfidentialMultipartyRegisteredEDeliveryWithoutTTP.sol\":18422:18433  start+term1 */\n      add\n        /* \"ConfidentialMultipartyRegisteredEDeliveryWithoutTTP.sol\":18415:18418  now */\n      timestamp\n        /* \"ConfidentialMultipartyRegisteredEDeliveryWithoutTTP.sol\":18415:18433  now >= start+term1 */\n      lt\n      iszero\n        /* \"ConfidentialMultipartyRegisteredEDeliveryWithoutTTP.sol\":18414:18475  (now >= start+term1) || (acceptedReceivers>=receivers.length) */\n      dup1\n      tag_164\n      jumpi\n      pop\n        /* \"ConfidentialMultipartyRegisteredEDeliveryWithoutTTP.sol\":18458:18467  receivers */\n      0x01\n        /* \"ConfidentialMultipartyRegisteredEDeliveryWithoutTTP.sol\":18458:18474  receivers.length */\n      dup1\n      sload\n      swap1\n      pop\n        /* \"ConfidentialMultipartyRegisteredEDeliveryWithoutTTP.sol\":18439:18456  acceptedReceivers */\n      sload(0x03)\n        /* \"ConfidentialMultipartyRegisteredEDeliveryWithoutTTP.sol\":18439:18474  acceptedReceivers>=receivers.length */\n      lt\n      iszero\n        /* \"ConfidentialMultipartyRegisteredEDeliveryWithoutTTP.sol\":18414:18475  (now >= start+term1) || (acceptedReceivers>=receivers.length) */\n    tag_164:\n        /* \"ConfidentialMultipartyRegisteredEDeliveryWithoutTTP.sol\":18406:18585  require((now >= start+term1) || (acceptedReceivers>=receivers.length),\r... */\n      tag_165\n      jumpi\n      mload(0x40)\n      0x08c379a000000000000000000000000000000000000000000000000000000000\n      dup2\n      mstore\n      0x04\n      add\n      dup1\n      dup1\n      0x20\n      add\n      dup3\n      dup2\n      sub\n      dup3\n      mstore\n      0x5c\n      dup2\n      mstore\n      0x20\n      add\n      dup1\n      data_6eecb43003ba4f0c87e2ec49a66848df001e8d8a31e44a142d4e41ea7a8a28b4\n      0x5c\n      swap2\n      codecopy\n      0x60\n      add\n      swap2\n      pop\n      pop\n      mload(0x40)\n      dup1\n      swap2\n      sub\n      swap1\n      revert\n    tag_165:\n        /* \"ConfidentialMultipartyRegisteredEDeliveryWithoutTTP.sol\":18617:18623  sender */\n      0x00\n      dup1\n      sload\n      swap1\n      0x0100\n      exp\n      swap1\n      div\n      0xffffffffffffffffffffffffffffffffffffffff\n      and\n        /* \"ConfidentialMultipartyRegisteredEDeliveryWithoutTTP.sol\":18605:18623  msg.sender==sender */\n      0xffffffffffffffffffffffffffffffffffffffff\n      and\n        /* \"ConfidentialMultipartyRegisteredEDeliveryWithoutTTP.sol\":18605:18615  msg.sender */\n      caller\n        /* \"ConfidentialMultipartyRegisteredEDeliveryWithoutTTP.sol\":18605:18623  msg.sender==sender */\n      0xffffffffffffffffffffffffffffffffffffffff\n      and\n      eq\n        /* \"ConfidentialMultipartyRegisteredEDeliveryWithoutTTP.sol\":18596:18666  require (msg.sender==sender, \"Only sender of the delivery can finish\") */\n      tag_166\n      jumpi\n      mload(0x40)\n      0x08c379a000000000000000000000000000000000000000000000000000000000\n      dup2\n      mstore\n      0x04\n      add\n      dup1\n      dup1\n      0x20\n      add\n      dup3\n      dup2\n      sub\n      dup3\n      mstore\n      0x26\n      dup2\n      mstore\n      0x20\n      add\n      dup1\n      data_4230ddc47652afad43b5d14fb8f1660887fc3a8c3452575068a03a61c048979d\n      0x26\n      swap2\n      codecopy\n      0x40\n      add\n      swap2\n      pop\n      pop\n      mload(0x40)\n      dup1\n      swap2\n      sub\n      swap1\n      revert\n    tag_166:\n        /* \"ConfidentialMultipartyRegisteredEDeliveryWithoutTTP.sol\":18735:18759  _r.ecMul(GX, GY, AA, PP) */\n      tag_167\n        /* \"ConfidentialMultipartyRegisteredEDeliveryWithoutTTP.sol\":15626:15692  0x79BE667EF9DCBBAC55A06295CE870B07029BFCDB2DCE28D959F2815B16F81798 */\n      0x79be667ef9dcbbac55a06295ce870b07029bfcdb2dce28d959f2815b16f81798\n        /* \"ConfidentialMultipartyRegisteredEDeliveryWithoutTTP.sol\":15728:15794  0x483ADA7726A3C4655DA4FBFC0E1108A8FD17B448A68554199C47D08FFB10D4B8 */\n      0x483ada7726a3c4655da4fbfc0e1108a8fd17b448a68554199c47d08ffb10d4b8\n        /* \"ConfidentialMultipartyRegisteredEDeliveryWithoutTTP.sol\":15830:15831  0 */\n      0x00\n        /* \"ConfidentialMultipartyRegisteredEDeliveryWithoutTTP.sol\":15904:15970  0xFFFFFFFFFFFFFFFFFFFFFFFFFFFFFFFFFFFFFFFFFFFFFFFFFFFFFFFEFFFFFC2F */\n      0xfffffffffffffffffffffffffffffffffffffffffffffffffffffffefffffc2f\n        /* \"ConfidentialMultipartyRegisteredEDeliveryWithoutTTP.sol\":18735:18737  _r */\n      dup12\n        /* \"ConfidentialMultipartyRegisteredEDeliveryWithoutTTP.sol\":18735:18743  _r.ecMul */\n      tag_168\n      swap1\n        /* \"ConfidentialMultipartyRegisteredEDeliveryWithoutTTP.sol\":18735:18759  _r.ecMul(GX, GY, AA, PP) */\n      swap5\n      swap4\n      swap3\n      swap2\n      swap1\n      0xffffffff\n      and\n      jump\t// in\n    tag_167:\n        /* \"ConfidentialMultipartyRegisteredEDeliveryWithoutTTP.sol\":18722:18759  (Grx, Gry) = _r.ecMul(GX, GY, AA, PP) */\n      dup1\n      swap7\n      pop\n      dup2\n      swap8\n      pop\n      pop\n      pop\n        /* \"ConfidentialMultipartyRegisteredEDeliveryWithoutTTP.sol\":18783:18948  receiversState[_receiver].c.ecMul(\r... */\n      tag_169\n        /* \"ConfidentialMultipartyRegisteredEDeliveryWithoutTTP.sol\":18831:18845  receiversState */\n      0x02\n        /* \"ConfidentialMultipartyRegisteredEDeliveryWithoutTTP.sol\":18831:18856  receiversState[_receiver] */\n      0x00\n        /* \"ConfidentialMultipartyRegisteredEDeliveryWithoutTTP.sol\":18846:18855  _receiver */\n      dup11\n        /* \"ConfidentialMultipartyRegisteredEDeliveryWithoutTTP.sol\":18831:18856  receiversState[_receiver] */\n      0xffffffffffffffffffffffffffffffffffffffff\n      and\n      0xffffffffffffffffffffffffffffffffffffffff\n      and\n      dup2\n      mstore\n      0x20\n      add\n      swap1\n      dup2\n      mstore\n      0x20\n      add\n      0x00\n      keccak256\n        /* \"ConfidentialMultipartyRegisteredEDeliveryWithoutTTP.sol\":18831:18859  receiversState[_receiver].bx */\n      0x02\n      add\n      sload\n        /* \"ConfidentialMultipartyRegisteredEDeliveryWithoutTTP.sol\":18874:18888  receiversState */\n      0x02\n        /* \"ConfidentialMultipartyRegisteredEDeliveryWithoutTTP.sol\":18874:18899  receiversState[_receiver] */\n      0x00\n        /* \"ConfidentialMultipartyRegisteredEDeliveryWithoutTTP.sol\":18889:18898  _receiver */\n      dup12\n        /* \"ConfidentialMultipartyRegisteredEDeliveryWithoutTTP.sol\":18874:18899  receiversState[_receiver] */\n      0xffffffffffffffffffffffffffffffffffffffff\n      and\n      0xffffffffffffffffffffffffffffffffffffffff\n      and\n      dup2\n      mstore\n      0x20\n      add\n      swap1\n      dup2\n      mstore\n      0x20\n      add\n      0x00\n      keccak256\n        /* \"ConfidentialMultipartyRegisteredEDeliveryWithoutTTP.sol\":18874:18902  receiversState[_receiver].by */\n      0x03\n      add\n      sload\n        /* \"ConfidentialMultipartyRegisteredEDeliveryWithoutTTP.sol\":15830:15831  0 */\n      0x00\n        /* \"ConfidentialMultipartyRegisteredEDeliveryWithoutTTP.sol\":15904:15970  0xFFFFFFFFFFFFFFFFFFFFFFFFFFFFFFFFFFFFFFFFFFFFFFFFFFFFFFFEFFFFFC2F */\n      0xfffffffffffffffffffffffffffffffffffffffffffffffffffffffefffffc2f\n        /* \"ConfidentialMultipartyRegisteredEDeliveryWithoutTTP.sol\":18783:18797  receiversState */\n      0x02\n        /* \"ConfidentialMultipartyRegisteredEDeliveryWithoutTTP.sol\":18783:18808  receiversState[_receiver] */\n      0x00\n        /* \"ConfidentialMultipartyRegisteredEDeliveryWithoutTTP.sol\":18798:18807  _receiver */\n      dup15\n        /* \"ConfidentialMultipartyRegisteredEDeliveryWithoutTTP.sol\":18783:18808  receiversState[_receiver] */\n      0xffffffffffffffffffffffffffffffffffffffff\n      and\n      0xffffffffffffffffffffffffffffffffffffffff\n      and\n      dup2\n      mstore\n      0x20\n      add\n      swap1\n      dup2\n      mstore\n      0x20\n      add\n      0x00\n      keccak256\n        /* \"ConfidentialMultipartyRegisteredEDeliveryWithoutTTP.sol\":18783:18810  receiversState[_receiver].c */\n      0x04\n      add\n      sload\n        /* \"ConfidentialMultipartyRegisteredEDeliveryWithoutTTP.sol\":18783:18816  receiversState[_receiver].c.ecMul */\n      tag_168\n      swap1\n        /* \"ConfidentialMultipartyRegisteredEDeliveryWithoutTTP.sol\":18783:18948  receiversState[_receiver].c.ecMul(\r... */\n      swap5\n      swap4\n      swap3\n      swap2\n      swap1\n      0xffffffff\n      and\n      jump\t// in\n    tag_169:\n        /* \"ConfidentialMultipartyRegisteredEDeliveryWithoutTTP.sol\":18770:18948  (Bcx, Bcy) = receiversState[_receiver].c.ecMul(\r... */\n      dup1\n      swap5\n      pop\n      dup2\n      swap6\n      pop\n      pop\n      pop\n        /* \"ConfidentialMultipartyRegisteredEDeliveryWithoutTTP.sol\":18974:19006  Grx.ecAdd(Gry, Bcx, Bcy, AA, PP) */\n      tag_170\n        /* \"ConfidentialMultipartyRegisteredEDeliveryWithoutTTP.sol\":18984:18987  Gry */\n      dup6\n        /* \"ConfidentialMultipartyRegisteredEDeliveryWithoutTTP.sol\":18989:18992  Bcx */\n      dup6\n        /* \"ConfidentialMultipartyRegisteredEDeliveryWithoutTTP.sol\":18994:18997  Bcy */\n      dup6\n        /* \"ConfidentialMultipartyRegisteredEDeliveryWithoutTTP.sol\":15830:15831  0 */\n      0x00\n        /* \"ConfidentialMultipartyRegisteredEDeliveryWithoutTTP.sol\":15904:15970  0xFFFFFFFFFFFFFFFFFFFFFFFFFFFFFFFFFFFFFFFFFFFFFFFFFFFFFFFEFFFFFC2F */\n      0xfffffffffffffffffffffffffffffffffffffffffffffffffffffffefffffc2f\n        /* \"ConfidentialMultipartyRegisteredEDeliveryWithoutTTP.sol\":18974:18977  Grx */\n      dup12\n        /* \"ConfidentialMultipartyRegisteredEDeliveryWithoutTTP.sol\":18974:18983  Grx.ecAdd */\n      tag_171\n      swap1\n        /* \"ConfidentialMultipartyRegisteredEDeliveryWithoutTTP.sol\":18974:19006  Grx.ecAdd(Gry, Bcx, Bcy, AA, PP) */\n      swap6\n      swap5\n      swap4\n      swap3\n      swap2\n      swap1\n      0xffffffff\n      and\n      jump\t// in\n    tag_170:\n        /* \"ConfidentialMultipartyRegisteredEDeliveryWithoutTTP.sol\":18959:19006  (xAdd, yAdd) = Grx.ecAdd(Gry, Bcx, Bcy, AA, PP) */\n      dup1\n      swap3\n      pop\n      dup2\n      swap4\n      pop\n      pop\n      pop\n        /* \"ConfidentialMultipartyRegisteredEDeliveryWithoutTTP.sol\":19030:19034  xAdd */\n      dup2\n        /* \"ConfidentialMultipartyRegisteredEDeliveryWithoutTTP.sol\":19025:19027  vx */\n      sload(0x04)\n        /* \"ConfidentialMultipartyRegisteredEDeliveryWithoutTTP.sol\":19025:19034  vx!= xAdd */\n      eq\n      iszero\n        /* \"ConfidentialMultipartyRegisteredEDeliveryWithoutTTP.sol\":19017:19074  require(vx!= xAdd, \"V and Gx[ri]+Bix[ci] are not equals\") */\n      tag_172\n      jumpi\n      mload(0x40)\n      0x08c379a000000000000000000000000000000000000000000000000000000000\n      dup2\n      mstore\n      0x04\n      add\n      dup1\n      dup1\n      0x20\n      add\n      dup3\n      dup2\n      sub\n      dup3\n      mstore\n      0x23\n      dup2\n      mstore\n      0x20\n      add\n      dup1\n      data_d755a981cc8d71bf38eb0cf889c3612458ee5bad366ff7217c0e9623e7c3e96d\n      0x23\n      swap2\n      codecopy\n      0x40\n      add\n      swap2\n      pop\n      pop\n      mload(0x40)\n      dup1\n      swap2\n      sub\n      swap1\n      revert\n    tag_172:\n        /* \"ConfidentialMultipartyRegisteredEDeliveryWithoutTTP.sol\":19099:19103  yAdd */\n      dup1\n        /* \"ConfidentialMultipartyRegisteredEDeliveryWithoutTTP.sol\":19093:19095  vy */\n      sload(0x05)\n        /* \"ConfidentialMultipartyRegisteredEDeliveryWithoutTTP.sol\":19093:19103  vy != yAdd */\n      eq\n      iszero\n        /* \"ConfidentialMultipartyRegisteredEDeliveryWithoutTTP.sol\":19085:19143  require(vy != yAdd, \"V and Gx[ri]+Bix[ci] are not equals\") */\n      tag_173\n      jumpi\n      mload(0x40)\n      0x08c379a000000000000000000000000000000000000000000000000000000000\n      dup2\n      mstore\n      0x04\n      add\n      dup1\n      dup1\n      0x20\n      add\n      dup3\n      dup2\n      sub\n      dup3\n      mstore\n      0x23\n      dup2\n      mstore\n      0x20\n      add\n      dup1\n      data_d755a981cc8d71bf38eb0cf889c3612458ee5bad366ff7217c0e9623e7c3e96d\n      0x23\n      swap2\n      codecopy\n      0x40\n      add\n      swap2\n      pop\n      pop\n      mload(0x40)\n      dup1\n      swap2\n      sub\n      swap1\n      revert\n    tag_173:\n        /* \"ConfidentialMultipartyRegisteredEDeliveryWithoutTTP.sol\":19164:19174  msg.sender */\n      caller\n        /* \"ConfidentialMultipartyRegisteredEDeliveryWithoutTTP.sol\":19164:19183  msg.sender.transfer */\n      0xffffffffffffffffffffffffffffffffffffffff\n      and\n        /* \"ConfidentialMultipartyRegisteredEDeliveryWithoutTTP.sol\":19164:19206  msg.sender.transfer(address(this).balance) */\n      0x08fc\n        /* \"ConfidentialMultipartyRegisteredEDeliveryWithoutTTP.sol\":19184:19205  address(this).balance */\n      selfbalance\n        /* \"ConfidentialMultipartyRegisteredEDeliveryWithoutTTP.sol\":19164:19206  msg.sender.transfer(address(this).balance) */\n      swap1\n      dup2\n      iszero\n      mul\n      swap1\n      mload(0x40)\n      0x00\n      mload(0x40)\n      dup1\n      dup4\n      sub\n      dup2\n      dup6\n      dup9\n      dup9\n      call\n      swap4\n      pop\n      pop\n      pop\n      pop\n      iszero\n      dup1\n      iszero\n      tag_175\n      jumpi\n      returndatasize\n      0x00\n      dup1\n      returndatacopy\n      revert(0x00, returndatasize)\n    tag_175:\n      pop\n        /* \"ConfidentialMultipartyRegisteredEDeliveryWithoutTTP.sol\":19350:19356  uint i */\n      0x00\n        /* \"ConfidentialMultipartyRegisteredEDeliveryWithoutTTP.sol\":19345:19758  for (uint i = 0; i<receivers.length; i++) {\r... */\n    tag_176:\n        /* \"ConfidentialMultipartyRegisteredEDeliveryWithoutTTP.sol\":19364:19373  receivers */\n      0x01\n        /* \"ConfidentialMultipartyRegisteredEDeliveryWithoutTTP.sol\":19364:19380  receivers.length */\n      dup1\n      sload\n      swap1\n      pop\n        /* \"ConfidentialMultipartyRegisteredEDeliveryWithoutTTP.sol\":19362:19363  i */\n      dup2\n        /* \"ConfidentialMultipartyRegisteredEDeliveryWithoutTTP.sol\":19362:19380  i<receivers.length */\n      lt\n        /* \"ConfidentialMultipartyRegisteredEDeliveryWithoutTTP.sol\":19345:19758  for (uint i = 0; i<receivers.length; i++) {\r... */\n      iszero\n      tag_177\n      jumpi\n        /* \"ConfidentialMultipartyRegisteredEDeliveryWithoutTTP.sol\":19435:19437  _r */\n      dup8\n        /* \"ConfidentialMultipartyRegisteredEDeliveryWithoutTTP.sol\":19402:19416  receiversState */\n      0x02\n        /* \"ConfidentialMultipartyRegisteredEDeliveryWithoutTTP.sol\":19402:19430  receiversState[receivers[i]] */\n      0x00\n        /* \"ConfidentialMultipartyRegisteredEDeliveryWithoutTTP.sol\":19417:19426  receivers */\n      0x01\n        /* \"ConfidentialMultipartyRegisteredEDeliveryWithoutTTP.sol\":19427:19428  i */\n      dup5\n        /* \"ConfidentialMultipartyRegisteredEDeliveryWithoutTTP.sol\":19417:19429  receivers[i] */\n      dup2\n      sload\n      dup2\n      lt\n      tag_179\n      jumpi\n      invalid\n    tag_179:\n      swap1\n      0x00\n      mstore\n      keccak256(0x00, 0x20)\n      add\n      0x00\n      swap1\n      sload\n      swap1\n      0x0100\n      exp\n      swap1\n      div\n      0xffffffffffffffffffffffffffffffffffffffff\n      and\n        /* \"ConfidentialMultipartyRegisteredEDeliveryWithoutTTP.sol\":19402:19430  receiversState[receivers[i]] */\n      0xffffffffffffffffffffffffffffffffffffffff\n      and\n      0xffffffffffffffffffffffffffffffffffffffff\n      and\n      dup2\n      mstore\n      0x20\n      add\n      swap1\n      dup2\n      mstore\n      0x20\n      add\n      0x00\n      keccak256\n        /* \"ConfidentialMultipartyRegisteredEDeliveryWithoutTTP.sol\":19402:19432  receiversState[receivers[i]].r */\n      0x05\n      add\n        /* \"ConfidentialMultipartyRegisteredEDeliveryWithoutTTP.sol\":19402:19437  receiversState[receivers[i]].r = _r */\n      dup2\n      swap1\n      sstore\n      pop\n        /* \"ConfidentialMultipartyRegisteredEDeliveryWithoutTTP.sol\":19496:19510  State.accepted */\n      0x03\n        /* \"ConfidentialMultipartyRegisteredEDeliveryWithoutTTP.sol\":19458:19510  receiversState[receivers[i]].state == State.accepted */\n      0x05\n      dup2\n      gt\n      iszero\n      tag_181\n      jumpi\n      invalid\n    tag_181:\n        /* \"ConfidentialMultipartyRegisteredEDeliveryWithoutTTP.sol\":19458:19472  receiversState */\n      0x02\n        /* \"ConfidentialMultipartyRegisteredEDeliveryWithoutTTP.sol\":19458:19486  receiversState[receivers[i]] */\n      0x00\n        /* \"ConfidentialMultipartyRegisteredEDeliveryWithoutTTP.sol\":19473:19482  receivers */\n      0x01\n        /* \"ConfidentialMultipartyRegisteredEDeliveryWithoutTTP.sol\":19483:19484  i */\n      dup5\n        /* \"ConfidentialMultipartyRegisteredEDeliveryWithoutTTP.sol\":19473:19485  receivers[i] */\n      dup2\n      sload\n      dup2\n      lt\n      tag_182\n      jumpi\n      invalid\n    tag_182:\n      swap1\n      0x00\n      mstore\n      keccak256(0x00, 0x20)\n      add\n      0x00\n      swap1\n      sload\n      swap1\n      0x0100\n      exp\n      swap1\n      div\n      0xffffffffffffffffffffffffffffffffffffffff\n      and\n        /* \"ConfidentialMultipartyRegisteredEDeliveryWithoutTTP.sol\":19458:19486  receiversState[receivers[i]] */\n      0xffffffffffffffffffffffffffffffffffffffff\n      and\n      0xffffffffffffffffffffffffffffffffffffffff\n      and\n      dup2\n      mstore\n      0x20\n      add\n      swap1\n      dup2\n      mstore\n      0x20\n      add\n      0x00\n      keccak256\n        /* \"ConfidentialMultipartyRegisteredEDeliveryWithoutTTP.sol\":19458:19492  receiversState[receivers[i]].state */\n      0x06\n      add\n      0x00\n      swap1\n      sload\n      swap1\n      0x0100\n      exp\n      swap1\n      div\n      0xff\n      and\n        /* \"ConfidentialMultipartyRegisteredEDeliveryWithoutTTP.sol\":19458:19510  receiversState[receivers[i]].state == State.accepted */\n      0x05\n      dup2\n      gt\n      iszero\n      tag_184\n      jumpi\n      invalid\n    tag_184:\n      eq\n        /* \"ConfidentialMultipartyRegisteredEDeliveryWithoutTTP.sol\":19454:19747  if (receiversState[receivers[i]].state == State.accepted) {\r... */\n      iszero\n      tag_185\n      jumpi\n        /* \"ConfidentialMultipartyRegisteredEDeliveryWithoutTTP.sol\":19568:19582  State.finished */\n      0x04\n        /* \"ConfidentialMultipartyRegisteredEDeliveryWithoutTTP.sol\":19531:19545  receiversState */\n      0x02\n        /* \"ConfidentialMultipartyRegisteredEDeliveryWithoutTTP.sol\":19531:19559  receiversState[receivers[i]] */\n      0x00\n        /* \"ConfidentialMultipartyRegisteredEDeliveryWithoutTTP.sol\":19546:19555  receivers */\n      0x01\n        /* \"ConfidentialMultipartyRegisteredEDeliveryWithoutTTP.sol\":19556:19557  i */\n      dup5\n        /* \"ConfidentialMultipartyRegisteredEDeliveryWithoutTTP.sol\":19546:19558  receivers[i] */\n      dup2\n      sload\n      dup2\n      lt\n      tag_186\n      jumpi\n      invalid\n    tag_186:\n      swap1\n      0x00\n      mstore\n      keccak256(0x00, 0x20)\n      add\n      0x00\n      swap1\n      sload\n      swap1\n      0x0100\n      exp\n      swap1\n      div\n      0xffffffffffffffffffffffffffffffffffffffff\n      and\n        /* \"ConfidentialMultipartyRegisteredEDeliveryWithoutTTP.sol\":19531:19559  receiversState[receivers[i]] */\n      0xffffffffffffffffffffffffffffffffffffffff\n      and\n      0xffffffffffffffffffffffffffffffffffffffff\n      and\n      dup2\n      mstore\n      0x20\n      add\n      swap1\n      dup2\n      mstore\n      0x20\n      add\n      0x00\n      keccak256\n        /* \"ConfidentialMultipartyRegisteredEDeliveryWithoutTTP.sol\":19531:19565  receiversState[receivers[i]].state */\n      0x06\n      add\n      0x00\n        /* \"ConfidentialMultipartyRegisteredEDeliveryWithoutTTP.sol\":19531:19582  receiversState[receivers[i]].state = State.finished */\n      0x0100\n      exp\n      dup2\n      sload\n      dup2\n      0xff\n      mul\n      not\n      and\n      swap1\n      dup4\n      0x05\n      dup2\n      gt\n      iszero\n      tag_188\n      jumpi\n      invalid\n    tag_188:\n      mul\n      or\n      swap1\n      sstore\n      pop\n        /* \"ConfidentialMultipartyRegisteredEDeliveryWithoutTTP.sol\":19454:19747  if (receiversState[receivers[i]].state == State.accepted) {\r... */\n      jump(tag_189)\n    tag_185:\n        /* \"ConfidentialMultipartyRegisteredEDeliveryWithoutTTP.sol\":19646:19659  State.created */\n      0x01\n        /* \"ConfidentialMultipartyRegisteredEDeliveryWithoutTTP.sol\":19608:19659  receiversState[receivers[i]].state == State.created */\n      0x05\n      dup2\n      gt\n      iszero\n      tag_190\n      jumpi\n      invalid\n    tag_190:\n        /* \"ConfidentialMultipartyRegisteredEDeliveryWithoutTTP.sol\":19608:19622  receiversState */\n      0x02\n        /* \"ConfidentialMultipartyRegisteredEDeliveryWithoutTTP.sol\":19608:19636  receiversState[receivers[i]] */\n      0x00\n        /* \"ConfidentialMultipartyRegisteredEDeliveryWithoutTTP.sol\":19623:19632  receivers */\n      0x01\n        /* \"ConfidentialMultipartyRegisteredEDeliveryWithoutTTP.sol\":19633:19634  i */\n      dup5\n        /* \"ConfidentialMultipartyRegisteredEDeliveryWithoutTTP.sol\":19623:19635  receivers[i] */\n      dup2\n      sload\n      dup2\n      lt\n      tag_191\n      jumpi\n      invalid\n    tag_191:\n      swap1\n      0x00\n      mstore\n      keccak256(0x00, 0x20)\n      add\n      0x00\n      swap1\n      sload\n      swap1\n      0x0100\n      exp\n      swap1\n      div\n      0xffffffffffffffffffffffffffffffffffffffff\n      and\n        /* \"ConfidentialMultipartyRegisteredEDeliveryWithoutTTP.sol\":19608:19636  receiversState[receivers[i]] */\n      0xffffffffffffffffffffffffffffffffffffffff\n      and\n      0xffffffffffffffffffffffffffffffffffffffff\n      and\n      dup2\n      mstore\n      0x20\n      add\n      swap1\n      dup2\n      mstore\n      0x20\n      add\n      0x00\n      keccak256\n        /* \"ConfidentialMultipartyRegisteredEDeliveryWithoutTTP.sol\":19608:19642  receiversState[receivers[i]].state */\n      0x06\n      add\n      0x00\n      swap1\n      sload\n      swap1\n      0x0100\n      exp\n      swap1\n      div\n      0xff\n      and\n        /* \"ConfidentialMultipartyRegisteredEDeliveryWithoutTTP.sol\":19608:19659  receiversState[receivers[i]].state == State.created */\n      0x05\n      dup2\n      gt\n      iszero\n      tag_193\n      jumpi\n      invalid\n    tag_193:\n      eq\n        /* \"ConfidentialMultipartyRegisteredEDeliveryWithoutTTP.sol\":19604:19747  if (receiversState[receivers[i]].state == State.created) {\r... */\n      iszero\n      tag_194\n      jumpi\n        /* \"ConfidentialMultipartyRegisteredEDeliveryWithoutTTP.sol\":19717:19731  State.rejected */\n      0x05\n        /* \"ConfidentialMultipartyRegisteredEDeliveryWithoutTTP.sol\":19680:19694  receiversState */\n      0x02\n        /* \"ConfidentialMultipartyRegisteredEDeliveryWithoutTTP.sol\":19680:19708  receiversState[receivers[i]] */\n      0x00\n        /* \"ConfidentialMultipartyRegisteredEDeliveryWithoutTTP.sol\":19695:19704  receivers */\n      0x01\n        /* \"ConfidentialMultipartyRegisteredEDeliveryWithoutTTP.sol\":19705:19706  i */\n      dup5\n        /* \"ConfidentialMultipartyRegisteredEDeliveryWithoutTTP.sol\":19695:19707  receivers[i] */\n      dup2\n      sload\n      dup2\n      lt\n      tag_195\n      jumpi\n      invalid\n    tag_195:\n      swap1\n      0x00\n      mstore\n      keccak256(0x00, 0x20)\n      add\n      0x00\n      swap1\n      sload\n      swap1\n      0x0100\n      exp\n      swap1\n      div\n      0xffffffffffffffffffffffffffffffffffffffff\n      and\n        /* \"ConfidentialMultipartyRegisteredEDeliveryWithoutTTP.sol\":19680:19708  receiversState[receivers[i]] */\n      0xffffffffffffffffffffffffffffffffffffffff\n      and\n      0xffffffffffffffffffffffffffffffffffffffff\n      and\n      dup2\n      mstore\n      0x20\n      add\n      swap1\n      dup2\n      mstore\n      0x20\n      add\n      0x00\n      keccak256\n        /* \"ConfidentialMultipartyRegisteredEDeliveryWithoutTTP.sol\":19680:19714  receiversState[receivers[i]].state */\n      0x06\n      add\n      0x00\n        /* \"ConfidentialMultipartyRegisteredEDeliveryWithoutTTP.sol\":19680:19731  receiversState[receivers[i]].state = State.rejected */\n      0x0100\n      exp\n      dup2\n      sload\n      dup2\n      0xff\n      mul\n      not\n      and\n      swap1\n      dup4\n      0x05\n      dup2\n      gt\n      iszero\n      tag_197\n      jumpi\n      invalid\n    tag_197:\n      mul\n      or\n      swap1\n      sstore\n      pop\n        /* \"ConfidentialMultipartyRegisteredEDeliveryWithoutTTP.sol\":19604:19747  if (receiversState[receivers[i]].state == State.created) {\r... */\n    tag_194:\n        /* \"ConfidentialMultipartyRegisteredEDeliveryWithoutTTP.sol\":19454:19747  if (receiversState[receivers[i]].state == State.accepted) {\r... */\n    tag_189:\n        /* \"ConfidentialMultipartyRegisteredEDeliveryWithoutTTP.sol\":19382:19385  i++ */\n      dup1\n      dup1\n      0x01\n      add\n      swap2\n      pop\n      pop\n        /* \"ConfidentialMultipartyRegisteredEDeliveryWithoutTTP.sol\":19345:19758  for (uint i = 0; i<receivers.length; i++) {\r... */\n      jump(tag_176)\n    tag_177:\n      pop\n        /* \"ConfidentialMultipartyRegisteredEDeliveryWithoutTTP.sol\":18197:19765  function finish(address _receiver, uint256 _r) public {\r... */\n      pop\n      pop\n      pop\n      pop\n      pop\n      pop\n      pop\n      pop\n      jump\t// out\n        /* \"ConfidentialMultipartyRegisteredEDeliveryWithoutTTP.sol\":16199:16216  uint public term2 */\n    tag_48:\n      sload(0x09)\n      dup2\n      jump\t// out\n        /* \"ConfidentialMultipartyRegisteredEDeliveryWithoutTTP.sol\":16175:16192  uint public term1 */\n    tag_51:\n      sload(0x08)\n      dup2\n      jump\t// out\n        /* \"ConfidentialMultipartyRegisteredEDeliveryWithoutTTP.sol\":15479:15496  uint256 public vx */\n    tag_54:\n      sload(0x04)\n      dup2\n      jump\t// out\n        /* \"ConfidentialMultipartyRegisteredEDeliveryWithoutTTP.sol\":15838:15868  uint256 public constant BB = 7 */\n    tag_57:\n        /* \"ConfidentialMultipartyRegisteredEDeliveryWithoutTTP.sol\":15867:15868  7 */\n      0x07\n        /* \"ConfidentialMultipartyRegisteredEDeliveryWithoutTTP.sol\":15838:15868  uint256 public constant BB = 7 */\n      dup2\n      jump\t// out\n        /* \"ConfidentialMultipartyRegisteredEDeliveryWithoutTTP.sol\":17480:18120  function accept(string memory _z1, bytes memory _z2, uint256 _bx, uint256 _by, uint256 _c) public {\r... */\n    tag_67:\n        /* \"ConfidentialMultipartyRegisteredEDeliveryWithoutTTP.sol\":17609:17614  term1 */\n      sload(0x08)\n        /* \"ConfidentialMultipartyRegisteredEDeliveryWithoutTTP.sol\":17603:17608  start */\n      sload(0x0a)\n        /* \"ConfidentialMultipartyRegisteredEDeliveryWithoutTTP.sol\":17603:17614  start+term1 */\n      add\n        /* \"ConfidentialMultipartyRegisteredEDeliveryWithoutTTP.sol\":17597:17600  now */\n      timestamp\n        /* \"ConfidentialMultipartyRegisteredEDeliveryWithoutTTP.sol\":17597:17614  now < start+term1 */\n      lt\n        /* \"ConfidentialMultipartyRegisteredEDeliveryWithoutTTP.sol\":17589:17653  require(now < start+term1, \"The timeout term1 has been reached\") */\n      tag_199\n      jumpi\n      mload(0x40)\n      0x08c379a000000000000000000000000000000000000000000000000000000000\n      dup2\n      mstore\n      0x04\n      add\n      dup1\n      dup1\n      0x20\n      add\n      dup3\n      dup2\n      sub\n      dup3\n      mstore\n      0x22\n      dup2\n      mstore\n      0x20\n      add\n      dup1\n      data_be6ae27c427d127e7cca64881e40b0832ac3680fe64c7804b0dfb4b1aeddddde\n      0x22\n      swap2\n      codecopy\n      0x40\n      add\n      swap2\n      pop\n      pop\n      mload(0x40)\n      dup1\n      swap2\n      sub\n      swap1\n      revert\n    tag_199:\n        /* \"ConfidentialMultipartyRegisteredEDeliveryWithoutTTP.sol\":17706:17719  State.created */\n      0x01\n        /* \"ConfidentialMultipartyRegisteredEDeliveryWithoutTTP.sol\":17672:17719  receiversState[msg.sender].state==State.created */\n      0x05\n      dup2\n      gt\n      iszero\n      tag_200\n      jumpi\n      invalid\n    tag_200:\n        /* \"ConfidentialMultipartyRegisteredEDeliveryWithoutTTP.sol\":17672:17686  receiversState */\n      0x02\n        /* \"ConfidentialMultipartyRegisteredEDeliveryWithoutTTP.sol\":17672:17698  receiversState[msg.sender] */\n      0x00\n        /* \"ConfidentialMultipartyRegisteredEDeliveryWithoutTTP.sol\":17687:17697  msg.sender */\n      caller\n        /* \"ConfidentialMultipartyRegisteredEDeliveryWithoutTTP.sol\":17672:17698  receiversState[msg.sender] */\n      0xffffffffffffffffffffffffffffffffffffffff\n      and\n      0xffffffffffffffffffffffffffffffffffffffff\n      and\n      dup2\n      mstore\n      0x20\n      add\n      swap1\n      dup2\n      mstore\n      0x20\n      add\n      0x00\n      keccak256\n        /* \"ConfidentialMultipartyRegisteredEDeliveryWithoutTTP.sol\":17672:17704  receiversState[msg.sender].state */\n      0x06\n      add\n      0x00\n      swap1\n      sload\n      swap1\n      0x0100\n      exp\n      swap1\n      div\n      0xff\n      and\n        /* \"ConfidentialMultipartyRegisteredEDeliveryWithoutTTP.sol\":17672:17719  receiversState[msg.sender].state==State.created */\n      0x05\n      dup2\n      gt\n      iszero\n      tag_201\n      jumpi\n      invalid\n    tag_201:\n      eq\n        /* \"ConfidentialMultipartyRegisteredEDeliveryWithoutTTP.sol\":17664:17770  require(receiversState[msg.sender].state==State.created, \"Only receivers with 'created' state can accept\") */\n      tag_202\n      jumpi\n      mload(0x40)\n      0x08c379a000000000000000000000000000000000000000000000000000000000\n      dup2\n      mstore\n      0x04\n      add\n      dup1\n      dup1\n      0x20\n      add\n      dup3\n      dup2\n      sub\n      dup3\n      mstore\n      0x2e\n      dup2\n      mstore\n      0x20\n      add\n      dup1\n      data_fe0a3488d8d06ca2d8ae07491339801cecf2029507bedb6ded8a088d5fdcad8f\n      0x2e\n      swap2\n      codecopy\n      0x40\n      add\n      swap2\n      pop\n      pop\n      mload(0x40)\n      dup1\n      swap2\n      sub\n      swap1\n      revert\n    tag_202:\n        /* \"ConfidentialMultipartyRegisteredEDeliveryWithoutTTP.sol\":17823:17824  1 */\n      0x01\n        /* \"ConfidentialMultipartyRegisteredEDeliveryWithoutTTP.sol\":17803:17820  acceptedReceivers */\n      sload(0x03)\n        /* \"ConfidentialMultipartyRegisteredEDeliveryWithoutTTP.sol\":17803:17824  acceptedReceivers + 1 */\n      add\n        /* \"ConfidentialMultipartyRegisteredEDeliveryWithoutTTP.sol\":17783:17800  acceptedReceivers */\n      0x03\n        /* \"ConfidentialMultipartyRegisteredEDeliveryWithoutTTP.sol\":17783:17824  acceptedReceivers = acceptedReceivers + 1 */\n      dup2\n      swap1\n      sstore\n      pop\n        /* \"ConfidentialMultipartyRegisteredEDeliveryWithoutTTP.sol\":17867:17870  _z1 */\n      dup5\n        /* \"ConfidentialMultipartyRegisteredEDeliveryWithoutTTP.sol\":17835:17849  receiversState */\n      0x02\n        /* \"ConfidentialMultipartyRegisteredEDeliveryWithoutTTP.sol\":17835:17861  receiversState[msg.sender] */\n      0x00\n        /* \"ConfidentialMultipartyRegisteredEDeliveryWithoutTTP.sol\":17850:17860  msg.sender */\n      caller\n        /* \"ConfidentialMultipartyRegisteredEDeliveryWithoutTTP.sol\":17835:17861  receiversState[msg.sender] */\n      0xffffffffffffffffffffffffffffffffffffffff\n      and\n      0xffffffffffffffffffffffffffffffffffffffff\n      and\n      dup2\n      mstore\n      0x20\n      add\n      swap1\n      dup2\n      mstore\n      0x20\n      add\n      0x00\n      keccak256\n        /* \"ConfidentialMultipartyRegisteredEDeliveryWithoutTTP.sol\":17835:17864  receiversState[msg.sender].z1 */\n      0x00\n      add\n        /* \"ConfidentialMultipartyRegisteredEDeliveryWithoutTTP.sol\":17835:17870  receiversState[msg.sender].z1 = _z1 */\n      swap1\n      dup1\n      mload\n      swap1\n      0x20\n      add\n      swap1\n      tag_203\n      swap3\n      swap2\n      swap1\n      tag_204\n      jump\t// in\n    tag_203:\n      pop\n        /* \"ConfidentialMultipartyRegisteredEDeliveryWithoutTTP.sol\":17913:17916  _z2 */\n      dup4\n        /* \"ConfidentialMultipartyRegisteredEDeliveryWithoutTTP.sol\":17881:17895  receiversState */\n      0x02\n        /* \"ConfidentialMultipartyRegisteredEDeliveryWithoutTTP.sol\":17881:17907  receiversState[msg.sender] */\n      0x00\n        /* \"ConfidentialMultipartyRegisteredEDeliveryWithoutTTP.sol\":17896:17906  msg.sender */\n      caller\n        /* \"ConfidentialMultipartyRegisteredEDeliveryWithoutTTP.sol\":17881:17907  receiversState[msg.sender] */\n      0xffffffffffffffffffffffffffffffffffffffff\n      and\n      0xffffffffffffffffffffffffffffffffffffffff\n      and\n      dup2\n      mstore\n      0x20\n      add\n      swap1\n      dup2\n      mstore\n      0x20\n      add\n      0x00\n      keccak256\n        /* \"ConfidentialMultipartyRegisteredEDeliveryWithoutTTP.sol\":17881:17910  receiversState[msg.sender].z2 */\n      0x01\n      add\n        /* \"ConfidentialMultipartyRegisteredEDeliveryWithoutTTP.sol\":17881:17916  receiversState[msg.sender].z2 = _z2 */\n      swap1\n      dup1\n      mload\n      swap1\n      0x20\n      add\n      swap1\n      tag_205\n      swap3\n      swap2\n      swap1\n      tag_206\n      jump\t// in\n    tag_205:\n      pop\n        /* \"ConfidentialMultipartyRegisteredEDeliveryWithoutTTP.sol\":17959:17962  _bx */\n      dup3\n        /* \"ConfidentialMultipartyRegisteredEDeliveryWithoutTTP.sol\":17927:17941  receiversState */\n      0x02\n        /* \"ConfidentialMultipartyRegisteredEDeliveryWithoutTTP.sol\":17927:17953  receiversState[msg.sender] */\n      0x00\n        /* \"ConfidentialMultipartyRegisteredEDeliveryWithoutTTP.sol\":17942:17952  msg.sender */\n      caller\n        /* \"ConfidentialMultipartyRegisteredEDeliveryWithoutTTP.sol\":17927:17953  receiversState[msg.sender] */\n      0xffffffffffffffffffffffffffffffffffffffff\n      and\n      0xffffffffffffffffffffffffffffffffffffffff\n      and\n      dup2\n      mstore\n      0x20\n      add\n      swap1\n      dup2\n      mstore\n      0x20\n      add\n      0x00\n      keccak256\n        /* \"ConfidentialMultipartyRegisteredEDeliveryWithoutTTP.sol\":17927:17956  receiversState[msg.sender].bx */\n      0x02\n      add\n        /* \"ConfidentialMultipartyRegisteredEDeliveryWithoutTTP.sol\":17927:17962  receiversState[msg.sender].bx = _bx */\n      dup2\n      swap1\n      sstore\n      pop\n        /* \"ConfidentialMultipartyRegisteredEDeliveryWithoutTTP.sol\":18005:18008  _by */\n      dup2\n        /* \"ConfidentialMultipartyRegisteredEDeliveryWithoutTTP.sol\":17973:17987  receiversState */\n      0x02\n        /* \"ConfidentialMultipartyRegisteredEDeliveryWithoutTTP.sol\":17973:17999  receiversState[msg.sender] */\n      0x00\n        /* \"ConfidentialMultipartyRegisteredEDeliveryWithoutTTP.sol\":17988:17998  msg.sender */\n      caller\n        /* \"ConfidentialMultipartyRegisteredEDeliveryWithoutTTP.sol\":17973:17999  receiversState[msg.sender] */\n      0xffffffffffffffffffffffffffffffffffffffff\n      and\n      0xffffffffffffffffffffffffffffffffffffffff\n      and\n      dup2\n      mstore\n      0x20\n      add\n      swap1\n      dup2\n      mstore\n      0x20\n      add\n      0x00\n      keccak256\n        /* \"ConfidentialMultipartyRegisteredEDeliveryWithoutTTP.sol\":17973:18002  receiversState[msg.sender].by */\n      0x03\n      add\n        /* \"ConfidentialMultipartyRegisteredEDeliveryWithoutTTP.sol\":17973:18008  receiversState[msg.sender].by = _by */\n      dup2\n      swap1\n      sstore\n      pop\n        /* \"ConfidentialMultipartyRegisteredEDeliveryWithoutTTP.sol\":18050:18052  _c */\n      dup1\n        /* \"ConfidentialMultipartyRegisteredEDeliveryWithoutTTP.sol\":18019:18033  receiversState */\n      0x02\n        /* \"ConfidentialMultipartyRegisteredEDeliveryWithoutTTP.sol\":18019:18045  receiversState[msg.sender] */\n      0x00\n        /* \"ConfidentialMultipartyRegisteredEDeliveryWithoutTTP.sol\":18034:18044  msg.sender */\n      caller\n        /* \"ConfidentialMultipartyRegisteredEDeliveryWithoutTTP.sol\":18019:18045  receiversState[msg.sender] */\n      0xffffffffffffffffffffffffffffffffffffffff\n      and\n      0xffffffffffffffffffffffffffffffffffffffff\n      and\n      dup2\n      mstore\n      0x20\n      add\n      swap1\n      dup2\n      mstore\n      0x20\n      add\n      0x00\n      keccak256\n        /* \"ConfidentialMultipartyRegisteredEDeliveryWithoutTTP.sol\":18019:18047  receiversState[msg.sender].c */\n      0x04\n      add\n        /* \"ConfidentialMultipartyRegisteredEDeliveryWithoutTTP.sol\":18019:18052  receiversState[msg.sender].c = _c */\n      dup2\n      swap1\n      sstore\n      pop\n        /* \"ConfidentialMultipartyRegisteredEDeliveryWithoutTTP.sol\":18098:18112  State.accepted */\n      0x03\n        /* \"ConfidentialMultipartyRegisteredEDeliveryWithoutTTP.sol\":18063:18077  receiversState */\n      0x02\n        /* \"ConfidentialMultipartyRegisteredEDeliveryWithoutTTP.sol\":18063:18089  receiversState[msg.sender] */\n      0x00\n        /* \"ConfidentialMultipartyRegisteredEDeliveryWithoutTTP.sol\":18078:18088  msg.sender */\n      caller\n        /* \"ConfidentialMultipartyRegisteredEDeliveryWithoutTTP.sol\":18063:18089  receiversState[msg.sender] */\n      0xffffffffffffffffffffffffffffffffffffffff\n      and\n      0xffffffffffffffffffffffffffffffffffffffff\n      and\n      dup2\n      mstore\n      0x20\n      add\n      swap1\n      dup2\n      mstore\n      0x20\n      add\n      0x00\n      keccak256\n        /* \"ConfidentialMultipartyRegisteredEDeliveryWithoutTTP.sol\":18063:18095  receiversState[msg.sender].state */\n      0x06\n      add\n      0x00\n        /* \"ConfidentialMultipartyRegisteredEDeliveryWithoutTTP.sol\":18063:18112  receiversState[msg.sender].state = State.accepted */\n      0x0100\n      exp\n      dup2\n      sload\n      dup2\n      0xff\n      mul\n      not\n      and\n      swap1\n      dup4\n      0x05\n      dup2\n      gt\n      iszero\n      tag_207\n      jumpi\n      invalid\n    tag_207:\n      mul\n      or\n      swap1\n      sstore\n      pop\n        /* \"ConfidentialMultipartyRegisteredEDeliveryWithoutTTP.sol\":17480:18120  function accept(string memory _z1, bytes memory _z2, uint256 _bx, uint256 _by, uint256 _c) public {\r... */\n      pop\n      pop\n      pop\n      pop\n      pop\n      jump\t// out\n        /* \"ConfidentialMultipartyRegisteredEDeliveryWithoutTTP.sol\":20982:21098  function getR(address _receiver) public view returns (uint256) {\r... */\n    tag_71:\n        /* \"ConfidentialMultipartyRegisteredEDeliveryWithoutTTP.sol\":21036:21043  uint256 */\n      0x00\n        /* \"ConfidentialMultipartyRegisteredEDeliveryWithoutTTP.sol\":21063:21077  receiversState */\n      0x02\n        /* \"ConfidentialMultipartyRegisteredEDeliveryWithoutTTP.sol\":21063:21088  receiversState[_receiver] */\n      0x00\n        /* \"ConfidentialMultipartyRegisteredEDeliveryWithoutTTP.sol\":21078:21087  _receiver */\n      dup4\n        /* \"ConfidentialMultipartyRegisteredEDeliveryWithoutTTP.sol\":21063:21088  receiversState[_receiver] */\n      0xffffffffffffffffffffffffffffffffffffffff\n      and\n      0xffffffffffffffffffffffffffffffffffffffff\n      and\n      dup2\n      mstore\n      0x20\n      add\n      swap1\n      dup2\n      mstore\n      0x20\n      add\n      0x00\n      keccak256\n        /* \"ConfidentialMultipartyRegisteredEDeliveryWithoutTTP.sol\":21063:21090  receiversState[_receiver].r */\n      0x05\n      add\n      sload\n        /* \"ConfidentialMultipartyRegisteredEDeliveryWithoutTTP.sol\":21056:21090  return receiversState[_receiver].r */\n      swap1\n      pop\n        /* \"ConfidentialMultipartyRegisteredEDeliveryWithoutTTP.sol\":20982:21098  function getR(address _receiver) public view returns (uint256) {\r... */\n      swap2\n      swap1\n      pop\n      jump\t// out\n        /* \"ConfidentialMultipartyRegisteredEDeliveryWithoutTTP.sol\":15308:15329  address public sender */\n    tag_74:\n      0x00\n      dup1\n      sload\n      swap1\n      0x0100\n      exp\n      swap1\n      div\n      0xffffffffffffffffffffffffffffffffffffffff\n      and\n      dup2\n      jump\t// out\n        /* \"ConfidentialMultipartyRegisteredEDeliveryWithoutTTP.sol\":15699:15794  uint256 public constant GY = 0x483ADA7726A3C4655DA4FBFC0E1108A8FD17B448A68554199C47D08FFB10D4B8 */\n    tag_77:\n        /* \"ConfidentialMultipartyRegisteredEDeliveryWithoutTTP.sol\":15728:15794  0x483ADA7726A3C4655DA4FBFC0E1108A8FD17B448A68554199C47D08FFB10D4B8 */\n      0x483ada7726a3c4655da4fbfc0e1108a8fd17b448a68554199c47d08ffb10d4b8\n        /* \"ConfidentialMultipartyRegisteredEDeliveryWithoutTTP.sol\":15699:15794  uint256 public constant GY = 0x483ADA7726A3C4655DA4FBFC0E1108A8FD17B448A68554199C47D08FFB10D4B8 */\n      dup2\n      jump\t// out\n        /* \"ConfidentialMultipartyRegisteredEDeliveryWithoutTTP.sol\":16268:16286  bool public isBase */\n    tag_80:\n      0x0b\n      0x00\n      swap1\n      sload\n      swap1\n      0x0100\n      exp\n      swap1\n      div\n      0xff\n      and\n      dup2\n      jump\t// out\n        /* \"ConfidentialMultipartyRegisteredEDeliveryWithoutTTP.sol\":16476:17420  function initialize(address _sender, address[] memory _receivers, uint256 _vx, uint256 _vy, string memory _hashIPFS, string memory _A, uint _term1, uint _term2) public payable {\r... */\n    tag_92:\n        /* \"ConfidentialMultipartyRegisteredEDeliveryWithoutTTP.sol\":16759:16760  0 */\n      0x00\n        /* \"ConfidentialMultipartyRegisteredEDeliveryWithoutTTP.sol\":16749:16758  msg.value */\n      callvalue\n        /* \"ConfidentialMultipartyRegisteredEDeliveryWithoutTTP.sol\":16749:16760  msg.value>0 */\n      gt\n        /* \"ConfidentialMultipartyRegisteredEDeliveryWithoutTTP.sol\":16741:16810  require(msg.value>0, \"Sender has to send a deposit of minimun 1 wei\") */\n      tag_210\n      jumpi\n      mload(0x40)\n      0x08c379a000000000000000000000000000000000000000000000000000000000\n      dup2\n      mstore\n      0x04\n      add\n      dup1\n      dup1\n      0x20\n      add\n      dup3\n      dup2\n      sub\n      dup3\n      mstore\n      0x2d\n      dup2\n      mstore\n      0x20\n      add\n      dup1\n      data_db7043b56c67220542ea5a875307929cada92c1d0bbe3f5b581e7ec4ed5f48eb\n      0x2d\n      swap2\n      codecopy\n      0x40\n      add\n      swap2\n      pop\n      pop\n      mload(0x40)\n      dup1\n      swap2\n      sub\n      swap1\n      revert\n    tag_210:\n        /* \"ConfidentialMultipartyRegisteredEDeliveryWithoutTTP.sol\":16838:16844  _term2 */\n      dup1\n        /* \"ConfidentialMultipartyRegisteredEDeliveryWithoutTTP.sol\":16829:16835  _term1 */\n      dup3\n        /* \"ConfidentialMultipartyRegisteredEDeliveryWithoutTTP.sol\":16829:16844  _term1 < _term2 */\n      lt\n        /* \"ConfidentialMultipartyRegisteredEDeliveryWithoutTTP.sol\":16821:16890  require(_term1 < _term2, \"Timeout term2 must be greater than _term1\") */\n      tag_211\n      jumpi\n      mload(0x40)\n      0x08c379a000000000000000000000000000000000000000000000000000000000\n      dup2\n      mstore\n      0x04\n      add\n      dup1\n      dup1\n      0x20\n      add\n      dup3\n      dup2\n      sub\n      dup3\n      mstore\n      0x29\n      dup2\n      mstore\n      0x20\n      add\n      dup1\n      data_5863e379c73b96d6792101029f407db6634ea1660187ca4bd78a7d715a942c18\n      0x29\n      swap2\n      codecopy\n      0x40\n      add\n      swap2\n      pop\n      pop\n      mload(0x40)\n      dup1\n      swap2\n      sub\n      swap1\n      revert\n    tag_211:\n        /* \"ConfidentialMultipartyRegisteredEDeliveryWithoutTTP.sol\":16910:16917  _sender */\n      dup8\n        /* \"ConfidentialMultipartyRegisteredEDeliveryWithoutTTP.sol\":16901:16907  sender */\n      0x00\n      dup1\n        /* \"ConfidentialMultipartyRegisteredEDeliveryWithoutTTP.sol\":16901:16917  sender = _sender */\n      0x0100\n      exp\n      dup2\n      sload\n      dup2\n      0xffffffffffffffffffffffffffffffffffffffff\n      mul\n      not\n      and\n      swap1\n      dup4\n      0xffffffffffffffffffffffffffffffffffffffff\n      and\n      mul\n      or\n      swap1\n      sstore\n      pop\n        /* \"ConfidentialMultipartyRegisteredEDeliveryWithoutTTP.sol\":16940:16950  _receivers */\n      dup7\n        /* \"ConfidentialMultipartyRegisteredEDeliveryWithoutTTP.sol\":16928:16937  receivers */\n      0x01\n        /* \"ConfidentialMultipartyRegisteredEDeliveryWithoutTTP.sol\":16928:16950  receivers = _receivers */\n      swap1\n      dup1\n      mload\n      swap1\n      0x20\n      add\n      swap1\n      tag_212\n      swap3\n      swap2\n      swap1\n      tag_213\n      jump\t// in\n    tag_212:\n      pop\n        /* \"ConfidentialMultipartyRegisteredEDeliveryWithoutTTP.sol\":17026:17032  uint i */\n      0x00\n        /* \"ConfidentialMultipartyRegisteredEDeliveryWithoutTTP.sol\":17021:17140  for (uint i = 0; i<receivers.length; i++) {\r... */\n    tag_214:\n        /* \"ConfidentialMultipartyRegisteredEDeliveryWithoutTTP.sol\":17040:17049  receivers */\n      0x01\n        /* \"ConfidentialMultipartyRegisteredEDeliveryWithoutTTP.sol\":17040:17056  receivers.length */\n      dup1\n      sload\n      swap1\n      pop\n        /* \"ConfidentialMultipartyRegisteredEDeliveryWithoutTTP.sol\":17038:17039  i */\n      dup2\n        /* \"ConfidentialMultipartyRegisteredEDeliveryWithoutTTP.sol\":17038:17056  i<receivers.length */\n      lt\n        /* \"ConfidentialMultipartyRegisteredEDeliveryWithoutTTP.sol\":17021:17140  for (uint i = 0; i<receivers.length; i++) {\r... */\n      iszero\n      tag_215\n      jumpi\n        /* \"ConfidentialMultipartyRegisteredEDeliveryWithoutTTP.sol\":17115:17128  State.created */\n      0x01\n        /* \"ConfidentialMultipartyRegisteredEDeliveryWithoutTTP.sol\":17078:17092  receiversState */\n      0x02\n        /* \"ConfidentialMultipartyRegisteredEDeliveryWithoutTTP.sol\":17078:17106  receiversState[receivers[i]] */\n      0x00\n        /* \"ConfidentialMultipartyRegisteredEDeliveryWithoutTTP.sol\":17093:17102  receivers */\n      0x01\n        /* \"ConfidentialMultipartyRegisteredEDeliveryWithoutTTP.sol\":17103:17104  i */\n      dup5\n        /* \"ConfidentialMultipartyRegisteredEDeliveryWithoutTTP.sol\":17093:17105  receivers[i] */\n      dup2\n      sload\n      dup2\n      lt\n      tag_217\n      jumpi\n      invalid\n    tag_217:\n      swap1\n      0x00\n      mstore\n      keccak256(0x00, 0x20)\n      add\n      0x00\n      swap1\n      sload\n      swap1\n      0x0100\n      exp\n      swap1\n      div\n      0xffffffffffffffffffffffffffffffffffffffff\n      and\n        /* \"ConfidentialMultipartyRegisteredEDeliveryWithoutTTP.sol\":17078:17106  receiversState[receivers[i]] */\n      0xffffffffffffffffffffffffffffffffffffffff\n      and\n      0xffffffffffffffffffffffffffffffffffffffff\n      and\n      dup2\n      mstore\n      0x20\n      add\n      swap1\n      dup2\n      mstore\n      0x20\n      add\n      0x00\n      keccak256\n        /* \"ConfidentialMultipartyRegisteredEDeliveryWithoutTTP.sol\":17078:17112  receiversState[receivers[i]].state */\n      0x06\n      add\n      0x00\n        /* \"ConfidentialMultipartyRegisteredEDeliveryWithoutTTP.sol\":17078:17128  receiversState[receivers[i]].state = State.created */\n      0x0100\n      exp\n      dup2\n      sload\n      dup2\n      0xff\n      mul\n      not\n      and\n      swap1\n      dup4\n      0x05\n      dup2\n      gt\n      iszero\n      tag_219\n      jumpi\n      invalid\n    tag_219:\n      mul\n      or\n      swap1\n      sstore\n      pop\n        /* \"ConfidentialMultipartyRegisteredEDeliveryWithoutTTP.sol\":17058:17061  i++ */\n      dup1\n      dup1\n      0x01\n      add\n      swap2\n      pop\n      pop\n        /* \"ConfidentialMultipartyRegisteredEDeliveryWithoutTTP.sol\":17021:17140  for (uint i = 0; i<receivers.length; i++) {\r... */\n      jump(tag_214)\n    tag_215:\n      pop\n        /* \"ConfidentialMultipartyRegisteredEDeliveryWithoutTTP.sol\":17170:17171  0 */\n      0x00\n        /* \"ConfidentialMultipartyRegisteredEDeliveryWithoutTTP.sol\":17150:17167  acceptedReceivers */\n      0x03\n        /* \"ConfidentialMultipartyRegisteredEDeliveryWithoutTTP.sol\":17150:17171  acceptedReceivers = 0 */\n      dup2\n      swap1\n      sstore\n      pop\n        /* \"ConfidentialMultipartyRegisteredEDeliveryWithoutTTP.sol\":17187:17190  _vx */\n      dup6\n        /* \"ConfidentialMultipartyRegisteredEDeliveryWithoutTTP.sol\":17182:17184  vx */\n      0x04\n        /* \"ConfidentialMultipartyRegisteredEDeliveryWithoutTTP.sol\":17182:17190  vx = _vx */\n      dup2\n      swap1\n      sstore\n      pop\n        /* \"ConfidentialMultipartyRegisteredEDeliveryWithoutTTP.sol\":17206:17209  _vy */\n      dup5\n        /* \"ConfidentialMultipartyRegisteredEDeliveryWithoutTTP.sol\":17201:17203  vy */\n      0x05\n        /* \"ConfidentialMultipartyRegisteredEDeliveryWithoutTTP.sol\":17201:17209  vy = _vy */\n      dup2\n      swap1\n      sstore\n      pop\n        /* \"ConfidentialMultipartyRegisteredEDeliveryWithoutTTP.sol\":17231:17240  _hashIPFS */\n      dup4\n        /* \"ConfidentialMultipartyRegisteredEDeliveryWithoutTTP.sol\":17220:17228  hashIPFS */\n      0x06\n        /* \"ConfidentialMultipartyRegisteredEDeliveryWithoutTTP.sol\":17220:17240  hashIPFS = _hashIPFS */\n      swap1\n      dup1\n      mload\n      swap1\n      0x20\n      add\n      swap1\n      tag_220\n      swap3\n      swap2\n      swap1\n      tag_204\n      jump\t// in\n    tag_220:\n      pop\n        /* \"ConfidentialMultipartyRegisteredEDeliveryWithoutTTP.sol\":17255:17257  _A */\n      dup3\n        /* \"ConfidentialMultipartyRegisteredEDeliveryWithoutTTP.sol\":17251:17252  A */\n      0x07\n        /* \"ConfidentialMultipartyRegisteredEDeliveryWithoutTTP.sol\":17251:17257  A = _A */\n      swap1\n      dup1\n      mload\n      swap1\n      0x20\n      add\n      swap1\n      tag_221\n      swap3\n      swap2\n      swap1\n      tag_204\n      jump\t// in\n    tag_221:\n      pop\n        /* \"ConfidentialMultipartyRegisteredEDeliveryWithoutTTP.sol\":17276:17279  now */\n      timestamp\n        /* \"ConfidentialMultipartyRegisteredEDeliveryWithoutTTP.sol\":17268:17273  start */\n      0x0a\n        /* \"ConfidentialMultipartyRegisteredEDeliveryWithoutTTP.sol\":17268:17279  start = now */\n      dup2\n      swap1\n      sstore\n      pop\n        /* \"ConfidentialMultipartyRegisteredEDeliveryWithoutTTP.sol\":17323:17329  _term1 */\n      dup2\n        /* \"ConfidentialMultipartyRegisteredEDeliveryWithoutTTP.sol\":17315:17320  term1 */\n      0x08\n        /* \"ConfidentialMultipartyRegisteredEDeliveryWithoutTTP.sol\":17315:17329  term1 = _term1 */\n      dup2\n      swap1\n      sstore\n      pop\n        /* \"ConfidentialMultipartyRegisteredEDeliveryWithoutTTP.sol\":17377:17383  _term2 */\n      dup1\n        /* \"ConfidentialMultipartyRegisteredEDeliveryWithoutTTP.sol\":17369:17374  term2 */\n      0x09\n        /* \"ConfidentialMultipartyRegisteredEDeliveryWithoutTTP.sol\":17369:17383  term2 = _term2 */\n      dup2\n      swap1\n      sstore\n      pop\n        /* \"ConfidentialMultipartyRegisteredEDeliveryWithoutTTP.sol\":16476:17420  function initialize(address _sender, address[] memory _receivers, uint256 _vx, uint256 _vy, string memory _hashIPFS, string memory _A, uint _term1, uint _term2) public payable {\r... */\n      pop\n      pop\n      pop\n      pop\n      pop\n      pop\n      pop\n      pop\n      jump\t// out\n        /* \"ConfidentialMultipartyRegisteredEDeliveryWithoutTTP.sol\":15801:15831  uint256 public constant AA = 0 */\n    tag_95:\n        /* \"ConfidentialMultipartyRegisteredEDeliveryWithoutTTP.sol\":15830:15831  0 */\n      0x00\n        /* \"ConfidentialMultipartyRegisteredEDeliveryWithoutTTP.sol\":15801:15831  uint256 public constant AA = 0 */\n      dup2\n      jump\t// out\n        /* \"ConfidentialMultipartyRegisteredEDeliveryWithoutTTP.sol\":15527:15549  string public hashIPFS */\n    tag_98:\n      0x06\n      dup1\n      sload\n      0x01\n      dup2\n      0x01\n      and\n      iszero\n      0x0100\n      mul\n      sub\n      and\n      0x02\n      swap1\n      div\n      dup1\n      0x1f\n      add\n      0x20\n      dup1\n      swap2\n      div\n      mul\n      0x20\n      add\n      mload(0x40)\n      swap1\n      dup2\n      add\n      0x40\n      mstore\n      dup1\n      swap3\n      swap2\n      swap1\n      dup2\n      dup2\n      mstore\n      0x20\n      add\n      dup3\n      dup1\n      sload\n      0x01\n      dup2\n      0x01\n      and\n      iszero\n      0x0100\n      mul\n      sub\n      and\n      0x02\n      swap1\n      div\n      dup1\n      iszero\n      tag_222\n      jumpi\n      dup1\n      0x1f\n      lt\n      tag_223\n      jumpi\n      0x0100\n      dup1\n      dup4\n      sload\n      div\n      mul\n      dup4\n      mstore\n      swap2\n      0x20\n      add\n      swap2\n      jump(tag_222)\n    tag_223:\n      dup3\n      add\n      swap2\n      swap1\n      0x00\n      mstore\n      keccak256(0x00, 0x20)\n      swap1\n    tag_224:\n      dup2\n      sload\n      dup2\n      mstore\n      swap1\n      0x01\n      add\n      swap1\n      0x20\n      add\n      dup1\n      dup4\n      gt\n      tag_224\n      jumpi\n      dup3\n      swap1\n      sub\n      0x1f\n      and\n      dup3\n      add\n      swap2\n    tag_222:\n      pop\n      pop\n      pop\n      pop\n      pop\n      dup2\n      jump\t// out\n        /* \"ConfidentialMultipartyRegisteredEDeliveryWithoutTTP.sol\":16242:16259  uint public start */\n    tag_105:\n      sload(0x0a)\n      dup2\n      jump\t// out\n        /* \"ConfidentialMultipartyRegisteredEDeliveryWithoutTTP.sol\":15336:15362  address[] public receivers */\n    tag_109:\n      0x01\n      dup2\n      dup2\n      sload\n      dup2\n      lt\n      tag_225\n      jumpi\n      invalid\n    tag_225:\n      swap1\n      0x00\n      mstore\n      keccak256(0x00, 0x20)\n      add\n      0x00\n      swap2\n      pop\n      sload\n      swap1\n      0x0100\n      exp\n      swap1\n      div\n      0xffffffffffffffffffffffffffffffffffffffff\n      and\n      dup2\n      jump\t// out\n        /* \"ConfidentialMultipartyRegisteredEDeliveryWithoutTTP.sol\":15503:15520  uint256 public vy */\n    tag_112:\n      sload(0x05)\n      dup2\n      jump\t// out\n        /* \"ConfidentialMultipartyRegisteredEDeliveryWithoutTTP.sol\":19831:20126  function cancel() public {\r... */\n    tag_115:\n        /* \"ConfidentialMultipartyRegisteredEDeliveryWithoutTTP.sol\":19888:19893  term2 */\n      sload(0x09)\n        /* \"ConfidentialMultipartyRegisteredEDeliveryWithoutTTP.sol\":19882:19887  start */\n      sload(0x0a)\n        /* \"ConfidentialMultipartyRegisteredEDeliveryWithoutTTP.sol\":19882:19893  start+term2 */\n      add\n        /* \"ConfidentialMultipartyRegisteredEDeliveryWithoutTTP.sol\":19875:19878  now */\n      timestamp\n        /* \"ConfidentialMultipartyRegisteredEDeliveryWithoutTTP.sol\":19875:19893  now >= start+term2 */\n      lt\n      iszero\n        /* \"ConfidentialMultipartyRegisteredEDeliveryWithoutTTP.sol\":19867:19936  require(now >= start+term2, \"The timeout term2 has not been reached\") */\n      tag_228\n      jumpi\n      mload(0x40)\n      0x08c379a000000000000000000000000000000000000000000000000000000000\n      dup2\n      mstore\n      0x04\n      add\n      dup1\n      dup1\n      0x20\n      add\n      dup3\n      dup2\n      sub\n      dup3\n      mstore\n      0x26\n      dup2\n      mstore\n      0x20\n      add\n      dup1\n      data_63923af6d4832a3fec8b1a3de6f74d7a379ed3f889c5bf9c900d1364fc0ed789\n      0x26\n      swap2\n      codecopy\n      0x40\n      add\n      swap2\n      pop\n      pop\n      mload(0x40)\n      dup1\n      swap2\n      sub\n      swap1\n      revert\n    tag_228:\n        /* \"ConfidentialMultipartyRegisteredEDeliveryWithoutTTP.sol\":19989:20003  State.accepted */\n      0x03\n        /* \"ConfidentialMultipartyRegisteredEDeliveryWithoutTTP.sol\":19955:20003  receiversState[msg.sender].state==State.accepted */\n      0x05\n      dup2\n      gt\n      iszero\n      tag_229\n      jumpi\n      invalid\n    tag_229:\n        /* \"ConfidentialMultipartyRegisteredEDeliveryWithoutTTP.sol\":19955:19969  receiversState */\n      0x02\n        /* \"ConfidentialMultipartyRegisteredEDeliveryWithoutTTP.sol\":19955:19981  receiversState[msg.sender] */\n      0x00\n        /* \"ConfidentialMultipartyRegisteredEDeliveryWithoutTTP.sol\":19970:19980  msg.sender */\n      caller\n        /* \"ConfidentialMultipartyRegisteredEDeliveryWithoutTTP.sol\":19955:19981  receiversState[msg.sender] */\n      0xffffffffffffffffffffffffffffffffffffffff\n      and\n      0xffffffffffffffffffffffffffffffffffffffff\n      and\n      dup2\n      mstore\n      0x20\n      add\n      swap1\n      dup2\n      mstore\n      0x20\n      add\n      0x00\n      keccak256\n        /* \"ConfidentialMultipartyRegisteredEDeliveryWithoutTTP.sol\":19955:19987  receiversState[msg.sender].state */\n      0x06\n      add\n      0x00\n      swap1\n      sload\n      swap1\n      0x0100\n      exp\n      swap1\n      div\n      0xff\n      and\n        /* \"ConfidentialMultipartyRegisteredEDeliveryWithoutTTP.sol\":19955:20003  receiversState[msg.sender].state==State.accepted */\n      0x05\n      dup2\n      gt\n      iszero\n      tag_230\n      jumpi\n      invalid\n    tag_230:\n      eq\n        /* \"ConfidentialMultipartyRegisteredEDeliveryWithoutTTP.sol\":19947:20055  require(receiversState[msg.sender].state==State.accepted, \"Only receivers with 'accepted' state can cancel\") */\n      tag_231\n      jumpi\n      mload(0x40)\n      0x08c379a000000000000000000000000000000000000000000000000000000000\n      dup2\n      mstore\n      0x04\n      add\n      dup1\n      dup1\n      0x20\n      add\n      dup3\n      dup2\n      sub\n      dup3\n      mstore\n      0x2f\n      dup2\n      mstore\n      0x20\n      add\n      dup1\n      data_18b055803a9451a5a51eaf6e0cd2a01e7898b4f01cc29a99a52b0dc47b516321\n      0x2f\n      swap2\n      codecopy\n      0x40\n      add\n      swap2\n      pop\n      pop\n      mload(0x40)\n      dup1\n      swap2\n      sub\n      swap1\n      revert\n    tag_231:\n        /* \"ConfidentialMultipartyRegisteredEDeliveryWithoutTTP.sol\":20103:20118  State.cancelled */\n      0x02\n        /* \"ConfidentialMultipartyRegisteredEDeliveryWithoutTTP.sol\":20068:20082  receiversState */\n      dup1\n        /* \"ConfidentialMultipartyRegisteredEDeliveryWithoutTTP.sol\":20068:20094  receiversState[msg.sender] */\n      0x00\n        /* \"ConfidentialMultipartyRegisteredEDeliveryWithoutTTP.sol\":20083:20093  msg.sender */\n      caller\n        /* \"ConfidentialMultipartyRegisteredEDeliveryWithoutTTP.sol\":20068:20094  receiversState[msg.sender] */\n      0xffffffffffffffffffffffffffffffffffffffff\n      and\n      0xffffffffffffffffffffffffffffffffffffffff\n      and\n      dup2\n      mstore\n      0x20\n      add\n      swap1\n      dup2\n      mstore\n      0x20\n      add\n      0x00\n      keccak256\n        /* \"ConfidentialMultipartyRegisteredEDeliveryWithoutTTP.sol\":20068:20100  receiversState[msg.sender].state */\n      0x06\n      add\n      0x00\n        /* \"ConfidentialMultipartyRegisteredEDeliveryWithoutTTP.sol\":20068:20118  receiversState[msg.sender].state = State.cancelled */\n      0x0100\n      exp\n      dup2\n      sload\n      dup2\n      0xff\n      mul\n      not\n      and\n      swap1\n      dup4\n      0x05\n      dup2\n      gt\n      iszero\n      tag_232\n      jumpi\n      invalid\n    tag_232:\n      mul\n      or\n      swap1\n      sstore\n      pop\n        /* \"ConfidentialMultipartyRegisteredEDeliveryWithoutTTP.sol\":19831:20126  function cancel() public {\r... */\n      jump\t// out\n        /* \"ConfidentialMultipartyRegisteredEDeliveryWithoutTTP.sol\":15875:15970  uint256 public constant PP = 0xFFFFFFFFFFFFFFFFFFFFFFFFFFFFFFFFFFFFFFFFFFFFFFFFFFFFFFFEFFFFFC2F */\n    tag_118:\n        /* \"ConfidentialMultipartyRegisteredEDeliveryWithoutTTP.sol\":15904:15970  0xFFFFFFFFFFFFFFFFFFFFFFFFFFFFFFFFFFFFFFFFFFFFFFFFFFFFFFFEFFFFFC2F */\n      0xfffffffffffffffffffffffffffffffffffffffffffffffffffffffefffffc2f\n        /* \"ConfidentialMultipartyRegisteredEDeliveryWithoutTTP.sol\":15875:15970  uint256 public constant PP = 0xFFFFFFFFFFFFFFFFFFFFFFFFFFFFFFFFFFFFFFFFFFFFFFFFFFFFFFFEFFFFFC2F */\n      dup2\n      jump\t// out\n        /* \"ConfidentialMultipartyRegisteredEDeliveryWithoutTTP.sol\":15556:15571  string public A */\n    tag_121:\n      0x07\n      dup1\n      sload\n      0x01\n      dup2\n      0x01\n      and\n      iszero\n      0x0100\n      mul\n      sub\n      and\n      0x02\n      swap1\n      div\n      dup1\n      0x1f\n      add\n      0x20\n      dup1\n      swap2\n      div\n      mul\n      0x20\n      add\n      mload(0x40)\n      swap1\n      dup2\n      add\n      0x40\n      mstore\n      dup1\n      swap3\n      swap2\n      swap1\n      dup2\n      dup2\n      mstore\n      0x20\n      add\n      dup3\n      dup1\n      sload\n      0x01\n      dup2\n      0x01\n      and\n      iszero\n      0x0100\n      mul\n      sub\n      and\n      0x02\n      swap1\n      div\n      dup1\n      iszero\n      tag_233\n      jumpi\n      dup1\n      0x1f\n      lt\n      tag_234\n      jumpi\n      0x0100\n      dup1\n      dup4\n      sload\n      div\n      mul\n      dup4\n      mstore\n      swap2\n      0x20\n      add\n      swap2\n      jump(tag_233)\n    tag_234:\n      dup3\n      add\n      swap2\n      swap1\n      0x00\n      mstore\n      keccak256(0x00, 0x20)\n      swap1\n    tag_235:\n      dup2\n      sload\n      dup2\n      mstore\n      swap1\n      0x01\n      add\n      swap1\n      0x20\n      add\n      dup1\n      dup4\n      gt\n      tag_235\n      jumpi\n      dup3\n      swap1\n      sub\n      0x1f\n      and\n      dup3\n      add\n      swap2\n    tag_233:\n      pop\n      pop\n      pop\n      pop\n      pop\n      dup2\n      jump\t// out\n        /* \"ConfidentialMultipartyRegisteredEDeliveryWithoutTTP.sol\":15369:15425  mapping (address => ReceiverState) public receiversState */\n    tag_129:\n      mstore(0x20, 0x02)\n      dup1\n      0x00\n      mstore\n      keccak256(0x00, 0x40)\n      0x00\n      swap2\n      pop\n      swap1\n      pop\n      dup1\n      0x00\n      add\n      dup1\n      sload\n      0x01\n      dup2\n      0x01\n      and\n      iszero\n      0x0100\n      mul\n      sub\n      and\n      0x02\n      swap1\n      div\n      dup1\n      0x1f\n      add\n      0x20\n      dup1\n      swap2\n      div\n      mul\n      0x20\n      add\n      mload(0x40)\n      swap1\n      dup2\n      add\n      0x40\n      mstore\n      dup1\n      swap3\n      swap2\n      swap1\n      dup2\n      dup2\n      mstore\n      0x20\n      add\n      dup3\n      dup1\n      sload\n      0x01\n      dup2\n      0x01\n      and\n      iszero\n      0x0100\n      mul\n      sub\n      and\n      0x02\n      swap1\n      div\n      dup1\n      iszero\n      tag_236\n      jumpi\n      dup1\n      0x1f\n      lt\n      tag_237\n      jumpi\n      0x0100\n      dup1\n      dup4\n      sload\n      div\n      mul\n      dup4\n      mstore\n      swap2\n      0x20\n      add\n      swap2\n      jump(tag_236)\n    tag_237:\n      dup3\n      add\n      swap2\n      swap1\n      0x00\n      mstore\n      keccak256(0x00, 0x20)\n      swap1\n    tag_238:\n      dup2\n      sload\n      dup2\n      mstore\n      swap1\n      0x01\n      add\n      swap1\n      0x20\n      add\n      dup1\n      dup4\n      gt\n      tag_238\n      jumpi\n      dup3\n      swap1\n      sub\n      0x1f\n      and\n      dup3\n      add\n      swap2\n    tag_236:\n      pop\n      pop\n      pop\n      pop\n      pop\n      swap1\n      dup1\n      0x01\n      add\n      dup1\n      sload\n      0x01\n      dup2\n      0x01\n      and\n      iszero\n      0x0100\n      mul\n      sub\n      and\n      0x02\n      swap1\n      div\n      dup1\n      0x1f\n      add\n      0x20\n      dup1\n      swap2\n      div\n      mul\n      0x20\n      add\n      mload(0x40)\n      swap1\n      dup2\n      add\n      0x40\n      mstore\n      dup1\n      swap3\n      swap2\n      swap1\n      dup2\n      dup2\n      mstore\n      0x20\n      add\n      dup3\n      dup1\n      sload\n      0x01\n      dup2\n      0x01\n      and\n      iszero\n      0x0100\n      mul\n      sub\n      and\n      0x02\n      swap1\n      div\n      dup1\n      iszero\n      tag_239\n      jumpi\n      dup1\n      0x1f\n      lt\n      tag_240\n      jumpi\n      0x0100\n      dup1\n      dup4\n      sload\n      div\n      mul\n      dup4\n      mstore\n      swap2\n      0x20\n      add\n      swap2\n      jump(tag_239)\n    tag_240:\n      dup3\n      add\n      swap2\n      swap1\n      0x00\n      mstore\n      keccak256(0x00, 0x20)\n      swap1\n    tag_241:\n      dup2\n      sload\n      dup2\n      mstore\n      swap1\n      0x01\n      add\n      swap1\n      0x20\n      add\n      dup1\n      dup4\n      gt\n      tag_241\n      jumpi\n      dup3\n      swap1\n      sub\n      0x1f\n      and\n      dup3\n      add\n      swap2\n    tag_239:\n      pop\n      pop\n      pop\n      pop\n      pop\n      swap1\n      dup1\n      0x02\n      add\n      sload\n      swap1\n      dup1\n      0x03\n      add\n      sload\n      swap1\n      dup1\n      0x04\n      add\n      sload\n      swap1\n      dup1\n      0x05\n      add\n      sload\n      swap1\n      dup1\n      0x06\n      add\n      0x00\n      swap1\n      sload\n      swap1\n      0x0100\n      exp\n      swap1\n      div\n      0xff\n      and\n      swap1\n      pop\n      dup8\n      jump\t// out\n        /* \"ConfidentialMultipartyRegisteredEDeliveryWithoutTTP.sol\":6989:7391  function ecMul(\r... */\n    tag_168:\n        /* \"ConfidentialMultipartyRegisteredEDeliveryWithoutTTP.sol\":7117:7124  uint256 */\n      0x00\n        /* \"ConfidentialMultipartyRegisteredEDeliveryWithoutTTP.sol\":7126:7133  uint256 */\n      dup1\n        /* \"ConfidentialMultipartyRegisteredEDeliveryWithoutTTP.sol\":7178:7188  uint256 x1 */\n      0x00\n        /* \"ConfidentialMultipartyRegisteredEDeliveryWithoutTTP.sol\":7190:7200  uint256 y1 */\n      dup1\n        /* \"ConfidentialMultipartyRegisteredEDeliveryWithoutTTP.sol\":7202:7212  uint256 z1 */\n      0x00\n        /* \"ConfidentialMultipartyRegisteredEDeliveryWithoutTTP.sol\":7216:7290  jacMul(\r... */\n      tag_243\n        /* \"ConfidentialMultipartyRegisteredEDeliveryWithoutTTP.sol\":7231:7233  _k */\n      dup11\n        /* \"ConfidentialMultipartyRegisteredEDeliveryWithoutTTP.sol\":7242:7244  _x */\n      dup11\n        /* \"ConfidentialMultipartyRegisteredEDeliveryWithoutTTP.sol\":7253:7255  _y */\n      dup11\n        /* \"ConfidentialMultipartyRegisteredEDeliveryWithoutTTP.sol\":7264:7265  1 */\n      0x01\n        /* \"ConfidentialMultipartyRegisteredEDeliveryWithoutTTP.sol\":7274:7277  _aa */\n      dup12\n        /* \"ConfidentialMultipartyRegisteredEDeliveryWithoutTTP.sol\":7286:7289  _pp */\n      dup12\n        /* \"ConfidentialMultipartyRegisteredEDeliveryWithoutTTP.sol\":7216:7222  jacMul */\n      tag_244\n        /* \"ConfidentialMultipartyRegisteredEDeliveryWithoutTTP.sol\":7216:7290  jacMul(\r... */\n      jump\t// in\n    tag_243:\n        /* \"ConfidentialMultipartyRegisteredEDeliveryWithoutTTP.sol\":7177:7290  (uint256 x1, uint256 y1, uint256 z1) = jacMul(\r... */\n      swap3\n      pop\n      swap3\n      pop\n      swap3\n      pop\n        /* \"ConfidentialMultipartyRegisteredEDeliveryWithoutTTP.sol\":7331:7385  toAffine(\r... */\n      tag_245\n        /* \"ConfidentialMultipartyRegisteredEDeliveryWithoutTTP.sol\":7348:7350  x1 */\n      dup4\n        /* \"ConfidentialMultipartyRegisteredEDeliveryWithoutTTP.sol\":7359:7361  y1 */\n      dup4\n        /* \"ConfidentialMultipartyRegisteredEDeliveryWithoutTTP.sol\":7370:7372  z1 */\n      dup4\n        /* \"ConfidentialMultipartyRegisteredEDeliveryWithoutTTP.sol\":7381:7384  _pp */\n      dup10\n        /* \"ConfidentialMultipartyRegisteredEDeliveryWithoutTTP.sol\":7331:7339  toAffine */\n      tag_246\n        /* \"ConfidentialMultipartyRegisteredEDeliveryWithoutTTP.sol\":7331:7385  toAffine(\r... */\n      jump\t// in\n    tag_245:\n        /* \"ConfidentialMultipartyRegisteredEDeliveryWithoutTTP.sol\":7324:7385  return toAffine(\r... */\n      swap5\n      pop\n      swap5\n      pop\n      pop\n      pop\n      pop\n        /* \"ConfidentialMultipartyRegisteredEDeliveryWithoutTTP.sol\":6989:7391  function ecMul(\r... */\n      swap6\n      pop\n      swap6\n      swap4\n      pop\n      pop\n      pop\n      pop\n      jump\t// out\n        /* \"ConfidentialMultipartyRegisteredEDeliveryWithoutTTP.sol\":5204:5970  function ecAdd(\r... */\n    tag_171:\n        /* \"ConfidentialMultipartyRegisteredEDeliveryWithoutTTP.sol\":5355:5362  uint256 */\n      0x00\n        /* \"ConfidentialMultipartyRegisteredEDeliveryWithoutTTP.sol\":5364:5371  uint256 */\n      dup1\n        /* \"ConfidentialMultipartyRegisteredEDeliveryWithoutTTP.sol\":5383:5389  uint x */\n      0x00\n        /* \"ConfidentialMultipartyRegisteredEDeliveryWithoutTTP.sol\":5400:5406  uint y */\n      dup1\n        /* \"ConfidentialMultipartyRegisteredEDeliveryWithoutTTP.sol\":5417:5423  uint z */\n      0x00\n        /* \"ConfidentialMultipartyRegisteredEDeliveryWithoutTTP.sol\":5479:5482  _x2 */\n      dup9\n        /* \"ConfidentialMultipartyRegisteredEDeliveryWithoutTTP.sol\":5474:5477  _x1 */\n      dup12\n        /* \"ConfidentialMultipartyRegisteredEDeliveryWithoutTTP.sol\":5474:5482  _x1==_x2 */\n      eq\n        /* \"ConfidentialMultipartyRegisteredEDeliveryWithoutTTP.sol\":5470:5873  if (_x1==_x2) {\r... */\n      iszero\n      tag_248\n      jumpi\n        /* \"ConfidentialMultipartyRegisteredEDeliveryWithoutTTP.sol\":5547:5548  0 */\n      0x00\n        /* \"ConfidentialMultipartyRegisteredEDeliveryWithoutTTP.sol\":5539:5542  _pp */\n      dup7\n        /* \"ConfidentialMultipartyRegisteredEDeliveryWithoutTTP.sol\":5522:5543  addmod(_y1, _y2, _pp) */\n      dup1\n      tag_249\n      jumpi\n      invalid\n    tag_249:\n        /* \"ConfidentialMultipartyRegisteredEDeliveryWithoutTTP.sol\":5534:5537  _y2 */\n      dup10\n        /* \"ConfidentialMultipartyRegisteredEDeliveryWithoutTTP.sol\":5529:5532  _y1 */\n      dup13\n        /* \"ConfidentialMultipartyRegisteredEDeliveryWithoutTTP.sol\":5522:5543  addmod(_y1, _y2, _pp) */\n      addmod\n        /* \"ConfidentialMultipartyRegisteredEDeliveryWithoutTTP.sol\":5522:5548  addmod(_y1, _y2, _pp) == 0 */\n      eq\n        /* \"ConfidentialMultipartyRegisteredEDeliveryWithoutTTP.sol\":5518:5730  if (addmod(_y1, _y2, _pp) == 0) {\r... */\n      iszero\n      tag_250\n      jumpi\n        /* \"ConfidentialMultipartyRegisteredEDeliveryWithoutTTP.sol\":5568:5569  0 */\n      0x00\n        /* \"ConfidentialMultipartyRegisteredEDeliveryWithoutTTP.sol\":5571:5572  0 */\n      dup1\n        /* \"ConfidentialMultipartyRegisteredEDeliveryWithoutTTP.sol\":5561:5573  return(0, 0) */\n      swap5\n      pop\n      swap5\n      pop\n      pop\n      pop\n      pop\n      jump(tag_247)\n        /* \"ConfidentialMultipartyRegisteredEDeliveryWithoutTTP.sol\":5518:5730  if (addmod(_y1, _y2, _pp) == 0) {\r... */\n    tag_250:\n        /* \"ConfidentialMultipartyRegisteredEDeliveryWithoutTTP.sol\":5632:5720  jacDouble(\r... */\n      tag_252\n        /* \"ConfidentialMultipartyRegisteredEDeliveryWithoutTTP.sol\":5654:5657  _x1 */\n      dup12\n        /* \"ConfidentialMultipartyRegisteredEDeliveryWithoutTTP.sol\":5670:5673  _y1 */\n      dup12\n        /* \"ConfidentialMultipartyRegisteredEDeliveryWithoutTTP.sol\":5686:5687  1 */\n      0x01\n        /* \"ConfidentialMultipartyRegisteredEDeliveryWithoutTTP.sol\":5700:5703  _aa */\n      dup11\n        /* \"ConfidentialMultipartyRegisteredEDeliveryWithoutTTP.sol\":5716:5719  _pp */\n      dup11\n        /* \"ConfidentialMultipartyRegisteredEDeliveryWithoutTTP.sol\":5632:5641  jacDouble */\n      tag_253\n        /* \"ConfidentialMultipartyRegisteredEDeliveryWithoutTTP.sol\":5632:5720  jacDouble(\r... */\n      jump\t// in\n    tag_252:\n        /* \"ConfidentialMultipartyRegisteredEDeliveryWithoutTTP.sol\":5620:5720  (x, y, z) = jacDouble(\r... */\n      dup1\n      swap4\n      pop\n      dup2\n      swap5\n      pop\n      dup3\n      swap6\n      pop\n      pop\n      pop\n      pop\n        /* \"ConfidentialMultipartyRegisteredEDeliveryWithoutTTP.sol\":5470:5873  if (_x1==_x2) {\r... */\n      jump(tag_254)\n    tag_248:\n        /* \"ConfidentialMultipartyRegisteredEDeliveryWithoutTTP.sol\":5764:5865  jacAdd(\r... */\n      tag_255\n        /* \"ConfidentialMultipartyRegisteredEDeliveryWithoutTTP.sol\":5781:5784  _x1 */\n      dup12\n        /* \"ConfidentialMultipartyRegisteredEDeliveryWithoutTTP.sol\":5795:5798  _y1 */\n      dup12\n        /* \"ConfidentialMultipartyRegisteredEDeliveryWithoutTTP.sol\":5809:5810  1 */\n      0x01\n        /* \"ConfidentialMultipartyRegisteredEDeliveryWithoutTTP.sol\":5821:5824  _x2 */\n      dup13\n        /* \"ConfidentialMultipartyRegisteredEDeliveryWithoutTTP.sol\":5835:5838  _y2 */\n      dup13\n        /* \"ConfidentialMultipartyRegisteredEDeliveryWithoutTTP.sol\":5849:5850  1 */\n      0x01\n        /* \"ConfidentialMultipartyRegisteredEDeliveryWithoutTTP.sol\":5861:5864  _pp */\n      dup13\n        /* \"ConfidentialMultipartyRegisteredEDeliveryWithoutTTP.sol\":5764:5770  jacAdd */\n      tag_256\n        /* \"ConfidentialMultipartyRegisteredEDeliveryWithoutTTP.sol\":5764:5865  jacAdd(\r... */\n      jump\t// in\n    tag_255:\n        /* \"ConfidentialMultipartyRegisteredEDeliveryWithoutTTP.sol\":5752:5865  (x, y, z) = jacAdd(\r... */\n      dup1\n      swap4\n      pop\n      dup2\n      swap5\n      pop\n      dup3\n      swap6\n      pop\n      pop\n      pop\n      pop\n        /* \"ConfidentialMultipartyRegisteredEDeliveryWithoutTTP.sol\":5470:5873  if (_x1==_x2) {\r... */\n    tag_254:\n        /* \"ConfidentialMultipartyRegisteredEDeliveryWithoutTTP.sol\":5913:5964  toAffine(\r... */\n      tag_257\n        /* \"ConfidentialMultipartyRegisteredEDeliveryWithoutTTP.sol\":5930:5931  x */\n      dup4\n        /* \"ConfidentialMultipartyRegisteredEDeliveryWithoutTTP.sol\":5940:5941  y */\n      dup4\n        /* \"ConfidentialMultipartyRegisteredEDeliveryWithoutTTP.sol\":5950:5951  z */\n      dup4\n        /* \"ConfidentialMultipartyRegisteredEDeliveryWithoutTTP.sol\":5960:5963  _pp */\n      dup10\n        /* \"ConfidentialMultipartyRegisteredEDeliveryWithoutTTP.sol\":5913:5921  toAffine */\n      tag_246\n        /* \"ConfidentialMultipartyRegisteredEDeliveryWithoutTTP.sol\":5913:5964  toAffine(\r... */\n      jump\t// in\n    tag_257:\n        /* \"ConfidentialMultipartyRegisteredEDeliveryWithoutTTP.sol\":5906:5964  return toAffine(\r... */\n      swap5\n      pop\n      swap5\n      pop\n      pop\n      pop\n      pop\n        /* \"ConfidentialMultipartyRegisteredEDeliveryWithoutTTP.sol\":5204:5970  function ecAdd(\r... */\n    tag_247:\n      swap7\n      pop\n      swap7\n      swap5\n      pop\n      pop\n      pop\n      pop\n      pop\n      jump\t// out\n        /* \"ConfidentialMultipartyRegisteredEDeliveryWithoutTTP.sol\":11339:12131  function jacMul(\r... */\n    tag_244:\n        /* \"ConfidentialMultipartyRegisteredEDeliveryWithoutTTP.sol\":11486:11493  uint256 */\n      0x00\n        /* \"ConfidentialMultipartyRegisteredEDeliveryWithoutTTP.sol\":11495:11502  uint256 */\n      dup1\n        /* \"ConfidentialMultipartyRegisteredEDeliveryWithoutTTP.sol\":11504:11511  uint256 */\n      0x00\n        /* \"ConfidentialMultipartyRegisteredEDeliveryWithoutTTP.sol\":11577:11578  0 */\n      dup1\n        /* \"ConfidentialMultipartyRegisteredEDeliveryWithoutTTP.sol\":11571:11573  _d */\n      dup10\n        /* \"ConfidentialMultipartyRegisteredEDeliveryWithoutTTP.sol\":11571:11578  _d == 0 */\n      eq\n        /* \"ConfidentialMultipartyRegisteredEDeliveryWithoutTTP.sol\":11567:11616  if (_d == 0) {\r... */\n      iszero\n      tag_259\n      jumpi\n        /* \"ConfidentialMultipartyRegisteredEDeliveryWithoutTTP.sol\":11597:11599  _x */\n      dup8\n        /* \"ConfidentialMultipartyRegisteredEDeliveryWithoutTTP.sol\":11601:11603  _y */\n      dup8\n        /* \"ConfidentialMultipartyRegisteredEDeliveryWithoutTTP.sol\":11605:11607  _z */\n      dup8\n        /* \"ConfidentialMultipartyRegisteredEDeliveryWithoutTTP.sol\":11589:11608  return (_x, _y, _z) */\n      swap3\n      pop\n      swap3\n      pop\n      swap3\n      pop\n      jump(tag_258)\n        /* \"ConfidentialMultipartyRegisteredEDeliveryWithoutTTP.sol\":11567:11616  if (_d == 0) {\r... */\n    tag_259:\n        /* \"ConfidentialMultipartyRegisteredEDeliveryWithoutTTP.sol\":11624:11641  uint256 remaining */\n      0x00\n        /* \"ConfidentialMultipartyRegisteredEDeliveryWithoutTTP.sol\":11644:11646  _d */\n      dup10\n        /* \"ConfidentialMultipartyRegisteredEDeliveryWithoutTTP.sol\":11624:11646  uint256 remaining = _d */\n      swap1\n      pop\n        /* \"ConfidentialMultipartyRegisteredEDeliveryWithoutTTP.sol\":11653:11663  uint256 qx */\n      0x00\n        /* \"ConfidentialMultipartyRegisteredEDeliveryWithoutTTP.sol\":11674:11684  uint256 qy */\n      dup1\n        /* \"ConfidentialMultipartyRegisteredEDeliveryWithoutTTP.sol\":11695:11705  uint256 qz */\n      0x00\n        /* \"ConfidentialMultipartyRegisteredEDeliveryWithoutTTP.sol\":11708:11709  1 */\n      0x01\n        /* \"ConfidentialMultipartyRegisteredEDeliveryWithoutTTP.sol\":11695:11709  uint256 qz = 1 */\n      swap1\n      pop\n        /* \"ConfidentialMultipartyRegisteredEDeliveryWithoutTTP.sol\":11751:12100  while (remaining != 0) {\r... */\n    tag_260:\n        /* \"ConfidentialMultipartyRegisteredEDeliveryWithoutTTP.sol\":11771:11772  0 */\n      0x00\n        /* \"ConfidentialMultipartyRegisteredEDeliveryWithoutTTP.sol\":11758:11767  remaining */\n      dup5\n        /* \"ConfidentialMultipartyRegisteredEDeliveryWithoutTTP.sol\":11758:11772  remaining != 0 */\n      eq\n        /* \"ConfidentialMultipartyRegisteredEDeliveryWithoutTTP.sol\":11751:12100  while (remaining != 0) {\r... */\n      tag_261\n      jumpi\n        /* \"ConfidentialMultipartyRegisteredEDeliveryWithoutTTP.sol\":11806:11807  0 */\n      0x00\n        /* \"ConfidentialMultipartyRegisteredEDeliveryWithoutTTP.sol\":11800:11801  1 */\n      0x01\n        /* \"ConfidentialMultipartyRegisteredEDeliveryWithoutTTP.sol\":11788:11797  remaining */\n      dup6\n        /* \"ConfidentialMultipartyRegisteredEDeliveryWithoutTTP.sol\":11788:11801  remaining & 1 */\n      and\n        /* \"ConfidentialMultipartyRegisteredEDeliveryWithoutTTP.sol\":11787:11807  (remaining & 1) != 0 */\n      eq\n        /* \"ConfidentialMultipartyRegisteredEDeliveryWithoutTTP.sol\":11783:11958  if ((remaining & 1) != 0) {\r... */\n      tag_262\n      jumpi\n        /* \"ConfidentialMultipartyRegisteredEDeliveryWithoutTTP.sol\":11835:11948  jacAdd(\r... */\n      tag_263\n        /* \"ConfidentialMultipartyRegisteredEDeliveryWithoutTTP.sol\":11854:11856  qx */\n      dup4\n        /* \"ConfidentialMultipartyRegisteredEDeliveryWithoutTTP.sol\":11869:11871  qy */\n      dup4\n        /* \"ConfidentialMultipartyRegisteredEDeliveryWithoutTTP.sol\":11884:11886  qz */\n      dup4\n        /* \"ConfidentialMultipartyRegisteredEDeliveryWithoutTTP.sol\":11899:11901  _x */\n      dup16\n        /* \"ConfidentialMultipartyRegisteredEDeliveryWithoutTTP.sol\":11914:11916  _y */\n      dup16\n        /* \"ConfidentialMultipartyRegisteredEDeliveryWithoutTTP.sol\":11929:11931  _z */\n      dup16\n        /* \"ConfidentialMultipartyRegisteredEDeliveryWithoutTTP.sol\":11944:11947  _pp */\n      dup15\n        /* \"ConfidentialMultipartyRegisteredEDeliveryWithoutTTP.sol\":11835:11841  jacAdd */\n      tag_256\n        /* \"ConfidentialMultipartyRegisteredEDeliveryWithoutTTP.sol\":11835:11948  jacAdd(\r... */\n      jump\t// in\n    tag_263:\n        /* \"ConfidentialMultipartyRegisteredEDeliveryWithoutTTP.sol\":11820:11948  (qx, qy, qz) = jacAdd(\r... */\n      dup1\n      swap4\n      pop\n      dup2\n      swap5\n      pop\n      dup3\n      swap6\n      pop\n      pop\n      pop\n      pop\n        /* \"ConfidentialMultipartyRegisteredEDeliveryWithoutTTP.sol\":11783:11958  if ((remaining & 1) != 0) {\r... */\n    tag_262:\n        /* \"ConfidentialMultipartyRegisteredEDeliveryWithoutTTP.sol\":11990:11991  2 */\n      0x02\n        /* \"ConfidentialMultipartyRegisteredEDeliveryWithoutTTP.sol\":11978:11987  remaining */\n      dup5\n        /* \"ConfidentialMultipartyRegisteredEDeliveryWithoutTTP.sol\":11978:11991  remaining / 2 */\n      dup2\n      tag_264\n      jumpi\n      invalid\n    tag_264:\n      div\n        /* \"ConfidentialMultipartyRegisteredEDeliveryWithoutTTP.sol\":11966:11991  remaining = remaining / 2 */\n      swap4\n      pop\n        /* \"ConfidentialMultipartyRegisteredEDeliveryWithoutTTP.sol\":12015:12092  jacDouble(\r... */\n      tag_265\n        /* \"ConfidentialMultipartyRegisteredEDeliveryWithoutTTP.sol\":12035:12037  _x */\n      dup13\n        /* \"ConfidentialMultipartyRegisteredEDeliveryWithoutTTP.sol\":12048:12050  _y */\n      dup13\n        /* \"ConfidentialMultipartyRegisteredEDeliveryWithoutTTP.sol\":12061:12063  _z */\n      dup13\n        /* \"ConfidentialMultipartyRegisteredEDeliveryWithoutTTP.sol\":12074:12077  _aa */\n      dup13\n        /* \"ConfidentialMultipartyRegisteredEDeliveryWithoutTTP.sol\":12088:12091  _pp */\n      dup13\n        /* \"ConfidentialMultipartyRegisteredEDeliveryWithoutTTP.sol\":12015:12024  jacDouble */\n      tag_253\n        /* \"ConfidentialMultipartyRegisteredEDeliveryWithoutTTP.sol\":12015:12092  jacDouble(\r... */\n      jump\t// in\n    tag_265:\n        /* \"ConfidentialMultipartyRegisteredEDeliveryWithoutTTP.sol\":12000:12092  (_x, _y, _z) = jacDouble(\r... */\n      dup1\n      swap13\n      pop\n      dup2\n      swap14\n      pop\n      dup3\n      swap15\n      pop\n      pop\n      pop\n      pop\n        /* \"ConfidentialMultipartyRegisteredEDeliveryWithoutTTP.sol\":11751:12100  while (remaining != 0) {\r... */\n      jump(tag_260)\n    tag_261:\n        /* \"ConfidentialMultipartyRegisteredEDeliveryWithoutTTP.sol\":12114:12116  qx */\n      dup3\n        /* \"ConfidentialMultipartyRegisteredEDeliveryWithoutTTP.sol\":12118:12120  qy */\n      dup3\n        /* \"ConfidentialMultipartyRegisteredEDeliveryWithoutTTP.sol\":12122:12124  qz */\n      dup3\n        /* \"ConfidentialMultipartyRegisteredEDeliveryWithoutTTP.sol\":12106:12125  return (qx, qy, qz) */\n      swap7\n      pop\n      swap7\n      pop\n      swap7\n      pop\n      pop\n      pop\n      pop\n      pop\n        /* \"ConfidentialMultipartyRegisteredEDeliveryWithoutTTP.sol\":11339:12131  function jacMul(\r... */\n    tag_258:\n      swap7\n      pop\n      swap7\n      pop\n      swap7\n      swap4\n      pop\n      pop\n      pop\n      pop\n      jump\t// out\n        /* \"ConfidentialMultipartyRegisteredEDeliveryWithoutTTP.sol\":2432:2783  function toAffine(\r... */\n    tag_246:\n        /* \"ConfidentialMultipartyRegisteredEDeliveryWithoutTTP.sol\":2546:2553  uint256 */\n      0x00\n        /* \"ConfidentialMultipartyRegisteredEDeliveryWithoutTTP.sol\":2555:2562  uint256 */\n      dup1\n        /* \"ConfidentialMultipartyRegisteredEDeliveryWithoutTTP.sol\":2574:2586  uint256 zInv */\n      0x00\n        /* \"ConfidentialMultipartyRegisteredEDeliveryWithoutTTP.sol\":2589:2604  invMod(_z, _pp) */\n      tag_267\n        /* \"ConfidentialMultipartyRegisteredEDeliveryWithoutTTP.sol\":2596:2598  _z */\n      dup6\n        /* \"ConfidentialMultipartyRegisteredEDeliveryWithoutTTP.sol\":2600:2603  _pp */\n      dup6\n        /* \"ConfidentialMultipartyRegisteredEDeliveryWithoutTTP.sol\":2589:2595  invMod */\n      tag_268\n        /* \"ConfidentialMultipartyRegisteredEDeliveryWithoutTTP.sol\":2589:2604  invMod(_z, _pp) */\n      jump\t// in\n    tag_267:\n        /* \"ConfidentialMultipartyRegisteredEDeliveryWithoutTTP.sol\":2574:2604  uint256 zInv = invMod(_z, _pp) */\n      swap1\n      pop\n        /* \"ConfidentialMultipartyRegisteredEDeliveryWithoutTTP.sol\":2611:2624  uint256 zInv2 */\n      0x00\n        /* \"ConfidentialMultipartyRegisteredEDeliveryWithoutTTP.sol\":2646:2649  _pp */\n      dup5\n        /* \"ConfidentialMultipartyRegisteredEDeliveryWithoutTTP.sol\":2627:2650  mulmod(zInv, zInv, _pp) */\n      dup1\n      tag_269\n      jumpi\n      invalid\n    tag_269:\n        /* \"ConfidentialMultipartyRegisteredEDeliveryWithoutTTP.sol\":2640:2644  zInv */\n      dup3\n        /* \"ConfidentialMultipartyRegisteredEDeliveryWithoutTTP.sol\":2634:2638  zInv */\n      dup4\n        /* \"ConfidentialMultipartyRegisteredEDeliveryWithoutTTP.sol\":2627:2650  mulmod(zInv, zInv, _pp) */\n      mulmod\n        /* \"ConfidentialMultipartyRegisteredEDeliveryWithoutTTP.sol\":2611:2650  uint256 zInv2 = mulmod(zInv, zInv, _pp) */\n      swap1\n      pop\n        /* \"ConfidentialMultipartyRegisteredEDeliveryWithoutTTP.sol\":2657:2667  uint256 x2 */\n      0x00\n        /* \"ConfidentialMultipartyRegisteredEDeliveryWithoutTTP.sol\":2688:2691  _pp */\n      dup6\n        /* \"ConfidentialMultipartyRegisteredEDeliveryWithoutTTP.sol\":2670:2692  mulmod(_x, zInv2, _pp) */\n      dup1\n      tag_270\n      jumpi\n      invalid\n    tag_270:\n        /* \"ConfidentialMultipartyRegisteredEDeliveryWithoutTTP.sol\":2681:2686  zInv2 */\n      dup3\n        /* \"ConfidentialMultipartyRegisteredEDeliveryWithoutTTP.sol\":2677:2679  _x */\n      dup11\n        /* \"ConfidentialMultipartyRegisteredEDeliveryWithoutTTP.sol\":2670:2692  mulmod(_x, zInv2, _pp) */\n      mulmod\n        /* \"ConfidentialMultipartyRegisteredEDeliveryWithoutTTP.sol\":2657:2692  uint256 x2 = mulmod(_x, zInv2, _pp) */\n      swap1\n      pop\n        /* \"ConfidentialMultipartyRegisteredEDeliveryWithoutTTP.sol\":2699:2709  uint256 y2 */\n      0x00\n        /* \"ConfidentialMultipartyRegisteredEDeliveryWithoutTTP.sol\":2749:2752  _pp */\n      dup7\n        /* \"ConfidentialMultipartyRegisteredEDeliveryWithoutTTP.sol\":2712:2753  mulmod(_y, mulmod(zInv, zInv2, _pp), _pp) */\n      dup1\n      tag_271\n      jumpi\n      invalid\n    tag_271:\n        /* \"ConfidentialMultipartyRegisteredEDeliveryWithoutTTP.sol\":2743:2746  _pp */\n      dup8\n        /* \"ConfidentialMultipartyRegisteredEDeliveryWithoutTTP.sol\":2723:2747  mulmod(zInv, zInv2, _pp) */\n      dup1\n      tag_272\n      jumpi\n      invalid\n    tag_272:\n        /* \"ConfidentialMultipartyRegisteredEDeliveryWithoutTTP.sol\":2736:2741  zInv2 */\n      dup5\n        /* \"ConfidentialMultipartyRegisteredEDeliveryWithoutTTP.sol\":2730:2734  zInv */\n      dup7\n        /* \"ConfidentialMultipartyRegisteredEDeliveryWithoutTTP.sol\":2723:2747  mulmod(zInv, zInv2, _pp) */\n      mulmod\n        /* \"ConfidentialMultipartyRegisteredEDeliveryWithoutTTP.sol\":2719:2721  _y */\n      dup11\n        /* \"ConfidentialMultipartyRegisteredEDeliveryWithoutTTP.sol\":2712:2753  mulmod(_y, mulmod(zInv, zInv2, _pp), _pp) */\n      mulmod\n        /* \"ConfidentialMultipartyRegisteredEDeliveryWithoutTTP.sol\":2699:2753  uint256 y2 = mulmod(_y, mulmod(zInv, zInv2, _pp), _pp) */\n      swap1\n      pop\n        /* \"ConfidentialMultipartyRegisteredEDeliveryWithoutTTP.sol\":2770:2772  x2 */\n      dup2\n        /* \"ConfidentialMultipartyRegisteredEDeliveryWithoutTTP.sol\":2774:2776  y2 */\n      dup2\n        /* \"ConfidentialMultipartyRegisteredEDeliveryWithoutTTP.sol\":2762:2777  return (x2, y2) */\n      swap6\n      pop\n      swap6\n      pop\n      pop\n      pop\n      pop\n      pop\n        /* \"ConfidentialMultipartyRegisteredEDeliveryWithoutTTP.sol\":2432:2783  function toAffine(\r... */\n      swap5\n      pop\n      swap5\n      swap3\n      pop\n      pop\n      pop\n      jump\t// out\n        /* \"ConfidentialMultipartyRegisteredEDeliveryWithoutTTP.sol\":9755:11032  function jacDouble(\r... */\n    tag_253:\n        /* \"ConfidentialMultipartyRegisteredEDeliveryWithoutTTP.sol\":9888:9895  uint256 */\n      0x00\n        /* \"ConfidentialMultipartyRegisteredEDeliveryWithoutTTP.sol\":9897:9904  uint256 */\n      dup1\n        /* \"ConfidentialMultipartyRegisteredEDeliveryWithoutTTP.sol\":9906:9913  uint256 */\n      0x00\n        /* \"ConfidentialMultipartyRegisteredEDeliveryWithoutTTP.sol\":9935:9936  0 */\n      dup1\n        /* \"ConfidentialMultipartyRegisteredEDeliveryWithoutTTP.sol\":9929:9931  _z */\n      dup7\n        /* \"ConfidentialMultipartyRegisteredEDeliveryWithoutTTP.sol\":9929:9936  _z == 0 */\n      eq\n        /* \"ConfidentialMultipartyRegisteredEDeliveryWithoutTTP.sol\":9925:9964  if (_z == 0)\r... */\n      iszero\n      tag_274\n      jumpi\n        /* \"ConfidentialMultipartyRegisteredEDeliveryWithoutTTP.sol\":9953:9955  _x */\n      dup8\n        /* \"ConfidentialMultipartyRegisteredEDeliveryWithoutTTP.sol\":9957:9959  _y */\n      dup8\n        /* \"ConfidentialMultipartyRegisteredEDeliveryWithoutTTP.sol\":9961:9963  _z */\n      dup8\n        /* \"ConfidentialMultipartyRegisteredEDeliveryWithoutTTP.sol\":9945:9964  return (_x, _y, _z) */\n      swap3\n      pop\n      swap3\n      pop\n      swap3\n      pop\n      jump(tag_273)\n        /* \"ConfidentialMultipartyRegisteredEDeliveryWithoutTTP.sol\":9925:9964  if (_z == 0)\r... */\n    tag_274:\n        /* \"ConfidentialMultipartyRegisteredEDeliveryWithoutTTP.sol\":10262:10271  uint256 x */\n      0x00\n        /* \"ConfidentialMultipartyRegisteredEDeliveryWithoutTTP.sol\":10289:10292  _pp */\n      dup5\n        /* \"ConfidentialMultipartyRegisteredEDeliveryWithoutTTP.sol\":10274:10293  mulmod(_x, _x, _pp) */\n      dup1\n      tag_275\n      jumpi\n      invalid\n    tag_275:\n        /* \"ConfidentialMultipartyRegisteredEDeliveryWithoutTTP.sol\":10285:10287  _x */\n      dup10\n        /* \"ConfidentialMultipartyRegisteredEDeliveryWithoutTTP.sol\":10281:10283  _x */\n      dup11\n        /* \"ConfidentialMultipartyRegisteredEDeliveryWithoutTTP.sol\":10274:10293  mulmod(_x, _x, _pp) */\n      mulmod\n        /* \"ConfidentialMultipartyRegisteredEDeliveryWithoutTTP.sol\":10262:10293  uint256 x = mulmod(_x, _x, _pp) */\n      swap1\n      pop\n        /* \"ConfidentialMultipartyRegisteredEDeliveryWithoutTTP.sol\":10307:10316  uint256 y */\n      0x00\n        /* \"ConfidentialMultipartyRegisteredEDeliveryWithoutTTP.sol\":10334:10337  _pp */\n      dup6\n        /* \"ConfidentialMultipartyRegisteredEDeliveryWithoutTTP.sol\":10319:10338  mulmod(_y, _y, _pp) */\n      dup1\n      tag_276\n      jumpi\n      invalid\n    tag_276:\n        /* \"ConfidentialMultipartyRegisteredEDeliveryWithoutTTP.sol\":10330:10332  _y */\n      dup10\n        /* \"ConfidentialMultipartyRegisteredEDeliveryWithoutTTP.sol\":10326:10328  _y */\n      dup11\n        /* \"ConfidentialMultipartyRegisteredEDeliveryWithoutTTP.sol\":10319:10338  mulmod(_y, _y, _pp) */\n      mulmod\n        /* \"ConfidentialMultipartyRegisteredEDeliveryWithoutTTP.sol\":10307:10338  uint256 y = mulmod(_y, _y, _pp) */\n      swap1\n      pop\n        /* \"ConfidentialMultipartyRegisteredEDeliveryWithoutTTP.sol\":10352:10361  uint256 z */\n      0x00\n        /* \"ConfidentialMultipartyRegisteredEDeliveryWithoutTTP.sol\":10379:10382  _pp */\n      dup7\n        /* \"ConfidentialMultipartyRegisteredEDeliveryWithoutTTP.sol\":10364:10383  mulmod(_z, _z, _pp) */\n      dup1\n      tag_277\n      jumpi\n      invalid\n    tag_277:\n        /* \"ConfidentialMultipartyRegisteredEDeliveryWithoutTTP.sol\":10375:10377  _z */\n      dup10\n        /* \"ConfidentialMultipartyRegisteredEDeliveryWithoutTTP.sol\":10371:10373  _z */\n      dup11\n        /* \"ConfidentialMultipartyRegisteredEDeliveryWithoutTTP.sol\":10364:10383  mulmod(_z, _z, _pp) */\n      mulmod\n        /* \"ConfidentialMultipartyRegisteredEDeliveryWithoutTTP.sol\":10352:10383  uint256 z = mulmod(_z, _z, _pp) */\n      swap1\n      pop\n        /* \"ConfidentialMultipartyRegisteredEDeliveryWithoutTTP.sol\":10409:10415  uint s */\n      0x00\n        /* \"ConfidentialMultipartyRegisteredEDeliveryWithoutTTP.sol\":10448:10451  _pp */\n      dup8\n        /* \"ConfidentialMultipartyRegisteredEDeliveryWithoutTTP.sol\":10418:10452  mulmod(4, mulmod(_x, y, _pp), _pp) */\n      dup1\n      tag_278\n      jumpi\n      invalid\n    tag_278:\n        /* \"ConfidentialMultipartyRegisteredEDeliveryWithoutTTP.sol\":10442:10445  _pp */\n      dup9\n        /* \"ConfidentialMultipartyRegisteredEDeliveryWithoutTTP.sol\":10428:10446  mulmod(_x, y, _pp) */\n      dup1\n      tag_279\n      jumpi\n      invalid\n    tag_279:\n        /* \"ConfidentialMultipartyRegisteredEDeliveryWithoutTTP.sol\":10439:10440  y */\n      dup5\n        /* \"ConfidentialMultipartyRegisteredEDeliveryWithoutTTP.sol\":10435:10437  _x */\n      dup15\n        /* \"ConfidentialMultipartyRegisteredEDeliveryWithoutTTP.sol\":10428:10446  mulmod(_x, y, _pp) */\n      mulmod\n        /* \"ConfidentialMultipartyRegisteredEDeliveryWithoutTTP.sol\":10425:10426  4 */\n      0x04\n        /* \"ConfidentialMultipartyRegisteredEDeliveryWithoutTTP.sol\":10418:10452  mulmod(4, mulmod(_x, y, _pp), _pp) */\n      mulmod\n        /* \"ConfidentialMultipartyRegisteredEDeliveryWithoutTTP.sol\":10409:10452  uint s = mulmod(4, mulmod(_x, y, _pp), _pp) */\n      swap1\n      pop\n        /* \"ConfidentialMultipartyRegisteredEDeliveryWithoutTTP.sol\":10469:10475  uint m */\n      0x00\n        /* \"ConfidentialMultipartyRegisteredEDeliveryWithoutTTP.sol\":10541:10544  _pp */\n      dup9\n        /* \"ConfidentialMultipartyRegisteredEDeliveryWithoutTTP.sol\":10478:10545  addmod(mulmod(3, x, _pp), mulmod(_aa, mulmod(z, z, _pp), _pp), _pp) */\n      dup1\n      tag_280\n      jumpi\n      invalid\n    tag_280:\n        /* \"ConfidentialMultipartyRegisteredEDeliveryWithoutTTP.sol\":10535:10538  _pp */\n      dup10\n        /* \"ConfidentialMultipartyRegisteredEDeliveryWithoutTTP.sol\":10504:10539  mulmod(_aa, mulmod(z, z, _pp), _pp) */\n      dup1\n      tag_281\n      jumpi\n      invalid\n    tag_281:\n        /* \"ConfidentialMultipartyRegisteredEDeliveryWithoutTTP.sol\":10529:10532  _pp */\n      dup11\n        /* \"ConfidentialMultipartyRegisteredEDeliveryWithoutTTP.sol\":10516:10533  mulmod(z, z, _pp) */\n      dup1\n      tag_282\n      jumpi\n      invalid\n    tag_282:\n        /* \"ConfidentialMultipartyRegisteredEDeliveryWithoutTTP.sol\":10526:10527  z */\n      dup6\n        /* \"ConfidentialMultipartyRegisteredEDeliveryWithoutTTP.sol\":10523:10524  z */\n      dup7\n        /* \"ConfidentialMultipartyRegisteredEDeliveryWithoutTTP.sol\":10516:10533  mulmod(z, z, _pp) */\n      mulmod\n        /* \"ConfidentialMultipartyRegisteredEDeliveryWithoutTTP.sol\":10511:10514  _aa */\n      dup13\n        /* \"ConfidentialMultipartyRegisteredEDeliveryWithoutTTP.sol\":10504:10539  mulmod(_aa, mulmod(z, z, _pp), _pp) */\n      mulmod\n        /* \"ConfidentialMultipartyRegisteredEDeliveryWithoutTTP.sol\":10498:10501  _pp */\n      dup11\n        /* \"ConfidentialMultipartyRegisteredEDeliveryWithoutTTP.sol\":10485:10502  mulmod(3, x, _pp) */\n      dup1\n      tag_283\n      jumpi\n      invalid\n    tag_283:\n        /* \"ConfidentialMultipartyRegisteredEDeliveryWithoutTTP.sol\":10495:10496  x */\n      dup8\n        /* \"ConfidentialMultipartyRegisteredEDeliveryWithoutTTP.sol\":10492:10493  3 */\n      0x03\n        /* \"ConfidentialMultipartyRegisteredEDeliveryWithoutTTP.sol\":10485:10502  mulmod(3, x, _pp) */\n      mulmod\n        /* \"ConfidentialMultipartyRegisteredEDeliveryWithoutTTP.sol\":10478:10545  addmod(mulmod(3, x, _pp), mulmod(_aa, mulmod(z, z, _pp), _pp), _pp) */\n      addmod\n        /* \"ConfidentialMultipartyRegisteredEDeliveryWithoutTTP.sol\":10469:10545  uint m = addmod(mulmod(3, x, _pp), mulmod(_aa, mulmod(z, z, _pp), _pp), _pp) */\n      swap1\n      pop\n        /* \"ConfidentialMultipartyRegisteredEDeliveryWithoutTTP.sol\":10796:10799  _pp */\n      dup9\n        /* \"ConfidentialMultipartyRegisteredEDeliveryWithoutTTP.sol\":10745:10800  addmod(mulmod(m, m, _pp), _pp - addmod(s, s, _pp), _pp) */\n      dup1\n      tag_284\n      jumpi\n      invalid\n    tag_284:\n        /* \"ConfidentialMultipartyRegisteredEDeliveryWithoutTTP.sol\":10790:10793  _pp */\n      dup10\n        /* \"ConfidentialMultipartyRegisteredEDeliveryWithoutTTP.sol\":10777:10794  addmod(s, s, _pp) */\n      dup1\n      tag_285\n      jumpi\n      invalid\n    tag_285:\n        /* \"ConfidentialMultipartyRegisteredEDeliveryWithoutTTP.sol\":10787:10788  s */\n      dup4\n        /* \"ConfidentialMultipartyRegisteredEDeliveryWithoutTTP.sol\":10784:10785  s */\n      dup5\n        /* \"ConfidentialMultipartyRegisteredEDeliveryWithoutTTP.sol\":10777:10794  addmod(s, s, _pp) */\n      addmod\n        /* \"ConfidentialMultipartyRegisteredEDeliveryWithoutTTP.sol\":10771:10774  _pp */\n      dup11\n        /* \"ConfidentialMultipartyRegisteredEDeliveryWithoutTTP.sol\":10771:10794  _pp - addmod(s, s, _pp) */\n      sub\n        /* \"ConfidentialMultipartyRegisteredEDeliveryWithoutTTP.sol\":10765:10768  _pp */\n      dup11\n        /* \"ConfidentialMultipartyRegisteredEDeliveryWithoutTTP.sol\":10752:10769  mulmod(m, m, _pp) */\n      dup1\n      tag_286\n      jumpi\n      invalid\n    tag_286:\n        /* \"ConfidentialMultipartyRegisteredEDeliveryWithoutTTP.sol\":10762:10763  m */\n      dup4\n        /* \"ConfidentialMultipartyRegisteredEDeliveryWithoutTTP.sol\":10759:10760  m */\n      dup5\n        /* \"ConfidentialMultipartyRegisteredEDeliveryWithoutTTP.sol\":10752:10769  mulmod(m, m, _pp) */\n      mulmod\n        /* \"ConfidentialMultipartyRegisteredEDeliveryWithoutTTP.sol\":10745:10800  addmod(mulmod(m, m, _pp), _pp - addmod(s, s, _pp), _pp) */\n      addmod\n        /* \"ConfidentialMultipartyRegisteredEDeliveryWithoutTTP.sol\":10741:10800  x = addmod(mulmod(m, m, _pp), _pp - addmod(s, s, _pp), _pp) */\n      swap5\n      pop\n        /* \"ConfidentialMultipartyRegisteredEDeliveryWithoutTTP.sol\":10930:10933  _pp */\n      dup9\n        /* \"ConfidentialMultipartyRegisteredEDeliveryWithoutTTP.sol\":10841:10934  addmod(mulmod(m, addmod(s, _pp - x, _pp), _pp), _pp - mulmod(8, mulmod(y, y, _pp), _pp), _pp) */\n      dup1\n      tag_287\n      jumpi\n      invalid\n    tag_287:\n        /* \"ConfidentialMultipartyRegisteredEDeliveryWithoutTTP.sol\":10924:10927  _pp */\n      dup10\n        /* \"ConfidentialMultipartyRegisteredEDeliveryWithoutTTP.sol\":10895:10928  mulmod(8, mulmod(y, y, _pp), _pp) */\n      dup1\n      tag_288\n      jumpi\n      invalid\n    tag_288:\n        /* \"ConfidentialMultipartyRegisteredEDeliveryWithoutTTP.sol\":10918:10921  _pp */\n      dup11\n        /* \"ConfidentialMultipartyRegisteredEDeliveryWithoutTTP.sol\":10905:10922  mulmod(y, y, _pp) */\n      dup1\n      tag_289\n      jumpi\n      invalid\n    tag_289:\n        /* \"ConfidentialMultipartyRegisteredEDeliveryWithoutTTP.sol\":10915:10916  y */\n      dup7\n        /* \"ConfidentialMultipartyRegisteredEDeliveryWithoutTTP.sol\":10912:10913  y */\n      dup8\n        /* \"ConfidentialMultipartyRegisteredEDeliveryWithoutTTP.sol\":10905:10922  mulmod(y, y, _pp) */\n      mulmod\n        /* \"ConfidentialMultipartyRegisteredEDeliveryWithoutTTP.sol\":10902:10903  8 */\n      0x08\n        /* \"ConfidentialMultipartyRegisteredEDeliveryWithoutTTP.sol\":10895:10928  mulmod(8, mulmod(y, y, _pp), _pp) */\n      mulmod\n        /* \"ConfidentialMultipartyRegisteredEDeliveryWithoutTTP.sol\":10889:10892  _pp */\n      dup11\n        /* \"ConfidentialMultipartyRegisteredEDeliveryWithoutTTP.sol\":10889:10928  _pp - mulmod(8, mulmod(y, y, _pp), _pp) */\n      sub\n        /* \"ConfidentialMultipartyRegisteredEDeliveryWithoutTTP.sol\":10883:10886  _pp */\n      dup11\n        /* \"ConfidentialMultipartyRegisteredEDeliveryWithoutTTP.sol\":10848:10887  mulmod(m, addmod(s, _pp - x, _pp), _pp) */\n      dup1\n      tag_290\n      jumpi\n      invalid\n    tag_290:\n        /* \"ConfidentialMultipartyRegisteredEDeliveryWithoutTTP.sol\":10877:10880  _pp */\n      dup12\n        /* \"ConfidentialMultipartyRegisteredEDeliveryWithoutTTP.sol\":10858:10881  addmod(s, _pp - x, _pp) */\n      dup1\n      tag_291\n      jumpi\n      invalid\n    tag_291:\n        /* \"ConfidentialMultipartyRegisteredEDeliveryWithoutTTP.sol\":10874:10875  x */\n      dup9\n        /* \"ConfidentialMultipartyRegisteredEDeliveryWithoutTTP.sol\":10868:10871  _pp */\n      dup14\n        /* \"ConfidentialMultipartyRegisteredEDeliveryWithoutTTP.sol\":10868:10875  _pp - x */\n      sub\n        /* \"ConfidentialMultipartyRegisteredEDeliveryWithoutTTP.sol\":10865:10866  s */\n      dup7\n        /* \"ConfidentialMultipartyRegisteredEDeliveryWithoutTTP.sol\":10858:10881  addmod(s, _pp - x, _pp) */\n      addmod\n        /* \"ConfidentialMultipartyRegisteredEDeliveryWithoutTTP.sol\":10855:10856  m */\n      dup5\n        /* \"ConfidentialMultipartyRegisteredEDeliveryWithoutTTP.sol\":10848:10887  mulmod(m, addmod(s, _pp - x, _pp), _pp) */\n      mulmod\n        /* \"ConfidentialMultipartyRegisteredEDeliveryWithoutTTP.sol\":10841:10934  addmod(mulmod(m, addmod(s, _pp - x, _pp), _pp), _pp - mulmod(8, mulmod(y, y, _pp), _pp), _pp) */\n      addmod\n        /* \"ConfidentialMultipartyRegisteredEDeliveryWithoutTTP.sol\":10837:10934  y = addmod(mulmod(m, addmod(s, _pp - x, _pp), _pp), _pp - mulmod(8, mulmod(y, y, _pp), _pp), _pp) */\n      swap4\n      pop\n        /* \"ConfidentialMultipartyRegisteredEDeliveryWithoutTTP.sol\":10997:11000  _pp */\n      dup9\n        /* \"ConfidentialMultipartyRegisteredEDeliveryWithoutTTP.sol\":10966:11001  mulmod(2, mulmod(_y, _z, _pp), _pp) */\n      dup1\n      tag_292\n      jumpi\n      invalid\n    tag_292:\n        /* \"ConfidentialMultipartyRegisteredEDeliveryWithoutTTP.sol\":10991:10994  _pp */\n      dup10\n        /* \"ConfidentialMultipartyRegisteredEDeliveryWithoutTTP.sol\":10976:10995  mulmod(_y, _z, _pp) */\n      dup1\n      tag_293\n      jumpi\n      invalid\n    tag_293:\n        /* \"ConfidentialMultipartyRegisteredEDeliveryWithoutTTP.sol\":10987:10989  _z */\n      dup13\n        /* \"ConfidentialMultipartyRegisteredEDeliveryWithoutTTP.sol\":10983:10985  _y */\n      dup15\n        /* \"ConfidentialMultipartyRegisteredEDeliveryWithoutTTP.sol\":10976:10995  mulmod(_y, _z, _pp) */\n      mulmod\n        /* \"ConfidentialMultipartyRegisteredEDeliveryWithoutTTP.sol\":10973:10974  2 */\n      0x02\n        /* \"ConfidentialMultipartyRegisteredEDeliveryWithoutTTP.sol\":10966:11001  mulmod(2, mulmod(_y, _z, _pp), _pp) */\n      mulmod\n        /* \"ConfidentialMultipartyRegisteredEDeliveryWithoutTTP.sol\":10962:11001  z = mulmod(2, mulmod(_y, _z, _pp), _pp) */\n      swap3\n      pop\n        /* \"ConfidentialMultipartyRegisteredEDeliveryWithoutTTP.sol\":11018:11019  x */\n      dup5\n        /* \"ConfidentialMultipartyRegisteredEDeliveryWithoutTTP.sol\":11021:11022  y */\n      dup5\n        /* \"ConfidentialMultipartyRegisteredEDeliveryWithoutTTP.sol\":11024:11025  z */\n      dup5\n        /* \"ConfidentialMultipartyRegisteredEDeliveryWithoutTTP.sol\":11010:11026  return (x, y, z) */\n      swap8\n      pop\n      swap8\n      pop\n      swap8\n      pop\n      pop\n      pop\n      pop\n      pop\n      pop\n        /* \"ConfidentialMultipartyRegisteredEDeliveryWithoutTTP.sol\":9755:11032  function jacDouble(\r... */\n    tag_273:\n      swap6\n      pop\n      swap6\n      pop\n      swap6\n      swap3\n      pop\n      pop\n      pop\n      jump\t// out\n        /* \"ConfidentialMultipartyRegisteredEDeliveryWithoutTTP.sol\":7769:9475  function jacAdd(\r... */\n    tag_256:\n        /* \"ConfidentialMultipartyRegisteredEDeliveryWithoutTTP.sol\":7938:7945  uint256 */\n      0x00\n        /* \"ConfidentialMultipartyRegisteredEDeliveryWithoutTTP.sol\":7947:7954  uint256 */\n      dup1\n        /* \"ConfidentialMultipartyRegisteredEDeliveryWithoutTTP.sol\":7956:7963  uint256 */\n      0x00\n        /* \"ConfidentialMultipartyRegisteredEDeliveryWithoutTTP.sol\":7984:7985  0 */\n      dup1\n        /* \"ConfidentialMultipartyRegisteredEDeliveryWithoutTTP.sol\":7979:7982  _x1 */\n      dup11\n        /* \"ConfidentialMultipartyRegisteredEDeliveryWithoutTTP.sol\":7979:7985  _x1==0 */\n      eq\n        /* \"ConfidentialMultipartyRegisteredEDeliveryWithoutTTP.sol\":7979:7995  _x1==0 && _y1==0 */\n      dup1\n      iszero\n      tag_295\n      jumpi\n      pop\n        /* \"ConfidentialMultipartyRegisteredEDeliveryWithoutTTP.sol\":7994:7995  0 */\n      0x00\n        /* \"ConfidentialMultipartyRegisteredEDeliveryWithoutTTP.sol\":7989:7992  _y1 */\n      dup10\n        /* \"ConfidentialMultipartyRegisteredEDeliveryWithoutTTP.sol\":7989:7995  _y1==0 */\n      eq\n        /* \"ConfidentialMultipartyRegisteredEDeliveryWithoutTTP.sol\":7979:7995  _x1==0 && _y1==0 */\n    tag_295:\n        /* \"ConfidentialMultipartyRegisteredEDeliveryWithoutTTP.sol\":7975:8026  if (_x1==0 && _y1==0)\r... */\n      iszero\n      tag_296\n      jumpi\n        /* \"ConfidentialMultipartyRegisteredEDeliveryWithoutTTP.sol\":8012:8015  _x2 */\n      dup7\n        /* \"ConfidentialMultipartyRegisteredEDeliveryWithoutTTP.sol\":8017:8020  _y2 */\n      dup7\n        /* \"ConfidentialMultipartyRegisteredEDeliveryWithoutTTP.sol\":8022:8025  _z2 */\n      dup7\n        /* \"ConfidentialMultipartyRegisteredEDeliveryWithoutTTP.sol\":8004:8026  return (_x2, _y2, _z2) */\n      swap3\n      pop\n      swap3\n      pop\n      swap3\n      pop\n      jump(tag_294)\n        /* \"ConfidentialMultipartyRegisteredEDeliveryWithoutTTP.sol\":7975:8026  if (_x1==0 && _y1==0)\r... */\n    tag_296:\n        /* \"ConfidentialMultipartyRegisteredEDeliveryWithoutTTP.sol\":8042:8043  0 */\n      0x00\n        /* \"ConfidentialMultipartyRegisteredEDeliveryWithoutTTP.sol\":8037:8040  _x2 */\n      dup8\n        /* \"ConfidentialMultipartyRegisteredEDeliveryWithoutTTP.sol\":8037:8043  _x2==0 */\n      eq\n        /* \"ConfidentialMultipartyRegisteredEDeliveryWithoutTTP.sol\":8037:8053  _x2==0 && _y2==0 */\n      dup1\n      iszero\n      tag_297\n      jumpi\n      pop\n        /* \"ConfidentialMultipartyRegisteredEDeliveryWithoutTTP.sol\":8052:8053  0 */\n      0x00\n        /* \"ConfidentialMultipartyRegisteredEDeliveryWithoutTTP.sol\":8047:8050  _y2 */\n      dup7\n        /* \"ConfidentialMultipartyRegisteredEDeliveryWithoutTTP.sol\":8047:8053  _y2==0 */\n      eq\n        /* \"ConfidentialMultipartyRegisteredEDeliveryWithoutTTP.sol\":8037:8053  _x2==0 && _y2==0 */\n    tag_297:\n        /* \"ConfidentialMultipartyRegisteredEDeliveryWithoutTTP.sol\":8033:8084  if (_x2==0 && _y2==0)\r... */\n      iszero\n      tag_298\n      jumpi\n        /* \"ConfidentialMultipartyRegisteredEDeliveryWithoutTTP.sol\":8070:8073  _x1 */\n      dup10\n        /* \"ConfidentialMultipartyRegisteredEDeliveryWithoutTTP.sol\":8075:8078  _y1 */\n      dup10\n        /* \"ConfidentialMultipartyRegisteredEDeliveryWithoutTTP.sol\":8080:8083  _z1 */\n      dup10\n        /* \"ConfidentialMultipartyRegisteredEDeliveryWithoutTTP.sol\":8062:8084  return (_x1, _y1, _z1) */\n      swap3\n      pop\n      swap3\n      pop\n      swap3\n      pop\n      jump(tag_294)\n        /* \"ConfidentialMultipartyRegisteredEDeliveryWithoutTTP.sol\":8033:8084  if (_x2==0 && _y2==0)\r... */\n    tag_298:\n        /* \"ConfidentialMultipartyRegisteredEDeliveryWithoutTTP.sol\":8227:8244  uint[4] memory zs */\n      tag_299\n      tag_300\n      jump\t// in\n    tag_299:\n        /* \"ConfidentialMultipartyRegisteredEDeliveryWithoutTTP.sol\":8302:8305  _pp */\n      dup5\n        /* \"ConfidentialMultipartyRegisteredEDeliveryWithoutTTP.sol\":8285:8306  mulmod(_z1, _z1, _pp) */\n      dup1\n      tag_301\n      jumpi\n      invalid\n    tag_301:\n        /* \"ConfidentialMultipartyRegisteredEDeliveryWithoutTTP.sol\":8297:8300  _z1 */\n      dup10\n        /* \"ConfidentialMultipartyRegisteredEDeliveryWithoutTTP.sol\":8292:8295  _z1 */\n      dup11\n        /* \"ConfidentialMultipartyRegisteredEDeliveryWithoutTTP.sol\":8285:8306  mulmod(_z1, _z1, _pp) */\n      mulmod\n        /* \"ConfidentialMultipartyRegisteredEDeliveryWithoutTTP.sol\":8277:8279  zs */\n      dup2\n        /* \"ConfidentialMultipartyRegisteredEDeliveryWithoutTTP.sol\":8280:8281  0 */\n      0x00\n        /* \"ConfidentialMultipartyRegisteredEDeliveryWithoutTTP.sol\":8277:8282  zs[0] */\n      0x04\n      dup2\n      lt\n      tag_302\n      jumpi\n      invalid\n    tag_302:\n      0x20\n      mul\n      add\n        /* \"ConfidentialMultipartyRegisteredEDeliveryWithoutTTP.sol\":8277:8306  zs[0] = mulmod(_z1, _z1, _pp) */\n      dup2\n      dup2\n      mstore\n      pop\n      pop\n        /* \"ConfidentialMultipartyRegisteredEDeliveryWithoutTTP.sol\":8340:8343  _pp */\n      dup5\n        /* \"ConfidentialMultipartyRegisteredEDeliveryWithoutTTP.sol\":8321:8344  mulmod(_z1, zs[0], _pp) */\n      dup1\n      tag_303\n      jumpi\n      invalid\n    tag_303:\n        /* \"ConfidentialMultipartyRegisteredEDeliveryWithoutTTP.sol\":8333:8335  zs */\n      dup2\n        /* \"ConfidentialMultipartyRegisteredEDeliveryWithoutTTP.sol\":8336:8337  0 */\n      0x00\n        /* \"ConfidentialMultipartyRegisteredEDeliveryWithoutTTP.sol\":8333:8338  zs[0] */\n      0x04\n      dup2\n      lt\n      tag_304\n      jumpi\n      invalid\n    tag_304:\n      0x20\n      mul\n      add\n      mload\n        /* \"ConfidentialMultipartyRegisteredEDeliveryWithoutTTP.sol\":8328:8331  _z1 */\n      dup11\n        /* \"ConfidentialMultipartyRegisteredEDeliveryWithoutTTP.sol\":8321:8344  mulmod(_z1, zs[0], _pp) */\n      mulmod\n        /* \"ConfidentialMultipartyRegisteredEDeliveryWithoutTTP.sol\":8313:8315  zs */\n      dup2\n        /* \"ConfidentialMultipartyRegisteredEDeliveryWithoutTTP.sol\":8316:8317  1 */\n      0x01\n        /* \"ConfidentialMultipartyRegisteredEDeliveryWithoutTTP.sol\":8313:8318  zs[1] */\n      0x04\n      dup2\n      lt\n      tag_305\n      jumpi\n      invalid\n    tag_305:\n      0x20\n      mul\n      add\n        /* \"ConfidentialMultipartyRegisteredEDeliveryWithoutTTP.sol\":8313:8344  zs[1] = mulmod(_z1, zs[0], _pp) */\n      dup2\n      dup2\n      mstore\n      pop\n      pop\n        /* \"ConfidentialMultipartyRegisteredEDeliveryWithoutTTP.sol\":8376:8379  _pp */\n      dup5\n        /* \"ConfidentialMultipartyRegisteredEDeliveryWithoutTTP.sol\":8359:8380  mulmod(_z2, _z2, _pp) */\n      dup1\n      tag_306\n      jumpi\n      invalid\n    tag_306:\n        /* \"ConfidentialMultipartyRegisteredEDeliveryWithoutTTP.sol\":8371:8374  _z2 */\n      dup7\n        /* \"ConfidentialMultipartyRegisteredEDeliveryWithoutTTP.sol\":8366:8369  _z2 */\n      dup8\n        /* \"ConfidentialMultipartyRegisteredEDeliveryWithoutTTP.sol\":8359:8380  mulmod(_z2, _z2, _pp) */\n      mulmod\n        /* \"ConfidentialMultipartyRegisteredEDeliveryWithoutTTP.sol\":8351:8353  zs */\n      dup2\n        /* \"ConfidentialMultipartyRegisteredEDeliveryWithoutTTP.sol\":8354:8355  2 */\n      0x02\n        /* \"ConfidentialMultipartyRegisteredEDeliveryWithoutTTP.sol\":8351:8356  zs[2] */\n      0x04\n      dup2\n      lt\n      tag_307\n      jumpi\n      invalid\n    tag_307:\n      0x20\n      mul\n      add\n        /* \"ConfidentialMultipartyRegisteredEDeliveryWithoutTTP.sol\":8351:8380  zs[2] = mulmod(_z2, _z2, _pp) */\n      dup2\n      dup2\n      mstore\n      pop\n      pop\n        /* \"ConfidentialMultipartyRegisteredEDeliveryWithoutTTP.sol\":8414:8417  _pp */\n      dup5\n        /* \"ConfidentialMultipartyRegisteredEDeliveryWithoutTTP.sol\":8395:8418  mulmod(_z2, zs[2], _pp) */\n      dup1\n      tag_308\n      jumpi\n      invalid\n    tag_308:\n        /* \"ConfidentialMultipartyRegisteredEDeliveryWithoutTTP.sol\":8407:8409  zs */\n      dup2\n        /* \"ConfidentialMultipartyRegisteredEDeliveryWithoutTTP.sol\":8410:8411  2 */\n      0x02\n        /* \"ConfidentialMultipartyRegisteredEDeliveryWithoutTTP.sol\":8407:8412  zs[2] */\n      0x04\n      dup2\n      lt\n      tag_309\n      jumpi\n      invalid\n    tag_309:\n      0x20\n      mul\n      add\n      mload\n        /* \"ConfidentialMultipartyRegisteredEDeliveryWithoutTTP.sol\":8402:8405  _z2 */\n      dup8\n        /* \"ConfidentialMultipartyRegisteredEDeliveryWithoutTTP.sol\":8395:8418  mulmod(_z2, zs[2], _pp) */\n      mulmod\n        /* \"ConfidentialMultipartyRegisteredEDeliveryWithoutTTP.sol\":8387:8389  zs */\n      dup2\n        /* \"ConfidentialMultipartyRegisteredEDeliveryWithoutTTP.sol\":8390:8391  3 */\n      0x03\n        /* \"ConfidentialMultipartyRegisteredEDeliveryWithoutTTP.sol\":8387:8392  zs[3] */\n      0x04\n      dup2\n      lt\n      tag_310\n      jumpi\n      invalid\n    tag_310:\n      0x20\n      mul\n      add\n        /* \"ConfidentialMultipartyRegisteredEDeliveryWithoutTTP.sol\":8387:8418  zs[3] = mulmod(_z2, zs[2], _pp) */\n      dup2\n      dup2\n      mstore\n      pop\n      pop\n        /* \"ConfidentialMultipartyRegisteredEDeliveryWithoutTTP.sol\":8450:8590  zs = [\r... */\n      mload(0x40)\n      dup1\n      0x80\n      add\n      0x40\n      mstore\n      dup1\n        /* \"ConfidentialMultipartyRegisteredEDeliveryWithoutTTP.sol\":8483:8486  _pp */\n      dup7\n        /* \"ConfidentialMultipartyRegisteredEDeliveryWithoutTTP.sol\":8464:8487  mulmod(_x1, zs[2], _pp) */\n      dup1\n      tag_311\n      jumpi\n      invalid\n    tag_311:\n        /* \"ConfidentialMultipartyRegisteredEDeliveryWithoutTTP.sol\":8476:8478  zs */\n      dup4\n        /* \"ConfidentialMultipartyRegisteredEDeliveryWithoutTTP.sol\":8479:8480  2 */\n      0x02\n        /* \"ConfidentialMultipartyRegisteredEDeliveryWithoutTTP.sol\":8476:8481  zs[2] */\n      0x04\n      dup2\n      lt\n      tag_312\n      jumpi\n      invalid\n    tag_312:\n      0x20\n      mul\n      add\n      mload\n        /* \"ConfidentialMultipartyRegisteredEDeliveryWithoutTTP.sol\":8471:8474  _x1 */\n      dup15\n        /* \"ConfidentialMultipartyRegisteredEDeliveryWithoutTTP.sol\":8464:8487  mulmod(_x1, zs[2], _pp) */\n      mulmod\n        /* \"ConfidentialMultipartyRegisteredEDeliveryWithoutTTP.sol\":8450:8590  zs = [\r... */\n      dup2\n      mstore\n      0x20\n      add\n        /* \"ConfidentialMultipartyRegisteredEDeliveryWithoutTTP.sol\":8515:8518  _pp */\n      dup7\n        /* \"ConfidentialMultipartyRegisteredEDeliveryWithoutTTP.sol\":8496:8519  mulmod(_y1, zs[3], _pp) */\n      dup1\n      tag_313\n      jumpi\n      invalid\n    tag_313:\n        /* \"ConfidentialMultipartyRegisteredEDeliveryWithoutTTP.sol\":8508:8510  zs */\n      dup4\n        /* \"ConfidentialMultipartyRegisteredEDeliveryWithoutTTP.sol\":8511:8512  3 */\n      0x03\n        /* \"ConfidentialMultipartyRegisteredEDeliveryWithoutTTP.sol\":8508:8513  zs[3] */\n      0x04\n      dup2\n      lt\n      tag_314\n      jumpi\n      invalid\n    tag_314:\n      0x20\n      mul\n      add\n      mload\n        /* \"ConfidentialMultipartyRegisteredEDeliveryWithoutTTP.sol\":8503:8506  _y1 */\n      dup14\n        /* \"ConfidentialMultipartyRegisteredEDeliveryWithoutTTP.sol\":8496:8519  mulmod(_y1, zs[3], _pp) */\n      mulmod\n        /* \"ConfidentialMultipartyRegisteredEDeliveryWithoutTTP.sol\":8450:8590  zs = [\r... */\n      dup2\n      mstore\n      0x20\n      add\n        /* \"ConfidentialMultipartyRegisteredEDeliveryWithoutTTP.sol\":8547:8550  _pp */\n      dup7\n        /* \"ConfidentialMultipartyRegisteredEDeliveryWithoutTTP.sol\":8528:8551  mulmod(_x2, zs[0], _pp) */\n      dup1\n      tag_315\n      jumpi\n      invalid\n    tag_315:\n        /* \"ConfidentialMultipartyRegisteredEDeliveryWithoutTTP.sol\":8540:8542  zs */\n      dup4\n        /* \"ConfidentialMultipartyRegisteredEDeliveryWithoutTTP.sol\":8543:8544  0 */\n      0x00\n        /* \"ConfidentialMultipartyRegisteredEDeliveryWithoutTTP.sol\":8540:8545  zs[0] */\n      0x04\n      dup2\n      lt\n      tag_316\n      jumpi\n      invalid\n    tag_316:\n      0x20\n      mul\n      add\n      mload\n        /* \"ConfidentialMultipartyRegisteredEDeliveryWithoutTTP.sol\":8535:8538  _x2 */\n      dup12\n        /* \"ConfidentialMultipartyRegisteredEDeliveryWithoutTTP.sol\":8528:8551  mulmod(_x2, zs[0], _pp) */\n      mulmod\n        /* \"ConfidentialMultipartyRegisteredEDeliveryWithoutTTP.sol\":8450:8590  zs = [\r... */\n      dup2\n      mstore\n      0x20\n      add\n        /* \"ConfidentialMultipartyRegisteredEDeliveryWithoutTTP.sol\":8579:8582  _pp */\n      dup7\n        /* \"ConfidentialMultipartyRegisteredEDeliveryWithoutTTP.sol\":8560:8583  mulmod(_y2, zs[1], _pp) */\n      dup1\n      tag_317\n      jumpi\n      invalid\n    tag_317:\n        /* \"ConfidentialMultipartyRegisteredEDeliveryWithoutTTP.sol\":8572:8574  zs */\n      dup4\n        /* \"ConfidentialMultipartyRegisteredEDeliveryWithoutTTP.sol\":8575:8576  1 */\n      0x01\n        /* \"ConfidentialMultipartyRegisteredEDeliveryWithoutTTP.sol\":8572:8577  zs[1] */\n      0x04\n      dup2\n      lt\n      tag_318\n      jumpi\n      invalid\n    tag_318:\n      0x20\n      mul\n      add\n      mload\n        /* \"ConfidentialMultipartyRegisteredEDeliveryWithoutTTP.sol\":8567:8570  _y2 */\n      dup11\n        /* \"ConfidentialMultipartyRegisteredEDeliveryWithoutTTP.sol\":8560:8583  mulmod(_y2, zs[1], _pp) */\n      mulmod\n        /* \"ConfidentialMultipartyRegisteredEDeliveryWithoutTTP.sol\":8450:8590  zs = [\r... */\n      dup2\n      mstore\n      pop\n      swap1\n      pop\n        /* \"ConfidentialMultipartyRegisteredEDeliveryWithoutTTP.sol\":8700:8702  zs */\n      dup1\n        /* \"ConfidentialMultipartyRegisteredEDeliveryWithoutTTP.sol\":8703:8704  2 */\n      0x02\n        /* \"ConfidentialMultipartyRegisteredEDeliveryWithoutTTP.sol\":8700:8705  zs[2] */\n      0x04\n      dup2\n      lt\n      tag_319\n      jumpi\n      invalid\n    tag_319:\n      0x20\n      mul\n      add\n      mload\n        /* \"ConfidentialMultipartyRegisteredEDeliveryWithoutTTP.sol\":8691:8693  zs */\n      dup2\n        /* \"ConfidentialMultipartyRegisteredEDeliveryWithoutTTP.sol\":8694:8695  0 */\n      0x00\n        /* \"ConfidentialMultipartyRegisteredEDeliveryWithoutTTP.sol\":8691:8696  zs[0] */\n      0x04\n      dup2\n      lt\n      tag_320\n      jumpi\n      invalid\n    tag_320:\n      0x20\n      mul\n      add\n      mload\n        /* \"ConfidentialMultipartyRegisteredEDeliveryWithoutTTP.sol\":8691:8705  zs[0] != zs[2] */\n      eq\n      iszero\n        /* \"ConfidentialMultipartyRegisteredEDeliveryWithoutTTP.sol\":8691:8723  zs[0] != zs[2] || zs[1] != zs[3] */\n      dup1\n      tag_321\n      jumpi\n      pop\n        /* \"ConfidentialMultipartyRegisteredEDeliveryWithoutTTP.sol\":8718:8720  zs */\n      dup1\n        /* \"ConfidentialMultipartyRegisteredEDeliveryWithoutTTP.sol\":8721:8722  3 */\n      0x03\n        /* \"ConfidentialMultipartyRegisteredEDeliveryWithoutTTP.sol\":8718:8723  zs[3] */\n      0x04\n      dup2\n      lt\n      tag_322\n      jumpi\n      invalid\n    tag_322:\n      0x20\n      mul\n      add\n      mload\n        /* \"ConfidentialMultipartyRegisteredEDeliveryWithoutTTP.sol\":8709:8711  zs */\n      dup2\n        /* \"ConfidentialMultipartyRegisteredEDeliveryWithoutTTP.sol\":8712:8713  1 */\n      0x01\n        /* \"ConfidentialMultipartyRegisteredEDeliveryWithoutTTP.sol\":8709:8714  zs[1] */\n      0x04\n      dup2\n      lt\n      tag_323\n      jumpi\n      invalid\n    tag_323:\n      0x20\n      mul\n      add\n      mload\n        /* \"ConfidentialMultipartyRegisteredEDeliveryWithoutTTP.sol\":8709:8723  zs[1] != zs[3] */\n      eq\n      iszero\n        /* \"ConfidentialMultipartyRegisteredEDeliveryWithoutTTP.sol\":8691:8723  zs[0] != zs[2] || zs[1] != zs[3] */\n    tag_321:\n        /* \"ConfidentialMultipartyRegisteredEDeliveryWithoutTTP.sol\":8683:8758  require(zs[0] != zs[2] || zs[1] != zs[3], \"Use jacDouble function instead\") */\n      tag_324\n      jumpi\n      mload(0x40)\n      0x08c379a000000000000000000000000000000000000000000000000000000000\n      dup2\n      mstore\n      0x04\n      add\n      dup1\n      dup1\n      0x20\n      add\n      dup3\n      dup2\n      sub\n      dup3\n      mstore\n      0x1e\n      dup2\n      mstore\n      0x20\n      add\n      dup1\n      0x557365206a6163446f75626c652066756e6374696f6e20696e73746561640000\n      dup2\n      mstore\n      pop\n      0x20\n      add\n      swap2\n      pop\n      pop\n      mload(0x40)\n      dup1\n      swap2\n      sub\n      swap1\n      revert\n    tag_324:\n        /* \"ConfidentialMultipartyRegisteredEDeliveryWithoutTTP.sol\":8767:8784  uint[4] memory hr */\n      tag_325\n      tag_300\n      jump\t// in\n    tag_325:\n        /* \"ConfidentialMultipartyRegisteredEDeliveryWithoutTTP.sol\":8835:8838  _pp */\n      dup6\n        /* \"ConfidentialMultipartyRegisteredEDeliveryWithoutTTP.sol\":8808:8839  addmod(zs[2], _pp - zs[0], _pp) */\n      dup1\n      tag_326\n      jumpi\n      invalid\n    tag_326:\n        /* \"ConfidentialMultipartyRegisteredEDeliveryWithoutTTP.sol\":8828:8830  zs */\n      dup3\n        /* \"ConfidentialMultipartyRegisteredEDeliveryWithoutTTP.sol\":8831:8832  0 */\n      0x00\n        /* \"ConfidentialMultipartyRegisteredEDeliveryWithoutTTP.sol\":8828:8833  zs[0] */\n      0x04\n      dup2\n      lt\n      tag_327\n      jumpi\n      invalid\n    tag_327:\n      0x20\n      mul\n      add\n      mload\n        /* \"ConfidentialMultipartyRegisteredEDeliveryWithoutTTP.sol\":8822:8825  _pp */\n      dup8\n        /* \"ConfidentialMultipartyRegisteredEDeliveryWithoutTTP.sol\":8822:8833  _pp - zs[0] */\n      sub\n        /* \"ConfidentialMultipartyRegisteredEDeliveryWithoutTTP.sol\":8815:8817  zs */\n      dup4\n        /* \"ConfidentialMultipartyRegisteredEDeliveryWithoutTTP.sol\":8818:8819  2 */\n      0x02\n        /* \"ConfidentialMultipartyRegisteredEDeliveryWithoutTTP.sol\":8815:8820  zs[2] */\n      0x04\n      dup2\n      lt\n      tag_328\n      jumpi\n      invalid\n    tag_328:\n      0x20\n      mul\n      add\n      mload\n        /* \"ConfidentialMultipartyRegisteredEDeliveryWithoutTTP.sol\":8808:8839  addmod(zs[2], _pp - zs[0], _pp) */\n      addmod\n        /* \"ConfidentialMultipartyRegisteredEDeliveryWithoutTTP.sol\":8800:8802  hr */\n      dup2\n        /* \"ConfidentialMultipartyRegisteredEDeliveryWithoutTTP.sol\":8803:8804  0 */\n      0x00\n        /* \"ConfidentialMultipartyRegisteredEDeliveryWithoutTTP.sol\":8800:8805  hr[0] */\n      0x04\n      dup2\n      lt\n      tag_329\n      jumpi\n      invalid\n    tag_329:\n      0x20\n      mul\n      add\n        /* \"ConfidentialMultipartyRegisteredEDeliveryWithoutTTP.sol\":8800:8839  hr[0] = addmod(zs[2], _pp - zs[0], _pp) */\n      dup2\n      dup2\n      mstore\n      pop\n      pop\n        /* \"ConfidentialMultipartyRegisteredEDeliveryWithoutTTP.sol\":8890:8893  _pp */\n      dup6\n        /* \"ConfidentialMultipartyRegisteredEDeliveryWithoutTTP.sol\":8863:8894  addmod(zs[3], _pp - zs[1], _pp) */\n      dup1\n      tag_330\n      jumpi\n      invalid\n    tag_330:\n        /* \"ConfidentialMultipartyRegisteredEDeliveryWithoutTTP.sol\":8883:8885  zs */\n      dup3\n        /* \"ConfidentialMultipartyRegisteredEDeliveryWithoutTTP.sol\":8886:8887  1 */\n      0x01\n        /* \"ConfidentialMultipartyRegisteredEDeliveryWithoutTTP.sol\":8883:8888  zs[1] */\n      0x04\n      dup2\n      lt\n      tag_331\n      jumpi\n      invalid\n    tag_331:\n      0x20\n      mul\n      add\n      mload\n        /* \"ConfidentialMultipartyRegisteredEDeliveryWithoutTTP.sol\":8877:8880  _pp */\n      dup8\n        /* \"ConfidentialMultipartyRegisteredEDeliveryWithoutTTP.sol\":8877:8888  _pp - zs[1] */\n      sub\n        /* \"ConfidentialMultipartyRegisteredEDeliveryWithoutTTP.sol\":8870:8872  zs */\n      dup4\n        /* \"ConfidentialMultipartyRegisteredEDeliveryWithoutTTP.sol\":8873:8874  3 */\n      0x03\n        /* \"ConfidentialMultipartyRegisteredEDeliveryWithoutTTP.sol\":8870:8875  zs[3] */\n      0x04\n      dup2\n      lt\n      tag_332\n      jumpi\n      invalid\n    tag_332:\n      0x20\n      mul\n      add\n      mload\n        /* \"ConfidentialMultipartyRegisteredEDeliveryWithoutTTP.sol\":8863:8894  addmod(zs[3], _pp - zs[1], _pp) */\n      addmod\n        /* \"ConfidentialMultipartyRegisteredEDeliveryWithoutTTP.sol\":8855:8857  hr */\n      dup2\n        /* \"ConfidentialMultipartyRegisteredEDeliveryWithoutTTP.sol\":8858:8859  1 */\n      0x01\n        /* \"ConfidentialMultipartyRegisteredEDeliveryWithoutTTP.sol\":8855:8860  hr[1] */\n      0x04\n      dup2\n      lt\n      tag_333\n      jumpi\n      invalid\n    tag_333:\n      0x20\n      mul\n      add\n        /* \"ConfidentialMultipartyRegisteredEDeliveryWithoutTTP.sol\":8855:8894  hr[1] = addmod(zs[3], _pp - zs[1], _pp) */\n      dup2\n      dup2\n      mstore\n      pop\n      pop\n        /* \"ConfidentialMultipartyRegisteredEDeliveryWithoutTTP.sol\":8941:8944  _pp */\n      dup6\n        /* \"ConfidentialMultipartyRegisteredEDeliveryWithoutTTP.sol\":8920:8945  mulmod(hr[0], hr[0], _pp) */\n      dup1\n      tag_334\n      jumpi\n      invalid\n    tag_334:\n        /* \"ConfidentialMultipartyRegisteredEDeliveryWithoutTTP.sol\":8934:8936  hr */\n      dup2\n        /* \"ConfidentialMultipartyRegisteredEDeliveryWithoutTTP.sol\":8937:8938  0 */\n      0x00\n        /* \"ConfidentialMultipartyRegisteredEDeliveryWithoutTTP.sol\":8934:8939  hr[0] */\n      0x04\n      dup2\n      lt\n      tag_335\n      jumpi\n      invalid\n    tag_335:\n      0x20\n      mul\n      add\n      mload\n        /* \"ConfidentialMultipartyRegisteredEDeliveryWithoutTTP.sol\":8927:8929  hr */\n      dup3\n        /* \"ConfidentialMultipartyRegisteredEDeliveryWithoutTTP.sol\":8930:8931  0 */\n      0x00\n        /* \"ConfidentialMultipartyRegisteredEDeliveryWithoutTTP.sol\":8927:8932  hr[0] */\n      0x04\n      dup2\n      lt\n      tag_336\n      jumpi\n      invalid\n    tag_336:\n      0x20\n      mul\n      add\n      mload\n        /* \"ConfidentialMultipartyRegisteredEDeliveryWithoutTTP.sol\":8920:8945  mulmod(hr[0], hr[0], _pp) */\n      mulmod\n        /* \"ConfidentialMultipartyRegisteredEDeliveryWithoutTTP.sol\":8912:8914  hr */\n      dup2\n        /* \"ConfidentialMultipartyRegisteredEDeliveryWithoutTTP.sol\":8915:8916  2 */\n      0x02\n        /* \"ConfidentialMultipartyRegisteredEDeliveryWithoutTTP.sol\":8912:8917  hr[2] */\n      0x04\n      dup2\n      lt\n      tag_337\n      jumpi\n      invalid\n    tag_337:\n      0x20\n      mul\n      add\n        /* \"ConfidentialMultipartyRegisteredEDeliveryWithoutTTP.sol\":8912:8945  hr[2] = mulmod(hr[0], hr[0], _pp) */\n      dup2\n      dup2\n      mstore\n      pop\n      pop\n        /* \"ConfidentialMultipartyRegisteredEDeliveryWithoutTTP.sol\":8993:8996  _pp */\n      dup6\n        /* \"ConfidentialMultipartyRegisteredEDeliveryWithoutTTP.sol\":8972:8997  mulmod(hr[2], hr[0], _pp) */\n      dup1\n      tag_338\n      jumpi\n      invalid\n    tag_338:\n        /* \"ConfidentialMultipartyRegisteredEDeliveryWithoutTTP.sol\":8986:8988  hr */\n      dup2\n        /* \"ConfidentialMultipartyRegisteredEDeliveryWithoutTTP.sol\":8989:8990  0 */\n      0x00\n        /* \"ConfidentialMultipartyRegisteredEDeliveryWithoutTTP.sol\":8986:8991  hr[0] */\n      0x04\n      dup2\n      lt\n      tag_339\n      jumpi\n      invalid\n    tag_339:\n      0x20\n      mul\n      add\n      mload\n        /* \"ConfidentialMultipartyRegisteredEDeliveryWithoutTTP.sol\":8979:8981  hr */\n      dup3\n        /* \"ConfidentialMultipartyRegisteredEDeliveryWithoutTTP.sol\":8982:8983  2 */\n      0x02\n        /* \"ConfidentialMultipartyRegisteredEDeliveryWithoutTTP.sol\":8979:8984  hr[2] */\n      0x04\n      dup2\n      lt\n      tag_340\n      jumpi\n      invalid\n    tag_340:\n      0x20\n      mul\n      add\n      mload\n        /* \"ConfidentialMultipartyRegisteredEDeliveryWithoutTTP.sol\":8972:8997  mulmod(hr[2], hr[0], _pp) */\n      mulmod\n        /* \"ConfidentialMultipartyRegisteredEDeliveryWithoutTTP.sol\":8964:8966  hr */\n      dup2\n        /* \"ConfidentialMultipartyRegisteredEDeliveryWithoutTTP.sol\":8967:8968  3 */\n      0x03\n        /* \"ConfidentialMultipartyRegisteredEDeliveryWithoutTTP.sol\":8964:8969  hr[3] */\n      0x04\n      dup2\n      lt\n      tag_341\n      jumpi\n      invalid\n    tag_341:\n      0x20\n      mul\n      add\n        /* \"ConfidentialMultipartyRegisteredEDeliveryWithoutTTP.sol\":8964:8997  hr[3] = mulmod(hr[2], hr[0], _pp) */\n      dup2\n      dup2\n      mstore\n      pop\n      pop\n        /* \"ConfidentialMultipartyRegisteredEDeliveryWithoutTTP.sol\":9035:9045  uint256 qx */\n      0x00\n        /* \"ConfidentialMultipartyRegisteredEDeliveryWithoutTTP.sol\":9095:9098  _pp */\n      dup7\n        /* \"ConfidentialMultipartyRegisteredEDeliveryWithoutTTP.sol\":9048:9099  addmod(mulmod(hr[1], hr[1], _pp), _pp - hr[3], _pp) */\n      dup1\n      tag_342\n      jumpi\n      invalid\n    tag_342:\n        /* \"ConfidentialMultipartyRegisteredEDeliveryWithoutTTP.sol\":9088:9090  hr */\n      dup3\n        /* \"ConfidentialMultipartyRegisteredEDeliveryWithoutTTP.sol\":9091:9092  3 */\n      0x03\n        /* \"ConfidentialMultipartyRegisteredEDeliveryWithoutTTP.sol\":9088:9093  hr[3] */\n      0x04\n      dup2\n      lt\n      tag_343\n      jumpi\n      invalid\n    tag_343:\n      0x20\n      mul\n      add\n      mload\n        /* \"ConfidentialMultipartyRegisteredEDeliveryWithoutTTP.sol\":9082:9085  _pp */\n      dup9\n        /* \"ConfidentialMultipartyRegisteredEDeliveryWithoutTTP.sol\":9082:9093  _pp - hr[3] */\n      sub\n        /* \"ConfidentialMultipartyRegisteredEDeliveryWithoutTTP.sol\":9076:9079  _pp */\n      dup9\n        /* \"ConfidentialMultipartyRegisteredEDeliveryWithoutTTP.sol\":9055:9080  mulmod(hr[1], hr[1], _pp) */\n      dup1\n      tag_344\n      jumpi\n      invalid\n    tag_344:\n        /* \"ConfidentialMultipartyRegisteredEDeliveryWithoutTTP.sol\":9069:9071  hr */\n      dup5\n        /* \"ConfidentialMultipartyRegisteredEDeliveryWithoutTTP.sol\":9072:9073  1 */\n      0x01\n        /* \"ConfidentialMultipartyRegisteredEDeliveryWithoutTTP.sol\":9069:9074  hr[1] */\n      0x04\n      dup2\n      lt\n      tag_345\n      jumpi\n      invalid\n    tag_345:\n      0x20\n      mul\n      add\n      mload\n        /* \"ConfidentialMultipartyRegisteredEDeliveryWithoutTTP.sol\":9062:9064  hr */\n      dup6\n        /* \"ConfidentialMultipartyRegisteredEDeliveryWithoutTTP.sol\":9065:9066  1 */\n      0x01\n        /* \"ConfidentialMultipartyRegisteredEDeliveryWithoutTTP.sol\":9062:9067  hr[1] */\n      0x04\n      dup2\n      lt\n      tag_346\n      jumpi\n      invalid\n    tag_346:\n      0x20\n      mul\n      add\n      mload\n        /* \"ConfidentialMultipartyRegisteredEDeliveryWithoutTTP.sol\":9055:9080  mulmod(hr[1], hr[1], _pp) */\n      mulmod\n        /* \"ConfidentialMultipartyRegisteredEDeliveryWithoutTTP.sol\":9048:9099  addmod(mulmod(hr[1], hr[1], _pp), _pp - hr[3], _pp) */\n      addmod\n        /* \"ConfidentialMultipartyRegisteredEDeliveryWithoutTTP.sol\":9035:9099  uint256 qx = addmod(mulmod(hr[1], hr[1], _pp), _pp - hr[3], _pp) */\n      swap1\n      pop\n        /* \"ConfidentialMultipartyRegisteredEDeliveryWithoutTTP.sol\":9171:9174  _pp */\n      dup7\n        /* \"ConfidentialMultipartyRegisteredEDeliveryWithoutTTP.sol\":9111:9175  addmod(qx, _pp - mulmod(2, mulmod(zs[0], hr[2], _pp), _pp), _pp) */\n      dup1\n      tag_347\n      jumpi\n      invalid\n    tag_347:\n        /* \"ConfidentialMultipartyRegisteredEDeliveryWithoutTTP.sol\":9165:9168  _pp */\n      dup8\n        /* \"ConfidentialMultipartyRegisteredEDeliveryWithoutTTP.sol\":9128:9169  mulmod(2, mulmod(zs[0], hr[2], _pp), _pp) */\n      dup1\n      tag_348\n      jumpi\n      invalid\n    tag_348:\n        /* \"ConfidentialMultipartyRegisteredEDeliveryWithoutTTP.sol\":9159:9162  _pp */\n      dup9\n        /* \"ConfidentialMultipartyRegisteredEDeliveryWithoutTTP.sol\":9138:9163  mulmod(zs[0], hr[2], _pp) */\n      dup1\n      tag_349\n      jumpi\n      invalid\n    tag_349:\n        /* \"ConfidentialMultipartyRegisteredEDeliveryWithoutTTP.sol\":9152:9154  hr */\n      dup5\n        /* \"ConfidentialMultipartyRegisteredEDeliveryWithoutTTP.sol\":9155:9156  2 */\n      0x02\n        /* \"ConfidentialMultipartyRegisteredEDeliveryWithoutTTP.sol\":9152:9157  hr[2] */\n      0x04\n      dup2\n      lt\n      tag_350\n      jumpi\n      invalid\n    tag_350:\n      0x20\n      mul\n      add\n      mload\n        /* \"ConfidentialMultipartyRegisteredEDeliveryWithoutTTP.sol\":9145:9147  zs */\n      dup7\n        /* \"ConfidentialMultipartyRegisteredEDeliveryWithoutTTP.sol\":9148:9149  0 */\n      0x00\n        /* \"ConfidentialMultipartyRegisteredEDeliveryWithoutTTP.sol\":9145:9150  zs[0] */\n      0x04\n      dup2\n      lt\n      tag_351\n      jumpi\n      invalid\n    tag_351:\n      0x20\n      mul\n      add\n      mload\n        /* \"ConfidentialMultipartyRegisteredEDeliveryWithoutTTP.sol\":9138:9163  mulmod(zs[0], hr[2], _pp) */\n      mulmod\n        /* \"ConfidentialMultipartyRegisteredEDeliveryWithoutTTP.sol\":9135:9136  2 */\n      0x02\n        /* \"ConfidentialMultipartyRegisteredEDeliveryWithoutTTP.sol\":9128:9169  mulmod(2, mulmod(zs[0], hr[2], _pp), _pp) */\n      mulmod\n        /* \"ConfidentialMultipartyRegisteredEDeliveryWithoutTTP.sol\":9122:9125  _pp */\n      dup9\n        /* \"ConfidentialMultipartyRegisteredEDeliveryWithoutTTP.sol\":9122:9169  _pp - mulmod(2, mulmod(zs[0], hr[2], _pp), _pp) */\n      sub\n        /* \"ConfidentialMultipartyRegisteredEDeliveryWithoutTTP.sol\":9118:9120  qx */\n      dup3\n        /* \"ConfidentialMultipartyRegisteredEDeliveryWithoutTTP.sol\":9111:9175  addmod(qx, _pp - mulmod(2, mulmod(zs[0], hr[2], _pp), _pp), _pp) */\n      addmod\n        /* \"ConfidentialMultipartyRegisteredEDeliveryWithoutTTP.sol\":9106:9175  qx = addmod(qx, _pp - mulmod(2, mulmod(zs[0], hr[2], _pp), _pp), _pp) */\n      swap1\n      pop\n        /* \"ConfidentialMultipartyRegisteredEDeliveryWithoutTTP.sol\":9221:9231  uint256 qy */\n      0x00\n        /* \"ConfidentialMultipartyRegisteredEDeliveryWithoutTTP.sol\":9298:9301  _pp */\n      dup8\n        /* \"ConfidentialMultipartyRegisteredEDeliveryWithoutTTP.sol\":9234:9302  mulmod(hr[1], addmod(mulmod(zs[0], hr[2], _pp), _pp - qx, _pp), _pp) */\n      dup1\n      tag_352\n      jumpi\n      invalid\n    tag_352:\n        /* \"ConfidentialMultipartyRegisteredEDeliveryWithoutTTP.sol\":9292:9295  _pp */\n      dup9\n        /* \"ConfidentialMultipartyRegisteredEDeliveryWithoutTTP.sol\":9248:9296  addmod(mulmod(zs[0], hr[2], _pp), _pp - qx, _pp) */\n      dup1\n      tag_353\n      jumpi\n      invalid\n    tag_353:\n        /* \"ConfidentialMultipartyRegisteredEDeliveryWithoutTTP.sol\":9288:9290  qx */\n      dup4\n        /* \"ConfidentialMultipartyRegisteredEDeliveryWithoutTTP.sol\":9282:9285  _pp */\n      dup11\n        /* \"ConfidentialMultipartyRegisteredEDeliveryWithoutTTP.sol\":9282:9290  _pp - qx */\n      sub\n        /* \"ConfidentialMultipartyRegisteredEDeliveryWithoutTTP.sol\":9276:9279  _pp */\n      dup11\n        /* \"ConfidentialMultipartyRegisteredEDeliveryWithoutTTP.sol\":9255:9280  mulmod(zs[0], hr[2], _pp) */\n      dup1\n      tag_354\n      jumpi\n      invalid\n    tag_354:\n        /* \"ConfidentialMultipartyRegisteredEDeliveryWithoutTTP.sol\":9269:9271  hr */\n      dup7\n        /* \"ConfidentialMultipartyRegisteredEDeliveryWithoutTTP.sol\":9272:9273  2 */\n      0x02\n        /* \"ConfidentialMultipartyRegisteredEDeliveryWithoutTTP.sol\":9269:9274  hr[2] */\n      0x04\n      dup2\n      lt\n      tag_355\n      jumpi\n      invalid\n    tag_355:\n      0x20\n      mul\n      add\n      mload\n        /* \"ConfidentialMultipartyRegisteredEDeliveryWithoutTTP.sol\":9262:9264  zs */\n      dup9\n        /* \"ConfidentialMultipartyRegisteredEDeliveryWithoutTTP.sol\":9265:9266  0 */\n      0x00\n        /* \"ConfidentialMultipartyRegisteredEDeliveryWithoutTTP.sol\":9262:9267  zs[0] */\n      0x04\n      dup2\n      lt\n      tag_356\n      jumpi\n      invalid\n    tag_356:\n      0x20\n      mul\n      add\n      mload\n        /* \"ConfidentialMultipartyRegisteredEDeliveryWithoutTTP.sol\":9255:9280  mulmod(zs[0], hr[2], _pp) */\n      mulmod\n        /* \"ConfidentialMultipartyRegisteredEDeliveryWithoutTTP.sol\":9248:9296  addmod(mulmod(zs[0], hr[2], _pp), _pp - qx, _pp) */\n      addmod\n        /* \"ConfidentialMultipartyRegisteredEDeliveryWithoutTTP.sol\":9241:9243  hr */\n      dup5\n        /* \"ConfidentialMultipartyRegisteredEDeliveryWithoutTTP.sol\":9244:9245  1 */\n      0x01\n        /* \"ConfidentialMultipartyRegisteredEDeliveryWithoutTTP.sol\":9241:9246  hr[1] */\n      0x04\n      dup2\n      lt\n      tag_357\n      jumpi\n      invalid\n    tag_357:\n      0x20\n      mul\n      add\n      mload\n        /* \"ConfidentialMultipartyRegisteredEDeliveryWithoutTTP.sol\":9234:9302  mulmod(hr[1], addmod(mulmod(zs[0], hr[2], _pp), _pp - qx, _pp), _pp) */\n      mulmod\n        /* \"ConfidentialMultipartyRegisteredEDeliveryWithoutTTP.sol\":9221:9302  uint256 qy = mulmod(hr[1], addmod(mulmod(zs[0], hr[2], _pp), _pp - qx, _pp), _pp) */\n      swap1\n      pop\n        /* \"ConfidentialMultipartyRegisteredEDeliveryWithoutTTP.sol\":9358:9361  _pp */\n      dup8\n        /* \"ConfidentialMultipartyRegisteredEDeliveryWithoutTTP.sol\":9314:9362  addmod(qy, _pp - mulmod(zs[1], hr[3], _pp), _pp) */\n      dup1\n      tag_358\n      jumpi\n      invalid\n    tag_358:\n        /* \"ConfidentialMultipartyRegisteredEDeliveryWithoutTTP.sol\":9352:9355  _pp */\n      dup9\n        /* \"ConfidentialMultipartyRegisteredEDeliveryWithoutTTP.sol\":9331:9356  mulmod(zs[1], hr[3], _pp) */\n      dup1\n      tag_359\n      jumpi\n      invalid\n    tag_359:\n        /* \"ConfidentialMultipartyRegisteredEDeliveryWithoutTTP.sol\":9345:9347  hr */\n      dup5\n        /* \"ConfidentialMultipartyRegisteredEDeliveryWithoutTTP.sol\":9348:9349  3 */\n      0x03\n        /* \"ConfidentialMultipartyRegisteredEDeliveryWithoutTTP.sol\":9345:9350  hr[3] */\n      0x04\n      dup2\n      lt\n      tag_360\n      jumpi\n      invalid\n    tag_360:\n      0x20\n      mul\n      add\n      mload\n        /* \"ConfidentialMultipartyRegisteredEDeliveryWithoutTTP.sol\":9338:9340  zs */\n      dup7\n        /* \"ConfidentialMultipartyRegisteredEDeliveryWithoutTTP.sol\":9341:9342  1 */\n      0x01\n        /* \"ConfidentialMultipartyRegisteredEDeliveryWithoutTTP.sol\":9338:9343  zs[1] */\n      0x04\n      dup2\n      lt\n      tag_361\n      jumpi\n      invalid\n    tag_361:\n      0x20\n      mul\n      add\n      mload\n        /* \"ConfidentialMultipartyRegisteredEDeliveryWithoutTTP.sol\":9331:9356  mulmod(zs[1], hr[3], _pp) */\n      mulmod\n        /* \"ConfidentialMultipartyRegisteredEDeliveryWithoutTTP.sol\":9325:9328  _pp */\n      dup10\n        /* \"ConfidentialMultipartyRegisteredEDeliveryWithoutTTP.sol\":9325:9356  _pp - mulmod(zs[1], hr[3], _pp) */\n      sub\n        /* \"ConfidentialMultipartyRegisteredEDeliveryWithoutTTP.sol\":9321:9323  qy */\n      dup3\n        /* \"ConfidentialMultipartyRegisteredEDeliveryWithoutTTP.sol\":9314:9362  addmod(qy, _pp - mulmod(zs[1], hr[3], _pp), _pp) */\n      addmod\n        /* \"ConfidentialMultipartyRegisteredEDeliveryWithoutTTP.sol\":9309:9362  qy = addmod(qy, _pp - mulmod(zs[1], hr[3], _pp), _pp) */\n      swap1\n      pop\n        /* \"ConfidentialMultipartyRegisteredEDeliveryWithoutTTP.sol\":9390:9400  uint256 qz */\n      0x00\n        /* \"ConfidentialMultipartyRegisteredEDeliveryWithoutTTP.sol\":9440:9443  _pp */\n      dup9\n        /* \"ConfidentialMultipartyRegisteredEDeliveryWithoutTTP.sol\":9403:9444  mulmod(hr[0], mulmod(_z1, _z2, _pp), _pp) */\n      dup1\n      tag_362\n      jumpi\n      invalid\n    tag_362:\n        /* \"ConfidentialMultipartyRegisteredEDeliveryWithoutTTP.sol\":9434:9437  _pp */\n      dup10\n        /* \"ConfidentialMultipartyRegisteredEDeliveryWithoutTTP.sol\":9417:9438  mulmod(_z1, _z2, _pp) */\n      dup1\n      tag_363\n      jumpi\n      invalid\n    tag_363:\n        /* \"ConfidentialMultipartyRegisteredEDeliveryWithoutTTP.sol\":9429:9432  _z2 */\n      dup12\n        /* \"ConfidentialMultipartyRegisteredEDeliveryWithoutTTP.sol\":9424:9427  _z1 */\n      dup16\n        /* \"ConfidentialMultipartyRegisteredEDeliveryWithoutTTP.sol\":9417:9438  mulmod(_z1, _z2, _pp) */\n      mulmod\n        /* \"ConfidentialMultipartyRegisteredEDeliveryWithoutTTP.sol\":9410:9412  hr */\n      dup6\n        /* \"ConfidentialMultipartyRegisteredEDeliveryWithoutTTP.sol\":9413:9414  0 */\n      0x00\n        /* \"ConfidentialMultipartyRegisteredEDeliveryWithoutTTP.sol\":9410:9415  hr[0] */\n      0x04\n      dup2\n      lt\n      tag_364\n      jumpi\n      invalid\n    tag_364:\n      0x20\n      mul\n      add\n      mload\n        /* \"ConfidentialMultipartyRegisteredEDeliveryWithoutTTP.sol\":9403:9444  mulmod(hr[0], mulmod(_z1, _z2, _pp), _pp) */\n      mulmod\n        /* \"ConfidentialMultipartyRegisteredEDeliveryWithoutTTP.sol\":9390:9444  uint256 qz = mulmod(hr[0], mulmod(_z1, _z2, _pp), _pp) */\n      swap1\n      pop\n        /* \"ConfidentialMultipartyRegisteredEDeliveryWithoutTTP.sol\":9458:9460  qx */\n      dup3\n        /* \"ConfidentialMultipartyRegisteredEDeliveryWithoutTTP.sol\":9462:9464  qy */\n      dup3\n        /* \"ConfidentialMultipartyRegisteredEDeliveryWithoutTTP.sol\":9466:9468  qz */\n      dup3\n        /* \"ConfidentialMultipartyRegisteredEDeliveryWithoutTTP.sol\":9451:9469  return(qx, qy, qz) */\n      swap8\n      pop\n      swap8\n      pop\n      swap8\n      pop\n      pop\n      pop\n      pop\n      pop\n      pop\n        /* \"ConfidentialMultipartyRegisteredEDeliveryWithoutTTP.sol\":7769:9475  function jacAdd(\r... */\n    tag_294:\n      swap8\n      pop\n      swap8\n      pop\n      swap8\n      swap5\n      pop\n      pop\n      pop\n      pop\n      pop\n      jump\t// out\n        /* \"ConfidentialMultipartyRegisteredEDeliveryWithoutTTP.sol\":710:1110  function invMod(uint256 _x, uint256 _pp) internal pure returns (uint256) {\r... */\n    tag_268:\n        /* \"ConfidentialMultipartyRegisteredEDeliveryWithoutTTP.sol\":774:781  uint256 */\n      0x00\n        /* \"ConfidentialMultipartyRegisteredEDeliveryWithoutTTP.sol\":804:805  0 */\n      dup1\n        /* \"ConfidentialMultipartyRegisteredEDeliveryWithoutTTP.sol\":798:800  _x */\n      dup4\n        /* \"ConfidentialMultipartyRegisteredEDeliveryWithoutTTP.sol\":798:805  _x != 0 */\n      eq\n      iszero\n        /* \"ConfidentialMultipartyRegisteredEDeliveryWithoutTTP.sol\":798:818  _x != 0 && _x != _pp */\n      dup1\n      iszero\n      tag_366\n      jumpi\n      pop\n        /* \"ConfidentialMultipartyRegisteredEDeliveryWithoutTTP.sol\":815:818  _pp */\n      dup2\n        /* \"ConfidentialMultipartyRegisteredEDeliveryWithoutTTP.sol\":809:811  _x */\n      dup4\n        /* \"ConfidentialMultipartyRegisteredEDeliveryWithoutTTP.sol\":809:818  _x != _pp */\n      eq\n      iszero\n        /* \"ConfidentialMultipartyRegisteredEDeliveryWithoutTTP.sol\":798:818  _x != 0 && _x != _pp */\n    tag_366:\n        /* \"ConfidentialMultipartyRegisteredEDeliveryWithoutTTP.sol\":798:830  _x != 0 && _x != _pp && _pp != 0 */\n      dup1\n      iszero\n      tag_367\n      jumpi\n      pop\n        /* \"ConfidentialMultipartyRegisteredEDeliveryWithoutTTP.sol\":829:830  0 */\n      0x00\n        /* \"ConfidentialMultipartyRegisteredEDeliveryWithoutTTP.sol\":822:825  _pp */\n      dup3\n        /* \"ConfidentialMultipartyRegisteredEDeliveryWithoutTTP.sol\":822:830  _pp != 0 */\n      eq\n      iszero\n        /* \"ConfidentialMultipartyRegisteredEDeliveryWithoutTTP.sol\":798:830  _x != 0 && _x != _pp && _pp != 0 */\n    tag_367:\n        /* \"ConfidentialMultipartyRegisteredEDeliveryWithoutTTP.sol\":790:849  require(_x != 0 && _x != _pp && _pp != 0, \"Invalid number\") */\n      tag_368\n      jumpi\n      mload(0x40)\n      0x08c379a000000000000000000000000000000000000000000000000000000000\n      dup2\n      mstore\n      0x04\n      add\n      dup1\n      dup1\n      0x20\n      add\n      dup3\n      dup2\n      sub\n      dup3\n      mstore\n      0x0e\n      dup2\n      mstore\n      0x20\n      add\n      dup1\n      0x496e76616c6964206e756d626572000000000000000000000000000000000000\n      dup2\n      mstore\n      pop\n      0x20\n      add\n      swap2\n      pop\n      pop\n      mload(0x40)\n      dup1\n      swap2\n      sub\n      swap1\n      revert\n    tag_368:\n        /* \"ConfidentialMultipartyRegisteredEDeliveryWithoutTTP.sol\":856:865  uint256 q */\n      0x00\n        /* \"ConfidentialMultipartyRegisteredEDeliveryWithoutTTP.sol\":876:888  uint256 newT */\n      dup1\n        /* \"ConfidentialMultipartyRegisteredEDeliveryWithoutTTP.sol\":891:892  1 */\n      0x01\n        /* \"ConfidentialMultipartyRegisteredEDeliveryWithoutTTP.sol\":876:892  uint256 newT = 1 */\n      swap1\n      pop\n        /* \"ConfidentialMultipartyRegisteredEDeliveryWithoutTTP.sol\":899:908  uint256 r */\n      0x00\n        /* \"ConfidentialMultipartyRegisteredEDeliveryWithoutTTP.sol\":911:914  _pp */\n      dup5\n        /* \"ConfidentialMultipartyRegisteredEDeliveryWithoutTTP.sol\":899:914  uint256 r = _pp */\n      swap1\n      pop\n        /* \"ConfidentialMultipartyRegisteredEDeliveryWithoutTTP.sol\":921:930  uint256 t */\n      0x00\n        /* \"ConfidentialMultipartyRegisteredEDeliveryWithoutTTP.sol\":937:1088  while (_x != 0) {\r... */\n    tag_369:\n        /* \"ConfidentialMultipartyRegisteredEDeliveryWithoutTTP.sol\":950:951  0 */\n      0x00\n        /* \"ConfidentialMultipartyRegisteredEDeliveryWithoutTTP.sol\":944:946  _x */\n      dup8\n        /* \"ConfidentialMultipartyRegisteredEDeliveryWithoutTTP.sol\":944:951  _x != 0 */\n      eq\n        /* \"ConfidentialMultipartyRegisteredEDeliveryWithoutTTP.sol\":937:1088  while (_x != 0) {\r... */\n      tag_370\n      jumpi\n        /* \"ConfidentialMultipartyRegisteredEDeliveryWithoutTTP.sol\":970:972  _x */\n      dup7\n        /* \"ConfidentialMultipartyRegisteredEDeliveryWithoutTTP.sol\":966:967  r */\n      dup3\n        /* \"ConfidentialMultipartyRegisteredEDeliveryWithoutTTP.sol\":966:972  r / _x */\n      dup2\n      tag_371\n      jumpi\n      invalid\n    tag_371:\n      div\n        /* \"ConfidentialMultipartyRegisteredEDeliveryWithoutTTP.sol\":962:972  t = r / _x */\n      swap1\n      pop\n        /* \"ConfidentialMultipartyRegisteredEDeliveryWithoutTTP.sol\":994:998  newT */\n      dup3\n        /* \"ConfidentialMultipartyRegisteredEDeliveryWithoutTTP.sol\":1040:1043  _pp */\n      dup7\n        /* \"ConfidentialMultipartyRegisteredEDeliveryWithoutTTP.sol\":1000:1044  addmod(q, (_pp - mulmod(t, newT, _pp)), _pp) */\n      dup1\n      tag_372\n      jumpi\n      invalid\n    tag_372:\n        /* \"ConfidentialMultipartyRegisteredEDeliveryWithoutTTP.sol\":1033:1036  _pp */\n      dup8\n        /* \"ConfidentialMultipartyRegisteredEDeliveryWithoutTTP.sol\":1017:1037  mulmod(t, newT, _pp) */\n      dup1\n      tag_373\n      jumpi\n      invalid\n    tag_373:\n        /* \"ConfidentialMultipartyRegisteredEDeliveryWithoutTTP.sol\":1027:1031  newT */\n      dup6\n        /* \"ConfidentialMultipartyRegisteredEDeliveryWithoutTTP.sol\":1024:1025  t */\n      dup5\n        /* \"ConfidentialMultipartyRegisteredEDeliveryWithoutTTP.sol\":1017:1037  mulmod(t, newT, _pp) */\n      mulmod\n        /* \"ConfidentialMultipartyRegisteredEDeliveryWithoutTTP.sol\":1011:1014  _pp */\n      dup9\n        /* \"ConfidentialMultipartyRegisteredEDeliveryWithoutTTP.sol\":1011:1037  _pp - mulmod(t, newT, _pp) */\n      sub\n        /* \"ConfidentialMultipartyRegisteredEDeliveryWithoutTTP.sol\":1007:1008  q */\n      dup7\n        /* \"ConfidentialMultipartyRegisteredEDeliveryWithoutTTP.sol\":1000:1044  addmod(q, (_pp - mulmod(t, newT, _pp)), _pp) */\n      addmod\n        /* \"ConfidentialMultipartyRegisteredEDeliveryWithoutTTP.sol\":981:1045  (q, newT) = (newT, addmod(q, (_pp - mulmod(t, newT, _pp)), _pp)) */\n      dup1\n      swap5\n      pop\n      dup2\n      swap6\n      pop\n      pop\n      pop\n        /* \"ConfidentialMultipartyRegisteredEDeliveryWithoutTTP.sol\":1065:1067  _x */\n      dup7\n        /* \"ConfidentialMultipartyRegisteredEDeliveryWithoutTTP.sol\":1077:1079  _x */\n      dup8\n        /* \"ConfidentialMultipartyRegisteredEDeliveryWithoutTTP.sol\":1073:1074  t */\n      dup3\n        /* \"ConfidentialMultipartyRegisteredEDeliveryWithoutTTP.sol\":1073:1079  t * _x */\n      mul\n        /* \"ConfidentialMultipartyRegisteredEDeliveryWithoutTTP.sol\":1069:1070  r */\n      dup4\n        /* \"ConfidentialMultipartyRegisteredEDeliveryWithoutTTP.sol\":1069:1079  r - t * _x */\n      sub\n        /* \"ConfidentialMultipartyRegisteredEDeliveryWithoutTTP.sol\":1054:1080  (r, _x) = (_x, r - t * _x) */\n      dup1\n      swap9\n      pop\n      dup2\n      swap4\n      pop\n      pop\n      pop\n        /* \"ConfidentialMultipartyRegisteredEDeliveryWithoutTTP.sol\":937:1088  while (_x != 0) {\r... */\n      jump(tag_369)\n    tag_370:\n        /* \"ConfidentialMultipartyRegisteredEDeliveryWithoutTTP.sol\":1103:1104  q */\n      dup4\n        /* \"ConfidentialMultipartyRegisteredEDeliveryWithoutTTP.sol\":1096:1104  return q */\n      swap5\n      pop\n      pop\n      pop\n      pop\n      pop\n        /* \"ConfidentialMultipartyRegisteredEDeliveryWithoutTTP.sol\":710:1110  function invMod(uint256 _x, uint256 _pp) internal pure returns (uint256) {\r... */\n      swap3\n      swap2\n      pop\n      pop\n      jump\t// out\n    tag_204:\n      dup3\n      dup1\n      sload\n      0x01\n      dup2\n      0x01\n      and\n      iszero\n      0x0100\n      mul\n      sub\n      and\n      0x02\n      swap1\n      div\n      swap1\n      0x00\n      mstore\n      keccak256(0x00, 0x20)\n      swap1\n      0x1f\n      add\n      0x20\n      swap1\n      div\n      dup2\n      add\n      swap3\n      dup3\n      0x1f\n      lt\n      tag_375\n      jumpi\n      dup1\n      mload\n      not(0xff)\n      and\n      dup4\n      dup1\n      add\n      or\n      dup6\n      sstore\n      jump(tag_374)\n    tag_375:\n      dup3\n      dup1\n      add\n      0x01\n      add\n      dup6\n      sstore\n      dup3\n      iszero\n      tag_374\n      jumpi\n      swap2\n      dup3\n      add\n    tag_376:\n      dup3\n      dup2\n      gt\n      iszero\n      tag_377\n      jumpi\n      dup3\n      mload\n      dup3\n      sstore\n      swap2\n      0x20\n      add\n      swap2\n      swap1\n      0x01\n      add\n      swap1\n      jump(tag_376)\n    tag_377:\n    tag_374:\n      pop\n      swap1\n      pop\n      tag_378\n      swap2\n      swap1\n      tag_379\n      jump\t// in\n    tag_378:\n      pop\n      swap1\n      jump\t// out\n    tag_206:\n      dup3\n      dup1\n      sload\n      0x01\n      dup2\n      0x01\n      and\n      iszero\n      0x0100\n      mul\n      sub\n      and\n      0x02\n      swap1\n      div\n      swap1\n      0x00\n      mstore\n      keccak256(0x00, 0x20)\n      swap1\n      0x1f\n      add\n      0x20\n      swap1\n      div\n      dup2\n      add\n      swap3\n      dup3\n      0x1f\n      lt\n      tag_381\n      jumpi\n      dup1\n      mload\n      not(0xff)\n      and\n      dup4\n      dup1\n      add\n      or\n      dup6\n      sstore\n      jump(tag_380)\n    tag_381:\n      dup3\n      dup1\n      add\n      0x01\n      add\n      dup6\n      sstore\n      dup3\n      iszero\n      tag_380\n      jumpi\n      swap2\n      dup3\n      add\n    tag_382:\n      dup3\n      dup2\n      gt\n      iszero\n      tag_383\n      jumpi\n      dup3\n      mload\n      dup3\n      sstore\n      swap2\n      0x20\n      add\n      swap2\n      swap1\n      0x01\n      add\n      swap1\n      jump(tag_382)\n    tag_383:\n    tag_380:\n      pop\n      swap1\n      pop\n      tag_384\n      swap2\n      swap1\n      tag_379\n      jump\t// in\n    tag_384:\n      pop\n      swap1\n      jump\t// out\n    tag_213:\n      dup3\n      dup1\n      sload\n      dup3\n      dup3\n      sstore\n      swap1\n      0x00\n      mstore\n      keccak256(0x00, 0x20)\n      swap1\n      dup2\n      add\n      swap3\n      dup3\n      iszero\n      tag_385\n      jumpi\n      swap2\n      0x20\n      mul\n      dup3\n      add\n    tag_386:\n      dup3\n      dup2\n      gt\n      iszero\n      tag_387\n      jumpi\n      dup3\n      mload\n      dup3\n      exp(0x0100, 0x00)\n      dup2\n      sload\n      dup2\n      0xffffffffffffffffffffffffffffffffffffffff\n      mul\n      not\n      and\n      swap1\n      dup4\n      0xffffffffffffffffffffffffffffffffffffffff\n      and\n      mul\n      or\n      swap1\n      sstore\n      pop\n      swap2\n      0x20\n      add\n      swap2\n      swap1\n      0x01\n      add\n      swap1\n      jump(tag_386)\n    tag_387:\n    tag_385:\n      pop\n      swap1\n      pop\n      tag_388\n      swap2\n      swap1\n      tag_389\n      jump\t// in\n    tag_388:\n      pop\n      swap1\n      jump\t// out\n    tag_300:\n      mload(0x40)\n      dup1\n      0x80\n      add\n      0x40\n      mstore\n      dup1\n      0x04\n      swap1\n      0x20\n      dup3\n      mul\n      dup1\n      calldatasize\n      dup4\n      calldatacopy\n      dup1\n      dup3\n      add\n      swap2\n      pop\n      pop\n      swap1\n      pop\n      pop\n      swap1\n      jump\t// out\n    tag_379:\n    tag_390:\n      dup1\n      dup3\n      gt\n      iszero\n      tag_391\n      jumpi\n      0x00\n      dup2\n      0x00\n      swap1\n      sstore\n      pop\n      0x01\n      add\n      jump(tag_390)\n    tag_391:\n      pop\n      swap1\n      jump\t// out\n    tag_389:\n    tag_392:\n      dup1\n      dup3\n      gt\n      iszero\n      tag_393\n      jumpi\n      0x00\n      dup2\n      dup2\n      0x0100\n      exp\n      dup2\n      sload\n      swap1\n      0xffffffffffffffffffffffffffffffffffffffff\n      mul\n      not\n      and\n      swap1\n      sstore\n      pop\n      0x01\n      add\n      jump(tag_392)\n    tag_393:\n      pop\n      swap1\n      jump\t// out\n    stop\n    data_18b055803a9451a5a51eaf6e0cd2a01e7898b4f01cc29a99a52b0dc47b516321 4f6e6c7920726563656976657273207769746820276163636570746564272073746174652063616e2063616e63656c\n    data_4230ddc47652afad43b5d14fb8f1660887fc3a8c3452575068a03a61c048979d 4f6e6c792073656e646572206f66207468652064656c69766572792063616e2066696e697368\n    data_5863e379c73b96d6792101029f407db6634ea1660187ca4bd78a7d715a942c18 54696d656f7574207465726d32206d7573742062652067726561746572207468616e205f7465726d31\n    data_63923af6d4832a3fec8b1a3de6f74d7a379ed3f889c5bf9c900d1364fc0ed789 5468652074696d656f7574207465726d3220686173206e6f74206265656e2072656163686564\n    data_6eecb43003ba4f0c87e2ec49a66848df001e8d8a31e44a142d4e41ea7a8a28b4 5468652074696d656f7574207465726d3120686173206e6f74206265656e207265616368656420616e64206e6f7420616c6c207265636569766572732068617665206265656e206163636570746564207468652064656c6976657279\n    data_be6ae27c427d127e7cca64881e40b0832ac3680fe64c7804b0dfb4b1aeddddde 5468652074696d656f7574207465726d3120686173206265656e2072656163686564\n    data_d755a981cc8d71bf38eb0cf889c3612458ee5bad366ff7217c0e9623e7c3e96d 5620616e642047785b72695d2b4269785b63695d20617265206e6f7420657175616c73\n    data_db7043b56c67220542ea5a875307929cada92c1d0bbe3f5b581e7ec4ed5f48eb 53656e6465722068617320746f2073656e642061206465706f736974206f66206d696e696d756e203120776569\n    data_fe0a3488d8d06ca2d8ae07491339801cecf2029507bedb6ded8a088d5fdcad8f 4f6e6c79207265636569766572732077697468202763726561746564272073746174652063616e20616363657074\n\n    auxdata: 0xa2646970667358221220f235cb016ce47f89d65b9f223b1adbcefb58cf5ae01608e2e2f050a0464d9d7064736f6c634300060c0033\n}\n",
    "bytecode": {
      "linkReferences": {},
      "object": "608060405234801561001057600080fd5b506001600b60006101000a81548160ff021916908315150217905550612e2f8061003b6000396000f3fe6080604052600436106101405760003560e01c80637a308a4c116100b6578063bfd772fc1161006f578063bfd772fc146108fc578063cd12a4b014610961578063ea8a1af01461098c578063eeeac01e146109a3578063f446c1d0146109ce578063ff7edf4214610a5e57610140565b80637a308a4c1461058f5780637f80069a146105ba578063872b2223146105e7578063997da8d414610816578063a1cbf5f914610841578063be9a6555146108d157610140565b80634c87c67d116101085780634c87c67d146102eb5780634e8c0bd6146103165780635727dc5c1461034157806357dc37421461036c5780636349ca37146104e957806367e404ce1461054e57610140565b806303a507be146101455780630dbe671f146101705780631bab58f51461019b57806329008824146102655780633b4a0828146102c0575b600080fd5b34801561015157600080fd5b5061015a610bc2565b6040518082815260200191505060405180910390f35b34801561017c57600080fd5b50610185610be6565b6040518082815260200191505060405180910390f35b3480156101a757600080fd5b506101ea600480360360208110156101be57600080fd5b81019080803573ffffffffffffffffffffffffffffffffffffffff169060200190929190505050610beb565b6040518080602001828103825283818151815260200191508051906020019080838360005b8381101561022a57808201518184015260208101905061020f565b50505050905090810190601f1680156102575780820380516001836020036101000a031916815260200191505b509250505060405180910390f35b34801561027157600080fd5b506102be6004803603604081101561028857600080fd5b81019080803573ffffffffffffffffffffffffffffffffffffffff16906020019092919080359060200190929190505050610ff4565b005b3480156102cc57600080fd5b506102d561170a565b6040518082815260200191505060405180910390f35b3480156102f757600080fd5b50610300611710565b6040518082815260200191505060405180910390f35b34801561032257600080fd5b5061032b611716565b6040518082815260200191505060405180910390f35b34801561034d57600080fd5b5061035661171c565b6040518082815260200191505060405180910390f35b34801561037857600080fd5b506104e7600480360360a081101561038f57600080fd5b81019080803590602001906401000000008111156103ac57600080fd5b8201836020820111156103be57600080fd5b803590602001918460018302840111640100000000831117156103e057600080fd5b91908080601f016020809104026020016040519081016040528093929190818152602001838380828437600081840152601f19601f8201169050808301925050505050505091929192908035906020019064010000000081111561044357600080fd5b82018360208201111561045557600080fd5b8035906020019184600183028401116401000000008311171561047757600080fd5b91908080601f016020809104026020016040519081016040528093929190818152602001838380828437600081840152601f19601f820116905080830192505050505050509192919290803590602001909291908035906020019092919080359060200190929190505050611721565b005b3480156104f557600080fd5b506105386004803603602081101561050c57600080fd5b81019080803573ffffffffffffffffffffffffffffffffffffffff169060200190929190505050611a37565b6040518082815260200191505060405180910390f35b34801561055a57600080fd5b50610563611a83565b604051808273ffffffffffffffffffffffffffffffffffffffff16815260200191505060405180910390f35b34801561059b57600080fd5b506105a4611aa7565b6040518082815260200191505060405180910390f35b3480156105c657600080fd5b506105cf611acb565b60405180821515815260200191505060405180910390f35b61081460048036036101008110156105fe57600080fd5b81019080803573ffffffffffffffffffffffffffffffffffffffff1690602001909291908035906020019064010000000081111561063b57600080fd5b82018360208201111561064d57600080fd5b8035906020019184602083028401116401000000008311171561066f57600080fd5b919080806020026020016040519081016040528093929190818152602001838360200280828437600081840152601f19601f8201169050808301925050505050505091929192908035906020019092919080359060200190929190803590602001906401000000008111156106e357600080fd5b8201836020820111156106f557600080fd5b8035906020019184600183028401116401000000008311171561071757600080fd5b91908080601f016020809104026020016040519081016040528093929190818152602001838380828437600081840152601f19601f8201169050808301925050505050505091929192908035906020019064010000000081111561077a57600080fd5b82018360208201111561078c57600080fd5b803590602001918460018302840111640100000000831117156107ae57600080fd5b91908080601f016020809104026020016040519081016040528093929190818152602001838380828437600081840152601f19601f8201169050808301925050505050505091929192908035906020019092919080359060200190929190505050611ade565b005b34801561082257600080fd5b5061082b611d02565b6040518082815260200191505060405180910390f35b34801561084d57600080fd5b50610856611d07565b6040518080602001828103825283818151815260200191508051906020019080838360005b8381101561089657808201518184015260208101905061087b565b50505050905090810190601f1680156108c35780820380516001836020036101000a031916815260200191505b509250505060405180910390f35b3480156108dd57600080fd5b506108e6611da5565b6040518082815260200191505060405180910390f35b34801561090857600080fd5b506109356004803603602081101561091f57600080fd5b8101908080359060200190929190505050611dab565b604051808273ffffffffffffffffffffffffffffffffffffffff16815260200191505060405180910390f35b34801561096d57600080fd5b50610976611de7565b6040518082815260200191505060405180910390f35b34801561099857600080fd5b506109a1611ded565b005b3480156109af57600080fd5b506109b8611f6f565b6040518082815260200191505060405180910390f35b3480156109da57600080fd5b506109e3611f93565b6040518080602001828103825283818151815260200191508051906020019080838360005b83811015610a23578082015181840152602081019050610a08565b50505050905090810190601f168015610a505780820380516001836020036101000a031916815260200191505b509250505060405180910390f35b348015610a6a57600080fd5b50610aad60048036036020811015610a8157600080fd5b81019080803573ffffffffffffffffffffffffffffffffffffffff169060200190929190505050612031565b604051808060200180602001888152602001878152602001868152602001858152602001846005811115610add57fe5b815260200183810383528a818151815260200191508051906020019080838360005b83811015610b1a578082015181840152602081019050610aff565b50505050905090810190601f168015610b475780820380516001836020036101000a031916815260200191505b50838103825289818151815260200191508051906020019080838360005b83811015610b80578082015181840152602081019050610b65565b50505050905090810190601f168015610bad5780820380516001836020036101000a031916815260200191505b50995050505050505050505060405180910390f35b7f79be667ef9dcbbac55a06295ce870b07029bfcdb2dce28d959f2815b16f8179881565b600081565b606060006005811115610bfa57fe5b600260008473ffffffffffffffffffffffffffffffffffffffff1673ffffffffffffffffffffffffffffffffffffffff16815260200190815260200160002060060160009054906101000a900460ff166005811115610c5557fe5b1415610c98576040518060400160405280600a81526020017f6e6f7420657869737473000000000000000000000000000000000000000000008152509050610fef565b60016005811115610ca557fe5b600260008473ffffffffffffffffffffffffffffffffffffffff1673ffffffffffffffffffffffffffffffffffffffff16815260200190815260200160002060060160009054906101000a900460ff166005811115610d0057fe5b1415610d43576040518060400160405280600781526020017f63726561746564000000000000000000000000000000000000000000000000008152509050610fef565b60026005811115610d5057fe5b600260008473ffffffffffffffffffffffffffffffffffffffff1673ffffffffffffffffffffffffffffffffffffffff16815260200190815260200160002060060160009054906101000a900460ff166005811115610dab57fe5b1415610dee576040518060400160405280600981526020017f63616e63656c6c656400000000000000000000000000000000000000000000008152509050610fef565b60036005811115610dfb57fe5b600260008473ffffffffffffffffffffffffffffffffffffffff1673ffffffffffffffffffffffffffffffffffffffff16815260200190815260200160002060060160009054906101000a900460ff166005811115610e5657fe5b1415610e99576040518060400160405280600881526020017f61636365707465640000000000000000000000000000000000000000000000008152509050610fef565b60046005811115610ea657fe5b600260008473ffffffffffffffffffffffffffffffffffffffff1673ffffffffffffffffffffffffffffffffffffffff16815260200190815260200160002060060160009054906101000a900460ff166005811115610f0157fe5b1415610f44576040518060400160405280600881526020017f66696e69736865640000000000000000000000000000000000000000000000008152509050610fef565b600580811115610f5057fe5b600260008473ffffffffffffffffffffffffffffffffffffffff1673ffffffffffffffffffffffffffffffffffffffff16815260200190815260200160002060060160009054906101000a900460ff166005811115610fab57fe5b1415610fee576040518060400160405280600881526020017f72656a65637465640000000000000000000000000000000000000000000000008152509050610fef565b5b919050565b600080600080600080600854600a540142101580611019575060018054905060035410155b61106e576040517f08c379a000000000000000000000000000000000000000000000000000000000815260040180806020018281038252605c815260200180612cfe605c913960600191505060405180910390fd5b60008054906101000a900473ffffffffffffffffffffffffffffffffffffffff1673ffffffffffffffffffffffffffffffffffffffff163373ffffffffffffffffffffffffffffffffffffffff1614611112576040517f08c379a0000000000000000000000000000000000000000000000000000000008152600401808060200182810382526026815260200180612c896026913960400191505060405180910390fd5b61118c7f79be667ef9dcbbac55a06295ce870b07029bfcdb2dce28d959f2815b16f817987f483ada7726a3c4655da4fbfc0e1108a8fd17b448a68554199c47d08ffb10d4b860007ffffffffffffffffffffffffffffffffffffffffffffffffffffffffefffffc2f8b6121b090949392919063ffffffff16565b8096508197505050611294600260008a73ffffffffffffffffffffffffffffffffffffffff1673ffffffffffffffffffffffffffffffffffffffff16815260200190815260200160002060020154600260008b73ffffffffffffffffffffffffffffffffffffffff1673ffffffffffffffffffffffffffffffffffffffff1681526020019081526020016000206003015460007ffffffffffffffffffffffffffffffffffffffffffffffffffffffffefffffc2f600260008e73ffffffffffffffffffffffffffffffffffffffff1673ffffffffffffffffffffffffffffffffffffffff168152602001908152602001600020600401546121b090949392919063ffffffff16565b80945081955050506112d885858560007ffffffffffffffffffffffffffffffffffffffffffffffffffffffffefffffc2f8b6121ea9095949392919063ffffffff16565b809250819350505081600454141561133b576040517f08c379a0000000000000000000000000000000000000000000000000000000008152600401808060200182810382526023815260200180612d7c6023913960400191505060405180910390fd5b806005541415611396576040517f08c379a0000000000000000000000000000000000000000000000000000000008152600401808060200182810382526023815260200180612d7c6023913960400191505060405180910390fd5b3373ffffffffffffffffffffffffffffffffffffffff166108fc479081150290604051600060405180830381858888f193505050501580156113dc573d6000803e3d6000fd5b5060005b6001805490508110156116ff578760026000600184815481106113ff57fe5b9060005260206000200160009054906101000a900473ffffffffffffffffffffffffffffffffffffffff1673ffffffffffffffffffffffffffffffffffffffff1673ffffffffffffffffffffffffffffffffffffffff168152602001908152602001600020600501819055506003600581111561147857fe5b600260006001848154811061148957fe5b9060005260206000200160009054906101000a900473ffffffffffffffffffffffffffffffffffffffff1673ffffffffffffffffffffffffffffffffffffffff1673ffffffffffffffffffffffffffffffffffffffff16815260200190815260200160002060060160009054906101000a900460ff16600581111561150a57fe5b14156115b0576004600260006001848154811061152357fe5b9060005260206000200160009054906101000a900473ffffffffffffffffffffffffffffffffffffffff1673ffffffffffffffffffffffffffffffffffffffff1673ffffffffffffffffffffffffffffffffffffffff16815260200190815260200160002060060160006101000a81548160ff021916908360058111156115a657fe5b02179055506116f2565b600160058111156115bd57fe5b60026000600184815481106115ce57fe5b9060005260206000200160009054906101000a900473ffffffffffffffffffffffffffffffffffffffff1673ffffffffffffffffffffffffffffffffffffffff1673ffffffffffffffffffffffffffffffffffffffff16815260200190815260200160002060060160009054906101000a900460ff16600581111561164f57fe5b14156116f1576005600260006001848154811061166857fe5b9060005260206000200160009054906101000a900473ffffffffffffffffffffffffffffffffffffffff1673ffffffffffffffffffffffffffffffffffffffff1673ffffffffffffffffffffffffffffffffffffffff16815260200190815260200160002060060160006101000a81548160ff021916908360058111156116eb57fe5b02179055505b5b80806001019150506113e0565b505050505050505050565b60095481565b60085481565b60045481565b600781565b600854600a5401421061177f576040517f08c379a0000000000000000000000000000000000000000000000000000000008152600401808060200182810382526022815260200180612d5a6022913960400191505060405180910390fd5b6001600581111561178c57fe5b600260003373ffffffffffffffffffffffffffffffffffffffff1673ffffffffffffffffffffffffffffffffffffffff16815260200190815260200160002060060160009054906101000a900460ff1660058111156117e757fe5b1461183d576040517f08c379a000000000000000000000000000000000000000000000000000000000815260040180806020018281038252602e815260200180612dcc602e913960400191505060405180910390fd5b60016003540160038190555084600260003373ffffffffffffffffffffffffffffffffffffffff1673ffffffffffffffffffffffffffffffffffffffff168152602001908152602001600020600001908051906020019061189f929190612a55565b5083600260003373ffffffffffffffffffffffffffffffffffffffff1673ffffffffffffffffffffffffffffffffffffffff16815260200190815260200160002060010190805190602001906118f6929190612ad5565b5082600260003373ffffffffffffffffffffffffffffffffffffffff1673ffffffffffffffffffffffffffffffffffffffff1681526020019081526020016000206002018190555081600260003373ffffffffffffffffffffffffffffffffffffffff1673ffffffffffffffffffffffffffffffffffffffff1681526020019081526020016000206003018190555080600260003373ffffffffffffffffffffffffffffffffffffffff1673ffffffffffffffffffffffffffffffffffffffff168152602001908152602001600020600401819055506003600260003373ffffffffffffffffffffffffffffffffffffffff1673ffffffffffffffffffffffffffffffffffffffff16815260200190815260200160002060060160006101000a81548160ff02191690836005811115611a2b57fe5b02179055505050505050565b6000600260008373ffffffffffffffffffffffffffffffffffffffff1673ffffffffffffffffffffffffffffffffffffffff168152602001908152602001600020600501549050919050565b60008054906101000a900473ffffffffffffffffffffffffffffffffffffffff1681565b7f483ada7726a3c4655da4fbfc0e1108a8fd17b448a68554199c47d08ffb10d4b881565b600b60009054906101000a900460ff1681565b60003411611b37576040517f08c379a000000000000000000000000000000000000000000000000000000000815260040180806020018281038252602d815260200180612d9f602d913960400191505060405180910390fd5b808210611b8f576040517f08c379a0000000000000000000000000000000000000000000000000000000008152600401808060200182810382526029815260200180612caf6029913960400191505060405180910390fd5b876000806101000a81548173ffffffffffffffffffffffffffffffffffffffff021916908373ffffffffffffffffffffffffffffffffffffffff1602179055508660019080519060200190611be5929190612b55565b5060005b600180549050811015611c9e5760016002600060018481548110611c0957fe5b9060005260206000200160009054906101000a900473ffffffffffffffffffffffffffffffffffffffff1673ffffffffffffffffffffffffffffffffffffffff1673ffffffffffffffffffffffffffffffffffffffff16815260200190815260200160002060060160006101000a81548160ff02191690836005811115611c8c57fe5b02179055508080600101915050611be9565b50600060038190555085600481905550846005819055508360069080519060200190611ccb929190612a55565b508260079080519060200190611ce2929190612a55565b5042600a8190555081600881905550806009819055505050505050505050565b600081565b60068054600181600116156101000203166002900480601f016020809104026020016040519081016040528092919081815260200182805460018160011615610100020316600290048015611d9d5780601f10611d7257610100808354040283529160200191611d9d565b820191906000526020600020905b815481529060010190602001808311611d8057829003601f168201915b505050505081565b600a5481565b60018181548110611db857fe5b906000526020600020016000915054906101000a900473ffffffffffffffffffffffffffffffffffffffff1681565b60055481565b600954600a5401421015611e4c576040517f08c379a0000000000000000000000000000000000000000000000000000000008152600401808060200182810382526026815260200180612cd86026913960400191505060405180910390fd5b60036005811115611e5957fe5b600260003373ffffffffffffffffffffffffffffffffffffffff1673ffffffffffffffffffffffffffffffffffffffff16815260200190815260200160002060060160009054906101000a900460ff166005811115611eb457fe5b14611f0a576040517f08c379a000000000000000000000000000000000000000000000000000000000815260040180806020018281038252602f815260200180612c5a602f913960400191505060405180910390fd5b60028060003373ffffffffffffffffffffffffffffffffffffffff1673ffffffffffffffffffffffffffffffffffffffff16815260200190815260200160002060060160006101000a81548160ff02191690836005811115611f6857fe5b0217905550565b7ffffffffffffffffffffffffffffffffffffffffffffffffffffffffefffffc2f81565b60078054600181600116156101000203166002900480601f0160208091040260200160405190810160405280929190818152602001828054600181600116156101000203166002900480156120295780601f10611ffe57610100808354040283529160200191612029565b820191906000526020600020905b81548152906001019060200180831161200c57829003601f168201915b505050505081565b6002602052806000526040600020600091509050806000018054600181600116156101000203166002900480601f0160208091040260200160405190810160405280929190818152602001828054600181600116156101000203166002900480156120dd5780601f106120b2576101008083540402835291602001916120dd565b820191906000526020600020905b8154815290600101906020018083116120c057829003601f168201915b505050505090806001018054600181600116156101000203166002900480601f01602080910402602001604051908101604052809291908181526020018280546001816001161561010002031660029004801561217b5780601f106121505761010080835404028352916020019161217b565b820191906000526020600020905b81548152906001019060200180831161215e57829003601f168201915b5050505050908060020154908060030154908060040154908060050154908060060160009054906101000a900460ff16905087565b60008060008060006121c78a8a8a60018b8b612278565b9250925092506121d983838389612316565b945094505050509550959350505050565b6000806000806000888b141561223b576000868061220457fe5b898c08141561221c576000809450945050505061226d565b61222a8b8b60018a8a612371565b809350819450829550505050612259565b61224c8b8b60018c8c60018c612490565b8093508194508295505050505b61226583838389612316565b945094505050505b965096945050505050565b6000806000808914156122935787878792509250925061230a565b60008990506000806000600190505b600084146122fc57600060018516146122d1576122c48383838f8f8f8e612490565b8093508194508295505050505b600284816122db57fe5b0493506122eb8c8c8c8c8c612371565b809c50819d50829e505050506122a2565b828282965096509650505050505b96509650969350505050565b60008060006123258585612961565b90506000848061233157fe5b82830990506000858061234057fe5b828a0990506000868061234f57fe5b878061235757fe5b8486098a0990508181955095505050505094509492505050565b60008060008086141561238c57878787925092509250612485565b6000848061239657fe5b898a099050600085806123a557fe5b898a099050600086806123b457fe5b898a099050600087806123c357fe5b88806123cb57fe5b848e096004099050600088806123dd57fe5b89806123e557fe5b8a806123ed57fe5b8586098c098a806123fa57fe5b87600309089050888061240957fe5b898061241157fe5b8384088a038a8061241e57fe5b838409089450888061242c57fe5b898061243457fe5b8a8061243c57fe5b8687096008098a038a8061244c57fe5b8b8061245457fe5b888d0386088409089350888061246657fe5b898061246e57fe5b8c8e09600209925084848497509750975050505050505b955095509592505050565b6000806000808a1480156124a45750600089145b156124b757868686925092509250612954565b6000871480156124c75750600086145b156124da57898989925092509250612954565b6124e2612bdf565b84806124ea57fe5b898a09816000600481106124fa57fe5b602002018181525050848061250b57fe5b8160006004811061251857fe5b60200201518a098160016004811061252c57fe5b602002018181525050848061253d57fe5b8687098160026004811061254d57fe5b602002018181525050848061255e57fe5b8160026004811061256b57fe5b602002015187098160036004811061257f57fe5b6020020181815250506040518060800160405280868061259b57fe5b836002600481106125a857fe5b60200201518e09815260200186806125bc57fe5b836003600481106125c957fe5b60200201518d09815260200186806125dd57fe5b836000600481106125ea57fe5b60200201518b09815260200186806125fe57fe5b8360016004811061260b57fe5b60200201518a0981525090508060026004811061262457fe5b60200201518160006004811061263657fe5b602002015114158061266a57508060036004811061265057fe5b60200201518160016004811061266257fe5b602002015114155b6126dc576040517f08c379a000000000000000000000000000000000000000000000000000000000815260040180806020018281038252601e8152602001807f557365206a6163446f75626c652066756e6374696f6e20696e7374656164000081525060200191505060405180910390fd5b6126e4612bdf565b85806126ec57fe5b826000600481106126f957fe5b602002015187038360026004811061270d57fe5b6020020151088160006004811061272057fe5b602002018181525050858061273157fe5b8260016004811061273e57fe5b602002015187038360036004811061275257fe5b6020020151088160016004811061276557fe5b602002018181525050858061277657fe5b8160006004811061278357fe5b60200201518260006004811061279557fe5b602002015109816002600481106127a857fe5b60200201818152505085806127b957fe5b816000600481106127c657fe5b6020020151826002600481106127d857fe5b602002015109816003600481106127eb57fe5b602002018181525050600086806127fe57fe5b8260036004811061280b57fe5b60200201518803888061281a57fe5b8460016004811061282757fe5b60200201518560016004811061283957fe5b602002015109089050868061284a57fe5b878061285257fe5b888061285a57fe5b8460026004811061286757fe5b60200201518660006004811061287957fe5b6020020151096002098803820890506000878061289257fe5b888061289a57fe5b838a038a806128a557fe5b866002600481106128b257fe5b6020020151886000600481106128c457fe5b60200201510908846001600481106128d857fe5b602002015109905087806128e857fe5b88806128f057fe5b846003600481106128fd57fe5b60200201518660016004811061290f57fe5b6020020151098903820890506000888061292557fe5b898061292d57fe5b8b8f098560006004811061293d57fe5b602002015109905082828297509750975050505050505b9750975097945050505050565b60008083141580156129735750818314155b8015612980575060008214155b6129f2576040517f08c379a000000000000000000000000000000000000000000000000000000000815260040180806020018281038252600e8152602001807f496e76616c6964206e756d62657200000000000000000000000000000000000081525060200191505060405180910390fd5b60008060019050600084905060005b60008714612a4857868281612a1257fe5b049050828680612a1e57fe5b8780612a2657fe5b8584098803860880945081955050508687820283038098508193505050612a01565b8394505050505092915050565b828054600181600116156101000203166002900490600052602060002090601f016020900481019282601f10612a9657805160ff1916838001178555612ac4565b82800160010185558215612ac4579182015b82811115612ac3578251825591602001919060010190612aa8565b5b509050612ad19190612c01565b5090565b828054600181600116156101000203166002900490600052602060002090601f016020900481019282601f10612b1657805160ff1916838001178555612b44565b82800160010185558215612b44579182015b82811115612b43578251825591602001919060010190612b28565b5b509050612b519190612c01565b5090565b828054828255906000526020600020908101928215612bce579160200282015b82811115612bcd5782518260006101000a81548173ffffffffffffffffffffffffffffffffffffffff021916908373ffffffffffffffffffffffffffffffffffffffff16021790555091602001919060010190612b75565b5b509050612bdb9190612c1e565b5090565b6040518060800160405280600490602082028036833780820191505090505090565b5b80821115612c1a576000816000905550600101612c02565b5090565b5b80821115612c5557600081816101000a81549073ffffffffffffffffffffffffffffffffffffffff021916905550600101612c1f565b509056fe4f6e6c7920726563656976657273207769746820276163636570746564272073746174652063616e2063616e63656c4f6e6c792073656e646572206f66207468652064656c69766572792063616e2066696e69736854696d656f7574207465726d32206d7573742062652067726561746572207468616e205f7465726d315468652074696d656f7574207465726d3220686173206e6f74206265656e20726561636865645468652074696d656f7574207465726d3120686173206e6f74206265656e207265616368656420616e64206e6f7420616c6c207265636569766572732068617665206265656e206163636570746564207468652064656c69766572795468652074696d656f7574207465726d3120686173206265656e20726561636865645620616e642047785b72695d2b4269785b63695d20617265206e6f7420657175616c7353656e6465722068617320746f2073656e642061206465706f736974206f66206d696e696d756e2031207765694f6e6c79207265636569766572732077697468202763726561746564272073746174652063616e20616363657074a2646970667358221220f235cb016ce47f89d65b9f223b1adbcefb58cf5ae01608e2e2f050a0464d9d7064736f6c634300060c0033",
      "opcodes": "PUSH1 0x80 PUSH1 0x40 MSTORE CALLVALUE DUP1 ISZERO PUSH2 0x10 JUMPI PUSH1 0x0 DUP1 REVERT JUMPDEST POP PUSH1 0x1 PUSH1 0xB PUSH1 0x0 PUSH2 0x100 EXP DUP2 SLOAD DUP2 PUSH1 0xFF MUL NOT AND SWAP1 DUP4 ISZERO ISZERO MUL OR SWAP1 SSTORE POP PUSH2 0x2E2F DUP1 PUSH2 0x3B PUSH1 0x0 CODECOPY PUSH1 0x0 RETURN INVALID PUSH1 0x80 PUSH1 0x40 MSTORE PUSH1 0x4 CALLDATASIZE LT PUSH2 0x140 JUMPI PUSH1 0x0 CALLDATALOAD PUSH1 0xE0 SHR DUP1 PUSH4 0x7A308A4C GT PUSH2 0xB6 JUMPI DUP1 PUSH4 0xBFD772FC GT PUSH2 0x6F JUMPI DUP1 PUSH4 0xBFD772FC EQ PUSH2 0x8FC JUMPI DUP1 PUSH4 0xCD12A4B0 EQ PUSH2 0x961 JUMPI DUP1 PUSH4 0xEA8A1AF0 EQ PUSH2 0x98C JUMPI DUP1 PUSH4 0xEEEAC01E EQ PUSH2 0x9A3 JUMPI DUP1 PUSH4 0xF446C1D0 EQ PUSH2 0x9CE JUMPI DUP1 PUSH4 0xFF7EDF42 EQ PUSH2 0xA5E JUMPI PUSH2 0x140 JUMP JUMPDEST DUP1 PUSH4 0x7A308A4C EQ PUSH2 0x58F JUMPI DUP1 PUSH4 0x7F80069A EQ PUSH2 0x5BA JUMPI DUP1 PUSH4 0x872B2223 EQ PUSH2 0x5E7 JUMPI DUP1 PUSH4 0x997DA8D4 EQ PUSH2 0x816 JUMPI DUP1 PUSH4 0xA1CBF5F9 EQ PUSH2 0x841 JUMPI DUP1 PUSH4 0xBE9A6555 EQ PUSH2 0x8D1 JUMPI PUSH2 0x140 JUMP JUMPDEST DUP1 PUSH4 0x4C87C67D GT PUSH2 0x108 JUMPI DUP1 PUSH4 0x4C87C67D EQ PUSH2 0x2EB JUMPI DUP1 PUSH4 0x4E8C0BD6 EQ PUSH2 0x316 JUMPI DUP1 PUSH4 0x5727DC5C EQ PUSH2 0x341 JUMPI DUP1 PUSH4 0x57DC3742 EQ PUSH2 0x36C JUMPI DUP1 PUSH4 0x6349CA37 EQ PUSH2 0x4E9 JUMPI DUP1 PUSH4 0x67E404CE EQ PUSH2 0x54E JUMPI PUSH2 0x140 JUMP JUMPDEST DUP1 PUSH4 0x3A507BE EQ PUSH2 0x145 JUMPI DUP1 PUSH4 0xDBE671F EQ PUSH2 0x170 JUMPI DUP1 PUSH4 0x1BAB58F5 EQ PUSH2 0x19B JUMPI DUP1 PUSH4 0x29008824 EQ PUSH2 0x265 JUMPI DUP1 PUSH4 0x3B4A0828 EQ PUSH2 0x2C0 JUMPI JUMPDEST PUSH1 0x0 DUP1 REVERT JUMPDEST CALLVALUE DUP1 ISZERO PUSH2 0x151 JUMPI PUSH1 0x0 DUP1 REVERT JUMPDEST POP PUSH2 0x15A PUSH2 0xBC2 JUMP JUMPDEST PUSH1 0x40 MLOAD DUP1 DUP3 DUP2 MSTORE PUSH1 0x20 ADD SWAP2 POP POP PUSH1 0x40 MLOAD DUP1 SWAP2 SUB SWAP1 RETURN JUMPDEST CALLVALUE DUP1 ISZERO PUSH2 0x17C JUMPI PUSH1 0x0 DUP1 REVERT JUMPDEST POP PUSH2 0x185 PUSH2 0xBE6 JUMP JUMPDEST PUSH1 0x40 MLOAD DUP1 DUP3 DUP2 MSTORE PUSH1 0x20 ADD SWAP2 POP POP PUSH1 0x40 MLOAD DUP1 SWAP2 SUB SWAP1 RETURN JUMPDEST CALLVALUE DUP1 ISZERO PUSH2 0x1A7 JUMPI PUSH1 0x0 DUP1 REVERT JUMPDEST POP PUSH2 0x1EA PUSH1 0x4 DUP1 CALLDATASIZE SUB PUSH1 0x20 DUP2 LT ISZERO PUSH2 0x1BE JUMPI PUSH1 0x0 DUP1 REVERT JUMPDEST DUP2 ADD SWAP1 DUP1 DUP1 CALLDATALOAD PUSH20 0xFFFFFFFFFFFFFFFFFFFFFFFFFFFFFFFFFFFFFFFF AND SWAP1 PUSH1 0x20 ADD SWAP1 SWAP3 SWAP2 SWAP1 POP POP POP PUSH2 0xBEB JUMP JUMPDEST PUSH1 0x40 MLOAD DUP1 DUP1 PUSH1 0x20 ADD DUP3 DUP2 SUB DUP3 MSTORE DUP4 DUP2 DUP2 MLOAD DUP2 MSTORE PUSH1 0x20 ADD SWAP2 POP DUP1 MLOAD SWAP1 PUSH1 0x20 ADD SWAP1 DUP1 DUP4 DUP4 PUSH1 0x0 JUMPDEST DUP4 DUP2 LT ISZERO PUSH2 0x22A JUMPI DUP1 DUP3 ADD MLOAD DUP2 DUP5 ADD MSTORE PUSH1 0x20 DUP2 ADD SWAP1 POP PUSH2 0x20F JUMP JUMPDEST POP POP POP POP SWAP1 POP SWAP1 DUP2 ADD SWAP1 PUSH1 0x1F AND DUP1 ISZERO PUSH2 0x257 JUMPI DUP1 DUP3 SUB DUP1 MLOAD PUSH1 0x1 DUP4 PUSH1 0x20 SUB PUSH2 0x100 EXP SUB NOT AND DUP2 MSTORE PUSH1 0x20 ADD SWAP2 POP JUMPDEST POP SWAP3 POP POP POP PUSH1 0x40 MLOAD DUP1 SWAP2 SUB SWAP1 RETURN JUMPDEST CALLVALUE DUP1 ISZERO PUSH2 0x271 JUMPI PUSH1 0x0 DUP1 REVERT JUMPDEST POP PUSH2 0x2BE PUSH1 0x4 DUP1 CALLDATASIZE SUB PUSH1 0x40 DUP2 LT ISZERO PUSH2 0x288 JUMPI PUSH1 0x0 DUP1 REVERT JUMPDEST DUP2 ADD SWAP1 DUP1 DUP1 CALLDATALOAD PUSH20 0xFFFFFFFFFFFFFFFFFFFFFFFFFFFFFFFFFFFFFFFF AND SWAP1 PUSH1 0x20 ADD SWAP1 SWAP3 SWAP2 SWAP1 DUP1 CALLDATALOAD SWAP1 PUSH1 0x20 ADD SWAP1 SWAP3 SWAP2 SWAP1 POP POP POP PUSH2 0xFF4 JUMP JUMPDEST STOP JUMPDEST CALLVALUE DUP1 ISZERO PUSH2 0x2CC JUMPI PUSH1 0x0 DUP1 REVERT JUMPDEST POP PUSH2 0x2D5 PUSH2 0x170A JUMP JUMPDEST PUSH1 0x40 MLOAD DUP1 DUP3 DUP2 MSTORE PUSH1 0x20 ADD SWAP2 POP POP PUSH1 0x40 MLOAD DUP1 SWAP2 SUB SWAP1 RETURN JUMPDEST CALLVALUE DUP1 ISZERO PUSH2 0x2F7 JUMPI PUSH1 0x0 DUP1 REVERT JUMPDEST POP PUSH2 0x300 PUSH2 0x1710 JUMP JUMPDEST PUSH1 0x40 MLOAD DUP1 DUP3 DUP2 MSTORE PUSH1 0x20 ADD SWAP2 POP POP PUSH1 0x40 MLOAD DUP1 SWAP2 SUB SWAP1 RETURN JUMPDEST CALLVALUE DUP1 ISZERO PUSH2 0x322 JUMPI PUSH1 0x0 DUP1 REVERT JUMPDEST POP PUSH2 0x32B PUSH2 0x1716 JUMP JUMPDEST PUSH1 0x40 MLOAD DUP1 DUP3 DUP2 MSTORE PUSH1 0x20 ADD SWAP2 POP POP PUSH1 0x40 MLOAD DUP1 SWAP2 SUB SWAP1 RETURN JUMPDEST CALLVALUE DUP1 ISZERO PUSH2 0x34D JUMPI PUSH1 0x0 DUP1 REVERT JUMPDEST POP PUSH2 0x356 PUSH2 0x171C JUMP JUMPDEST PUSH1 0x40 MLOAD DUP1 DUP3 DUP2 MSTORE PUSH1 0x20 ADD SWAP2 POP POP PUSH1 0x40 MLOAD DUP1 SWAP2 SUB SWAP1 RETURN JUMPDEST CALLVALUE DUP1 ISZERO PUSH2 0x378 JUMPI PUSH1 0x0 DUP1 REVERT JUMPDEST POP PUSH2 0x4E7 PUSH1 0x4 DUP1 CALLDATASIZE SUB PUSH1 0xA0 DUP2 LT ISZERO PUSH2 0x38F JUMPI PUSH1 0x0 DUP1 REVERT JUMPDEST DUP2 ADD SWAP1 DUP1 DUP1 CALLDATALOAD SWAP1 PUSH1 0x20 ADD SWAP1 PUSH5 0x100000000 DUP2 GT ISZERO PUSH2 0x3AC JUMPI PUSH1 0x0 DUP1 REVERT JUMPDEST DUP3 ADD DUP4 PUSH1 0x20 DUP3 ADD GT ISZERO PUSH2 0x3BE JUMPI PUSH1 0x0 DUP1 REVERT JUMPDEST DUP1 CALLDATALOAD SWAP1 PUSH1 0x20 ADD SWAP2 DUP5 PUSH1 0x1 DUP4 MUL DUP5 ADD GT PUSH5 0x100000000 DUP4 GT OR ISZERO PUSH2 0x3E0 JUMPI PUSH1 0x0 DUP1 REVERT JUMPDEST SWAP2 SWAP1 DUP1 DUP1 PUSH1 0x1F ADD PUSH1 0x20 DUP1 SWAP2 DIV MUL PUSH1 0x20 ADD PUSH1 0x40 MLOAD SWAP1 DUP2 ADD PUSH1 0x40 MSTORE DUP1 SWAP4 SWAP3 SWAP2 SWAP1 DUP2 DUP2 MSTORE PUSH1 0x20 ADD DUP4 DUP4 DUP1 DUP3 DUP5 CALLDATACOPY PUSH1 0x0 DUP2 DUP5 ADD MSTORE PUSH1 0x1F NOT PUSH1 0x1F DUP3 ADD AND SWAP1 POP DUP1 DUP4 ADD SWAP3 POP POP POP POP POP POP POP SWAP2 SWAP3 SWAP2 SWAP3 SWAP1 DUP1 CALLDATALOAD SWAP1 PUSH1 0x20 ADD SWAP1 PUSH5 0x100000000 DUP2 GT ISZERO PUSH2 0x443 JUMPI PUSH1 0x0 DUP1 REVERT JUMPDEST DUP3 ADD DUP4 PUSH1 0x20 DUP3 ADD GT ISZERO PUSH2 0x455 JUMPI PUSH1 0x0 DUP1 REVERT JUMPDEST DUP1 CALLDATALOAD SWAP1 PUSH1 0x20 ADD SWAP2 DUP5 PUSH1 0x1 DUP4 MUL DUP5 ADD GT PUSH5 0x100000000 DUP4 GT OR ISZERO PUSH2 0x477 JUMPI PUSH1 0x0 DUP1 REVERT JUMPDEST SWAP2 SWAP1 DUP1 DUP1 PUSH1 0x1F ADD PUSH1 0x20 DUP1 SWAP2 DIV MUL PUSH1 0x20 ADD PUSH1 0x40 MLOAD SWAP1 DUP2 ADD PUSH1 0x40 MSTORE DUP1 SWAP4 SWAP3 SWAP2 SWAP1 DUP2 DUP2 MSTORE PUSH1 0x20 ADD DUP4 DUP4 DUP1 DUP3 DUP5 CALLDATACOPY PUSH1 0x0 DUP2 DUP5 ADD MSTORE PUSH1 0x1F NOT PUSH1 0x1F DUP3 ADD AND SWAP1 POP DUP1 DUP4 ADD SWAP3 POP POP POP POP POP POP POP SWAP2 SWAP3 SWAP2 SWAP3 SWAP1 DUP1 CALLDATALOAD SWAP1 PUSH1 0x20 ADD SWAP1 SWAP3 SWAP2 SWAP1 DUP1 CALLDATALOAD SWAP1 PUSH1 0x20 ADD SWAP1 SWAP3 SWAP2 SWAP1 DUP1 CALLDATALOAD SWAP1 PUSH1 0x20 ADD SWAP1 SWAP3 SWAP2 SWAP1 POP POP POP PUSH2 0x1721 JUMP JUMPDEST STOP JUMPDEST CALLVALUE DUP1 ISZERO PUSH2 0x4F5 JUMPI PUSH1 0x0 DUP1 REVERT JUMPDEST POP PUSH2 0x538 PUSH1 0x4 DUP1 CALLDATASIZE SUB PUSH1 0x20 DUP2 LT ISZERO PUSH2 0x50C JUMPI PUSH1 0x0 DUP1 REVERT JUMPDEST DUP2 ADD SWAP1 DUP1 DUP1 CALLDATALOAD PUSH20 0xFFFFFFFFFFFFFFFFFFFFFFFFFFFFFFFFFFFFFFFF AND SWAP1 PUSH1 0x20 ADD SWAP1 SWAP3 SWAP2 SWAP1 POP POP POP PUSH2 0x1A37 JUMP JUMPDEST PUSH1 0x40 MLOAD DUP1 DUP3 DUP2 MSTORE PUSH1 0x20 ADD SWAP2 POP POP PUSH1 0x40 MLOAD DUP1 SWAP2 SUB SWAP1 RETURN JUMPDEST CALLVALUE DUP1 ISZERO PUSH2 0x55A JUMPI PUSH1 0x0 DUP1 REVERT JUMPDEST POP PUSH2 0x563 PUSH2 0x1A83 JUMP JUMPDEST PUSH1 0x40 MLOAD DUP1 DUP3 PUSH20 0xFFFFFFFFFFFFFFFFFFFFFFFFFFFFFFFFFFFFFFFF AND DUP2 MSTORE PUSH1 0x20 ADD SWAP2 POP POP PUSH1 0x40 MLOAD DUP1 SWAP2 SUB SWAP1 RETURN JUMPDEST CALLVALUE DUP1 ISZERO PUSH2 0x59B JUMPI PUSH1 0x0 DUP1 REVERT JUMPDEST POP PUSH2 0x5A4 PUSH2 0x1AA7 JUMP JUMPDEST PUSH1 0x40 MLOAD DUP1 DUP3 DUP2 MSTORE PUSH1 0x20 ADD SWAP2 POP POP PUSH1 0x40 MLOAD DUP1 SWAP2 SUB SWAP1 RETURN JUMPDEST CALLVALUE DUP1 ISZERO PUSH2 0x5C6 JUMPI PUSH1 0x0 DUP1 REVERT JUMPDEST POP PUSH2 0x5CF PUSH2 0x1ACB JUMP JUMPDEST PUSH1 0x40 MLOAD DUP1 DUP3 ISZERO ISZERO DUP2 MSTORE PUSH1 0x20 ADD SWAP2 POP POP PUSH1 0x40 MLOAD DUP1 SWAP2 SUB SWAP1 RETURN JUMPDEST PUSH2 0x814 PUSH1 0x4 DUP1 CALLDATASIZE SUB PUSH2 0x100 DUP2 LT ISZERO PUSH2 0x5FE JUMPI PUSH1 0x0 DUP1 REVERT JUMPDEST DUP2 ADD SWAP1 DUP1 DUP1 CALLDATALOAD PUSH20 0xFFFFFFFFFFFFFFFFFFFFFFFFFFFFFFFFFFFFFFFF AND SWAP1 PUSH1 0x20 ADD SWAP1 SWAP3 SWAP2 SWAP1 DUP1 CALLDATALOAD SWAP1 PUSH1 0x20 ADD SWAP1 PUSH5 0x100000000 DUP2 GT ISZERO PUSH2 0x63B JUMPI PUSH1 0x0 DUP1 REVERT JUMPDEST DUP3 ADD DUP4 PUSH1 0x20 DUP3 ADD GT ISZERO PUSH2 0x64D JUMPI PUSH1 0x0 DUP1 REVERT JUMPDEST DUP1 CALLDATALOAD SWAP1 PUSH1 0x20 ADD SWAP2 DUP5 PUSH1 0x20 DUP4 MUL DUP5 ADD GT PUSH5 0x100000000 DUP4 GT OR ISZERO PUSH2 0x66F JUMPI PUSH1 0x0 DUP1 REVERT JUMPDEST SWAP2 SWAP1 DUP1 DUP1 PUSH1 0x20 MUL PUSH1 0x20 ADD PUSH1 0x40 MLOAD SWAP1 DUP2 ADD PUSH1 0x40 MSTORE DUP1 SWAP4 SWAP3 SWAP2 SWAP1 DUP2 DUP2 MSTORE PUSH1 0x20 ADD DUP4 DUP4 PUSH1 0x20 MUL DUP1 DUP3 DUP5 CALLDATACOPY PUSH1 0x0 DUP2 DUP5 ADD MSTORE PUSH1 0x1F NOT PUSH1 0x1F DUP3 ADD AND SWAP1 POP DUP1 DUP4 ADD SWAP3 POP POP POP POP POP POP POP SWAP2 SWAP3 SWAP2 SWAP3 SWAP1 DUP1 CALLDATALOAD SWAP1 PUSH1 0x20 ADD SWAP1 SWAP3 SWAP2 SWAP1 DUP1 CALLDATALOAD SWAP1 PUSH1 0x20 ADD SWAP1 SWAP3 SWAP2 SWAP1 DUP1 CALLDATALOAD SWAP1 PUSH1 0x20 ADD SWAP1 PUSH5 0x100000000 DUP2 GT ISZERO PUSH2 0x6E3 JUMPI PUSH1 0x0 DUP1 REVERT JUMPDEST DUP3 ADD DUP4 PUSH1 0x20 DUP3 ADD GT ISZERO PUSH2 0x6F5 JUMPI PUSH1 0x0 DUP1 REVERT JUMPDEST DUP1 CALLDATALOAD SWAP1 PUSH1 0x20 ADD SWAP2 DUP5 PUSH1 0x1 DUP4 MUL DUP5 ADD GT PUSH5 0x100000000 DUP4 GT OR ISZERO PUSH2 0x717 JUMPI PUSH1 0x0 DUP1 REVERT JUMPDEST SWAP2 SWAP1 DUP1 DUP1 PUSH1 0x1F ADD PUSH1 0x20 DUP1 SWAP2 DIV MUL PUSH1 0x20 ADD PUSH1 0x40 MLOAD SWAP1 DUP2 ADD PUSH1 0x40 MSTORE DUP1 SWAP4 SWAP3 SWAP2 SWAP1 DUP2 DUP2 MSTORE PUSH1 0x20 ADD DUP4 DUP4 DUP1 DUP3 DUP5 CALLDATACOPY PUSH1 0x0 DUP2 DUP5 ADD MSTORE PUSH1 0x1F NOT PUSH1 0x1F DUP3 ADD AND SWAP1 POP DUP1 DUP4 ADD SWAP3 POP POP POP POP POP POP POP SWAP2 SWAP3 SWAP2 SWAP3 SWAP1 DUP1 CALLDATALOAD SWAP1 PUSH1 0x20 ADD SWAP1 PUSH5 0x100000000 DUP2 GT ISZERO PUSH2 0x77A JUMPI PUSH1 0x0 DUP1 REVERT JUMPDEST DUP3 ADD DUP4 PUSH1 0x20 DUP3 ADD GT ISZERO PUSH2 0x78C JUMPI PUSH1 0x0 DUP1 REVERT JUMPDEST DUP1 CALLDATALOAD SWAP1 PUSH1 0x20 ADD SWAP2 DUP5 PUSH1 0x1 DUP4 MUL DUP5 ADD GT PUSH5 0x100000000 DUP4 GT OR ISZERO PUSH2 0x7AE JUMPI PUSH1 0x0 DUP1 REVERT JUMPDEST SWAP2 SWAP1 DUP1 DUP1 PUSH1 0x1F ADD PUSH1 0x20 DUP1 SWAP2 DIV MUL PUSH1 0x20 ADD PUSH1 0x40 MLOAD SWAP1 DUP2 ADD PUSH1 0x40 MSTORE DUP1 SWAP4 SWAP3 SWAP2 SWAP1 DUP2 DUP2 MSTORE PUSH1 0x20 ADD DUP4 DUP4 DUP1 DUP3 DUP5 CALLDATACOPY PUSH1 0x0 DUP2 DUP5 ADD MSTORE PUSH1 0x1F NOT PUSH1 0x1F DUP3 ADD AND SWAP1 POP DUP1 DUP4 ADD SWAP3 POP POP POP POP POP POP POP SWAP2 SWAP3 SWAP2 SWAP3 SWAP1 DUP1 CALLDATALOAD SWAP1 PUSH1 0x20 ADD SWAP1 SWAP3 SWAP2 SWAP1 DUP1 CALLDATALOAD SWAP1 PUSH1 0x20 ADD SWAP1 SWAP3 SWAP2 SWAP1 POP POP POP PUSH2 0x1ADE JUMP JUMPDEST STOP JUMPDEST CALLVALUE DUP1 ISZERO PUSH2 0x822 JUMPI PUSH1 0x0 DUP1 REVERT JUMPDEST POP PUSH2 0x82B PUSH2 0x1D02 JUMP JUMPDEST PUSH1 0x40 MLOAD DUP1 DUP3 DUP2 MSTORE PUSH1 0x20 ADD SWAP2 POP POP PUSH1 0x40 MLOAD DUP1 SWAP2 SUB SWAP1 RETURN JUMPDEST CALLVALUE DUP1 ISZERO PUSH2 0x84D JUMPI PUSH1 0x0 DUP1 REVERT JUMPDEST POP PUSH2 0x856 PUSH2 0x1D07 JUMP JUMPDEST PUSH1 0x40 MLOAD DUP1 DUP1 PUSH1 0x20 ADD DUP3 DUP2 SUB DUP3 MSTORE DUP4 DUP2 DUP2 MLOAD DUP2 MSTORE PUSH1 0x20 ADD SWAP2 POP DUP1 MLOAD SWAP1 PUSH1 0x20 ADD SWAP1 DUP1 DUP4 DUP4 PUSH1 0x0 JUMPDEST DUP4 DUP2 LT ISZERO PUSH2 0x896 JUMPI DUP1 DUP3 ADD MLOAD DUP2 DUP5 ADD MSTORE PUSH1 0x20 DUP2 ADD SWAP1 POP PUSH2 0x87B JUMP JUMPDEST POP POP POP POP SWAP1 POP SWAP1 DUP2 ADD SWAP1 PUSH1 0x1F AND DUP1 ISZERO PUSH2 0x8C3 JUMPI DUP1 DUP3 SUB DUP1 MLOAD PUSH1 0x1 DUP4 PUSH1 0x20 SUB PUSH2 0x100 EXP SUB NOT AND DUP2 MSTORE PUSH1 0x20 ADD SWAP2 POP JUMPDEST POP SWAP3 POP POP POP PUSH1 0x40 MLOAD DUP1 SWAP2 SUB SWAP1 RETURN JUMPDEST CALLVALUE DUP1 ISZERO PUSH2 0x8DD JUMPI PUSH1 0x0 DUP1 REVERT JUMPDEST POP PUSH2 0x8E6 PUSH2 0x1DA5 JUMP JUMPDEST PUSH1 0x40 MLOAD DUP1 DUP3 DUP2 MSTORE PUSH1 0x20 ADD SWAP2 POP POP PUSH1 0x40 MLOAD DUP1 SWAP2 SUB SWAP1 RETURN JUMPDEST CALLVALUE DUP1 ISZERO PUSH2 0x908 JUMPI PUSH1 0x0 DUP1 REVERT JUMPDEST POP PUSH2 0x935 PUSH1 0x4 DUP1 CALLDATASIZE SUB PUSH1 0x20 DUP2 LT ISZERO PUSH2 0x91F JUMPI PUSH1 0x0 DUP1 REVERT JUMPDEST DUP2 ADD SWAP1 DUP1 DUP1 CALLDATALOAD SWAP1 PUSH1 0x20 ADD SWAP1 SWAP3 SWAP2 SWAP1 POP POP POP PUSH2 0x1DAB JUMP JUMPDEST PUSH1 0x40 MLOAD DUP1 DUP3 PUSH20 0xFFFFFFFFFFFFFFFFFFFFFFFFFFFFFFFFFFFFFFFF AND DUP2 MSTORE PUSH1 0x20 ADD SWAP2 POP POP PUSH1 0x40 MLOAD DUP1 SWAP2 SUB SWAP1 RETURN JUMPDEST CALLVALUE DUP1 ISZERO PUSH2 0x96D JUMPI PUSH1 0x0 DUP1 REVERT JUMPDEST POP PUSH2 0x976 PUSH2 0x1DE7 JUMP JUMPDEST PUSH1 0x40 MLOAD DUP1 DUP3 DUP2 MSTORE PUSH1 0x20 ADD SWAP2 POP POP PUSH1 0x40 MLOAD DUP1 SWAP2 SUB SWAP1 RETURN JUMPDEST CALLVALUE DUP1 ISZERO PUSH2 0x998 JUMPI PUSH1 0x0 DUP1 REVERT JUMPDEST POP PUSH2 0x9A1 PUSH2 0x1DED JUMP JUMPDEST STOP JUMPDEST CALLVALUE DUP1 ISZERO PUSH2 0x9AF JUMPI PUSH1 0x0 DUP1 REVERT JUMPDEST POP PUSH2 0x9B8 PUSH2 0x1F6F JUMP JUMPDEST PUSH1 0x40 MLOAD DUP1 DUP3 DUP2 MSTORE PUSH1 0x20 ADD SWAP2 POP POP PUSH1 0x40 MLOAD DUP1 SWAP2 SUB SWAP1 RETURN JUMPDEST CALLVALUE DUP1 ISZERO PUSH2 0x9DA JUMPI PUSH1 0x0 DUP1 REVERT JUMPDEST POP PUSH2 0x9E3 PUSH2 0x1F93 JUMP JUMPDEST PUSH1 0x40 MLOAD DUP1 DUP1 PUSH1 0x20 ADD DUP3 DUP2 SUB DUP3 MSTORE DUP4 DUP2 DUP2 MLOAD DUP2 MSTORE PUSH1 0x20 ADD SWAP2 POP DUP1 MLOAD SWAP1 PUSH1 0x20 ADD SWAP1 DUP1 DUP4 DUP4 PUSH1 0x0 JUMPDEST DUP4 DUP2 LT ISZERO PUSH2 0xA23 JUMPI DUP1 DUP3 ADD MLOAD DUP2 DUP5 ADD MSTORE PUSH1 0x20 DUP2 ADD SWAP1 POP PUSH2 0xA08 JUMP JUMPDEST POP POP POP POP SWAP1 POP SWAP1 DUP2 ADD SWAP1 PUSH1 0x1F AND DUP1 ISZERO PUSH2 0xA50 JUMPI DUP1 DUP3 SUB DUP1 MLOAD PUSH1 0x1 DUP4 PUSH1 0x20 SUB PUSH2 0x100 EXP SUB NOT AND DUP2 MSTORE PUSH1 0x20 ADD SWAP2 POP JUMPDEST POP SWAP3 POP POP POP PUSH1 0x40 MLOAD DUP1 SWAP2 SUB SWAP1 RETURN JUMPDEST CALLVALUE DUP1 ISZERO PUSH2 0xA6A JUMPI PUSH1 0x0 DUP1 REVERT JUMPDEST POP PUSH2 0xAAD PUSH1 0x4 DUP1 CALLDATASIZE SUB PUSH1 0x20 DUP2 LT ISZERO PUSH2 0xA81 JUMPI PUSH1 0x0 DUP1 REVERT JUMPDEST DUP2 ADD SWAP1 DUP1 DUP1 CALLDATALOAD PUSH20 0xFFFFFFFFFFFFFFFFFFFFFFFFFFFFFFFFFFFFFFFF AND SWAP1 PUSH1 0x20 ADD SWAP1 SWAP3 SWAP2 SWAP1 POP POP POP PUSH2 0x2031 JUMP JUMPDEST PUSH1 0x40 MLOAD DUP1 DUP1 PUSH1 0x20 ADD DUP1 PUSH1 0x20 ADD DUP9 DUP2 MSTORE PUSH1 0x20 ADD DUP8 DUP2 MSTORE PUSH1 0x20 ADD DUP7 DUP2 MSTORE PUSH1 0x20 ADD DUP6 DUP2 MSTORE PUSH1 0x20 ADD DUP5 PUSH1 0x5 DUP2 GT ISZERO PUSH2 0xADD JUMPI INVALID JUMPDEST DUP2 MSTORE PUSH1 0x20 ADD DUP4 DUP2 SUB DUP4 MSTORE DUP11 DUP2 DUP2 MLOAD DUP2 MSTORE PUSH1 0x20 ADD SWAP2 POP DUP1 MLOAD SWAP1 PUSH1 0x20 ADD SWAP1 DUP1 DUP4 DUP4 PUSH1 0x0 JUMPDEST DUP4 DUP2 LT ISZERO PUSH2 0xB1A JUMPI DUP1 DUP3 ADD MLOAD DUP2 DUP5 ADD MSTORE PUSH1 0x20 DUP2 ADD SWAP1 POP PUSH2 0xAFF JUMP JUMPDEST POP POP POP POP SWAP1 POP SWAP1 DUP2 ADD SWAP1 PUSH1 0x1F AND DUP1 ISZERO PUSH2 0xB47 JUMPI DUP1 DUP3 SUB DUP1 MLOAD PUSH1 0x1 DUP4 PUSH1 0x20 SUB PUSH2 0x100 EXP SUB NOT AND DUP2 MSTORE PUSH1 0x20 ADD SWAP2 POP JUMPDEST POP DUP4 DUP2 SUB DUP3 MSTORE DUP10 DUP2 DUP2 MLOAD DUP2 MSTORE PUSH1 0x20 ADD SWAP2 POP DUP1 MLOAD SWAP1 PUSH1 0x20 ADD SWAP1 DUP1 DUP4 DUP4 PUSH1 0x0 JUMPDEST DUP4 DUP2 LT ISZERO PUSH2 0xB80 JUMPI DUP1 DUP3 ADD MLOAD DUP2 DUP5 ADD MSTORE PUSH1 0x20 DUP2 ADD SWAP1 POP PUSH2 0xB65 JUMP JUMPDEST POP POP POP POP SWAP1 POP SWAP1 DUP2 ADD SWAP1 PUSH1 0x1F AND DUP1 ISZERO PUSH2 0xBAD JUMPI DUP1 DUP3 SUB DUP1 MLOAD PUSH1 0x1 DUP4 PUSH1 0x20 SUB PUSH2 0x100 EXP SUB NOT AND DUP2 MSTORE PUSH1 0x20 ADD SWAP2 POP JUMPDEST POP SWAP10 POP POP POP POP POP POP POP POP POP POP PUSH1 0x40 MLOAD DUP1 SWAP2 SUB SWAP1 RETURN JUMPDEST PUSH32 0x79BE667EF9DCBBAC55A06295CE870B07029BFCDB2DCE28D959F2815B16F81798 DUP2 JUMP JUMPDEST PUSH1 0x0 DUP2 JUMP JUMPDEST PUSH1 0x60 PUSH1 0x0 PUSH1 0x5 DUP2 GT ISZERO PUSH2 0xBFA JUMPI INVALID JUMPDEST PUSH1 0x2 PUSH1 0x0 DUP5 PUSH20 0xFFFFFFFFFFFFFFFFFFFFFFFFFFFFFFFFFFFFFFFF AND PUSH20 0xFFFFFFFFFFFFFFFFFFFFFFFFFFFFFFFFFFFFFFFF AND DUP2 MSTORE PUSH1 0x20 ADD SWAP1 DUP2 MSTORE PUSH1 0x20 ADD PUSH1 0x0 KECCAK256 PUSH1 0x6 ADD PUSH1 0x0 SWAP1 SLOAD SWAP1 PUSH2 0x100 EXP SWAP1 DIV PUSH1 0xFF AND PUSH1 0x5 DUP2 GT ISZERO PUSH2 0xC55 JUMPI INVALID JUMPDEST EQ ISZERO PUSH2 0xC98 JUMPI PUSH1 0x40 MLOAD DUP1 PUSH1 0x40 ADD PUSH1 0x40 MSTORE DUP1 PUSH1 0xA DUP2 MSTORE PUSH1 0x20 ADD PUSH32 0x6E6F742065786973747300000000000000000000000000000000000000000000 DUP2 MSTORE POP SWAP1 POP PUSH2 0xFEF JUMP JUMPDEST PUSH1 0x1 PUSH1 0x5 DUP2 GT ISZERO PUSH2 0xCA5 JUMPI INVALID JUMPDEST PUSH1 0x2 PUSH1 0x0 DUP5 PUSH20 0xFFFFFFFFFFFFFFFFFFFFFFFFFFFFFFFFFFFFFFFF AND PUSH20 0xFFFFFFFFFFFFFFFFFFFFFFFFFFFFFFFFFFFFFFFF AND DUP2 MSTORE PUSH1 0x20 ADD SWAP1 DUP2 MSTORE PUSH1 0x20 ADD PUSH1 0x0 KECCAK256 PUSH1 0x6 ADD PUSH1 0x0 SWAP1 SLOAD SWAP1 PUSH2 0x100 EXP SWAP1 DIV PUSH1 0xFF AND PUSH1 0x5 DUP2 GT ISZERO PUSH2 0xD00 JUMPI INVALID JUMPDEST EQ ISZERO PUSH2 0xD43 JUMPI PUSH1 0x40 MLOAD DUP1 PUSH1 0x40 ADD PUSH1 0x40 MSTORE DUP1 PUSH1 0x7 DUP2 MSTORE PUSH1 0x20 ADD PUSH32 0x6372656174656400000000000000000000000000000000000000000000000000 DUP2 MSTORE POP SWAP1 POP PUSH2 0xFEF JUMP JUMPDEST PUSH1 0x2 PUSH1 0x5 DUP2 GT ISZERO PUSH2 0xD50 JUMPI INVALID JUMPDEST PUSH1 0x2 PUSH1 0x0 DUP5 PUSH20 0xFFFFFFFFFFFFFFFFFFFFFFFFFFFFFFFFFFFFFFFF AND PUSH20 0xFFFFFFFFFFFFFFFFFFFFFFFFFFFFFFFFFFFFFFFF AND DUP2 MSTORE PUSH1 0x20 ADD SWAP1 DUP2 MSTORE PUSH1 0x20 ADD PUSH1 0x0 KECCAK256 PUSH1 0x6 ADD PUSH1 0x0 SWAP1 SLOAD SWAP1 PUSH2 0x100 EXP SWAP1 DIV PUSH1 0xFF AND PUSH1 0x5 DUP2 GT ISZERO PUSH2 0xDAB JUMPI INVALID JUMPDEST EQ ISZERO PUSH2 0xDEE JUMPI PUSH1 0x40 MLOAD DUP1 PUSH1 0x40 ADD PUSH1 0x40 MSTORE DUP1 PUSH1 0x9 DUP2 MSTORE PUSH1 0x20 ADD PUSH32 0x63616E63656C6C65640000000000000000000000000000000000000000000000 DUP2 MSTORE POP SWAP1 POP PUSH2 0xFEF JUMP JUMPDEST PUSH1 0x3 PUSH1 0x5 DUP2 GT ISZERO PUSH2 0xDFB JUMPI INVALID JUMPDEST PUSH1 0x2 PUSH1 0x0 DUP5 PUSH20 0xFFFFFFFFFFFFFFFFFFFFFFFFFFFFFFFFFFFFFFFF AND PUSH20 0xFFFFFFFFFFFFFFFFFFFFFFFFFFFFFFFFFFFFFFFF AND DUP2 MSTORE PUSH1 0x20 ADD SWAP1 DUP2 MSTORE PUSH1 0x20 ADD PUSH1 0x0 KECCAK256 PUSH1 0x6 ADD PUSH1 0x0 SWAP1 SLOAD SWAP1 PUSH2 0x100 EXP SWAP1 DIV PUSH1 0xFF AND PUSH1 0x5 DUP2 GT ISZERO PUSH2 0xE56 JUMPI INVALID JUMPDEST EQ ISZERO PUSH2 0xE99 JUMPI PUSH1 0x40 MLOAD DUP1 PUSH1 0x40 ADD PUSH1 0x40 MSTORE DUP1 PUSH1 0x8 DUP2 MSTORE PUSH1 0x20 ADD PUSH32 0x6163636570746564000000000000000000000000000000000000000000000000 DUP2 MSTORE POP SWAP1 POP PUSH2 0xFEF JUMP JUMPDEST PUSH1 0x4 PUSH1 0x5 DUP2 GT ISZERO PUSH2 0xEA6 JUMPI INVALID JUMPDEST PUSH1 0x2 PUSH1 0x0 DUP5 PUSH20 0xFFFFFFFFFFFFFFFFFFFFFFFFFFFFFFFFFFFFFFFF AND PUSH20 0xFFFFFFFFFFFFFFFFFFFFFFFFFFFFFFFFFFFFFFFF AND DUP2 MSTORE PUSH1 0x20 ADD SWAP1 DUP2 MSTORE PUSH1 0x20 ADD PUSH1 0x0 KECCAK256 PUSH1 0x6 ADD PUSH1 0x0 SWAP1 SLOAD SWAP1 PUSH2 0x100 EXP SWAP1 DIV PUSH1 0xFF AND PUSH1 0x5 DUP2 GT ISZERO PUSH2 0xF01 JUMPI INVALID JUMPDEST EQ ISZERO PUSH2 0xF44 JUMPI PUSH1 0x40 MLOAD DUP1 PUSH1 0x40 ADD PUSH1 0x40 MSTORE DUP1 PUSH1 0x8 DUP2 MSTORE PUSH1 0x20 ADD PUSH32 0x66696E6973686564000000000000000000000000000000000000000000000000 DUP2 MSTORE POP SWAP1 POP PUSH2 0xFEF JUMP JUMPDEST PUSH1 0x5 DUP1 DUP2 GT ISZERO PUSH2 0xF50 JUMPI INVALID JUMPDEST PUSH1 0x2 PUSH1 0x0 DUP5 PUSH20 0xFFFFFFFFFFFFFFFFFFFFFFFFFFFFFFFFFFFFFFFF AND PUSH20 0xFFFFFFFFFFFFFFFFFFFFFFFFFFFFFFFFFFFFFFFF AND DUP2 MSTORE PUSH1 0x20 ADD SWAP1 DUP2 MSTORE PUSH1 0x20 ADD PUSH1 0x0 KECCAK256 PUSH1 0x6 ADD PUSH1 0x0 SWAP1 SLOAD SWAP1 PUSH2 0x100 EXP SWAP1 DIV PUSH1 0xFF AND PUSH1 0x5 DUP2 GT ISZERO PUSH2 0xFAB JUMPI INVALID JUMPDEST EQ ISZERO PUSH2 0xFEE JUMPI PUSH1 0x40 MLOAD DUP1 PUSH1 0x40 ADD PUSH1 0x40 MSTORE DUP1 PUSH1 0x8 DUP2 MSTORE PUSH1 0x20 ADD PUSH32 0x72656A6563746564000000000000000000000000000000000000000000000000 DUP2 MSTORE POP SWAP1 POP PUSH2 0xFEF JUMP JUMPDEST JUMPDEST SWAP2 SWAP1 POP JUMP JUMPDEST PUSH1 0x0 DUP1 PUSH1 0x0 DUP1 PUSH1 0x0 DUP1 PUSH1 0x8 SLOAD PUSH1 0xA SLOAD ADD TIMESTAMP LT ISZERO DUP1 PUSH2 0x1019 JUMPI POP PUSH1 0x1 DUP1 SLOAD SWAP1 POP PUSH1 0x3 SLOAD LT ISZERO JUMPDEST PUSH2 0x106E JUMPI PUSH1 0x40 MLOAD PUSH32 0x8C379A000000000000000000000000000000000000000000000000000000000 DUP2 MSTORE PUSH1 0x4 ADD DUP1 DUP1 PUSH1 0x20 ADD DUP3 DUP2 SUB DUP3 MSTORE PUSH1 0x5C DUP2 MSTORE PUSH1 0x20 ADD DUP1 PUSH2 0x2CFE PUSH1 0x5C SWAP2 CODECOPY PUSH1 0x60 ADD SWAP2 POP POP PUSH1 0x40 MLOAD DUP1 SWAP2 SUB SWAP1 REVERT JUMPDEST PUSH1 0x0 DUP1 SLOAD SWAP1 PUSH2 0x100 EXP SWAP1 DIV PUSH20 0xFFFFFFFFFFFFFFFFFFFFFFFFFFFFFFFFFFFFFFFF AND PUSH20 0xFFFFFFFFFFFFFFFFFFFFFFFFFFFFFFFFFFFFFFFF AND CALLER PUSH20 0xFFFFFFFFFFFFFFFFFFFFFFFFFFFFFFFFFFFFFFFF AND EQ PUSH2 0x1112 JUMPI PUSH1 0x40 MLOAD PUSH32 0x8C379A000000000000000000000000000000000000000000000000000000000 DUP2 MSTORE PUSH1 0x4 ADD DUP1 DUP1 PUSH1 0x20 ADD DUP3 DUP2 SUB DUP3 MSTORE PUSH1 0x26 DUP2 MSTORE PUSH1 0x20 ADD DUP1 PUSH2 0x2C89 PUSH1 0x26 SWAP2 CODECOPY PUSH1 0x40 ADD SWAP2 POP POP PUSH1 0x40 MLOAD DUP1 SWAP2 SUB SWAP1 REVERT JUMPDEST PUSH2 0x118C PUSH32 0x79BE667EF9DCBBAC55A06295CE870B07029BFCDB2DCE28D959F2815B16F81798 PUSH32 0x483ADA7726A3C4655DA4FBFC0E1108A8FD17B448A68554199C47D08FFB10D4B8 PUSH1 0x0 PUSH32 0xFFFFFFFFFFFFFFFFFFFFFFFFFFFFFFFFFFFFFFFFFFFFFFFFFFFFFFFEFFFFFC2F DUP12 PUSH2 0x21B0 SWAP1 SWAP5 SWAP4 SWAP3 SWAP2 SWAP1 PUSH4 0xFFFFFFFF AND JUMP JUMPDEST DUP1 SWAP7 POP DUP2 SWAP8 POP POP POP PUSH2 0x1294 PUSH1 0x2 PUSH1 0x0 DUP11 PUSH20 0xFFFFFFFFFFFFFFFFFFFFFFFFFFFFFFFFFFFFFFFF AND PUSH20 0xFFFFFFFFFFFFFFFFFFFFFFFFFFFFFFFFFFFFFFFF AND DUP2 MSTORE PUSH1 0x20 ADD SWAP1 DUP2 MSTORE PUSH1 0x20 ADD PUSH1 0x0 KECCAK256 PUSH1 0x2 ADD SLOAD PUSH1 0x2 PUSH1 0x0 DUP12 PUSH20 0xFFFFFFFFFFFFFFFFFFFFFFFFFFFFFFFFFFFFFFFF AND PUSH20 0xFFFFFFFFFFFFFFFFFFFFFFFFFFFFFFFFFFFFFFFF AND DUP2 MSTORE PUSH1 0x20 ADD SWAP1 DUP2 MSTORE PUSH1 0x20 ADD PUSH1 0x0 KECCAK256 PUSH1 0x3 ADD SLOAD PUSH1 0x0 PUSH32 0xFFFFFFFFFFFFFFFFFFFFFFFFFFFFFFFFFFFFFFFFFFFFFFFFFFFFFFFEFFFFFC2F PUSH1 0x2 PUSH1 0x0 DUP15 PUSH20 0xFFFFFFFFFFFFFFFFFFFFFFFFFFFFFFFFFFFFFFFF AND PUSH20 0xFFFFFFFFFFFFFFFFFFFFFFFFFFFFFFFFFFFFFFFF AND DUP2 MSTORE PUSH1 0x20 ADD SWAP1 DUP2 MSTORE PUSH1 0x20 ADD PUSH1 0x0 KECCAK256 PUSH1 0x4 ADD SLOAD PUSH2 0x21B0 SWAP1 SWAP5 SWAP4 SWAP3 SWAP2 SWAP1 PUSH4 0xFFFFFFFF AND JUMP JUMPDEST DUP1 SWAP5 POP DUP2 SWAP6 POP POP POP PUSH2 0x12D8 DUP6 DUP6 DUP6 PUSH1 0x0 PUSH32 0xFFFFFFFFFFFFFFFFFFFFFFFFFFFFFFFFFFFFFFFFFFFFFFFFFFFFFFFEFFFFFC2F DUP12 PUSH2 0x21EA SWAP1 SWAP6 SWAP5 SWAP4 SWAP3 SWAP2 SWAP1 PUSH4 0xFFFFFFFF AND JUMP JUMPDEST DUP1 SWAP3 POP DUP2 SWAP4 POP POP POP DUP2 PUSH1 0x4 SLOAD EQ ISZERO PUSH2 0x133B JUMPI PUSH1 0x40 MLOAD PUSH32 0x8C379A000000000000000000000000000000000000000000000000000000000 DUP2 MSTORE PUSH1 0x4 ADD DUP1 DUP1 PUSH1 0x20 ADD DUP3 DUP2 SUB DUP3 MSTORE PUSH1 0x23 DUP2 MSTORE PUSH1 0x20 ADD DUP1 PUSH2 0x2D7C PUSH1 0x23 SWAP2 CODECOPY PUSH1 0x40 ADD SWAP2 POP POP PUSH1 0x40 MLOAD DUP1 SWAP2 SUB SWAP1 REVERT JUMPDEST DUP1 PUSH1 0x5 SLOAD EQ ISZERO PUSH2 0x1396 JUMPI PUSH1 0x40 MLOAD PUSH32 0x8C379A000000000000000000000000000000000000000000000000000000000 DUP2 MSTORE PUSH1 0x4 ADD DUP1 DUP1 PUSH1 0x20 ADD DUP3 DUP2 SUB DUP3 MSTORE PUSH1 0x23 DUP2 MSTORE PUSH1 0x20 ADD DUP1 PUSH2 0x2D7C PUSH1 0x23 SWAP2 CODECOPY PUSH1 0x40 ADD SWAP2 POP POP PUSH1 0x40 MLOAD DUP1 SWAP2 SUB SWAP1 REVERT JUMPDEST CALLER PUSH20 0xFFFFFFFFFFFFFFFFFFFFFFFFFFFFFFFFFFFFFFFF AND PUSH2 0x8FC SELFBALANCE SWAP1 DUP2 ISZERO MUL SWAP1 PUSH1 0x40 MLOAD PUSH1 0x0 PUSH1 0x40 MLOAD DUP1 DUP4 SUB DUP2 DUP6 DUP9 DUP9 CALL SWAP4 POP POP POP POP ISZERO DUP1 ISZERO PUSH2 0x13DC JUMPI RETURNDATASIZE PUSH1 0x0 DUP1 RETURNDATACOPY RETURNDATASIZE PUSH1 0x0 REVERT JUMPDEST POP PUSH1 0x0 JUMPDEST PUSH1 0x1 DUP1 SLOAD SWAP1 POP DUP2 LT ISZERO PUSH2 0x16FF JUMPI DUP8 PUSH1 0x2 PUSH1 0x0 PUSH1 0x1 DUP5 DUP2 SLOAD DUP2 LT PUSH2 0x13FF JUMPI INVALID JUMPDEST SWAP1 PUSH1 0x0 MSTORE PUSH1 0x20 PUSH1 0x0 KECCAK256 ADD PUSH1 0x0 SWAP1 SLOAD SWAP1 PUSH2 0x100 EXP SWAP1 DIV PUSH20 0xFFFFFFFFFFFFFFFFFFFFFFFFFFFFFFFFFFFFFFFF AND PUSH20 0xFFFFFFFFFFFFFFFFFFFFFFFFFFFFFFFFFFFFFFFF AND PUSH20 0xFFFFFFFFFFFFFFFFFFFFFFFFFFFFFFFFFFFFFFFF AND DUP2 MSTORE PUSH1 0x20 ADD SWAP1 DUP2 MSTORE PUSH1 0x20 ADD PUSH1 0x0 KECCAK256 PUSH1 0x5 ADD DUP2 SWAP1 SSTORE POP PUSH1 0x3 PUSH1 0x5 DUP2 GT ISZERO PUSH2 0x1478 JUMPI INVALID JUMPDEST PUSH1 0x2 PUSH1 0x0 PUSH1 0x1 DUP5 DUP2 SLOAD DUP2 LT PUSH2 0x1489 JUMPI INVALID JUMPDEST SWAP1 PUSH1 0x0 MSTORE PUSH1 0x20 PUSH1 0x0 KECCAK256 ADD PUSH1 0x0 SWAP1 SLOAD SWAP1 PUSH2 0x100 EXP SWAP1 DIV PUSH20 0xFFFFFFFFFFFFFFFFFFFFFFFFFFFFFFFFFFFFFFFF AND PUSH20 0xFFFFFFFFFFFFFFFFFFFFFFFFFFFFFFFFFFFFFFFF AND PUSH20 0xFFFFFFFFFFFFFFFFFFFFFFFFFFFFFFFFFFFFFFFF AND DUP2 MSTORE PUSH1 0x20 ADD SWAP1 DUP2 MSTORE PUSH1 0x20 ADD PUSH1 0x0 KECCAK256 PUSH1 0x6 ADD PUSH1 0x0 SWAP1 SLOAD SWAP1 PUSH2 0x100 EXP SWAP1 DIV PUSH1 0xFF AND PUSH1 0x5 DUP2 GT ISZERO PUSH2 0x150A JUMPI INVALID JUMPDEST EQ ISZERO PUSH2 0x15B0 JUMPI PUSH1 0x4 PUSH1 0x2 PUSH1 0x0 PUSH1 0x1 DUP5 DUP2 SLOAD DUP2 LT PUSH2 0x1523 JUMPI INVALID JUMPDEST SWAP1 PUSH1 0x0 MSTORE PUSH1 0x20 PUSH1 0x0 KECCAK256 ADD PUSH1 0x0 SWAP1 SLOAD SWAP1 PUSH2 0x100 EXP SWAP1 DIV PUSH20 0xFFFFFFFFFFFFFFFFFFFFFFFFFFFFFFFFFFFFFFFF AND PUSH20 0xFFFFFFFFFFFFFFFFFFFFFFFFFFFFFFFFFFFFFFFF AND PUSH20 0xFFFFFFFFFFFFFFFFFFFFFFFFFFFFFFFFFFFFFFFF AND DUP2 MSTORE PUSH1 0x20 ADD SWAP1 DUP2 MSTORE PUSH1 0x20 ADD PUSH1 0x0 KECCAK256 PUSH1 0x6 ADD PUSH1 0x0 PUSH2 0x100 EXP DUP2 SLOAD DUP2 PUSH1 0xFF MUL NOT AND SWAP1 DUP4 PUSH1 0x5 DUP2 GT ISZERO PUSH2 0x15A6 JUMPI INVALID JUMPDEST MUL OR SWAP1 SSTORE POP PUSH2 0x16F2 JUMP JUMPDEST PUSH1 0x1 PUSH1 0x5 DUP2 GT ISZERO PUSH2 0x15BD JUMPI INVALID JUMPDEST PUSH1 0x2 PUSH1 0x0 PUSH1 0x1 DUP5 DUP2 SLOAD DUP2 LT PUSH2 0x15CE JUMPI INVALID JUMPDEST SWAP1 PUSH1 0x0 MSTORE PUSH1 0x20 PUSH1 0x0 KECCAK256 ADD PUSH1 0x0 SWAP1 SLOAD SWAP1 PUSH2 0x100 EXP SWAP1 DIV PUSH20 0xFFFFFFFFFFFFFFFFFFFFFFFFFFFFFFFFFFFFFFFF AND PUSH20 0xFFFFFFFFFFFFFFFFFFFFFFFFFFFFFFFFFFFFFFFF AND PUSH20 0xFFFFFFFFFFFFFFFFFFFFFFFFFFFFFFFFFFFFFFFF AND DUP2 MSTORE PUSH1 0x20 ADD SWAP1 DUP2 MSTORE PUSH1 0x20 ADD PUSH1 0x0 KECCAK256 PUSH1 0x6 ADD PUSH1 0x0 SWAP1 SLOAD SWAP1 PUSH2 0x100 EXP SWAP1 DIV PUSH1 0xFF AND PUSH1 0x5 DUP2 GT ISZERO PUSH2 0x164F JUMPI INVALID JUMPDEST EQ ISZERO PUSH2 0x16F1 JUMPI PUSH1 0x5 PUSH1 0x2 PUSH1 0x0 PUSH1 0x1 DUP5 DUP2 SLOAD DUP2 LT PUSH2 0x1668 JUMPI INVALID JUMPDEST SWAP1 PUSH1 0x0 MSTORE PUSH1 0x20 PUSH1 0x0 KECCAK256 ADD PUSH1 0x0 SWAP1 SLOAD SWAP1 PUSH2 0x100 EXP SWAP1 DIV PUSH20 0xFFFFFFFFFFFFFFFFFFFFFFFFFFFFFFFFFFFFFFFF AND PUSH20 0xFFFFFFFFFFFFFFFFFFFFFFFFFFFFFFFFFFFFFFFF AND PUSH20 0xFFFFFFFFFFFFFFFFFFFFFFFFFFFFFFFFFFFFFFFF AND DUP2 MSTORE PUSH1 0x20 ADD SWAP1 DUP2 MSTORE PUSH1 0x20 ADD PUSH1 0x0 KECCAK256 PUSH1 0x6 ADD PUSH1 0x0 PUSH2 0x100 EXP DUP2 SLOAD DUP2 PUSH1 0xFF MUL NOT AND SWAP1 DUP4 PUSH1 0x5 DUP2 GT ISZERO PUSH2 0x16EB JUMPI INVALID JUMPDEST MUL OR SWAP1 SSTORE POP JUMPDEST JUMPDEST DUP1 DUP1 PUSH1 0x1 ADD SWAP2 POP POP PUSH2 0x13E0 JUMP JUMPDEST POP POP POP POP POP POP POP POP POP JUMP JUMPDEST PUSH1 0x9 SLOAD DUP2 JUMP JUMPDEST PUSH1 0x8 SLOAD DUP2 JUMP JUMPDEST PUSH1 0x4 SLOAD DUP2 JUMP JUMPDEST PUSH1 0x7 DUP2 JUMP JUMPDEST PUSH1 0x8 SLOAD PUSH1 0xA SLOAD ADD TIMESTAMP LT PUSH2 0x177F JUMPI PUSH1 0x40 MLOAD PUSH32 0x8C379A000000000000000000000000000000000000000000000000000000000 DUP2 MSTORE PUSH1 0x4 ADD DUP1 DUP1 PUSH1 0x20 ADD DUP3 DUP2 SUB DUP3 MSTORE PUSH1 0x22 DUP2 MSTORE PUSH1 0x20 ADD DUP1 PUSH2 0x2D5A PUSH1 0x22 SWAP2 CODECOPY PUSH1 0x40 ADD SWAP2 POP POP PUSH1 0x40 MLOAD DUP1 SWAP2 SUB SWAP1 REVERT JUMPDEST PUSH1 0x1 PUSH1 0x5 DUP2 GT ISZERO PUSH2 0x178C JUMPI INVALID JUMPDEST PUSH1 0x2 PUSH1 0x0 CALLER PUSH20 0xFFFFFFFFFFFFFFFFFFFFFFFFFFFFFFFFFFFFFFFF AND PUSH20 0xFFFFFFFFFFFFFFFFFFFFFFFFFFFFFFFFFFFFFFFF AND DUP2 MSTORE PUSH1 0x20 ADD SWAP1 DUP2 MSTORE PUSH1 0x20 ADD PUSH1 0x0 KECCAK256 PUSH1 0x6 ADD PUSH1 0x0 SWAP1 SLOAD SWAP1 PUSH2 0x100 EXP SWAP1 DIV PUSH1 0xFF AND PUSH1 0x5 DUP2 GT ISZERO PUSH2 0x17E7 JUMPI INVALID JUMPDEST EQ PUSH2 0x183D JUMPI PUSH1 0x40 MLOAD PUSH32 0x8C379A000000000000000000000000000000000000000000000000000000000 DUP2 MSTORE PUSH1 0x4 ADD DUP1 DUP1 PUSH1 0x20 ADD DUP3 DUP2 SUB DUP3 MSTORE PUSH1 0x2E DUP2 MSTORE PUSH1 0x20 ADD DUP1 PUSH2 0x2DCC PUSH1 0x2E SWAP2 CODECOPY PUSH1 0x40 ADD SWAP2 POP POP PUSH1 0x40 MLOAD DUP1 SWAP2 SUB SWAP1 REVERT JUMPDEST PUSH1 0x1 PUSH1 0x3 SLOAD ADD PUSH1 0x3 DUP2 SWAP1 SSTORE POP DUP5 PUSH1 0x2 PUSH1 0x0 CALLER PUSH20 0xFFFFFFFFFFFFFFFFFFFFFFFFFFFFFFFFFFFFFFFF AND PUSH20 0xFFFFFFFFFFFFFFFFFFFFFFFFFFFFFFFFFFFFFFFF AND DUP2 MSTORE PUSH1 0x20 ADD SWAP1 DUP2 MSTORE PUSH1 0x20 ADD PUSH1 0x0 KECCAK256 PUSH1 0x0 ADD SWAP1 DUP1 MLOAD SWAP1 PUSH1 0x20 ADD SWAP1 PUSH2 0x189F SWAP3 SWAP2 SWAP1 PUSH2 0x2A55 JUMP JUMPDEST POP DUP4 PUSH1 0x2 PUSH1 0x0 CALLER PUSH20 0xFFFFFFFFFFFFFFFFFFFFFFFFFFFFFFFFFFFFFFFF AND PUSH20 0xFFFFFFFFFFFFFFFFFFFFFFFFFFFFFFFFFFFFFFFF AND DUP2 MSTORE PUSH1 0x20 ADD SWAP1 DUP2 MSTORE PUSH1 0x20 ADD PUSH1 0x0 KECCAK256 PUSH1 0x1 ADD SWAP1 DUP1 MLOAD SWAP1 PUSH1 0x20 ADD SWAP1 PUSH2 0x18F6 SWAP3 SWAP2 SWAP1 PUSH2 0x2AD5 JUMP JUMPDEST POP DUP3 PUSH1 0x2 PUSH1 0x0 CALLER PUSH20 0xFFFFFFFFFFFFFFFFFFFFFFFFFFFFFFFFFFFFFFFF AND PUSH20 0xFFFFFFFFFFFFFFFFFFFFFFFFFFFFFFFFFFFFFFFF AND DUP2 MSTORE PUSH1 0x20 ADD SWAP1 DUP2 MSTORE PUSH1 0x20 ADD PUSH1 0x0 KECCAK256 PUSH1 0x2 ADD DUP2 SWAP1 SSTORE POP DUP2 PUSH1 0x2 PUSH1 0x0 CALLER PUSH20 0xFFFFFFFFFFFFFFFFFFFFFFFFFFFFFFFFFFFFFFFF AND PUSH20 0xFFFFFFFFFFFFFFFFFFFFFFFFFFFFFFFFFFFFFFFF AND DUP2 MSTORE PUSH1 0x20 ADD SWAP1 DUP2 MSTORE PUSH1 0x20 ADD PUSH1 0x0 KECCAK256 PUSH1 0x3 ADD DUP2 SWAP1 SSTORE POP DUP1 PUSH1 0x2 PUSH1 0x0 CALLER PUSH20 0xFFFFFFFFFFFFFFFFFFFFFFFFFFFFFFFFFFFFFFFF AND PUSH20 0xFFFFFFFFFFFFFFFFFFFFFFFFFFFFFFFFFFFFFFFF AND DUP2 MSTORE PUSH1 0x20 ADD SWAP1 DUP2 MSTORE PUSH1 0x20 ADD PUSH1 0x0 KECCAK256 PUSH1 0x4 ADD DUP2 SWAP1 SSTORE POP PUSH1 0x3 PUSH1 0x2 PUSH1 0x0 CALLER PUSH20 0xFFFFFFFFFFFFFFFFFFFFFFFFFFFFFFFFFFFFFFFF AND PUSH20 0xFFFFFFFFFFFFFFFFFFFFFFFFFFFFFFFFFFFFFFFF AND DUP2 MSTORE PUSH1 0x20 ADD SWAP1 DUP2 MSTORE PUSH1 0x20 ADD PUSH1 0x0 KECCAK256 PUSH1 0x6 ADD PUSH1 0x0 PUSH2 0x100 EXP DUP2 SLOAD DUP2 PUSH1 0xFF MUL NOT AND SWAP1 DUP4 PUSH1 0x5 DUP2 GT ISZERO PUSH2 0x1A2B JUMPI INVALID JUMPDEST MUL OR SWAP1 SSTORE POP POP POP POP POP POP JUMP JUMPDEST PUSH1 0x0 PUSH1 0x2 PUSH1 0x0 DUP4 PUSH20 0xFFFFFFFFFFFFFFFFFFFFFFFFFFFFFFFFFFFFFFFF AND PUSH20 0xFFFFFFFFFFFFFFFFFFFFFFFFFFFFFFFFFFFFFFFF AND DUP2 MSTORE PUSH1 0x20 ADD SWAP1 DUP2 MSTORE PUSH1 0x20 ADD PUSH1 0x0 KECCAK256 PUSH1 0x5 ADD SLOAD SWAP1 POP SWAP2 SWAP1 POP JUMP JUMPDEST PUSH1 0x0 DUP1 SLOAD SWAP1 PUSH2 0x100 EXP SWAP1 DIV PUSH20 0xFFFFFFFFFFFFFFFFFFFFFFFFFFFFFFFFFFFFFFFF AND DUP2 JUMP JUMPDEST PUSH32 0x483ADA7726A3C4655DA4FBFC0E1108A8FD17B448A68554199C47D08FFB10D4B8 DUP2 JUMP JUMPDEST PUSH1 0xB PUSH1 0x0 SWAP1 SLOAD SWAP1 PUSH2 0x100 EXP SWAP1 DIV PUSH1 0xFF AND DUP2 JUMP JUMPDEST PUSH1 0x0 CALLVALUE GT PUSH2 0x1B37 JUMPI PUSH1 0x40 MLOAD PUSH32 0x8C379A000000000000000000000000000000000000000000000000000000000 DUP2 MSTORE PUSH1 0x4 ADD DUP1 DUP1 PUSH1 0x20 ADD DUP3 DUP2 SUB DUP3 MSTORE PUSH1 0x2D DUP2 MSTORE PUSH1 0x20 ADD DUP1 PUSH2 0x2D9F PUSH1 0x2D SWAP2 CODECOPY PUSH1 0x40 ADD SWAP2 POP POP PUSH1 0x40 MLOAD DUP1 SWAP2 SUB SWAP1 REVERT JUMPDEST DUP1 DUP3 LT PUSH2 0x1B8F JUMPI PUSH1 0x40 MLOAD PUSH32 0x8C379A000000000000000000000000000000000000000000000000000000000 DUP2 MSTORE PUSH1 0x4 ADD DUP1 DUP1 PUSH1 0x20 ADD DUP3 DUP2 SUB DUP3 MSTORE PUSH1 0x29 DUP2 MSTORE PUSH1 0x20 ADD DUP1 PUSH2 0x2CAF PUSH1 0x29 SWAP2 CODECOPY PUSH1 0x40 ADD SWAP2 POP POP PUSH1 0x40 MLOAD DUP1 SWAP2 SUB SWAP1 REVERT JUMPDEST DUP8 PUSH1 0x0 DUP1 PUSH2 0x100 EXP DUP2 SLOAD DUP2 PUSH20 0xFFFFFFFFFFFFFFFFFFFFFFFFFFFFFFFFFFFFFFFF MUL NOT AND SWAP1 DUP4 PUSH20 0xFFFFFFFFFFFFFFFFFFFFFFFFFFFFFFFFFFFFFFFF AND MUL OR SWAP1 SSTORE POP DUP7 PUSH1 0x1 SWAP1 DUP1 MLOAD SWAP1 PUSH1 0x20 ADD SWAP1 PUSH2 0x1BE5 SWAP3 SWAP2 SWAP1 PUSH2 0x2B55 JUMP JUMPDEST POP PUSH1 0x0 JUMPDEST PUSH1 0x1 DUP1 SLOAD SWAP1 POP DUP2 LT ISZERO PUSH2 0x1C9E JUMPI PUSH1 0x1 PUSH1 0x2 PUSH1 0x0 PUSH1 0x1 DUP5 DUP2 SLOAD DUP2 LT PUSH2 0x1C09 JUMPI INVALID JUMPDEST SWAP1 PUSH1 0x0 MSTORE PUSH1 0x20 PUSH1 0x0 KECCAK256 ADD PUSH1 0x0 SWAP1 SLOAD SWAP1 PUSH2 0x100 EXP SWAP1 DIV PUSH20 0xFFFFFFFFFFFFFFFFFFFFFFFFFFFFFFFFFFFFFFFF AND PUSH20 0xFFFFFFFFFFFFFFFFFFFFFFFFFFFFFFFFFFFFFFFF AND PUSH20 0xFFFFFFFFFFFFFFFFFFFFFFFFFFFFFFFFFFFFFFFF AND DUP2 MSTORE PUSH1 0x20 ADD SWAP1 DUP2 MSTORE PUSH1 0x20 ADD PUSH1 0x0 KECCAK256 PUSH1 0x6 ADD PUSH1 0x0 PUSH2 0x100 EXP DUP2 SLOAD DUP2 PUSH1 0xFF MUL NOT AND SWAP1 DUP4 PUSH1 0x5 DUP2 GT ISZERO PUSH2 0x1C8C JUMPI INVALID JUMPDEST MUL OR SWAP1 SSTORE POP DUP1 DUP1 PUSH1 0x1 ADD SWAP2 POP POP PUSH2 0x1BE9 JUMP JUMPDEST POP PUSH1 0x0 PUSH1 0x3 DUP2 SWAP1 SSTORE POP DUP6 PUSH1 0x4 DUP2 SWAP1 SSTORE POP DUP5 PUSH1 0x5 DUP2 SWAP1 SSTORE POP DUP4 PUSH1 0x6 SWAP1 DUP1 MLOAD SWAP1 PUSH1 0x20 ADD SWAP1 PUSH2 0x1CCB SWAP3 SWAP2 SWAP1 PUSH2 0x2A55 JUMP JUMPDEST POP DUP3 PUSH1 0x7 SWAP1 DUP1 MLOAD SWAP1 PUSH1 0x20 ADD SWAP1 PUSH2 0x1CE2 SWAP3 SWAP2 SWAP1 PUSH2 0x2A55 JUMP JUMPDEST POP TIMESTAMP PUSH1 0xA DUP2 SWAP1 SSTORE POP DUP2 PUSH1 0x8 DUP2 SWAP1 SSTORE POP DUP1 PUSH1 0x9 DUP2 SWAP1 SSTORE POP POP POP POP POP POP POP POP POP JUMP JUMPDEST PUSH1 0x0 DUP2 JUMP JUMPDEST PUSH1 0x6 DUP1 SLOAD PUSH1 0x1 DUP2 PUSH1 0x1 AND ISZERO PUSH2 0x100 MUL SUB AND PUSH1 0x2 SWAP1 DIV DUP1 PUSH1 0x1F ADD PUSH1 0x20 DUP1 SWAP2 DIV MUL PUSH1 0x20 ADD PUSH1 0x40 MLOAD SWAP1 DUP2 ADD PUSH1 0x40 MSTORE DUP1 SWAP3 SWAP2 SWAP1 DUP2 DUP2 MSTORE PUSH1 0x20 ADD DUP3 DUP1 SLOAD PUSH1 0x1 DUP2 PUSH1 0x1 AND ISZERO PUSH2 0x100 MUL SUB AND PUSH1 0x2 SWAP1 DIV DUP1 ISZERO PUSH2 0x1D9D JUMPI DUP1 PUSH1 0x1F LT PUSH2 0x1D72 JUMPI PUSH2 0x100 DUP1 DUP4 SLOAD DIV MUL DUP4 MSTORE SWAP2 PUSH1 0x20 ADD SWAP2 PUSH2 0x1D9D JUMP JUMPDEST DUP3 ADD SWAP2 SWAP1 PUSH1 0x0 MSTORE PUSH1 0x20 PUSH1 0x0 KECCAK256 SWAP1 JUMPDEST DUP2 SLOAD DUP2 MSTORE SWAP1 PUSH1 0x1 ADD SWAP1 PUSH1 0x20 ADD DUP1 DUP4 GT PUSH2 0x1D80 JUMPI DUP3 SWAP1 SUB PUSH1 0x1F AND DUP3 ADD SWAP2 JUMPDEST POP POP POP POP POP DUP2 JUMP JUMPDEST PUSH1 0xA SLOAD DUP2 JUMP JUMPDEST PUSH1 0x1 DUP2 DUP2 SLOAD DUP2 LT PUSH2 0x1DB8 JUMPI INVALID JUMPDEST SWAP1 PUSH1 0x0 MSTORE PUSH1 0x20 PUSH1 0x0 KECCAK256 ADD PUSH1 0x0 SWAP2 POP SLOAD SWAP1 PUSH2 0x100 EXP SWAP1 DIV PUSH20 0xFFFFFFFFFFFFFFFFFFFFFFFFFFFFFFFFFFFFFFFF AND DUP2 JUMP JUMPDEST PUSH1 0x5 SLOAD DUP2 JUMP JUMPDEST PUSH1 0x9 SLOAD PUSH1 0xA SLOAD ADD TIMESTAMP LT ISZERO PUSH2 0x1E4C JUMPI PUSH1 0x40 MLOAD PUSH32 0x8C379A000000000000000000000000000000000000000000000000000000000 DUP2 MSTORE PUSH1 0x4 ADD DUP1 DUP1 PUSH1 0x20 ADD DUP3 DUP2 SUB DUP3 MSTORE PUSH1 0x26 DUP2 MSTORE PUSH1 0x20 ADD DUP1 PUSH2 0x2CD8 PUSH1 0x26 SWAP2 CODECOPY PUSH1 0x40 ADD SWAP2 POP POP PUSH1 0x40 MLOAD DUP1 SWAP2 SUB SWAP1 REVERT JUMPDEST PUSH1 0x3 PUSH1 0x5 DUP2 GT ISZERO PUSH2 0x1E59 JUMPI INVALID JUMPDEST PUSH1 0x2 PUSH1 0x0 CALLER PUSH20 0xFFFFFFFFFFFFFFFFFFFFFFFFFFFFFFFFFFFFFFFF AND PUSH20 0xFFFFFFFFFFFFFFFFFFFFFFFFFFFFFFFFFFFFFFFF AND DUP2 MSTORE PUSH1 0x20 ADD SWAP1 DUP2 MSTORE PUSH1 0x20 ADD PUSH1 0x0 KECCAK256 PUSH1 0x6 ADD PUSH1 0x0 SWAP1 SLOAD SWAP1 PUSH2 0x100 EXP SWAP1 DIV PUSH1 0xFF AND PUSH1 0x5 DUP2 GT ISZERO PUSH2 0x1EB4 JUMPI INVALID JUMPDEST EQ PUSH2 0x1F0A JUMPI PUSH1 0x40 MLOAD PUSH32 0x8C379A000000000000000000000000000000000000000000000000000000000 DUP2 MSTORE PUSH1 0x4 ADD DUP1 DUP1 PUSH1 0x20 ADD DUP3 DUP2 SUB DUP3 MSTORE PUSH1 0x2F DUP2 MSTORE PUSH1 0x20 ADD DUP1 PUSH2 0x2C5A PUSH1 0x2F SWAP2 CODECOPY PUSH1 0x40 ADD SWAP2 POP POP PUSH1 0x40 MLOAD DUP1 SWAP2 SUB SWAP1 REVERT JUMPDEST PUSH1 0x2 DUP1 PUSH1 0x0 CALLER PUSH20 0xFFFFFFFFFFFFFFFFFFFFFFFFFFFFFFFFFFFFFFFF AND PUSH20 0xFFFFFFFFFFFFFFFFFFFFFFFFFFFFFFFFFFFFFFFF AND DUP2 MSTORE PUSH1 0x20 ADD SWAP1 DUP2 MSTORE PUSH1 0x20 ADD PUSH1 0x0 KECCAK256 PUSH1 0x6 ADD PUSH1 0x0 PUSH2 0x100 EXP DUP2 SLOAD DUP2 PUSH1 0xFF MUL NOT AND SWAP1 DUP4 PUSH1 0x5 DUP2 GT ISZERO PUSH2 0x1F68 JUMPI INVALID JUMPDEST MUL OR SWAP1 SSTORE POP JUMP JUMPDEST PUSH32 0xFFFFFFFFFFFFFFFFFFFFFFFFFFFFFFFFFFFFFFFFFFFFFFFFFFFFFFFEFFFFFC2F DUP2 JUMP JUMPDEST PUSH1 0x7 DUP1 SLOAD PUSH1 0x1 DUP2 PUSH1 0x1 AND ISZERO PUSH2 0x100 MUL SUB AND PUSH1 0x2 SWAP1 DIV DUP1 PUSH1 0x1F ADD PUSH1 0x20 DUP1 SWAP2 DIV MUL PUSH1 0x20 ADD PUSH1 0x40 MLOAD SWAP1 DUP2 ADD PUSH1 0x40 MSTORE DUP1 SWAP3 SWAP2 SWAP1 DUP2 DUP2 MSTORE PUSH1 0x20 ADD DUP3 DUP1 SLOAD PUSH1 0x1 DUP2 PUSH1 0x1 AND ISZERO PUSH2 0x100 MUL SUB AND PUSH1 0x2 SWAP1 DIV DUP1 ISZERO PUSH2 0x2029 JUMPI DUP1 PUSH1 0x1F LT PUSH2 0x1FFE JUMPI PUSH2 0x100 DUP1 DUP4 SLOAD DIV MUL DUP4 MSTORE SWAP2 PUSH1 0x20 ADD SWAP2 PUSH2 0x2029 JUMP JUMPDEST DUP3 ADD SWAP2 SWAP1 PUSH1 0x0 MSTORE PUSH1 0x20 PUSH1 0x0 KECCAK256 SWAP1 JUMPDEST DUP2 SLOAD DUP2 MSTORE SWAP1 PUSH1 0x1 ADD SWAP1 PUSH1 0x20 ADD DUP1 DUP4 GT PUSH2 0x200C JUMPI DUP3 SWAP1 SUB PUSH1 0x1F AND DUP3 ADD SWAP2 JUMPDEST POP POP POP POP POP DUP2 JUMP JUMPDEST PUSH1 0x2 PUSH1 0x20 MSTORE DUP1 PUSH1 0x0 MSTORE PUSH1 0x40 PUSH1 0x0 KECCAK256 PUSH1 0x0 SWAP2 POP SWAP1 POP DUP1 PUSH1 0x0 ADD DUP1 SLOAD PUSH1 0x1 DUP2 PUSH1 0x1 AND ISZERO PUSH2 0x100 MUL SUB AND PUSH1 0x2 SWAP1 DIV DUP1 PUSH1 0x1F ADD PUSH1 0x20 DUP1 SWAP2 DIV MUL PUSH1 0x20 ADD PUSH1 0x40 MLOAD SWAP1 DUP2 ADD PUSH1 0x40 MSTORE DUP1 SWAP3 SWAP2 SWAP1 DUP2 DUP2 MSTORE PUSH1 0x20 ADD DUP3 DUP1 SLOAD PUSH1 0x1 DUP2 PUSH1 0x1 AND ISZERO PUSH2 0x100 MUL SUB AND PUSH1 0x2 SWAP1 DIV DUP1 ISZERO PUSH2 0x20DD JUMPI DUP1 PUSH1 0x1F LT PUSH2 0x20B2 JUMPI PUSH2 0x100 DUP1 DUP4 SLOAD DIV MUL DUP4 MSTORE SWAP2 PUSH1 0x20 ADD SWAP2 PUSH2 0x20DD JUMP JUMPDEST DUP3 ADD SWAP2 SWAP1 PUSH1 0x0 MSTORE PUSH1 0x20 PUSH1 0x0 KECCAK256 SWAP1 JUMPDEST DUP2 SLOAD DUP2 MSTORE SWAP1 PUSH1 0x1 ADD SWAP1 PUSH1 0x20 ADD DUP1 DUP4 GT PUSH2 0x20C0 JUMPI DUP3 SWAP1 SUB PUSH1 0x1F AND DUP3 ADD SWAP2 JUMPDEST POP POP POP POP POP SWAP1 DUP1 PUSH1 0x1 ADD DUP1 SLOAD PUSH1 0x1 DUP2 PUSH1 0x1 AND ISZERO PUSH2 0x100 MUL SUB AND PUSH1 0x2 SWAP1 DIV DUP1 PUSH1 0x1F ADD PUSH1 0x20 DUP1 SWAP2 DIV MUL PUSH1 0x20 ADD PUSH1 0x40 MLOAD SWAP1 DUP2 ADD PUSH1 0x40 MSTORE DUP1 SWAP3 SWAP2 SWAP1 DUP2 DUP2 MSTORE PUSH1 0x20 ADD DUP3 DUP1 SLOAD PUSH1 0x1 DUP2 PUSH1 0x1 AND ISZERO PUSH2 0x100 MUL SUB AND PUSH1 0x2 SWAP1 DIV DUP1 ISZERO PUSH2 0x217B JUMPI DUP1 PUSH1 0x1F LT PUSH2 0x2150 JUMPI PUSH2 0x100 DUP1 DUP4 SLOAD DIV MUL DUP4 MSTORE SWAP2 PUSH1 0x20 ADD SWAP2 PUSH2 0x217B JUMP JUMPDEST DUP3 ADD SWAP2 SWAP1 PUSH1 0x0 MSTORE PUSH1 0x20 PUSH1 0x0 KECCAK256 SWAP1 JUMPDEST DUP2 SLOAD DUP2 MSTORE SWAP1 PUSH1 0x1 ADD SWAP1 PUSH1 0x20 ADD DUP1 DUP4 GT PUSH2 0x215E JUMPI DUP3 SWAP1 SUB PUSH1 0x1F AND DUP3 ADD SWAP2 JUMPDEST POP POP POP POP POP SWAP1 DUP1 PUSH1 0x2 ADD SLOAD SWAP1 DUP1 PUSH1 0x3 ADD SLOAD SWAP1 DUP1 PUSH1 0x4 ADD SLOAD SWAP1 DUP1 PUSH1 0x5 ADD SLOAD SWAP1 DUP1 PUSH1 0x6 ADD PUSH1 0x0 SWAP1 SLOAD SWAP1 PUSH2 0x100 EXP SWAP1 DIV PUSH1 0xFF AND SWAP1 POP DUP8 JUMP JUMPDEST PUSH1 0x0 DUP1 PUSH1 0x0 DUP1 PUSH1 0x0 PUSH2 0x21C7 DUP11 DUP11 DUP11 PUSH1 0x1 DUP12 DUP12 PUSH2 0x2278 JUMP JUMPDEST SWAP3 POP SWAP3 POP SWAP3 POP PUSH2 0x21D9 DUP4 DUP4 DUP4 DUP10 PUSH2 0x2316 JUMP JUMPDEST SWAP5 POP SWAP5 POP POP POP POP SWAP6 POP SWAP6 SWAP4 POP POP POP POP JUMP JUMPDEST PUSH1 0x0 DUP1 PUSH1 0x0 DUP1 PUSH1 0x0 DUP9 DUP12 EQ ISZERO PUSH2 0x223B JUMPI PUSH1 0x0 DUP7 DUP1 PUSH2 0x2204 JUMPI INVALID JUMPDEST DUP10 DUP13 ADDMOD EQ ISZERO PUSH2 0x221C JUMPI PUSH1 0x0 DUP1 SWAP5 POP SWAP5 POP POP POP POP PUSH2 0x226D JUMP JUMPDEST PUSH2 0x222A DUP12 DUP12 PUSH1 0x1 DUP11 DUP11 PUSH2 0x2371 JUMP JUMPDEST DUP1 SWAP4 POP DUP2 SWAP5 POP DUP3 SWAP6 POP POP POP POP PUSH2 0x2259 JUMP JUMPDEST PUSH2 0x224C DUP12 DUP12 PUSH1 0x1 DUP13 DUP13 PUSH1 0x1 DUP13 PUSH2 0x2490 JUMP JUMPDEST DUP1 SWAP4 POP DUP2 SWAP5 POP DUP3 SWAP6 POP POP POP POP JUMPDEST PUSH2 0x2265 DUP4 DUP4 DUP4 DUP10 PUSH2 0x2316 JUMP JUMPDEST SWAP5 POP SWAP5 POP POP POP POP JUMPDEST SWAP7 POP SWAP7 SWAP5 POP POP POP POP POP JUMP JUMPDEST PUSH1 0x0 DUP1 PUSH1 0x0 DUP1 DUP10 EQ ISZERO PUSH2 0x2293 JUMPI DUP8 DUP8 DUP8 SWAP3 POP SWAP3 POP SWAP3 POP PUSH2 0x230A JUMP JUMPDEST PUSH1 0x0 DUP10 SWAP1 POP PUSH1 0x0 DUP1 PUSH1 0x0 PUSH1 0x1 SWAP1 POP JUMPDEST PUSH1 0x0 DUP5 EQ PUSH2 0x22FC JUMPI PUSH1 0x0 PUSH1 0x1 DUP6 AND EQ PUSH2 0x22D1 JUMPI PUSH2 0x22C4 DUP4 DUP4 DUP4 DUP16 DUP16 DUP16 DUP15 PUSH2 0x2490 JUMP JUMPDEST DUP1 SWAP4 POP DUP2 SWAP5 POP DUP3 SWAP6 POP POP POP POP JUMPDEST PUSH1 0x2 DUP5 DUP2 PUSH2 0x22DB JUMPI INVALID JUMPDEST DIV SWAP4 POP PUSH2 0x22EB DUP13 DUP13 DUP13 DUP13 DUP13 PUSH2 0x2371 JUMP JUMPDEST DUP1 SWAP13 POP DUP2 SWAP14 POP DUP3 SWAP15 POP POP POP POP PUSH2 0x22A2 JUMP JUMPDEST DUP3 DUP3 DUP3 SWAP7 POP SWAP7 POP SWAP7 POP POP POP POP POP JUMPDEST SWAP7 POP SWAP7 POP SWAP7 SWAP4 POP POP POP POP JUMP JUMPDEST PUSH1 0x0 DUP1 PUSH1 0x0 PUSH2 0x2325 DUP6 DUP6 PUSH2 0x2961 JUMP JUMPDEST SWAP1 POP PUSH1 0x0 DUP5 DUP1 PUSH2 0x2331 JUMPI INVALID JUMPDEST DUP3 DUP4 MULMOD SWAP1 POP PUSH1 0x0 DUP6 DUP1 PUSH2 0x2340 JUMPI INVALID JUMPDEST DUP3 DUP11 MULMOD SWAP1 POP PUSH1 0x0 DUP7 DUP1 PUSH2 0x234F JUMPI INVALID JUMPDEST DUP8 DUP1 PUSH2 0x2357 JUMPI INVALID JUMPDEST DUP5 DUP7 MULMOD DUP11 MULMOD SWAP1 POP DUP2 DUP2 SWAP6 POP SWAP6 POP POP POP POP POP SWAP5 POP SWAP5 SWAP3 POP POP POP JUMP JUMPDEST PUSH1 0x0 DUP1 PUSH1 0x0 DUP1 DUP7 EQ ISZERO PUSH2 0x238C JUMPI DUP8 DUP8 DUP8 SWAP3 POP SWAP3 POP SWAP3 POP PUSH2 0x2485 JUMP JUMPDEST PUSH1 0x0 DUP5 DUP1 PUSH2 0x2396 JUMPI INVALID JUMPDEST DUP10 DUP11 MULMOD SWAP1 POP PUSH1 0x0 DUP6 DUP1 PUSH2 0x23A5 JUMPI INVALID JUMPDEST DUP10 DUP11 MULMOD SWAP1 POP PUSH1 0x0 DUP7 DUP1 PUSH2 0x23B4 JUMPI INVALID JUMPDEST DUP10 DUP11 MULMOD SWAP1 POP PUSH1 0x0 DUP8 DUP1 PUSH2 0x23C3 JUMPI INVALID JUMPDEST DUP9 DUP1 PUSH2 0x23CB JUMPI INVALID JUMPDEST DUP5 DUP15 MULMOD PUSH1 0x4 MULMOD SWAP1 POP PUSH1 0x0 DUP9 DUP1 PUSH2 0x23DD JUMPI INVALID JUMPDEST DUP10 DUP1 PUSH2 0x23E5 JUMPI INVALID JUMPDEST DUP11 DUP1 PUSH2 0x23ED JUMPI INVALID JUMPDEST DUP6 DUP7 MULMOD DUP13 MULMOD DUP11 DUP1 PUSH2 0x23FA JUMPI INVALID JUMPDEST DUP8 PUSH1 0x3 MULMOD ADDMOD SWAP1 POP DUP9 DUP1 PUSH2 0x2409 JUMPI INVALID JUMPDEST DUP10 DUP1 PUSH2 0x2411 JUMPI INVALID JUMPDEST DUP4 DUP5 ADDMOD DUP11 SUB DUP11 DUP1 PUSH2 0x241E JUMPI INVALID JUMPDEST DUP4 DUP5 MULMOD ADDMOD SWAP5 POP DUP9 DUP1 PUSH2 0x242C JUMPI INVALID JUMPDEST DUP10 DUP1 PUSH2 0x2434 JUMPI INVALID JUMPDEST DUP11 DUP1 PUSH2 0x243C JUMPI INVALID JUMPDEST DUP7 DUP8 MULMOD PUSH1 0x8 MULMOD DUP11 SUB DUP11 DUP1 PUSH2 0x244C JUMPI INVALID JUMPDEST DUP12 DUP1 PUSH2 0x2454 JUMPI INVALID JUMPDEST DUP9 DUP14 SUB DUP7 ADDMOD DUP5 MULMOD ADDMOD SWAP4 POP DUP9 DUP1 PUSH2 0x2466 JUMPI INVALID JUMPDEST DUP10 DUP1 PUSH2 0x246E JUMPI INVALID JUMPDEST DUP13 DUP15 MULMOD PUSH1 0x2 MULMOD SWAP3 POP DUP5 DUP5 DUP5 SWAP8 POP SWAP8 POP SWAP8 POP POP POP POP POP POP JUMPDEST SWAP6 POP SWAP6 POP SWAP6 SWAP3 POP POP POP JUMP JUMPDEST PUSH1 0x0 DUP1 PUSH1 0x0 DUP1 DUP11 EQ DUP1 ISZERO PUSH2 0x24A4 JUMPI POP PUSH1 0x0 DUP10 EQ JUMPDEST ISZERO PUSH2 0x24B7 JUMPI DUP7 DUP7 DUP7 SWAP3 POP SWAP3 POP SWAP3 POP PUSH2 0x2954 JUMP JUMPDEST PUSH1 0x0 DUP8 EQ DUP1 ISZERO PUSH2 0x24C7 JUMPI POP PUSH1 0x0 DUP7 EQ JUMPDEST ISZERO PUSH2 0x24DA JUMPI DUP10 DUP10 DUP10 SWAP3 POP SWAP3 POP SWAP3 POP PUSH2 0x2954 JUMP JUMPDEST PUSH2 0x24E2 PUSH2 0x2BDF JUMP JUMPDEST DUP5 DUP1 PUSH2 0x24EA JUMPI INVALID JUMPDEST DUP10 DUP11 MULMOD DUP2 PUSH1 0x0 PUSH1 0x4 DUP2 LT PUSH2 0x24FA JUMPI INVALID JUMPDEST PUSH1 0x20 MUL ADD DUP2 DUP2 MSTORE POP POP DUP5 DUP1 PUSH2 0x250B JUMPI INVALID JUMPDEST DUP2 PUSH1 0x0 PUSH1 0x4 DUP2 LT PUSH2 0x2518 JUMPI INVALID JUMPDEST PUSH1 0x20 MUL ADD MLOAD DUP11 MULMOD DUP2 PUSH1 0x1 PUSH1 0x4 DUP2 LT PUSH2 0x252C JUMPI INVALID JUMPDEST PUSH1 0x20 MUL ADD DUP2 DUP2 MSTORE POP POP DUP5 DUP1 PUSH2 0x253D JUMPI INVALID JUMPDEST DUP7 DUP8 MULMOD DUP2 PUSH1 0x2 PUSH1 0x4 DUP2 LT PUSH2 0x254D JUMPI INVALID JUMPDEST PUSH1 0x20 MUL ADD DUP2 DUP2 MSTORE POP POP DUP5 DUP1 PUSH2 0x255E JUMPI INVALID JUMPDEST DUP2 PUSH1 0x2 PUSH1 0x4 DUP2 LT PUSH2 0x256B JUMPI INVALID JUMPDEST PUSH1 0x20 MUL ADD MLOAD DUP8 MULMOD DUP2 PUSH1 0x3 PUSH1 0x4 DUP2 LT PUSH2 0x257F JUMPI INVALID JUMPDEST PUSH1 0x20 MUL ADD DUP2 DUP2 MSTORE POP POP PUSH1 0x40 MLOAD DUP1 PUSH1 0x80 ADD PUSH1 0x40 MSTORE DUP1 DUP7 DUP1 PUSH2 0x259B JUMPI INVALID JUMPDEST DUP4 PUSH1 0x2 PUSH1 0x4 DUP2 LT PUSH2 0x25A8 JUMPI INVALID JUMPDEST PUSH1 0x20 MUL ADD MLOAD DUP15 MULMOD DUP2 MSTORE PUSH1 0x20 ADD DUP7 DUP1 PUSH2 0x25BC JUMPI INVALID JUMPDEST DUP4 PUSH1 0x3 PUSH1 0x4 DUP2 LT PUSH2 0x25C9 JUMPI INVALID JUMPDEST PUSH1 0x20 MUL ADD MLOAD DUP14 MULMOD DUP2 MSTORE PUSH1 0x20 ADD DUP7 DUP1 PUSH2 0x25DD JUMPI INVALID JUMPDEST DUP4 PUSH1 0x0 PUSH1 0x4 DUP2 LT PUSH2 0x25EA JUMPI INVALID JUMPDEST PUSH1 0x20 MUL ADD MLOAD DUP12 MULMOD DUP2 MSTORE PUSH1 0x20 ADD DUP7 DUP1 PUSH2 0x25FE JUMPI INVALID JUMPDEST DUP4 PUSH1 0x1 PUSH1 0x4 DUP2 LT PUSH2 0x260B JUMPI INVALID JUMPDEST PUSH1 0x20 MUL ADD MLOAD DUP11 MULMOD DUP2 MSTORE POP SWAP1 POP DUP1 PUSH1 0x2 PUSH1 0x4 DUP2 LT PUSH2 0x2624 JUMPI INVALID JUMPDEST PUSH1 0x20 MUL ADD MLOAD DUP2 PUSH1 0x0 PUSH1 0x4 DUP2 LT PUSH2 0x2636 JUMPI INVALID JUMPDEST PUSH1 0x20 MUL ADD MLOAD EQ ISZERO DUP1 PUSH2 0x266A JUMPI POP DUP1 PUSH1 0x3 PUSH1 0x4 DUP2 LT PUSH2 0x2650 JUMPI INVALID JUMPDEST PUSH1 0x20 MUL ADD MLOAD DUP2 PUSH1 0x1 PUSH1 0x4 DUP2 LT PUSH2 0x2662 JUMPI INVALID JUMPDEST PUSH1 0x20 MUL ADD MLOAD EQ ISZERO JUMPDEST PUSH2 0x26DC JUMPI PUSH1 0x40 MLOAD PUSH32 0x8C379A000000000000000000000000000000000000000000000000000000000 DUP2 MSTORE PUSH1 0x4 ADD DUP1 DUP1 PUSH1 0x20 ADD DUP3 DUP2 SUB DUP3 MSTORE PUSH1 0x1E DUP2 MSTORE PUSH1 0x20 ADD DUP1 PUSH32 0x557365206A6163446F75626C652066756E6374696F6E20696E73746561640000 DUP2 MSTORE POP PUSH1 0x20 ADD SWAP2 POP POP PUSH1 0x40 MLOAD DUP1 SWAP2 SUB SWAP1 REVERT JUMPDEST PUSH2 0x26E4 PUSH2 0x2BDF JUMP JUMPDEST DUP6 DUP1 PUSH2 0x26EC JUMPI INVALID JUMPDEST DUP3 PUSH1 0x0 PUSH1 0x4 DUP2 LT PUSH2 0x26F9 JUMPI INVALID JUMPDEST PUSH1 0x20 MUL ADD MLOAD DUP8 SUB DUP4 PUSH1 0x2 PUSH1 0x4 DUP2 LT PUSH2 0x270D JUMPI INVALID JUMPDEST PUSH1 0x20 MUL ADD MLOAD ADDMOD DUP2 PUSH1 0x0 PUSH1 0x4 DUP2 LT PUSH2 0x2720 JUMPI INVALID JUMPDEST PUSH1 0x20 MUL ADD DUP2 DUP2 MSTORE POP POP DUP6 DUP1 PUSH2 0x2731 JUMPI INVALID JUMPDEST DUP3 PUSH1 0x1 PUSH1 0x4 DUP2 LT PUSH2 0x273E JUMPI INVALID JUMPDEST PUSH1 0x20 MUL ADD MLOAD DUP8 SUB DUP4 PUSH1 0x3 PUSH1 0x4 DUP2 LT PUSH2 0x2752 JUMPI INVALID JUMPDEST PUSH1 0x20 MUL ADD MLOAD ADDMOD DUP2 PUSH1 0x1 PUSH1 0x4 DUP2 LT PUSH2 0x2765 JUMPI INVALID JUMPDEST PUSH1 0x20 MUL ADD DUP2 DUP2 MSTORE POP POP DUP6 DUP1 PUSH2 0x2776 JUMPI INVALID JUMPDEST DUP2 PUSH1 0x0 PUSH1 0x4 DUP2 LT PUSH2 0x2783 JUMPI INVALID JUMPDEST PUSH1 0x20 MUL ADD MLOAD DUP3 PUSH1 0x0 PUSH1 0x4 DUP2 LT PUSH2 0x2795 JUMPI INVALID JUMPDEST PUSH1 0x20 MUL ADD MLOAD MULMOD DUP2 PUSH1 0x2 PUSH1 0x4 DUP2 LT PUSH2 0x27A8 JUMPI INVALID JUMPDEST PUSH1 0x20 MUL ADD DUP2 DUP2 MSTORE POP POP DUP6 DUP1 PUSH2 0x27B9 JUMPI INVALID JUMPDEST DUP2 PUSH1 0x0 PUSH1 0x4 DUP2 LT PUSH2 0x27C6 JUMPI INVALID JUMPDEST PUSH1 0x20 MUL ADD MLOAD DUP3 PUSH1 0x2 PUSH1 0x4 DUP2 LT PUSH2 0x27D8 JUMPI INVALID JUMPDEST PUSH1 0x20 MUL ADD MLOAD MULMOD DUP2 PUSH1 0x3 PUSH1 0x4 DUP2 LT PUSH2 0x27EB JUMPI INVALID JUMPDEST PUSH1 0x20 MUL ADD DUP2 DUP2 MSTORE POP POP PUSH1 0x0 DUP7 DUP1 PUSH2 0x27FE JUMPI INVALID JUMPDEST DUP3 PUSH1 0x3 PUSH1 0x4 DUP2 LT PUSH2 0x280B JUMPI INVALID JUMPDEST PUSH1 0x20 MUL ADD MLOAD DUP9 SUB DUP9 DUP1 PUSH2 0x281A JUMPI INVALID JUMPDEST DUP5 PUSH1 0x1 PUSH1 0x4 DUP2 LT PUSH2 0x2827 JUMPI INVALID JUMPDEST PUSH1 0x20 MUL ADD MLOAD DUP6 PUSH1 0x1 PUSH1 0x4 DUP2 LT PUSH2 0x2839 JUMPI INVALID JUMPDEST PUSH1 0x20 MUL ADD MLOAD MULMOD ADDMOD SWAP1 POP DUP7 DUP1 PUSH2 0x284A JUMPI INVALID JUMPDEST DUP8 DUP1 PUSH2 0x2852 JUMPI INVALID JUMPDEST DUP9 DUP1 PUSH2 0x285A JUMPI INVALID JUMPDEST DUP5 PUSH1 0x2 PUSH1 0x4 DUP2 LT PUSH2 0x2867 JUMPI INVALID JUMPDEST PUSH1 0x20 MUL ADD MLOAD DUP7 PUSH1 0x0 PUSH1 0x4 DUP2 LT PUSH2 0x2879 JUMPI INVALID JUMPDEST PUSH1 0x20 MUL ADD MLOAD MULMOD PUSH1 0x2 MULMOD DUP9 SUB DUP3 ADDMOD SWAP1 POP PUSH1 0x0 DUP8 DUP1 PUSH2 0x2892 JUMPI INVALID JUMPDEST DUP9 DUP1 PUSH2 0x289A JUMPI INVALID JUMPDEST DUP4 DUP11 SUB DUP11 DUP1 PUSH2 0x28A5 JUMPI INVALID JUMPDEST DUP7 PUSH1 0x2 PUSH1 0x4 DUP2 LT PUSH2 0x28B2 JUMPI INVALID JUMPDEST PUSH1 0x20 MUL ADD MLOAD DUP9 PUSH1 0x0 PUSH1 0x4 DUP2 LT PUSH2 0x28C4 JUMPI INVALID JUMPDEST PUSH1 0x20 MUL ADD MLOAD MULMOD ADDMOD DUP5 PUSH1 0x1 PUSH1 0x4 DUP2 LT PUSH2 0x28D8 JUMPI INVALID JUMPDEST PUSH1 0x20 MUL ADD MLOAD MULMOD SWAP1 POP DUP8 DUP1 PUSH2 0x28E8 JUMPI INVALID JUMPDEST DUP9 DUP1 PUSH2 0x28F0 JUMPI INVALID JUMPDEST DUP5 PUSH1 0x3 PUSH1 0x4 DUP2 LT PUSH2 0x28FD JUMPI INVALID JUMPDEST PUSH1 0x20 MUL ADD MLOAD DUP7 PUSH1 0x1 PUSH1 0x4 DUP2 LT PUSH2 0x290F JUMPI INVALID JUMPDEST PUSH1 0x20 MUL ADD MLOAD MULMOD DUP10 SUB DUP3 ADDMOD SWAP1 POP PUSH1 0x0 DUP9 DUP1 PUSH2 0x2925 JUMPI INVALID JUMPDEST DUP10 DUP1 PUSH2 0x292D JUMPI INVALID JUMPDEST DUP12 DUP16 MULMOD DUP6 PUSH1 0x0 PUSH1 0x4 DUP2 LT PUSH2 0x293D JUMPI INVALID JUMPDEST PUSH1 0x20 MUL ADD MLOAD MULMOD SWAP1 POP DUP3 DUP3 DUP3 SWAP8 POP SWAP8 POP SWAP8 POP POP POP POP POP POP JUMPDEST SWAP8 POP SWAP8 POP SWAP8 SWAP5 POP POP POP POP POP JUMP JUMPDEST PUSH1 0x0 DUP1 DUP4 EQ ISZERO DUP1 ISZERO PUSH2 0x2973 JUMPI POP DUP2 DUP4 EQ ISZERO JUMPDEST DUP1 ISZERO PUSH2 0x2980 JUMPI POP PUSH1 0x0 DUP3 EQ ISZERO JUMPDEST PUSH2 0x29F2 JUMPI PUSH1 0x40 MLOAD PUSH32 0x8C379A000000000000000000000000000000000000000000000000000000000 DUP2 MSTORE PUSH1 0x4 ADD DUP1 DUP1 PUSH1 0x20 ADD DUP3 DUP2 SUB DUP3 MSTORE PUSH1 0xE DUP2 MSTORE PUSH1 0x20 ADD DUP1 PUSH32 0x496E76616C6964206E756D626572000000000000000000000000000000000000 DUP2 MSTORE POP PUSH1 0x20 ADD SWAP2 POP POP PUSH1 0x40 MLOAD DUP1 SWAP2 SUB SWAP1 REVERT JUMPDEST PUSH1 0x0 DUP1 PUSH1 0x1 SWAP1 POP PUSH1 0x0 DUP5 SWAP1 POP PUSH1 0x0 JUMPDEST PUSH1 0x0 DUP8 EQ PUSH2 0x2A48 JUMPI DUP7 DUP3 DUP2 PUSH2 0x2A12 JUMPI INVALID JUMPDEST DIV SWAP1 POP DUP3 DUP7 DUP1 PUSH2 0x2A1E JUMPI INVALID JUMPDEST DUP8 DUP1 PUSH2 0x2A26 JUMPI INVALID JUMPDEST DUP6 DUP5 MULMOD DUP9 SUB DUP7 ADDMOD DUP1 SWAP5 POP DUP2 SWAP6 POP POP POP DUP7 DUP8 DUP3 MUL DUP4 SUB DUP1 SWAP9 POP DUP2 SWAP4 POP POP POP PUSH2 0x2A01 JUMP JUMPDEST DUP4 SWAP5 POP POP POP POP POP SWAP3 SWAP2 POP POP JUMP JUMPDEST DUP3 DUP1 SLOAD PUSH1 0x1 DUP2 PUSH1 0x1 AND ISZERO PUSH2 0x100 MUL SUB AND PUSH1 0x2 SWAP1 DIV SWAP1 PUSH1 0x0 MSTORE PUSH1 0x20 PUSH1 0x0 KECCAK256 SWAP1 PUSH1 0x1F ADD PUSH1 0x20 SWAP1 DIV DUP2 ADD SWAP3 DUP3 PUSH1 0x1F LT PUSH2 0x2A96 JUMPI DUP1 MLOAD PUSH1 0xFF NOT AND DUP4 DUP1 ADD OR DUP6 SSTORE PUSH2 0x2AC4 JUMP JUMPDEST DUP3 DUP1 ADD PUSH1 0x1 ADD DUP6 SSTORE DUP3 ISZERO PUSH2 0x2AC4 JUMPI SWAP2 DUP3 ADD JUMPDEST DUP3 DUP2 GT ISZERO PUSH2 0x2AC3 JUMPI DUP3 MLOAD DUP3 SSTORE SWAP2 PUSH1 0x20 ADD SWAP2 SWAP1 PUSH1 0x1 ADD SWAP1 PUSH2 0x2AA8 JUMP JUMPDEST JUMPDEST POP SWAP1 POP PUSH2 0x2AD1 SWAP2 SWAP1 PUSH2 0x2C01 JUMP JUMPDEST POP SWAP1 JUMP JUMPDEST DUP3 DUP1 SLOAD PUSH1 0x1 DUP2 PUSH1 0x1 AND ISZERO PUSH2 0x100 MUL SUB AND PUSH1 0x2 SWAP1 DIV SWAP1 PUSH1 0x0 MSTORE PUSH1 0x20 PUSH1 0x0 KECCAK256 SWAP1 PUSH1 0x1F ADD PUSH1 0x20 SWAP1 DIV DUP2 ADD SWAP3 DUP3 PUSH1 0x1F LT PUSH2 0x2B16 JUMPI DUP1 MLOAD PUSH1 0xFF NOT AND DUP4 DUP1 ADD OR DUP6 SSTORE PUSH2 0x2B44 JUMP JUMPDEST DUP3 DUP1 ADD PUSH1 0x1 ADD DUP6 SSTORE DUP3 ISZERO PUSH2 0x2B44 JUMPI SWAP2 DUP3 ADD JUMPDEST DUP3 DUP2 GT ISZERO PUSH2 0x2B43 JUMPI DUP3 MLOAD DUP3 SSTORE SWAP2 PUSH1 0x20 ADD SWAP2 SWAP1 PUSH1 0x1 ADD SWAP1 PUSH2 0x2B28 JUMP JUMPDEST JUMPDEST POP SWAP1 POP PUSH2 0x2B51 SWAP2 SWAP1 PUSH2 0x2C01 JUMP JUMPDEST POP SWAP1 JUMP JUMPDEST DUP3 DUP1 SLOAD DUP3 DUP3 SSTORE SWAP1 PUSH1 0x0 MSTORE PUSH1 0x20 PUSH1 0x0 KECCAK256 SWAP1 DUP2 ADD SWAP3 DUP3 ISZERO PUSH2 0x2BCE JUMPI SWAP2 PUSH1 0x20 MUL DUP3 ADD JUMPDEST DUP3 DUP2 GT ISZERO PUSH2 0x2BCD JUMPI DUP3 MLOAD DUP3 PUSH1 0x0 PUSH2 0x100 EXP DUP2 SLOAD DUP2 PUSH20 0xFFFFFFFFFFFFFFFFFFFFFFFFFFFFFFFFFFFFFFFF MUL NOT AND SWAP1 DUP4 PUSH20 0xFFFFFFFFFFFFFFFFFFFFFFFFFFFFFFFFFFFFFFFF AND MUL OR SWAP1 SSTORE POP SWAP2 PUSH1 0x20 ADD SWAP2 SWAP1 PUSH1 0x1 ADD SWAP1 PUSH2 0x2B75 JUMP JUMPDEST JUMPDEST POP SWAP1 POP PUSH2 0x2BDB SWAP2 SWAP1 PUSH2 0x2C1E JUMP JUMPDEST POP SWAP1 JUMP JUMPDEST PUSH1 0x40 MLOAD DUP1 PUSH1 0x80 ADD PUSH1 0x40 MSTORE DUP1 PUSH1 0x4 SWAP1 PUSH1 0x20 DUP3 MUL DUP1 CALLDATASIZE DUP4 CALLDATACOPY DUP1 DUP3 ADD SWAP2 POP POP SWAP1 POP POP SWAP1 JUMP JUMPDEST JUMPDEST DUP1 DUP3 GT ISZERO PUSH2 0x2C1A JUMPI PUSH1 0x0 DUP2 PUSH1 0x0 SWAP1 SSTORE POP PUSH1 0x1 ADD PUSH2 0x2C02 JUMP JUMPDEST POP SWAP1 JUMP JUMPDEST JUMPDEST DUP1 DUP3 GT ISZERO PUSH2 0x2C55 JUMPI PUSH1 0x0 DUP2 DUP2 PUSH2 0x100 EXP DUP2 SLOAD SWAP1 PUSH20 0xFFFFFFFFFFFFFFFFFFFFFFFFFFFFFFFFFFFFFFFF MUL NOT AND SWAP1 SSTORE POP PUSH1 0x1 ADD PUSH2 0x2C1F JUMP JUMPDEST POP SWAP1 JUMP INVALID 0x4F PUSH15 0x6C7920726563656976657273207769 PUSH21 0x682027616363657074656427207374617465206361 PUSH15 0x2063616E63656C4F6E6C792073656E PUSH5 0x6572206F66 KECCAK256 PUSH21 0x68652064656C69766572792063616E2066696E6973 PUSH9 0x54696D656F75742074 PUSH6 0x726D32206D75 PUSH20 0x742062652067726561746572207468616E205F74 PUSH6 0x726D31546865 KECCAK256 PUSH21 0x696D656F7574207465726D3220686173206E6F7420 PUSH3 0x65656E KECCAK256 PUSH19 0x6561636865645468652074696D656F75742074 PUSH6 0x726D31206861 PUSH20 0x206E6F74206265656E207265616368656420616E PUSH5 0x206E6F7420 PUSH2 0x6C6C KECCAK256 PUSH19 0x65636569766572732068617665206265656E20 PUSH2 0x6363 PUSH6 0x707465642074 PUSH9 0x652064656C69766572 PUSH26 0x5468652074696D656F7574207465726D3120686173206265656E KECCAK256 PUSH19 0x6561636865645620616E642047785B72695D2B TIMESTAMP PUSH10 0x785B63695D2061726520 PUSH15 0x6F7420657175616C7353656E646572 KECCAK256 PUSH9 0x617320746F2073656E PUSH5 0x2061206465 PUSH17 0x6F736974206F66206D696E696D756E2031 KECCAK256 PUSH24 0x65694F6E6C79207265636569766572732077697468202763 PUSH19 0x6561746564272073746174652063616E206163 PUSH4 0x657074A2 PUSH5 0x6970667358 0x22 SLT KECCAK256 CALLCODE CALLDATALOAD 0xCB ADD PUSH13 0xE47F89D65B9F223B1ADBCEFB58 0xCF GAS 0xE0 AND ADDMOD 0xE2 0xE2 CREATE POP LOG0 CHAINID 0x4D SWAP14 PUSH17 0x64736F6C634300060C0033000000000000 "
    },
    "gasEstimates": {
      "creation": {
        "codeDepositCost": "2364600",
        "executionCost": "23405",
        "totalCost": "2388005"
      },
      "external": {
        "A()": "infinite",
        "AA()": "294",
        "BB()": "272",
        "GX()": "229",
        "GY()": "228",
        "PP()": "293",
        "a()": "251",
        "accept(string,bytes,uint256,uint256,uint256)": "infinite",
        "cancel()": "infinite",
        "finish(address,uint256)": "infinite",
        "getR(address)": "1313",
        "getState(address)": "infinite",
        "hashIPFS()": "infinite",
        "initialize(address,address[],uint256,uint256,string,string,uint256,uint256)": "infinite",
        "isBase()": "1092",
        "receivers(uint256)": "2033",
        "receiversState(address)": "infinite",
        "sender()": "1177",
        "start()": "1138",
        "term1()": "1028",
        "term2()": "1117",
        "vx()": "1050",
        "vy()": "1049"
      }
    },
    "methodIdentifiers": {
      "A()": "f446c1d0",
      "AA()": "997da8d4",
      "BB()": "5727dc5c",
      "GX()": "03a507be",
      "GY()": "7a308a4c",
      "PP()": "eeeac01e",
      "a()": "0dbe671f",
      "accept(string,bytes,uint256,uint256,uint256)": "57dc3742",
      "cancel()": "ea8a1af0",
      "finish(address,uint256)": "29008824",
      "getR(address)": "6349ca37",
      "getState(address)": "1bab58f5",
      "hashIPFS()": "a1cbf5f9",
      "initialize(address,address[],uint256,uint256,string,string,uint256,uint256)": "872b2223",
      "isBase()": "7f80069a",
      "receivers(uint256)": "bfd772fc",
      "receiversState(address)": "ff7edf42",
      "sender()": "67e404ce",
      "start()": "be9a6555",
      "term1()": "4c87c67d",
      "term2()": "3b4a0828",
      "vx()": "4e8c0bd6",
      "vy()": "cd12a4b0"
    }
  },
  "storageLayout": {
    "storage": [
      {
        "astId": 1355,
        "contract": "ConfidentialMultipartyRegisteredEDeliveryWithoutTTP.sol:ConfidentialMultipartyRegisteredEDeliveryWithoutTTP",
        "label": "sender",
        "offset": 0,
        "slot": "0",
        "type": "t_address"
      },
      {
        "astId": 1358,
        "contract": "ConfidentialMultipartyRegisteredEDeliveryWithoutTTP.sol:ConfidentialMultipartyRegisteredEDeliveryWithoutTTP",
        "label": "receivers",
        "offset": 0,
        "slot": "1",
        "type": "t_array(t_address)dyn_storage"
      },
      {
        "astId": 1362,
        "contract": "ConfidentialMultipartyRegisteredEDeliveryWithoutTTP.sol:ConfidentialMultipartyRegisteredEDeliveryWithoutTTP",
        "label": "receiversState",
        "offset": 0,
        "slot": "2",
        "type": "t_mapping(t_address,t_struct(ReceiverState)1353_storage)"
      },
      {
        "astId": 1364,
        "contract": "ConfidentialMultipartyRegisteredEDeliveryWithoutTTP.sol:ConfidentialMultipartyRegisteredEDeliveryWithoutTTP",
        "label": "acceptedReceivers",
        "offset": 0,
        "slot": "3",
        "type": "t_uint256"
      },
      {
        "astId": 1366,
        "contract": "ConfidentialMultipartyRegisteredEDeliveryWithoutTTP.sol:ConfidentialMultipartyRegisteredEDeliveryWithoutTTP",
        "label": "vx",
        "offset": 0,
        "slot": "4",
        "type": "t_uint256"
      },
      {
        "astId": 1368,
        "contract": "ConfidentialMultipartyRegisteredEDeliveryWithoutTTP.sol:ConfidentialMultipartyRegisteredEDeliveryWithoutTTP",
        "label": "vy",
        "offset": 0,
        "slot": "5",
        "type": "t_uint256"
      },
      {
        "astId": 1370,
        "contract": "ConfidentialMultipartyRegisteredEDeliveryWithoutTTP.sol:ConfidentialMultipartyRegisteredEDeliveryWithoutTTP",
        "label": "hashIPFS",
        "offset": 0,
        "slot": "6",
        "type": "t_string_storage"
      },
      {
        "astId": 1372,
        "contract": "ConfidentialMultipartyRegisteredEDeliveryWithoutTTP.sol:ConfidentialMultipartyRegisteredEDeliveryWithoutTTP",
        "label": "A",
        "offset": 0,
        "slot": "7",
        "type": "t_string_storage"
      },
      {
        "astId": 1392,
        "contract": "ConfidentialMultipartyRegisteredEDeliveryWithoutTTP.sol:ConfidentialMultipartyRegisteredEDeliveryWithoutTTP",
        "label": "term1",
        "offset": 0,
        "slot": "8",
        "type": "t_uint256"
      },
      {
        "astId": 1394,
        "contract": "ConfidentialMultipartyRegisteredEDeliveryWithoutTTP.sol:ConfidentialMultipartyRegisteredEDeliveryWithoutTTP",
        "label": "term2",
        "offset": 0,
        "slot": "9",
        "type": "t_uint256"
      },
      {
        "astId": 1396,
        "contract": "ConfidentialMultipartyRegisteredEDeliveryWithoutTTP.sol:ConfidentialMultipartyRegisteredEDeliveryWithoutTTP",
        "label": "start",
        "offset": 0,
        "slot": "10",
        "type": "t_uint256"
      },
      {
        "astId": 1398,
        "contract": "ConfidentialMultipartyRegisteredEDeliveryWithoutTTP.sol:ConfidentialMultipartyRegisteredEDeliveryWithoutTTP",
        "label": "isBase",
        "offset": 0,
        "slot": "11",
        "type": "t_bool"
      }
    ],
    "types": {
      "t_address": {
        "encoding": "inplace",
        "label": "address",
        "numberOfBytes": "20"
      },
      "t_array(t_address)dyn_storage": {
        "base": "t_address",
        "encoding": "dynamic_array",
        "label": "address[]",
        "numberOfBytes": "32"
      },
      "t_bool": {
        "encoding": "inplace",
        "label": "bool",
        "numberOfBytes": "1"
      },
      "t_bytes_storage": {
        "encoding": "bytes",
        "label": "bytes",
        "numberOfBytes": "32"
      },
      "t_enum(State)1338": {
        "encoding": "inplace",
        "label": "enum ConfidentialMultipartyRegisteredEDeliveryWithoutTTP.State",
        "numberOfBytes": "1"
      },
      "t_mapping(t_address,t_struct(ReceiverState)1353_storage)": {
        "encoding": "mapping",
        "key": "t_address",
        "label": "mapping(address => struct ConfidentialMultipartyRegisteredEDeliveryWithoutTTP.ReceiverState)",
        "numberOfBytes": "32",
        "value": "t_struct(ReceiverState)1353_storage"
      },
      "t_string_storage": {
        "encoding": "bytes",
        "label": "string",
        "numberOfBytes": "32"
      },
      "t_struct(ReceiverState)1353_storage": {
        "encoding": "inplace",
        "label": "struct ConfidentialMultipartyRegisteredEDeliveryWithoutTTP.ReceiverState",
        "members": [
          {
            "astId": 1340,
            "contract": "ConfidentialMultipartyRegisteredEDeliveryWithoutTTP.sol:ConfidentialMultipartyRegisteredEDeliveryWithoutTTP",
            "label": "z1",
            "offset": 0,
            "slot": "0",
            "type": "t_string_storage"
          },
          {
            "astId": 1342,
            "contract": "ConfidentialMultipartyRegisteredEDeliveryWithoutTTP.sol:ConfidentialMultipartyRegisteredEDeliveryWithoutTTP",
            "label": "z2",
            "offset": 0,
            "slot": "1",
            "type": "t_bytes_storage"
          },
          {
            "astId": 1344,
            "contract": "ConfidentialMultipartyRegisteredEDeliveryWithoutTTP.sol:ConfidentialMultipartyRegisteredEDeliveryWithoutTTP",
            "label": "bx",
            "offset": 0,
            "slot": "2",
            "type": "t_uint256"
          },
          {
            "astId": 1346,
            "contract": "ConfidentialMultipartyRegisteredEDeliveryWithoutTTP.sol:ConfidentialMultipartyRegisteredEDeliveryWithoutTTP",
            "label": "by",
            "offset": 0,
            "slot": "3",
            "type": "t_uint256"
          },
          {
            "astId": 1348,
            "contract": "ConfidentialMultipartyRegisteredEDeliveryWithoutTTP.sol:ConfidentialMultipartyRegisteredEDeliveryWithoutTTP",
            "label": "c",
            "offset": 0,
            "slot": "4",
            "type": "t_uint256"
          },
          {
            "astId": 1350,
            "contract": "ConfidentialMultipartyRegisteredEDeliveryWithoutTTP.sol:ConfidentialMultipartyRegisteredEDeliveryWithoutTTP",
            "label": "r",
            "offset": 0,
            "slot": "5",
            "type": "t_uint256"
          },
          {
            "astId": 1352,
            "contract": "ConfidentialMultipartyRegisteredEDeliveryWithoutTTP.sol:ConfidentialMultipartyRegisteredEDeliveryWithoutTTP",
            "label": "state",
            "offset": 0,
            "slot": "6",
            "type": "t_enum(State)1338"
          }
        ],
        "numberOfBytes": "224"
      },
      "t_uint256": {
        "encoding": "inplace",
        "label": "uint256",
        "numberOfBytes": "32"
      }
    }
  },
  "userdoc": {
    "kind": "user",
    "methods": {},
    "version": 1
  }
}