{
  "_format": "hh-sol-artifact-1",
  "contractName": "ConfidentialMultipartyRegisteredEDeliveryWithoutTTPFactory",
  "sourceName": "contracts/ConfidentialMultipartyRegisteredEDeliveryWithoutTTP.sol",
  "abi": [
    {
      "inputs": [],
      "stateMutability": "nonpayable",
      "type": "constructor"
    },
    {
      "inputs": [
        {
          "internalType": "address[]",
          "name": "_receivers",
          "type": "address[]"
        },
        {
          "internalType": "uint256",
          "name": "_vx",
          "type": "uint256"
        },
        {
          "internalType": "uint256",
          "name": "_vy",
          "type": "uint256"
        },
        {
          "internalType": "string",
          "name": "_hashIPFS",
          "type": "string"
        },
        {
          "internalType": "string",
          "name": "_A",
          "type": "string"
        },
        {
          "internalType": "uint256",
          "name": "_term1",
          "type": "uint256"
        },
        {
          "internalType": "uint256",
          "name": "_term2",
          "type": "uint256"
        }
      ],
      "name": "createDelivery",
      "outputs": [],
      "stateMutability": "payable",
      "type": "function"
    },
    {
      "inputs": [
        {
          "internalType": "uint256",
          "name": "",
          "type": "uint256"
        }
      ],
      "name": "deliveries",
      "outputs": [
        {
          "internalType": "address",
          "name": "",
          "type": "address"
        }
      ],
      "stateMutability": "view",
      "type": "function"
    },
    {
      "inputs": [],
      "name": "getDeliveries",
      "outputs": [
        {
          "internalType": "address[]",
          "name": "",
          "type": "address[]"
        }
      ],
      "stateMutability": "view",
      "type": "function"
    },
    {
      "inputs": [],
      "name": "getDeliveriesCount",
      "outputs": [
        {
          "internalType": "uint256",
          "name": "",
          "type": "uint256"
        }
      ],
      "stateMutability": "view",
      "type": "function"
    },
    {
      "inputs": [
        {
          "internalType": "address",
          "name": "_receiver",
          "type": "address"
        }
      ],
      "name": "getReceiverDeliveries",
      "outputs": [
        {
          "internalType": "address[]",
          "name": "",
          "type": "address[]"
        }
      ],
      "stateMutability": "view",
      "type": "function"
    },
    {
      "inputs": [
        {
          "internalType": "address",
          "name": "_receiver",
          "type": "address"
        }
      ],
      "name": "getReceiverDeliveriesCount",
      "outputs": [
        {
          "internalType": "uint256",
          "name": "",
          "type": "uint256"
        }
      ],
      "stateMutability": "view",
      "type": "function"
    },
    {
      "inputs": [
        {
          "internalType": "address",
          "name": "_sender",
          "type": "address"
        }
      ],
      "name": "getSenderDeliveries",
      "outputs": [
        {
          "internalType": "address[]",
          "name": "",
          "type": "address[]"
        }
      ],
      "stateMutability": "view",
      "type": "function"
    },
    {
      "inputs": [
        {
          "internalType": "address",
          "name": "_sender",
          "type": "address"
        }
      ],
      "name": "getSenderDeliveriesCount",
      "outputs": [
        {
          "internalType": "uint256",
          "name": "",
          "type": "uint256"
        }
      ],
      "stateMutability": "view",
      "type": "function"
    },
    {
      "inputs": [
        {
          "internalType": "address",
          "name": "",
          "type": "address"
        },
        {
          "internalType": "uint256",
          "name": "",
          "type": "uint256"
        }
      ],
      "name": "receiverDeliveries",
      "outputs": [
        {
          "internalType": "address",
          "name": "",
          "type": "address"
        }
      ],
      "stateMutability": "view",
      "type": "function"
    },
    {
      "inputs": [
        {
          "internalType": "address",
          "name": "",
          "type": "address"
        },
        {
          "internalType": "uint256",
          "name": "",
          "type": "uint256"
        }
      ],
      "name": "senderDeliveries",
      "outputs": [
        {
          "internalType": "address",
          "name": "",
          "type": "address"
        }
      ],
      "stateMutability": "view",
      "type": "function"
    }
  ],
  "bytecode": "0x60a060405234801561001057600080fd5b5060405161001d9061004f565b604051809103906000f080158015610039573d6000803e3d6000fd5b5060601b6001600160601b03191660805261005c565b611d9880610a3283390190565b60805160601c6109b96100796000398061066c52506109b96000f3fe6080604052600436106100915760003560e01c806383af39d11161005957806383af39d1146101dd57806392b548b614610210578063a9e4a32414610249578063c44e55a014610273578063cfe76b24146102a657610091565b8063138e0b2614610096578063438c4837146100fb5780634e4d40601461014057806357bcf7161461015557806361fa3f49146101aa575b600080fd5b3480156100a257600080fd5b506100ab61046a565b60408051602080825283518183015283519192839290830191858101910280838360005b838110156100e75781810151838201526020016100cf565b505050509050019250505060405180910390f35b34801561010757600080fd5b5061012e6004803603602081101561011e57600080fd5b50356001600160a01b03166104cc565b60408051918252519081900360200190f35b34801561014c57600080fd5b5061012e6104e7565b34801561016157600080fd5b5061018e6004803603604081101561017857600080fd5b506001600160a01b0381351690602001356104ed565b604080516001600160a01b039092168252519081900360200190f35b3480156101b657600080fd5b5061012e600480360360208110156101cd57600080fd5b50356001600160a01b0316610522565b3480156101e957600080fd5b506100ab6004803603602081101561020057600080fd5b50356001600160a01b031661053d565b34801561021c57600080fd5b5061018e6004803603604081101561023357600080fd5b506001600160a01b0381351690602001356105b1565b34801561025557600080fd5b5061018e6004803603602081101561026c57600080fd5b50356105ca565b34801561027f57600080fd5b506100ab6004803603602081101561029657600080fd5b50356001600160a01b03166105f1565b610468600480360360e08110156102bc57600080fd5b8101906020810181356401000000008111156102d757600080fd5b8201836020820111156102e957600080fd5b8035906020019184602083028401116401000000008311171561030b57600080fd5b919080806020026020016040519081016040528093929190818152602001838360200280828437600092019190915250929584359560208601359591945092506060810191506040013564010000000081111561036757600080fd5b82018360208201111561037957600080fd5b8035906020019184600183028401116401000000008311171561039b57600080fd5b91908080601f01602080910402602001604051908101604052809392919081815260200183838082843760009201919091525092959493602081019350359150506401000000008111156103ee57600080fd5b82018360208201111561040057600080fd5b8035906020019184600183028401116401000000008311171561042257600080fd5b91908080601f0160208091040260200160405190810160405280939291908181526020018383808284376000920191909152509295505082359350505060200135610665565b005b606060028054806020026020016040519081016040528092919081815260200182805480156104c257602002820191906000526020600020905b81546001600160a01b031681526001909101906020018083116104a4575b5050505050905090565b6001600160a01b031660009081526001602052604090205490565b60025490565b6000602052816000526040600020818154811061050657fe5b6000918252602090912001546001600160a01b03169150829050565b6001600160a01b031660009081526020819052604090205490565b6001600160a01b038116600090815260208181526040918290208054835181840281018401909452808452606093928301828280156105a557602002820191906000526020600020905b81546001600160a01b03168152600190910190602001808311610587575b50505050509050919050565b6001602052816000526040600020818154811061050657fe5b600281815481106105d757fe5b6000918252602090912001546001600160a01b0316905081565b6001600160a01b0381166000908152600160209081526040918290208054835181840281018401909452808452606093928301828280156105a5576020028201919060005260206000209081546001600160a01b031681526001909101906020018083116105875750505050509050919050565b60006106907f0000000000000000000000000000000000000000000000000000000000000000610931565b90506000819050806001600160a01b031663872b222334338c8c8c8c8c8c8c6040518a63ffffffff1660e01b815260040180896001600160a01b03166001600160a01b0316815260200180602001888152602001878152602001806020018060200186815260200185815260200184810384528b818151815260200191508051906020019060200280838360005b8381101561073657818101518382015260200161071e565b50505050905001848103835288818151815260200191508051906020019080838360005b8381101561077257818101518382015260200161075a565b50505050905090810190601f16801561079f5780820380516001836020036101000a031916815260200191505b50848103825287518152875160209182019189019080838360005b838110156107d25781810151838201526020016107ba565b50505050905090810190601f1680156107ff5780820380516001836020036101000a031916815260200191505b509b5050505050505050505050506000604051808303818588803b15801561082657600080fd5b505af115801561083a573d6000803e3d6000fd5b50506002805460018181019092557f405787fa12a823e0f2b7631cc41b3ba8828b3321ca811111fa75cd3aa3bb5ace0180546001600160a01b0388166001600160a01b03199182168117909255336000908152602081815260408220805495860181558252812090930180549091169091179055925050505b895181101561092557600160008b83815181106108cc57fe5b6020908102919091018101516001600160a01b03908116835282820193909352604090910160009081208054600180820183559183529290912090910180546001600160a01b03191692861692909217909155016108b3565b50505050505050505050565b6000808260601b9050604051733d602d80600a3d3981f3363d3d373d3d3d363d7360601b81528160148201526e5af43d82803e903d91602b57fd5bf360881b60288201526037816000f094935050505056fea264697066735822122042ccfc76d759742ea1b7c84cd2fa125a4bb1cd84871ef5bba18c6746a701523764736f6c63430006060033608060405234801561001057600080fd5b50600b805460ff19166001179055611d6b8061002d6000396000f3fe6080604052600436106101405760003560e01c80637a308a4c116100b6578063bfd772fc1161006f578063bfd772fc14610692578063cd12a4b0146106bc578063ea8a1af0146106d1578063eeeac01e146106e6578063f446c1d0146106fb578063ff7edf421461071057610140565b80637a308a4c1461045d5780637f80069a14610472578063872b22231461049b578063997da8d41461016c578063a1cbf5f914610668578063be9a65551461067d57610140565b80634c87c67d116101085780634c87c67d146102795780634e8c0bd61461028e5780635727dc5c146102a357806357dc3742146102b85780636349ca37146103f957806367e404ce1461042c57610140565b806303a507be146101455780630dbe671f1461016c5780631bab58f51461018157806329008824146102295780633b4a082814610264575b600080fd5b34801561015157600080fd5b5061015a610852565b60408051918252519081900360200190f35b34801561017857600080fd5b5061015a610876565b34801561018d57600080fd5b506101b4600480360360208110156101a457600080fd5b50356001600160a01b031661087b565b6040805160208082528351818301528351919283929083019185019080838360005b838110156101ee5781810151838201526020016101d6565b50505050905090810190601f16801561021b5780820380516001836020036101000a031916815260200191505b509250505060405180910390f35b34801561023557600080fd5b506102626004803603604081101561024c57600080fd5b506001600160a01b038135169060200135610a8a565b005b34801561027057600080fd5b5061015a610e49565b34801561028557600080fd5b5061015a610e4f565b34801561029a57600080fd5b5061015a610e55565b3480156102af57600080fd5b5061015a610e5b565b3480156102c457600080fd5b50610262600480360360a08110156102db57600080fd5b810190602081018135600160201b8111156102f557600080fd5b82018360208201111561030757600080fd5b803590602001918460018302840111600160201b8311171561032857600080fd5b91908080601f0160208091040260200160405190810160405280939291908181526020018383808284376000920191909152509295949360208101935035915050600160201b81111561037a57600080fd5b82018360208201111561038c57600080fd5b803590602001918460018302840111600160201b831117156103ad57600080fd5b91908080601f0160208091040260200160405190810160405280939291908181526020018383808284376000920191909152509295505082359350505060208101359060400135610e60565b34801561040557600080fd5b5061015a6004803603602081101561041c57600080fd5b50356001600160a01b0316610f8f565b34801561043857600080fd5b50610441610fad565b604080516001600160a01b039092168252519081900360200190f35b34801561046957600080fd5b5061015a610fbc565b34801561047e57600080fd5b50610487610fe0565b604080519115158252519081900360200190f35b61026260048036036101008110156104b257600080fd5b6001600160a01b038235169190810190604081016020820135600160201b8111156104dc57600080fd5b8201836020820111156104ee57600080fd5b803590602001918460208302840111600160201b8311171561050f57600080fd5b9190808060200260200160405190810160405280939291908181526020018383602002808284376000920191909152509295843595602086013595919450925060608101915060400135600160201b81111561056a57600080fd5b82018360208201111561057c57600080fd5b803590602001918460018302840111600160201b8311171561059d57600080fd5b91908080601f0160208091040260200160405190810160405280939291908181526020018383808284376000920191909152509295949360208101935035915050600160201b8111156105ef57600080fd5b82018360208201111561060157600080fd5b803590602001918460018302840111600160201b8311171561062257600080fd5b91908080601f0160208091040260200160405190810160405280939291908181526020018383808284376000920191909152509295505082359350505060200135610fe9565b34801561067457600080fd5b506101b461114a565b34801561068957600080fd5b5061015a6111d8565b34801561069e57600080fd5b50610441600480360360208110156106b557600080fd5b50356111de565b3480156106c857600080fd5b5061015a611205565b3480156106dd57600080fd5b5061026261120b565b3480156106f257600080fd5b5061015a6112d1565b34801561070757600080fd5b506101b46112db565b34801561071c57600080fd5b506107436004803603602081101561073357600080fd5b50356001600160a01b0316611336565b60405180806020018060200188815260200187815260200186815260200185815260200184600581111561077357fe5b60ff16815260200183810383528a818151815260200191508051906020019080838360005b838110156107b0578181015183820152602001610798565b50505050905090810190601f1680156107dd5780820380516001836020036101000a031916815260200191505b5083810382528951815289516020918201918b019080838360005b838110156108105781810151838201526020016107f8565b50505050905090810190601f16801561083d5780820380516001836020036101000a031916815260200191505b50995050505050505050505060405180910390f35b7f79be667ef9dcbbac55a06295ce870b07029bfcdb2dce28d959f2815b16f8179881565b600081565b606060006001600160a01b03831660009081526002602052604090206006015460ff1660058111156108a957fe5b14156108d6575060408051808201909152600a8152696e6f742065786973747360b01b6020820152610a85565b60016001600160a01b03831660009081526002602052604090206006015460ff16600581111561090257fe5b141561092c575060408051808201909152600781526618dc99585d195960ca1b6020820152610a85565b60026001600160a01b03831660009081526002602052604090206006015460ff16600581111561095857fe5b1415610984575060408051808201909152600981526818d85b98d95b1b195960ba1b6020820152610a85565b60036001600160a01b03831660009081526002602052604090206006015460ff1660058111156109b057fe5b14156109db57506040805180820190915260088152671858d8d95c1d195960c21b6020820152610a85565b60046001600160a01b03831660009081526002602052604090206006015460ff166005811115610a0757fe5b1415610a325750604080518082019091526008815267199a5b9a5cda195960c21b6020820152610a85565b60056001600160a01b03831660009081526002602052604090206006015460ff166005811115610a5e57fe5b1415610a8557506040805180820190915260088152671c995a9958dd195960c21b60208201525b919050565b600080600080600080600854600a540142101580610aac575060015460035410155b610ae75760405162461bcd60e51b815260040180806020018281038252605c815260200180611c3a605c913960600191505060405180910390fd5b6000546001600160a01b03163314610b305760405162461bcd60e51b8152600401808060200182810382526026815260200180611bc56026913960400191505060405180910390fd5b610b8a877f79be667ef9dcbbac55a06295ce870b07029bfcdb2dce28d959f2815b16f817987f483ada7726a3c4655da4fbfc0e1108a8fd17b448a68554199c47d08ffb10d4b860006401000003d01963ffffffff61149116565b6001600160a01b038a1660009081526002602081905260408220908101546003820154600490920154949a50929850610bd19392916401000003d01963ffffffff61149116565b9094509250610bf18686868660006401000003d01963ffffffff6114cb16565b6004549193509150821415610c375760405162461bcd60e51b8152600401808060200182810382526023815260200180611cb86023913960400191505060405180910390fd5b806005541415610c785760405162461bcd60e51b8152600401808060200182810382526023815260200180611cb86023913960400191505060405180910390fd5b60405133904780156108fc02916000818181858888f19350505050158015610ca4573d6000803e3d6000fd5b5060005b600154811015610e3e57876002600060018481548110610cc457fe5b60009182526020808320909101546001600160a01b0316835282019290925260400190206005015560036002600060018481548110610cff57fe5b60009182526020808320909101546001600160a01b0316835282019290925260400190206006015460ff166005811115610d3557fe5b1415610d935760046002600060018481548110610d4e57fe5b60009182526020808320909101546001600160a01b031683528201929092526040019020600601805460ff19166001836005811115610d8957fe5b0217905550610e36565b60016002600060018481548110610da657fe5b60009182526020808320909101546001600160a01b0316835282019290925260400190206006015460ff166005811115610ddc57fe5b1415610e365760056002600060018481548110610df557fe5b60009182526020808320909101546001600160a01b031683528201929092526040019020600601805460ff19166001836005811115610e3057fe5b02179055505b600101610ca8565b505050505050505050565b60095481565b60085481565b60045481565b600781565b600854600a54014210610ea45760405162461bcd60e51b8152600401808060200182810382526022815260200180611c966022913960400191505060405180910390fd5b60013360009081526002602052604090206006015460ff166005811115610ec757fe5b14610f035760405162461bcd60e51b815260040180806020018281038252602e815260200180611d08602e913960400191505060405180910390fd5b6003805460010190553360009081526002602090815260409091208651610f2c92880190611a57565b503360009081526002602090815260409091208551610f5392600190920191870190611a57565b503360009081526002602081905260409091209081019390935560038084019290925560048301556006909101805460ff191690911790555050565b6001600160a01b031660009081526002602052604090206005015490565b6000546001600160a01b031681565b7f483ada7726a3c4655da4fbfc0e1108a8fd17b448a68554199c47d08ffb10d4b881565b600b5460ff1681565b600034116110285760405162461bcd60e51b815260040180806020018281038252602d815260200180611cdb602d913960400191505060405180910390fd5b8082106110665760405162461bcd60e51b8152600401808060200182810382526029815260200180611beb6029913960400191505060405180910390fd5b600080546001600160a01b0319166001600160a01b038a1617905586516110949060019060208a0190611ad5565b5060005b6001548110156110fd57600160026000600184815481106110b557fe5b60009182526020808320909101546001600160a01b031683528201929092526040019020600601805460ff191660018360058111156110f057fe5b0217905550600101611098565b506000600355600486905560058590558351611120906006906020870190611a57565b508251611134906007906020860190611a57565b5042600a55600891909155600955505050505050565b6006805460408051602060026001851615610100026000190190941693909304601f810184900484028201840190925281815292918301828280156111d05780601f106111a5576101008083540402835291602001916111d0565b820191906000526020600020905b8154815290600101906020018083116111b357829003601f168201915b505050505081565b600a5481565b600181815481106111eb57fe5b6000918252602090912001546001600160a01b0316905081565b60055481565b600954600a54014210156112505760405162461bcd60e51b8152600401808060200182810382526026815260200180611c146026913960400191505060405180910390fd5b60033360009081526002602052604090206006015460ff16600581111561127357fe5b146112af5760405162461bcd60e51b815260040180806020018281038252602f815260200180611b96602f913960400191505060405180910390fd5b336000908152600260208190526040909120600601805460ff19169091179055565b6401000003d01981565b6007805460408051602060026001851615610100026000190190941693909304601f810184900484028201840190925281815292918301828280156111d05780601f106111a5576101008083540402835291602001916111d0565b600260208181526000928352604092839020805484516001821615610100026000190190911693909304601f81018390048302840183019094528383529283918301828280156113c75780601f1061139c576101008083540402835291602001916113c7565b820191906000526020600020905b8154815290600101906020018083116113aa57829003601f168201915b505050505090806001018054600181600116156101000203166002900480601f0160208091040260200160405190810160405280929190818152602001828054600181600116156101000203166002900480156114655780601f1061143a57610100808354040283529160200191611465565b820191906000526020600020905b81548152906001019060200180831161144857829003601f168201915b505050600284015460038501546004860154600587015460069097015495969295919450925060ff1687565b60008060008060006114a88a8a8a60018b8b61154a565b9250925092506114ba838383896115c1565b945094505050509550959350505050565b6000808080808a8914156115125785806114e157fe5b888b086114f857506000935083925061153f915050565b6115068b8b60018a8a611618565b9194509250905061152b565b6115238b8b60018c8c60018c61172e565b919450925090505b611537838383896115c1565b945094505050505b965096945050505050565b60008080886115605750869150859050846115b5565b8860008060015b83156115ac57600184161561158d576115858383838f8f8f8e61172e565b919450925090505b6002840493506115a08c8c8c8c8c611618565b919d509b509950611567565b91955093509150505b96509650969350505050565b60008060006115d085856119ab565b9050600084806115dc57fe5b8283099050600085806115eb57fe5b828a099050600086806115fa57fe5b878061160257fe5b8486098a09919a91995090975050505050505050565b600080808561162e575086915085905084611723565b6000848061163857fe5b898a0990506000858061164757fe5b898a0990506000868061165657fe5b898a0990506000878061166557fe5b888061166d57fe5b848e0960040990506000888061167f57fe5b898061168757fe5b8a8061168f57fe5b8586098c098a8061169c57fe5b8760030908905088806116ab57fe5b89806116b357fe5b8384088a038a806116c057fe5b83840908945088806116ce57fe5b89806116d657fe5b8a806116de57fe5b8687096008098a038a806116ee57fe5b8b806116f657fe5b888d0386088409089350888061170857fe5b898061171057fe5b8c8e096002099497509295509293505050505b955095509592505050565b600080808915801561173e575088155b1561175057508591508490508361199e565b8615801561175c575085155b1561176e57508891508790508661199e565b611776611b36565b848061177e57fe5b898a098152848061178b57fe5b81518a096020820152848061179c57fe5b868709604082015284806117ac57fe5b60408201518709606082015260408051608081019091528086806117cc57fe5b60408401518e09815260200186806117e057fe5b60608401518d09815260200186806117f457fe5b83518b098152602001868061180557fe5b60208401518a0990526040810151815191925014158061182d57506060810151602082015114155b61187e576040805162461bcd60e51b815260206004820152601e60248201527f557365206a6163446f75626c652066756e6374696f6e20696e73746561640000604482015290519081900360640190fd5b611886611b36565b858061188e57fe5b825160408401519088039008815285806118a457fe5b602083015160608401519088039008602082015285806118c057fe5b81518009604082015285806118d157fe5b81516040830151096060820152600086806118e857fe5b6060830151880388806118f757fe5b60208501518009089050868061190957fe5b878061191157fe5b888061191957fe5b60408501518651096002098803820890506000878061193457fe5b888061193c57fe5b838a038a8061194757fe5b6040870151885109086020850151099050878061196057fe5b888061196857fe5b60608501516020870151098903820890506000888061198357fe5b898061198b57fe5b8b8f098551099297509095509093505050505b9750975097945050505050565b600082158015906119bc5750818314155b80156119c757508115155b611a09576040805162461bcd60e51b815260206004820152600e60248201526d24b73b30b634b210373ab6b132b960911b604482015290519081900360640190fd5b6000600183825b8615611a4c57868281611a1f57fe5b049050828680611a2b57fe5b8780611a3357fe5b8584098803860882890290930397909450919250611a10565b509195945050505050565b828054600181600116156101000203166002900490600052602060002090601f016020900481019282601f10611a9857805160ff1916838001178555611ac5565b82800160010185558215611ac5579182015b82811115611ac5578251825591602001919060010190611aaa565b50611ad1929150611b54565b5090565b828054828255906000526020600020908101928215611b2a579160200282015b82811115611b2a57825182546001600160a01b0319166001600160a01b03909116178255602090920191600190910190611af5565b50611ad1929150611b71565b60405180608001604052806004906020820280368337509192915050565b611b6e91905b80821115611ad15760008155600101611b5a565b90565b611b6e91905b80821115611ad15780546001600160a01b0319168155600101611b7756fe4f6e6c7920726563656976657273207769746820276163636570746564272073746174652063616e2063616e63656c4f6e6c792073656e646572206f66207468652064656c69766572792063616e2066696e69736854696d656f7574207465726d32206d7573742062652067726561746572207468616e205f7465726d315468652074696d656f7574207465726d3220686173206e6f74206265656e20726561636865645468652074696d656f7574207465726d3120686173206e6f74206265656e207265616368656420616e64206e6f7420616c6c207265636569766572732068617665206265656e206163636570746564207468652064656c69766572795468652074696d656f7574207465726d3120686173206265656e20726561636865645620616e642047785b72695d2b4269785b63695d20617265206e6f7420657175616c7353656e6465722068617320746f2073656e642061206465706f736974206f66206d696e696d756e2031207765694f6e6c79207265636569766572732077697468202763726561746564272073746174652063616e20616363657074a264697066735822122076b3ad2dd0d571129903ff9617bce0b483c94cb68a8ddf983559aed503ad186264736f6c63430006060033",
  "linkReferences": {},
  "deployedLinkReferences": {}
}